{
	"contracts/Tweet-like.sol": {
		"Twitter": {
			"abi": [
				{
					"inputs": [],
					"stateMutability": "nonpayable",
					"type": "constructor"
				},
				{
					"inputs": [],
					"name": "MAX_TWEET_LENGTH",
					"outputs": [
						{
							"internalType": "uint16",
							"name": "",
							"type": "uint16"
						}
					],
					"stateMutability": "view",
					"type": "function"
				},
				{
					"inputs": [
						{
							"internalType": "uint16",
							"name": "newTweetLength",
							"type": "uint16"
						}
					],
					"name": "changeTweetLength",
					"outputs": [],
					"stateMutability": "nonpayable",
					"type": "function"
				},
				{
					"inputs": [
						{
							"internalType": "string",
							"name": "_tweet",
							"type": "string"
						}
					],
					"name": "createTweet",
					"outputs": [],
					"stateMutability": "nonpayable",
					"type": "function"
				},
				{
					"inputs": [
						{
							"internalType": "address",
							"name": "_owner",
							"type": "address"
						}
					],
					"name": "getAllTweets",
					"outputs": [
						{
							"components": [
								{
									"internalType": "uint256",
									"name": "id",
									"type": "uint256"
								},
								{
									"internalType": "address",
									"name": "author",
									"type": "address"
								},
								{
									"internalType": "string",
									"name": "content",
									"type": "string"
								},
								{
									"internalType": "uint256",
									"name": "timestamp",
									"type": "uint256"
								},
								{
									"internalType": "uint256",
									"name": "likes",
									"type": "uint256"
								}
							],
							"internalType": "struct Twitter.Tweet[]",
							"name": "",
							"type": "tuple[]"
						}
					],
					"stateMutability": "view",
					"type": "function"
				},
				{
					"inputs": [
						{
							"internalType": "uint256",
							"name": "_i",
							"type": "uint256"
						}
					],
					"name": "getTweet",
					"outputs": [
						{
							"components": [
								{
									"internalType": "uint256",
									"name": "id",
									"type": "uint256"
								},
								{
									"internalType": "address",
									"name": "author",
									"type": "address"
								},
								{
									"internalType": "string",
									"name": "content",
									"type": "string"
								},
								{
									"internalType": "uint256",
									"name": "timestamp",
									"type": "uint256"
								},
								{
									"internalType": "uint256",
									"name": "likes",
									"type": "uint256"
								}
							],
							"internalType": "struct Twitter.Tweet",
							"name": "",
							"type": "tuple"
						}
					],
					"stateMutability": "view",
					"type": "function"
				},
				{
					"inputs": [
						{
							"internalType": "address",
							"name": "author",
							"type": "address"
						},
						{
							"internalType": "uint256",
							"name": "id",
							"type": "uint256"
						}
					],
					"name": "likeTweet",
					"outputs": [],
					"stateMutability": "nonpayable",
					"type": "function"
				},
				{
					"inputs": [],
					"name": "owner",
					"outputs": [
						{
							"internalType": "address",
							"name": "",
							"type": "address"
						}
					],
					"stateMutability": "view",
					"type": "function"
				},
				{
					"inputs": [
						{
							"internalType": "address",
							"name": "",
							"type": "address"
						},
						{
							"internalType": "uint256",
							"name": "",
							"type": "uint256"
						}
					],
					"name": "tweets",
					"outputs": [
						{
							"internalType": "uint256",
							"name": "id",
							"type": "uint256"
						},
						{
							"internalType": "address",
							"name": "author",
							"type": "address"
						},
						{
							"internalType": "string",
							"name": "content",
							"type": "string"
						},
						{
							"internalType": "uint256",
							"name": "timestamp",
							"type": "uint256"
						},
						{
							"internalType": "uint256",
							"name": "likes",
							"type": "uint256"
						}
					],
					"stateMutability": "view",
					"type": "function"
				}
			],
			"devdoc": {
				"kind": "dev",
				"methods": {},
				"version": 1
			},
			"evm": {
				"assembly": "    /* \"contracts/Tweet-like.sol\":470:1868  contract Twitter {... */\n  mstore(0x40, 0x80)\n    /* \"contracts/Tweet-like.sol\":527:530  280 */\n  0x0118\n    /* \"contracts/Tweet-like.sol\":494:530  uint16 public MAX_TWEET_LENGTH = 280 */\n  0x00\n  dup1\n  0x0100\n  exp\n  dup2\n  sload\n  dup2\n  0xffff\n  mul\n  not\n  and\n  swap1\n  dup4\n  0xffff\n  and\n  mul\n  or\n  swap1\n  sstore\n  pop\n    /* \"contracts/Tweet-like.sol\":755:804  constructor() {... */\n  callvalue\n  dup1\n  iszero\n  tag_1\n  jumpi\n  0x00\n  dup1\n  revert\ntag_1:\n  pop\n    /* \"contracts/Tweet-like.sol\":787:797  msg.sender */\n  caller\n    /* \"contracts/Tweet-like.sol\":779:784  owner */\n  0x02\n  0x00\n    /* \"contracts/Tweet-like.sol\":779:797  owner = msg.sender */\n  0x0100\n  exp\n  dup2\n  sload\n  dup2\n  0xffffffffffffffffffffffffffffffffffffffff\n  mul\n  not\n  and\n  swap1\n  dup4\n  0xffffffffffffffffffffffffffffffffffffffff\n  and\n  mul\n  or\n  swap1\n  sstore\n  pop\n    /* \"contracts/Tweet-like.sol\":470:1868  contract Twitter {... */\n  dataSize(sub_0)\n  dup1\n  dataOffset(sub_0)\n  0x00\n  codecopy\n  0x00\n  return\nstop\n\nsub_0: assembly {\n        /* \"contracts/Tweet-like.sol\":470:1868  contract Twitter {... */\n      mstore(0x40, 0x80)\n      callvalue\n      dup1\n      iszero\n      tag_1\n      jumpi\n      0x00\n      dup1\n      revert\n    tag_1:\n      pop\n      jumpi(tag_2, lt(calldatasize, 0x04))\n      shr(0xe0, calldataload(0x00))\n      dup1\n      0x6eb10797\n      gt\n      tag_11\n      jumpi\n      dup1\n      0x6eb10797\n      eq\n      tag_7\n      jumpi\n      dup1\n      0x7c9cd2bc\n      eq\n      tag_8\n      jumpi\n      dup1\n      0x8da5cb5b\n      eq\n      tag_9\n      jumpi\n      dup1\n      0xc3ad5ecb\n      eq\n      tag_10\n      jumpi\n      jump(tag_2)\n    tag_11:\n      dup1\n      0x05a1b4a9\n      eq\n      tag_3\n      jumpi\n      dup1\n      0x12e7ee1c\n      eq\n      tag_4\n      jumpi\n      dup1\n      0x58bfa4ab\n      eq\n      tag_5\n      jumpi\n      dup1\n      0x63378216\n      eq\n      tag_6\n      jumpi\n    tag_2:\n      0x00\n      dup1\n      revert\n        /* \"contracts/Tweet-like.sol\":680:722  mapping(address => Tweet[] ) public tweets */\n    tag_3:\n      tag_12\n      0x04\n      dup1\n      calldatasize\n      sub\n      dup2\n      add\n      swap1\n      tag_13\n      swap2\n      swap1\n      tag_14\n      jump\t// in\n    tag_13:\n      tag_15\n      jump\t// in\n    tag_12:\n      mload(0x40)\n      tag_16\n      swap6\n      swap5\n      swap4\n      swap3\n      swap2\n      swap1\n      tag_17\n      jump\t// in\n    tag_16:\n      mload(0x40)\n      dup1\n      swap2\n      sub\n      swap1\n      return\n        /* \"contracts/Tweet-like.sol\":1752:1865  function getAllTweets(address _owner) public view returns (Tweet[] memory ){... */\n    tag_4:\n      tag_18\n      0x04\n      dup1\n      calldatasize\n      sub\n      dup2\n      add\n      swap1\n      tag_19\n      swap2\n      swap1\n      tag_20\n      jump\t// in\n    tag_19:\n      tag_21\n      jump\t// in\n    tag_18:\n      mload(0x40)\n      tag_22\n      swap2\n      swap1\n      tag_23\n      jump\t// in\n    tag_22:\n      mload(0x40)\n      dup1\n      swap2\n      sub\n      swap1\n      return\n        /* \"contracts/Tweet-like.sol\":919:1036  function changeTweetLength(uint16 newTweetLength) public onlyOwner {... */\n    tag_5:\n      tag_24\n      0x04\n      dup1\n      calldatasize\n      sub\n      dup2\n      add\n      swap1\n      tag_25\n      swap2\n      swap1\n      tag_26\n      jump\t// in\n    tag_25:\n      tag_27\n      jump\t// in\n    tag_24:\n      stop\n        /* \"contracts/Tweet-like.sol\":1453:1631  function likeTweet(address author, uint256 id) external {... */\n    tag_6:\n      tag_28\n      0x04\n      dup1\n      calldatasize\n      sub\n      dup2\n      add\n      swap1\n      tag_29\n      swap2\n      swap1\n      tag_14\n      jump\t// in\n    tag_29:\n      tag_30\n      jump\t// in\n    tag_28:\n      stop\n        /* \"contracts/Tweet-like.sol\":494:530  uint16 public MAX_TWEET_LENGTH = 280 */\n    tag_7:\n      tag_31\n      tag_32\n      jump\t// in\n    tag_31:\n      mload(0x40)\n      tag_33\n      swap2\n      swap1\n      tag_34\n      jump\t// in\n    tag_33:\n      mload(0x40)\n      dup1\n      swap2\n      sub\n      swap1\n      return\n        /* \"contracts/Tweet-like.sol\":1042:1447  function createTweet(string memory _tweet) public {... */\n    tag_8:\n      tag_35\n      0x04\n      dup1\n      calldatasize\n      sub\n      dup2\n      add\n      swap1\n      tag_36\n      swap2\n      swap1\n      tag_37\n      jump\t// in\n    tag_36:\n      tag_38\n      jump\t// in\n    tag_35:\n      stop\n        /* \"contracts/Tweet-like.sol\":728:748  address public owner */\n    tag_9:\n      tag_39\n      tag_40\n      jump\t// in\n    tag_39:\n      mload(0x40)\n      tag_41\n      swap2\n      swap1\n      tag_42\n      jump\t// in\n    tag_41:\n      mload(0x40)\n      dup1\n      swap2\n      sub\n      swap1\n      return\n        /* \"contracts/Tweet-like.sol\":1637:1746  function getTweet( uint _i) public view returns (Tweet memory) {... */\n    tag_10:\n      tag_43\n      0x04\n      dup1\n      calldatasize\n      sub\n      dup2\n      add\n      swap1\n      tag_44\n      swap2\n      swap1\n      tag_45\n      jump\t// in\n    tag_44:\n      tag_46\n      jump\t// in\n    tag_43:\n      mload(0x40)\n      tag_47\n      swap2\n      swap1\n      tag_48\n      jump\t// in\n    tag_47:\n      mload(0x40)\n      dup1\n      swap2\n      sub\n      swap1\n      return\n        /* \"contracts/Tweet-like.sol\":680:722  mapping(address => Tweet[] ) public tweets */\n    tag_15:\n      mstore(0x20, 0x01)\n      dup2\n      0x00\n      mstore\n      keccak256(0x00, 0x40)\n      dup2\n      dup2\n      sload\n      dup2\n      lt\n      tag_49\n      jumpi\n      0x00\n      dup1\n      revert\n    tag_49:\n      swap1\n      0x00\n      mstore\n      keccak256(0x00, 0x20)\n      swap1\n      0x05\n      mul\n      add\n      0x00\n      swap2\n      pop\n      swap2\n      pop\n      pop\n      dup1\n      0x00\n      add\n      sload\n      swap1\n      dup1\n      0x01\n      add\n      0x00\n      swap1\n      sload\n      swap1\n      0x0100\n      exp\n      swap1\n      div\n      0xffffffffffffffffffffffffffffffffffffffff\n      and\n      swap1\n      dup1\n      0x02\n      add\n      dup1\n      sload\n      tag_51\n      swap1\n      tag_52\n      jump\t// in\n    tag_51:\n      dup1\n      0x1f\n      add\n      0x20\n      dup1\n      swap2\n      div\n      mul\n      0x20\n      add\n      mload(0x40)\n      swap1\n      dup2\n      add\n      0x40\n      mstore\n      dup1\n      swap3\n      swap2\n      swap1\n      dup2\n      dup2\n      mstore\n      0x20\n      add\n      dup3\n      dup1\n      sload\n      tag_53\n      swap1\n      tag_52\n      jump\t// in\n    tag_53:\n      dup1\n      iszero\n      tag_54\n      jumpi\n      dup1\n      0x1f\n      lt\n      tag_55\n      jumpi\n      0x0100\n      dup1\n      dup4\n      sload\n      div\n      mul\n      dup4\n      mstore\n      swap2\n      0x20\n      add\n      swap2\n      jump(tag_54)\n    tag_55:\n      dup3\n      add\n      swap2\n      swap1\n      0x00\n      mstore\n      keccak256(0x00, 0x20)\n      swap1\n    tag_56:\n      dup2\n      sload\n      dup2\n      mstore\n      swap1\n      0x01\n      add\n      swap1\n      0x20\n      add\n      dup1\n      dup4\n      gt\n      tag_56\n      jumpi\n      dup3\n      swap1\n      sub\n      0x1f\n      and\n      dup3\n      add\n      swap2\n    tag_54:\n      pop\n      pop\n      pop\n      pop\n      pop\n      swap1\n      dup1\n      0x03\n      add\n      sload\n      swap1\n      dup1\n      0x04\n      add\n      sload\n      swap1\n      pop\n      dup6\n      jump\t// out\n        /* \"contracts/Tweet-like.sol\":1752:1865  function getAllTweets(address _owner) public view returns (Tweet[] memory ){... */\n    tag_21:\n        /* \"contracts/Tweet-like.sol\":1811:1825  Tweet[] memory */\n      0x60\n        /* \"contracts/Tweet-like.sol\":1844:1850  tweets */\n      0x01\n        /* \"contracts/Tweet-like.sol\":1844:1858  tweets[_owner] */\n      0x00\n        /* \"contracts/Tweet-like.sol\":1851:1857  _owner */\n      dup4\n        /* \"contracts/Tweet-like.sol\":1844:1858  tweets[_owner] */\n      0xffffffffffffffffffffffffffffffffffffffff\n      and\n      0xffffffffffffffffffffffffffffffffffffffff\n      and\n      dup2\n      mstore\n      0x20\n      add\n      swap1\n      dup2\n      mstore\n      0x20\n      add\n      0x00\n      keccak256\n        /* \"contracts/Tweet-like.sol\":1837:1858  return tweets[_owner] */\n      dup1\n      sload\n      dup1\n      0x20\n      mul\n      0x20\n      add\n      mload(0x40)\n      swap1\n      dup2\n      add\n      0x40\n      mstore\n      dup1\n      swap3\n      swap2\n      swap1\n      dup2\n      dup2\n      mstore\n      0x20\n      add\n      0x00\n      swap1\n    tag_58:\n      dup3\n      dup3\n      lt\n      iszero\n      tag_59\n      jumpi\n      dup4\n      dup3\n      swap1\n      0x00\n      mstore\n      keccak256(0x00, 0x20)\n      swap1\n      0x05\n      mul\n      add\n      mload(0x40)\n      dup1\n      0xa0\n      add\n      0x40\n      mstore\n      swap1\n      dup2\n      0x00\n      dup3\n      add\n      sload\n      dup2\n      mstore\n      0x20\n      add\n      0x01\n      dup3\n      add\n      0x00\n      swap1\n      sload\n      swap1\n      0x0100\n      exp\n      swap1\n      div\n      0xffffffffffffffffffffffffffffffffffffffff\n      and\n      0xffffffffffffffffffffffffffffffffffffffff\n      and\n      0xffffffffffffffffffffffffffffffffffffffff\n      and\n      dup2\n      mstore\n      0x20\n      add\n      0x02\n      dup3\n      add\n      dup1\n      sload\n      tag_61\n      swap1\n      tag_52\n      jump\t// in\n    tag_61:\n      dup1\n      0x1f\n      add\n      0x20\n      dup1\n      swap2\n      div\n      mul\n      0x20\n      add\n      mload(0x40)\n      swap1\n      dup2\n      add\n      0x40\n      mstore\n      dup1\n      swap3\n      swap2\n      swap1\n      dup2\n      dup2\n      mstore\n      0x20\n      add\n      dup3\n      dup1\n      sload\n      tag_62\n      swap1\n      tag_52\n      jump\t// in\n    tag_62:\n      dup1\n      iszero\n      tag_63\n      jumpi\n      dup1\n      0x1f\n      lt\n      tag_64\n      jumpi\n      0x0100\n      dup1\n      dup4\n      sload\n      div\n      mul\n      dup4\n      mstore\n      swap2\n      0x20\n      add\n      swap2\n      jump(tag_63)\n    tag_64:\n      dup3\n      add\n      swap2\n      swap1\n      0x00\n      mstore\n      keccak256(0x00, 0x20)\n      swap1\n    tag_65:\n      dup2\n      sload\n      dup2\n      mstore\n      swap1\n      0x01\n      add\n      swap1\n      0x20\n      add\n      dup1\n      dup4\n      gt\n      tag_65\n      jumpi\n      dup3\n      swap1\n      sub\n      0x1f\n      and\n      dup3\n      add\n      swap2\n    tag_63:\n      pop\n      pop\n      pop\n      pop\n      pop\n      dup2\n      mstore\n      0x20\n      add\n      0x03\n      dup3\n      add\n      sload\n      dup2\n      mstore\n      0x20\n      add\n      0x04\n      dup3\n      add\n      sload\n      dup2\n      mstore\n      pop\n      pop\n      dup2\n      mstore\n      0x20\n      add\n      swap1\n      0x01\n      add\n      swap1\n      jump(tag_58)\n    tag_59:\n      pop\n      pop\n      pop\n      pop\n      swap1\n      pop\n        /* \"contracts/Tweet-like.sol\":1752:1865  function getAllTweets(address _owner) public view returns (Tweet[] memory ){... */\n      swap2\n      swap1\n      pop\n      jump\t// out\n        /* \"contracts/Tweet-like.sol\":919:1036  function changeTweetLength(uint16 newTweetLength) public onlyOwner {... */\n    tag_27:\n        /* \"contracts/Tweet-like.sol\":863:868  owner */\n      0x02\n      0x00\n      swap1\n      sload\n      swap1\n      0x0100\n      exp\n      swap1\n      div\n      0xffffffffffffffffffffffffffffffffffffffff\n      and\n        /* \"contracts/Tweet-like.sol\":849:868  msg.sender == owner */\n      0xffffffffffffffffffffffffffffffffffffffff\n      and\n        /* \"contracts/Tweet-like.sol\":849:859  msg.sender */\n      caller\n        /* \"contracts/Tweet-like.sol\":849:868  msg.sender == owner */\n      0xffffffffffffffffffffffffffffffffffffffff\n      and\n      eq\n        /* \"contracts/Tweet-like.sol\":841:895  require(msg.sender == owner, \"YOU ARE NOT THE OWNER!\") */\n      tag_67\n      jumpi\n      mload(0x40)\n      0x08c379a000000000000000000000000000000000000000000000000000000000\n      dup2\n      mstore\n      0x04\n      add\n      tag_68\n      swap1\n      tag_69\n      jump\t// in\n    tag_68:\n      mload(0x40)\n      dup1\n      swap2\n      sub\n      swap1\n      revert\n    tag_67:\n        /* \"contracts/Tweet-like.sol\":1015:1029  newTweetLength */\n      dup1\n        /* \"contracts/Tweet-like.sol\":996:1012  MAX_TWEET_LENGTH */\n      0x00\n      dup1\n        /* \"contracts/Tweet-like.sol\":996:1029  MAX_TWEET_LENGTH = newTweetLength */\n      0x0100\n      exp\n      dup2\n      sload\n      dup2\n      0xffff\n      mul\n      not\n      and\n      swap1\n      dup4\n      0xffff\n      and\n      mul\n      or\n      swap1\n      sstore\n      pop\n        /* \"contracts/Tweet-like.sol\":919:1036  function changeTweetLength(uint16 newTweetLength) public onlyOwner {... */\n      pop\n      jump\t// out\n        /* \"contracts/Tweet-like.sol\":1453:1631  function likeTweet(address author, uint256 id) external {... */\n    tag_30:\n        /* \"contracts/Tweet-like.sol\":1552:1554  id */\n      dup1\n        /* \"contracts/Tweet-like.sol\":1527:1533  tweets */\n      0x01\n        /* \"contracts/Tweet-like.sol\":1527:1541  tweets[author] */\n      0x00\n        /* \"contracts/Tweet-like.sol\":1534:1540  author */\n      dup5\n        /* \"contracts/Tweet-like.sol\":1527:1541  tweets[author] */\n      0xffffffffffffffffffffffffffffffffffffffff\n      and\n      0xffffffffffffffffffffffffffffffffffffffff\n      and\n      dup2\n      mstore\n      0x20\n      add\n      swap1\n      dup2\n      mstore\n      0x20\n      add\n      0x00\n      keccak256\n        /* \"contracts/Tweet-like.sol\":1542:1544  id */\n      dup3\n        /* \"contracts/Tweet-like.sol\":1527:1545  tweets[author][id] */\n      dup2\n      sload\n      dup2\n      lt\n      tag_72\n      jumpi\n      tag_73\n      tag_74\n      jump\t// in\n    tag_73:\n    tag_72:\n      swap1\n      0x00\n      mstore\n      keccak256(0x00, 0x20)\n      swap1\n      0x05\n      mul\n      add\n        /* \"contracts/Tweet-like.sol\":1527:1548  tweets[author][id].id */\n      0x00\n      add\n      sload\n        /* \"contracts/Tweet-like.sol\":1527:1554  tweets[author][id].id == id */\n      eq\n        /* \"contracts/Tweet-like.sol\":1519:1579  require(tweets[author][id].id == id, \"Tweet does not exist\") */\n      tag_76\n      jumpi\n      mload(0x40)\n      0x08c379a000000000000000000000000000000000000000000000000000000000\n      dup2\n      mstore\n      0x04\n      add\n      tag_77\n      swap1\n      tag_78\n      jump\t// in\n    tag_77:\n      mload(0x40)\n      dup1\n      swap2\n      sub\n      swap1\n      revert\n    tag_76:\n        /* \"contracts/Tweet-like.sol\":1598:1604  tweets */\n      0x01\n        /* \"contracts/Tweet-like.sol\":1598:1612  tweets[author] */\n      0x00\n        /* \"contracts/Tweet-like.sol\":1605:1611  author */\n      dup4\n        /* \"contracts/Tweet-like.sol\":1598:1612  tweets[author] */\n      0xffffffffffffffffffffffffffffffffffffffff\n      and\n      0xffffffffffffffffffffffffffffffffffffffff\n      and\n      dup2\n      mstore\n      0x20\n      add\n      swap1\n      dup2\n      mstore\n      0x20\n      add\n      0x00\n      keccak256\n        /* \"contracts/Tweet-like.sol\":1613:1615  id */\n      dup2\n        /* \"contracts/Tweet-like.sol\":1598:1616  tweets[author][id] */\n      dup2\n      sload\n      dup2\n      lt\n      tag_79\n      jumpi\n      tag_80\n      tag_74\n      jump\t// in\n    tag_80:\n    tag_79:\n      swap1\n      0x00\n      mstore\n      keccak256(0x00, 0x20)\n      swap1\n      0x05\n      mul\n      add\n        /* \"contracts/Tweet-like.sol\":1598:1622  tweets[author][id].likes */\n      0x04\n      add\n      0x00\n        /* \"contracts/Tweet-like.sol\":1598:1624  tweets[author][id].likes++ */\n      dup2\n      sload\n      dup1\n      swap3\n      swap2\n      swap1\n      tag_82\n      swap1\n      tag_83\n      jump\t// in\n    tag_82:\n      swap2\n      swap1\n      pop\n      sstore\n      pop\n        /* \"contracts/Tweet-like.sol\":1453:1631  function likeTweet(address author, uint256 id) external {... */\n      pop\n      pop\n      jump\t// out\n        /* \"contracts/Tweet-like.sol\":494:530  uint16 public MAX_TWEET_LENGTH = 280 */\n    tag_32:\n      0x00\n      dup1\n      sload\n      swap1\n      0x0100\n      exp\n      swap1\n      div\n      0xffff\n      and\n      dup2\n      jump\t// out\n        /* \"contracts/Tweet-like.sol\":1042:1447  function createTweet(string memory _tweet) public {... */\n    tag_38:\n        /* \"contracts/Tweet-like.sol\":1134:1150  MAX_TWEET_LENGTH */\n      0x00\n      dup1\n      sload\n      swap1\n      0x0100\n      exp\n      swap1\n      div\n      0xffff\n      and\n        /* \"contracts/Tweet-like.sol\":1110:1150  bytes(_tweet).length <= MAX_TWEET_LENGTH */\n      0xffff\n      and\n        /* \"contracts/Tweet-like.sol\":1116:1122  _tweet */\n      dup2\n        /* \"contracts/Tweet-like.sol\":1110:1130  bytes(_tweet).length */\n      mload\n        /* \"contracts/Tweet-like.sol\":1110:1150  bytes(_tweet).length <= MAX_TWEET_LENGTH */\n      gt\n      iszero\n        /* \"contracts/Tweet-like.sol\":1102:1178  require(bytes(_tweet).length <= MAX_TWEET_LENGTH, \"Tweet is too long bro!\" ) */\n      tag_85\n      jumpi\n      mload(0x40)\n      0x08c379a000000000000000000000000000000000000000000000000000000000\n      dup2\n      mstore\n      0x04\n      add\n      tag_86\n      swap1\n      tag_87\n      jump\t// in\n    tag_86:\n      mload(0x40)\n      dup1\n      swap2\n      sub\n      swap1\n      revert\n    tag_85:\n        /* \"contracts/Tweet-like.sol\":1189:1210  Tweet memory newTweet */\n      0x00\n        /* \"contracts/Tweet-like.sol\":1213:1396  Tweet({... */\n      mload(0x40)\n      dup1\n      0xa0\n      add\n      0x40\n      mstore\n      dup1\n        /* \"contracts/Tweet-like.sol\":1237:1243  tweets */\n      0x01\n        /* \"contracts/Tweet-like.sol\":1237:1255  tweets[msg.sender] */\n      0x00\n        /* \"contracts/Tweet-like.sol\":1244:1254  msg.sender */\n      caller\n        /* \"contracts/Tweet-like.sol\":1237:1255  tweets[msg.sender] */\n      0xffffffffffffffffffffffffffffffffffffffff\n      and\n      0xffffffffffffffffffffffffffffffffffffffff\n      and\n      dup2\n      mstore\n      0x20\n      add\n      swap1\n      dup2\n      mstore\n      0x20\n      add\n      0x00\n      keccak256\n        /* \"contracts/Tweet-like.sol\":1237:1262  tweets[msg.sender].length */\n      dup1\n      sload\n      swap1\n      pop\n        /* \"contracts/Tweet-like.sol\":1213:1396  Tweet({... */\n      dup2\n      mstore\n      0x20\n      add\n        /* \"contracts/Tweet-like.sol\":1284:1294  msg.sender */\n      caller\n        /* \"contracts/Tweet-like.sol\":1213:1396  Tweet({... */\n      0xffffffffffffffffffffffffffffffffffffffff\n      and\n      dup2\n      mstore\n      0x20\n      add\n        /* \"contracts/Tweet-like.sol\":1317:1323  _tweet */\n      dup4\n        /* \"contracts/Tweet-like.sol\":1213:1396  Tweet({... */\n      dup2\n      mstore\n      0x20\n      add\n        /* \"contracts/Tweet-like.sol\":1348:1363  block.timestamp */\n      timestamp\n        /* \"contracts/Tweet-like.sol\":1213:1396  Tweet({... */\n      dup2\n      mstore\n      0x20\n      add\n        /* \"contracts/Tweet-like.sol\":1384:1385  0 */\n      0x00\n        /* \"contracts/Tweet-like.sol\":1213:1396  Tweet({... */\n      dup2\n      mstore\n      pop\n        /* \"contracts/Tweet-like.sol\":1189:1396  Tweet memory newTweet = Tweet({... */\n      swap1\n      pop\n        /* \"contracts/Tweet-like.sol\":1407:1413  tweets */\n      0x01\n        /* \"contracts/Tweet-like.sol\":1407:1425  tweets[msg.sender] */\n      0x00\n        /* \"contracts/Tweet-like.sol\":1414:1424  msg.sender */\n      caller\n        /* \"contracts/Tweet-like.sol\":1407:1425  tweets[msg.sender] */\n      0xffffffffffffffffffffffffffffffffffffffff\n      and\n      0xffffffffffffffffffffffffffffffffffffffff\n      and\n      dup2\n      mstore\n      0x20\n      add\n      swap1\n      dup2\n      mstore\n      0x20\n      add\n      0x00\n      keccak256\n        /* \"contracts/Tweet-like.sol\":1431:1439  newTweet */\n      dup2\n        /* \"contracts/Tweet-like.sol\":1407:1440  tweets[msg.sender].push(newTweet) */\n      swap1\n      dup1\n      0x01\n      dup2\n      sload\n      add\n      dup1\n      dup3\n      sstore\n      dup1\n      swap2\n      pop\n      pop\n      0x01\n      swap1\n      sub\n      swap1\n      0x00\n      mstore\n      keccak256(0x00, 0x20)\n      swap1\n      0x05\n      mul\n      add\n      0x00\n      swap1\n      swap2\n      swap1\n      swap2\n      swap1\n      swap2\n      pop\n      0x00\n      dup3\n      add\n      mload\n      dup2\n      0x00\n      add\n      sstore\n      0x20\n      dup3\n      add\n      mload\n      dup2\n      0x01\n      add\n      exp(0x0100, 0x00)\n      dup2\n      sload\n      dup2\n      0xffffffffffffffffffffffffffffffffffffffff\n      mul\n      not\n      and\n      swap1\n      dup4\n      0xffffffffffffffffffffffffffffffffffffffff\n      and\n      mul\n      or\n      swap1\n      sstore\n      pop\n      0x40\n      dup3\n      add\n      mload\n      dup2\n      0x02\n      add\n      swap1\n      dup2\n      tag_89\n      swap2\n      swap1\n      tag_90\n      jump\t// in\n    tag_89:\n      pop\n      0x60\n      dup3\n      add\n      mload\n      dup2\n      0x03\n      add\n      sstore\n      0x80\n      dup3\n      add\n      mload\n      dup2\n      0x04\n      add\n      sstore\n      pop\n      pop\n        /* \"contracts/Tweet-like.sol\":1092:1447  {... */\n      pop\n        /* \"contracts/Tweet-like.sol\":1042:1447  function createTweet(string memory _tweet) public {... */\n      pop\n      jump\t// out\n        /* \"contracts/Tweet-like.sol\":728:748  address public owner */\n    tag_40:\n      0x02\n      0x00\n      swap1\n      sload\n      swap1\n      0x0100\n      exp\n      swap1\n      div\n      0xffffffffffffffffffffffffffffffffffffffff\n      and\n      dup2\n      jump\t// out\n        /* \"contracts/Tweet-like.sol\":1637:1746  function getTweet( uint _i) public view returns (Tweet memory) {... */\n    tag_46:\n        /* \"contracts/Tweet-like.sol\":1686:1698  Tweet memory */\n      tag_91\n      tag_92\n      jump\t// in\n    tag_91:\n        /* \"contracts/Tweet-like.sol\":1717:1723  tweets */\n      0x01\n        /* \"contracts/Tweet-like.sol\":1717:1735  tweets[msg.sender] */\n      0x00\n        /* \"contracts/Tweet-like.sol\":1724:1734  msg.sender */\n      caller\n        /* \"contracts/Tweet-like.sol\":1717:1735  tweets[msg.sender] */\n      0xffffffffffffffffffffffffffffffffffffffff\n      and\n      0xffffffffffffffffffffffffffffffffffffffff\n      and\n      dup2\n      mstore\n      0x20\n      add\n      swap1\n      dup2\n      mstore\n      0x20\n      add\n      0x00\n      keccak256\n        /* \"contracts/Tweet-like.sol\":1736:1738  _i */\n      dup3\n        /* \"contracts/Tweet-like.sol\":1717:1739  tweets[msg.sender][_i] */\n      dup2\n      sload\n      dup2\n      lt\n      tag_94\n      jumpi\n      tag_95\n      tag_74\n      jump\t// in\n    tag_95:\n    tag_94:\n      swap1\n      0x00\n      mstore\n      keccak256(0x00, 0x20)\n      swap1\n      0x05\n      mul\n      add\n        /* \"contracts/Tweet-like.sol\":1710:1739  return tweets[msg.sender][_i] */\n      mload(0x40)\n      dup1\n      0xa0\n      add\n      0x40\n      mstore\n      swap1\n      dup2\n      0x00\n      dup3\n      add\n      sload\n      dup2\n      mstore\n      0x20\n      add\n      0x01\n      dup3\n      add\n      0x00\n      swap1\n      sload\n      swap1\n      0x0100\n      exp\n      swap1\n      div\n      0xffffffffffffffffffffffffffffffffffffffff\n      and\n      0xffffffffffffffffffffffffffffffffffffffff\n      and\n      0xffffffffffffffffffffffffffffffffffffffff\n      and\n      dup2\n      mstore\n      0x20\n      add\n      0x02\n      dup3\n      add\n      dup1\n      sload\n      tag_97\n      swap1\n      tag_52\n      jump\t// in\n    tag_97:\n      dup1\n      0x1f\n      add\n      0x20\n      dup1\n      swap2\n      div\n      mul\n      0x20\n      add\n      mload(0x40)\n      swap1\n      dup2\n      add\n      0x40\n      mstore\n      dup1\n      swap3\n      swap2\n      swap1\n      dup2\n      dup2\n      mstore\n      0x20\n      add\n      dup3\n      dup1\n      sload\n      tag_98\n      swap1\n      tag_52\n      jump\t// in\n    tag_98:\n      dup1\n      iszero\n      tag_99\n      jumpi\n      dup1\n      0x1f\n      lt\n      tag_100\n      jumpi\n      0x0100\n      dup1\n      dup4\n      sload\n      div\n      mul\n      dup4\n      mstore\n      swap2\n      0x20\n      add\n      swap2\n      jump(tag_99)\n    tag_100:\n      dup3\n      add\n      swap2\n      swap1\n      0x00\n      mstore\n      keccak256(0x00, 0x20)\n      swap1\n    tag_101:\n      dup2\n      sload\n      dup2\n      mstore\n      swap1\n      0x01\n      add\n      swap1\n      0x20\n      add\n      dup1\n      dup4\n      gt\n      tag_101\n      jumpi\n      dup3\n      swap1\n      sub\n      0x1f\n      and\n      dup3\n      add\n      swap2\n    tag_99:\n      pop\n      pop\n      pop\n      pop\n      pop\n      dup2\n      mstore\n      0x20\n      add\n      0x03\n      dup3\n      add\n      sload\n      dup2\n      mstore\n      0x20\n      add\n      0x04\n      dup3\n      add\n      sload\n      dup2\n      mstore\n      pop\n      pop\n      swap1\n      pop\n        /* \"contracts/Tweet-like.sol\":1637:1746  function getTweet( uint _i) public view returns (Tweet memory) {... */\n      swap2\n      swap1\n      pop\n      jump\t// out\n    tag_92:\n      mload(0x40)\n      dup1\n      0xa0\n      add\n      0x40\n      mstore\n      dup1\n      0x00\n      dup2\n      mstore\n      0x20\n      add\n      and(0xffffffffffffffffffffffffffffffffffffffff, 0x00)\n      dup2\n      mstore\n      0x20\n      add\n      0x60\n      dup2\n      mstore\n      0x20\n      add\n      0x00\n      dup2\n      mstore\n      0x20\n      add\n      0x00\n      dup2\n      mstore\n      pop\n      swap1\n      jump\t// out\n        /* \"#utility.yul\":7:82   */\n    tag_102:\n        /* \"#utility.yul\":40:46   */\n      0x00\n        /* \"#utility.yul\":73:75   */\n      0x40\n        /* \"#utility.yul\":67:76   */\n      mload\n        /* \"#utility.yul\":57:76   */\n      swap1\n      pop\n        /* \"#utility.yul\":7:82   */\n      swap1\n      jump\t// out\n        /* \"#utility.yul\":88:205   */\n    tag_103:\n        /* \"#utility.yul\":197:198   */\n      0x00\n        /* \"#utility.yul\":194:195   */\n      dup1\n        /* \"#utility.yul\":187:199   */\n      revert\n        /* \"#utility.yul\":211:328   */\n    tag_104:\n        /* \"#utility.yul\":320:321   */\n      0x00\n        /* \"#utility.yul\":317:318   */\n      dup1\n        /* \"#utility.yul\":310:322   */\n      revert\n        /* \"#utility.yul\":334:460   */\n    tag_105:\n        /* \"#utility.yul\":371:378   */\n      0x00\n        /* \"#utility.yul\":411:453   */\n      0xffffffffffffffffffffffffffffffffffffffff\n        /* \"#utility.yul\":404:409   */\n      dup3\n        /* \"#utility.yul\":400:454   */\n      and\n        /* \"#utility.yul\":389:454   */\n      swap1\n      pop\n        /* \"#utility.yul\":334:460   */\n      swap2\n      swap1\n      pop\n      jump\t// out\n        /* \"#utility.yul\":466:562   */\n    tag_106:\n        /* \"#utility.yul\":503:510   */\n      0x00\n        /* \"#utility.yul\":532:556   */\n      tag_173\n        /* \"#utility.yul\":550:555   */\n      dup3\n        /* \"#utility.yul\":532:556   */\n      tag_105\n      jump\t// in\n    tag_173:\n        /* \"#utility.yul\":521:556   */\n      swap1\n      pop\n        /* \"#utility.yul\":466:562   */\n      swap2\n      swap1\n      pop\n      jump\t// out\n        /* \"#utility.yul\":568:690   */\n    tag_107:\n        /* \"#utility.yul\":641:665   */\n      tag_175\n        /* \"#utility.yul\":659:664   */\n      dup2\n        /* \"#utility.yul\":641:665   */\n      tag_106\n      jump\t// in\n    tag_175:\n        /* \"#utility.yul\":634:639   */\n      dup2\n        /* \"#utility.yul\":631:666   */\n      eq\n        /* \"#utility.yul\":621:684   */\n      tag_176\n      jumpi\n        /* \"#utility.yul\":680:681   */\n      0x00\n        /* \"#utility.yul\":677:678   */\n      dup1\n        /* \"#utility.yul\":670:682   */\n      revert\n        /* \"#utility.yul\":621:684   */\n    tag_176:\n        /* \"#utility.yul\":568:690   */\n      pop\n      jump\t// out\n        /* \"#utility.yul\":696:835   */\n    tag_108:\n        /* \"#utility.yul\":742:747   */\n      0x00\n        /* \"#utility.yul\":780:786   */\n      dup2\n        /* \"#utility.yul\":767:787   */\n      calldataload\n        /* \"#utility.yul\":758:787   */\n      swap1\n      pop\n        /* \"#utility.yul\":796:829   */\n      tag_178\n        /* \"#utility.yul\":823:828   */\n      dup2\n        /* \"#utility.yul\":796:829   */\n      tag_107\n      jump\t// in\n    tag_178:\n        /* \"#utility.yul\":696:835   */\n      swap3\n      swap2\n      pop\n      pop\n      jump\t// out\n        /* \"#utility.yul\":841:918   */\n    tag_109:\n        /* \"#utility.yul\":878:885   */\n      0x00\n        /* \"#utility.yul\":907:912   */\n      dup2\n        /* \"#utility.yul\":896:912   */\n      swap1\n      pop\n        /* \"#utility.yul\":841:918   */\n      swap2\n      swap1\n      pop\n      jump\t// out\n        /* \"#utility.yul\":924:1046   */\n    tag_110:\n        /* \"#utility.yul\":997:1021   */\n      tag_181\n        /* \"#utility.yul\":1015:1020   */\n      dup2\n        /* \"#utility.yul\":997:1021   */\n      tag_109\n      jump\t// in\n    tag_181:\n        /* \"#utility.yul\":990:995   */\n      dup2\n        /* \"#utility.yul\":987:1022   */\n      eq\n        /* \"#utility.yul\":977:1040   */\n      tag_182\n      jumpi\n        /* \"#utility.yul\":1036:1037   */\n      0x00\n        /* \"#utility.yul\":1033:1034   */\n      dup1\n        /* \"#utility.yul\":1026:1038   */\n      revert\n        /* \"#utility.yul\":977:1040   */\n    tag_182:\n        /* \"#utility.yul\":924:1046   */\n      pop\n      jump\t// out\n        /* \"#utility.yul\":1052:1191   */\n    tag_111:\n        /* \"#utility.yul\":1098:1103   */\n      0x00\n        /* \"#utility.yul\":1136:1142   */\n      dup2\n        /* \"#utility.yul\":1123:1143   */\n      calldataload\n        /* \"#utility.yul\":1114:1143   */\n      swap1\n      pop\n        /* \"#utility.yul\":1152:1185   */\n      tag_184\n        /* \"#utility.yul\":1179:1184   */\n      dup2\n        /* \"#utility.yul\":1152:1185   */\n      tag_110\n      jump\t// in\n    tag_184:\n        /* \"#utility.yul\":1052:1191   */\n      swap3\n      swap2\n      pop\n      pop\n      jump\t// out\n        /* \"#utility.yul\":1197:1671   */\n    tag_14:\n        /* \"#utility.yul\":1265:1271   */\n      0x00\n        /* \"#utility.yul\":1273:1279   */\n      dup1\n        /* \"#utility.yul\":1322:1324   */\n      0x40\n        /* \"#utility.yul\":1310:1319   */\n      dup4\n        /* \"#utility.yul\":1301:1308   */\n      dup6\n        /* \"#utility.yul\":1297:1320   */\n      sub\n        /* \"#utility.yul\":1293:1325   */\n      slt\n        /* \"#utility.yul\":1290:1409   */\n      iszero\n      tag_186\n      jumpi\n        /* \"#utility.yul\":1328:1407   */\n      tag_187\n      tag_103\n      jump\t// in\n    tag_187:\n        /* \"#utility.yul\":1290:1409   */\n    tag_186:\n        /* \"#utility.yul\":1448:1449   */\n      0x00\n        /* \"#utility.yul\":1473:1526   */\n      tag_188\n        /* \"#utility.yul\":1518:1525   */\n      dup6\n        /* \"#utility.yul\":1509:1515   */\n      dup3\n        /* \"#utility.yul\":1498:1507   */\n      dup7\n        /* \"#utility.yul\":1494:1516   */\n      add\n        /* \"#utility.yul\":1473:1526   */\n      tag_108\n      jump\t// in\n    tag_188:\n        /* \"#utility.yul\":1463:1526   */\n      swap3\n      pop\n        /* \"#utility.yul\":1419:1536   */\n      pop\n        /* \"#utility.yul\":1575:1577   */\n      0x20\n        /* \"#utility.yul\":1601:1654   */\n      tag_189\n        /* \"#utility.yul\":1646:1653   */\n      dup6\n        /* \"#utility.yul\":1637:1643   */\n      dup3\n        /* \"#utility.yul\":1626:1635   */\n      dup7\n        /* \"#utility.yul\":1622:1644   */\n      add\n        /* \"#utility.yul\":1601:1654   */\n      tag_111\n      jump\t// in\n    tag_189:\n        /* \"#utility.yul\":1591:1654   */\n      swap2\n      pop\n        /* \"#utility.yul\":1546:1664   */\n      pop\n        /* \"#utility.yul\":1197:1671   */\n      swap3\n      pop\n      swap3\n      swap1\n      pop\n      jump\t// out\n        /* \"#utility.yul\":1677:1795   */\n    tag_112:\n        /* \"#utility.yul\":1764:1788   */\n      tag_191\n        /* \"#utility.yul\":1782:1787   */\n      dup2\n        /* \"#utility.yul\":1764:1788   */\n      tag_109\n      jump\t// in\n    tag_191:\n        /* \"#utility.yul\":1759:1762   */\n      dup3\n        /* \"#utility.yul\":1752:1789   */\n      mstore\n        /* \"#utility.yul\":1677:1795   */\n      pop\n      pop\n      jump\t// out\n        /* \"#utility.yul\":1801:1919   */\n    tag_113:\n        /* \"#utility.yul\":1888:1912   */\n      tag_193\n        /* \"#utility.yul\":1906:1911   */\n      dup2\n        /* \"#utility.yul\":1888:1912   */\n      tag_106\n      jump\t// in\n    tag_193:\n        /* \"#utility.yul\":1883:1886   */\n      dup3\n        /* \"#utility.yul\":1876:1913   */\n      mstore\n        /* \"#utility.yul\":1801:1919   */\n      pop\n      pop\n      jump\t// out\n        /* \"#utility.yul\":1925:2024   */\n    tag_114:\n        /* \"#utility.yul\":1977:1983   */\n      0x00\n        /* \"#utility.yul\":2011:2016   */\n      dup2\n        /* \"#utility.yul\":2005:2017   */\n      mload\n        /* \"#utility.yul\":1995:2017   */\n      swap1\n      pop\n        /* \"#utility.yul\":1925:2024   */\n      swap2\n      swap1\n      pop\n      jump\t// out\n        /* \"#utility.yul\":2030:2199   */\n    tag_115:\n        /* \"#utility.yul\":2114:2125   */\n      0x00\n        /* \"#utility.yul\":2148:2154   */\n      dup3\n        /* \"#utility.yul\":2143:2146   */\n      dup3\n        /* \"#utility.yul\":2136:2155   */\n      mstore\n        /* \"#utility.yul\":2188:2192   */\n      0x20\n        /* \"#utility.yul\":2183:2186   */\n      dup3\n        /* \"#utility.yul\":2179:2193   */\n      add\n        /* \"#utility.yul\":2164:2193   */\n      swap1\n      pop\n        /* \"#utility.yul\":2030:2199   */\n      swap3\n      swap2\n      pop\n      pop\n      jump\t// out\n        /* \"#utility.yul\":2205:2344   */\n    tag_116:\n        /* \"#utility.yul\":2294:2300   */\n      dup3\n        /* \"#utility.yul\":2289:2292   */\n      dup2\n        /* \"#utility.yul\":2284:2287   */\n      dup4\n        /* \"#utility.yul\":2278:2301   */\n      mcopy\n        /* \"#utility.yul\":2335:2336   */\n      0x00\n        /* \"#utility.yul\":2326:2332   */\n      dup4\n        /* \"#utility.yul\":2321:2324   */\n      dup4\n        /* \"#utility.yul\":2317:2333   */\n      add\n        /* \"#utility.yul\":2310:2337   */\n      mstore\n        /* \"#utility.yul\":2205:2344   */\n      pop\n      pop\n      pop\n      jump\t// out\n        /* \"#utility.yul\":2350:2452   */\n    tag_117:\n        /* \"#utility.yul\":2391:2397   */\n      0x00\n        /* \"#utility.yul\":2442:2444   */\n      0x1f\n        /* \"#utility.yul\":2438:2445   */\n      not\n        /* \"#utility.yul\":2433:2435   */\n      0x1f\n        /* \"#utility.yul\":2426:2431   */\n      dup4\n        /* \"#utility.yul\":2422:2436   */\n      add\n        /* \"#utility.yul\":2418:2446   */\n      and\n        /* \"#utility.yul\":2408:2446   */\n      swap1\n      pop\n        /* \"#utility.yul\":2350:2452   */\n      swap2\n      swap1\n      pop\n      jump\t// out\n        /* \"#utility.yul\":2458:2835   */\n    tag_118:\n        /* \"#utility.yul\":2546:2549   */\n      0x00\n        /* \"#utility.yul\":2574:2613   */\n      tag_199\n        /* \"#utility.yul\":2607:2612   */\n      dup3\n        /* \"#utility.yul\":2574:2613   */\n      tag_114\n      jump\t// in\n    tag_199:\n        /* \"#utility.yul\":2629:2700   */\n      tag_200\n        /* \"#utility.yul\":2693:2699   */\n      dup2\n        /* \"#utility.yul\":2688:2691   */\n      dup6\n        /* \"#utility.yul\":2629:2700   */\n      tag_115\n      jump\t// in\n    tag_200:\n        /* \"#utility.yul\":2622:2700   */\n      swap4\n      pop\n        /* \"#utility.yul\":2709:2774   */\n      tag_201\n        /* \"#utility.yul\":2767:2773   */\n      dup2\n        /* \"#utility.yul\":2762:2765   */\n      dup6\n        /* \"#utility.yul\":2755:2759   */\n      0x20\n        /* \"#utility.yul\":2748:2753   */\n      dup7\n        /* \"#utility.yul\":2744:2760   */\n      add\n        /* \"#utility.yul\":2709:2774   */\n      tag_116\n      jump\t// in\n    tag_201:\n        /* \"#utility.yul\":2799:2828   */\n      tag_202\n        /* \"#utility.yul\":2821:2827   */\n      dup2\n        /* \"#utility.yul\":2799:2828   */\n      tag_117\n      jump\t// in\n    tag_202:\n        /* \"#utility.yul\":2794:2797   */\n      dup5\n        /* \"#utility.yul\":2790:2829   */\n      add\n        /* \"#utility.yul\":2783:2829   */\n      swap2\n      pop\n        /* \"#utility.yul\":2550:2835   */\n      pop\n        /* \"#utility.yul\":2458:2835   */\n      swap3\n      swap2\n      pop\n      pop\n      jump\t// out\n        /* \"#utility.yul\":2841:3596   */\n    tag_17:\n        /* \"#utility.yul\":3066:3070   */\n      0x00\n        /* \"#utility.yul\":3104:3107   */\n      0xa0\n        /* \"#utility.yul\":3093:3102   */\n      dup3\n        /* \"#utility.yul\":3089:3108   */\n      add\n        /* \"#utility.yul\":3081:3108   */\n      swap1\n      pop\n        /* \"#utility.yul\":3118:3189   */\n      tag_204\n        /* \"#utility.yul\":3186:3187   */\n      0x00\n        /* \"#utility.yul\":3175:3184   */\n      dup4\n        /* \"#utility.yul\":3171:3188   */\n      add\n        /* \"#utility.yul\":3162:3168   */\n      dup9\n        /* \"#utility.yul\":3118:3189   */\n      tag_112\n      jump\t// in\n    tag_204:\n        /* \"#utility.yul\":3199:3271   */\n      tag_205\n        /* \"#utility.yul\":3267:3269   */\n      0x20\n        /* \"#utility.yul\":3256:3265   */\n      dup4\n        /* \"#utility.yul\":3252:3270   */\n      add\n        /* \"#utility.yul\":3243:3249   */\n      dup8\n        /* \"#utility.yul\":3199:3271   */\n      tag_113\n      jump\t// in\n    tag_205:\n        /* \"#utility.yul\":3318:3327   */\n      dup2\n        /* \"#utility.yul\":3312:3316   */\n      dup2\n        /* \"#utility.yul\":3308:3328   */\n      sub\n        /* \"#utility.yul\":3303:3305   */\n      0x40\n        /* \"#utility.yul\":3292:3301   */\n      dup4\n        /* \"#utility.yul\":3288:3306   */\n      add\n        /* \"#utility.yul\":3281:3329   */\n      mstore\n        /* \"#utility.yul\":3346:3424   */\n      tag_206\n        /* \"#utility.yul\":3419:3423   */\n      dup2\n        /* \"#utility.yul\":3410:3416   */\n      dup7\n        /* \"#utility.yul\":3346:3424   */\n      tag_118\n      jump\t// in\n    tag_206:\n        /* \"#utility.yul\":3338:3424   */\n      swap1\n      pop\n        /* \"#utility.yul\":3434:3506   */\n      tag_207\n        /* \"#utility.yul\":3502:3504   */\n      0x60\n        /* \"#utility.yul\":3491:3500   */\n      dup4\n        /* \"#utility.yul\":3487:3505   */\n      add\n        /* \"#utility.yul\":3478:3484   */\n      dup6\n        /* \"#utility.yul\":3434:3506   */\n      tag_112\n      jump\t// in\n    tag_207:\n        /* \"#utility.yul\":3516:3589   */\n      tag_208\n        /* \"#utility.yul\":3584:3587   */\n      0x80\n        /* \"#utility.yul\":3573:3582   */\n      dup4\n        /* \"#utility.yul\":3569:3588   */\n      add\n        /* \"#utility.yul\":3560:3566   */\n      dup5\n        /* \"#utility.yul\":3516:3589   */\n      tag_112\n      jump\t// in\n    tag_208:\n        /* \"#utility.yul\":2841:3596   */\n      swap7\n      swap6\n      pop\n      pop\n      pop\n      pop\n      pop\n      pop\n      jump\t// out\n        /* \"#utility.yul\":3602:3931   */\n    tag_20:\n        /* \"#utility.yul\":3661:3667   */\n      0x00\n        /* \"#utility.yul\":3710:3712   */\n      0x20\n        /* \"#utility.yul\":3698:3707   */\n      dup3\n        /* \"#utility.yul\":3689:3696   */\n      dup5\n        /* \"#utility.yul\":3685:3708   */\n      sub\n        /* \"#utility.yul\":3681:3713   */\n      slt\n        /* \"#utility.yul\":3678:3797   */\n      iszero\n      tag_210\n      jumpi\n        /* \"#utility.yul\":3716:3795   */\n      tag_211\n      tag_103\n      jump\t// in\n    tag_211:\n        /* \"#utility.yul\":3678:3797   */\n    tag_210:\n        /* \"#utility.yul\":3836:3837   */\n      0x00\n        /* \"#utility.yul\":3861:3914   */\n      tag_212\n        /* \"#utility.yul\":3906:3913   */\n      dup5\n        /* \"#utility.yul\":3897:3903   */\n      dup3\n        /* \"#utility.yul\":3886:3895   */\n      dup6\n        /* \"#utility.yul\":3882:3904   */\n      add\n        /* \"#utility.yul\":3861:3914   */\n      tag_108\n      jump\t// in\n    tag_212:\n        /* \"#utility.yul\":3851:3914   */\n      swap2\n      pop\n        /* \"#utility.yul\":3807:3924   */\n      pop\n        /* \"#utility.yul\":3602:3931   */\n      swap3\n      swap2\n      pop\n      pop\n      jump\t// out\n        /* \"#utility.yul\":3937:4072   */\n    tag_119:\n        /* \"#utility.yul\":4025:4031   */\n      0x00\n        /* \"#utility.yul\":4059:4064   */\n      dup2\n        /* \"#utility.yul\":4053:4065   */\n      mload\n        /* \"#utility.yul\":4043:4065   */\n      swap1\n      pop\n        /* \"#utility.yul\":3937:4072   */\n      swap2\n      swap1\n      pop\n      jump\t// out\n        /* \"#utility.yul\":4078:4283   */\n    tag_120:\n        /* \"#utility.yul\":4198:4209   */\n      0x00\n        /* \"#utility.yul\":4232:4238   */\n      dup3\n        /* \"#utility.yul\":4227:4230   */\n      dup3\n        /* \"#utility.yul\":4220:4239   */\n      mstore\n        /* \"#utility.yul\":4272:4276   */\n      0x20\n        /* \"#utility.yul\":4267:4270   */\n      dup3\n        /* \"#utility.yul\":4263:4277   */\n      add\n        /* \"#utility.yul\":4248:4277   */\n      swap1\n      pop\n        /* \"#utility.yul\":4078:4283   */\n      swap3\n      swap2\n      pop\n      pop\n      jump\t// out\n        /* \"#utility.yul\":4289:4442   */\n    tag_121:\n        /* \"#utility.yul\":4377:4381   */\n      0x00\n        /* \"#utility.yul\":4400:4403   */\n      dup2\n        /* \"#utility.yul\":4392:4403   */\n      swap1\n      pop\n        /* \"#utility.yul\":4430:4434   */\n      0x20\n        /* \"#utility.yul\":4425:4428   */\n      dup3\n        /* \"#utility.yul\":4421:4435   */\n      add\n        /* \"#utility.yul\":4413:4435   */\n      swap1\n      pop\n        /* \"#utility.yul\":4289:4442   */\n      swap2\n      swap1\n      pop\n      jump\t// out\n        /* \"#utility.yul\":4448:4556   */\n    tag_122:\n        /* \"#utility.yul\":4525:4549   */\n      tag_217\n        /* \"#utility.yul\":4543:4548   */\n      dup2\n        /* \"#utility.yul\":4525:4549   */\n      tag_109\n      jump\t// in\n    tag_217:\n        /* \"#utility.yul\":4520:4523   */\n      dup3\n        /* \"#utility.yul\":4513:4550   */\n      mstore\n        /* \"#utility.yul\":4448:4556   */\n      pop\n      pop\n      jump\t// out\n        /* \"#utility.yul\":4562:4670   */\n    tag_123:\n        /* \"#utility.yul\":4639:4663   */\n      tag_219\n        /* \"#utility.yul\":4657:4662   */\n      dup2\n        /* \"#utility.yul\":4639:4663   */\n      tag_106\n      jump\t// in\n    tag_219:\n        /* \"#utility.yul\":4634:4637   */\n      dup3\n        /* \"#utility.yul\":4627:4664   */\n      mstore\n        /* \"#utility.yul\":4562:4670   */\n      pop\n      pop\n      jump\t// out\n        /* \"#utility.yul\":4676:4835   */\n    tag_124:\n        /* \"#utility.yul\":4750:4761   */\n      0x00\n        /* \"#utility.yul\":4784:4790   */\n      dup3\n        /* \"#utility.yul\":4779:4782   */\n      dup3\n        /* \"#utility.yul\":4772:4791   */\n      mstore\n        /* \"#utility.yul\":4824:4828   */\n      0x20\n        /* \"#utility.yul\":4819:4822   */\n      dup3\n        /* \"#utility.yul\":4815:4829   */\n      add\n        /* \"#utility.yul\":4800:4829   */\n      swap1\n      pop\n        /* \"#utility.yul\":4676:4835   */\n      swap3\n      swap2\n      pop\n      pop\n      jump\t// out\n        /* \"#utility.yul\":4841:5198   */\n    tag_125:\n        /* \"#utility.yul\":4919:4922   */\n      0x00\n        /* \"#utility.yul\":4947:4986   */\n      tag_222\n        /* \"#utility.yul\":4980:4985   */\n      dup3\n        /* \"#utility.yul\":4947:4986   */\n      tag_114\n      jump\t// in\n    tag_222:\n        /* \"#utility.yul\":5002:5063   */\n      tag_223\n        /* \"#utility.yul\":5056:5062   */\n      dup2\n        /* \"#utility.yul\":5051:5054   */\n      dup6\n        /* \"#utility.yul\":5002:5063   */\n      tag_124\n      jump\t// in\n    tag_223:\n        /* \"#utility.yul\":4995:5063   */\n      swap4\n      pop\n        /* \"#utility.yul\":5072:5137   */\n      tag_224\n        /* \"#utility.yul\":5130:5136   */\n      dup2\n        /* \"#utility.yul\":5125:5128   */\n      dup6\n        /* \"#utility.yul\":5118:5122   */\n      0x20\n        /* \"#utility.yul\":5111:5116   */\n      dup7\n        /* \"#utility.yul\":5107:5123   */\n      add\n        /* \"#utility.yul\":5072:5137   */\n      tag_116\n      jump\t// in\n    tag_224:\n        /* \"#utility.yul\":5162:5191   */\n      tag_225\n        /* \"#utility.yul\":5184:5190   */\n      dup2\n        /* \"#utility.yul\":5162:5191   */\n      tag_117\n      jump\t// in\n    tag_225:\n        /* \"#utility.yul\":5157:5160   */\n      dup5\n        /* \"#utility.yul\":5153:5192   */\n      add\n        /* \"#utility.yul\":5146:5192   */\n      swap2\n      pop\n        /* \"#utility.yul\":4923:5198   */\n      pop\n        /* \"#utility.yul\":4841:5198   */\n      swap3\n      swap2\n      pop\n      pop\n      jump\t// out\n        /* \"#utility.yul\":5256:6375   */\n    tag_126:\n        /* \"#utility.yul\":5357:5360   */\n      0x00\n        /* \"#utility.yul\":5393:5397   */\n      0xa0\n        /* \"#utility.yul\":5388:5391   */\n      dup4\n        /* \"#utility.yul\":5384:5398   */\n      add\n        /* \"#utility.yul\":5478:5482   */\n      0x00\n        /* \"#utility.yul\":5471:5476   */\n      dup4\n        /* \"#utility.yul\":5467:5483   */\n      add\n        /* \"#utility.yul\":5461:5484   */\n      mload\n        /* \"#utility.yul\":5497:5560   */\n      tag_227\n        /* \"#utility.yul\":5554:5558   */\n      0x00\n        /* \"#utility.yul\":5549:5552   */\n      dup7\n        /* \"#utility.yul\":5545:5559   */\n      add\n        /* \"#utility.yul\":5531:5543   */\n      dup3\n        /* \"#utility.yul\":5497:5560   */\n      tag_122\n      jump\t// in\n    tag_227:\n        /* \"#utility.yul\":5408:5570   */\n      pop\n        /* \"#utility.yul\":5654:5658   */\n      0x20\n        /* \"#utility.yul\":5647:5652   */\n      dup4\n        /* \"#utility.yul\":5643:5659   */\n      add\n        /* \"#utility.yul\":5637:5660   */\n      mload\n        /* \"#utility.yul\":5673:5736   */\n      tag_228\n        /* \"#utility.yul\":5730:5734   */\n      0x20\n        /* \"#utility.yul\":5725:5728   */\n      dup7\n        /* \"#utility.yul\":5721:5735   */\n      add\n        /* \"#utility.yul\":5707:5719   */\n      dup3\n        /* \"#utility.yul\":5673:5736   */\n      tag_123\n      jump\t// in\n    tag_228:\n        /* \"#utility.yul\":5580:5746   */\n      pop\n        /* \"#utility.yul\":5831:5835   */\n      0x40\n        /* \"#utility.yul\":5824:5829   */\n      dup4\n        /* \"#utility.yul\":5820:5836   */\n      add\n        /* \"#utility.yul\":5814:5837   */\n      mload\n        /* \"#utility.yul\":5884:5887   */\n      dup5\n        /* \"#utility.yul\":5878:5882   */\n      dup3\n        /* \"#utility.yul\":5874:5888   */\n      sub\n        /* \"#utility.yul\":5867:5871   */\n      0x40\n        /* \"#utility.yul\":5862:5865   */\n      dup7\n        /* \"#utility.yul\":5858:5872   */\n      add\n        /* \"#utility.yul\":5851:5889   */\n      mstore\n        /* \"#utility.yul\":5910:5983   */\n      tag_229\n        /* \"#utility.yul\":5978:5982   */\n      dup3\n        /* \"#utility.yul\":5964:5976   */\n      dup3\n        /* \"#utility.yul\":5910:5983   */\n      tag_125\n      jump\t// in\n    tag_229:\n        /* \"#utility.yul\":5902:5983   */\n      swap2\n      pop\n        /* \"#utility.yul\":5756:5994   */\n      pop\n        /* \"#utility.yul\":6081:6085   */\n      0x60\n        /* \"#utility.yul\":6074:6079   */\n      dup4\n        /* \"#utility.yul\":6070:6086   */\n      add\n        /* \"#utility.yul\":6064:6087   */\n      mload\n        /* \"#utility.yul\":6100:6163   */\n      tag_230\n        /* \"#utility.yul\":6157:6161   */\n      0x60\n        /* \"#utility.yul\":6152:6155   */\n      dup7\n        /* \"#utility.yul\":6148:6162   */\n      add\n        /* \"#utility.yul\":6134:6146   */\n      dup3\n        /* \"#utility.yul\":6100:6163   */\n      tag_122\n      jump\t// in\n    tag_230:\n        /* \"#utility.yul\":6004:6173   */\n      pop\n        /* \"#utility.yul\":6256:6260   */\n      0x80\n        /* \"#utility.yul\":6249:6254   */\n      dup4\n        /* \"#utility.yul\":6245:6261   */\n      add\n        /* \"#utility.yul\":6239:6262   */\n      mload\n        /* \"#utility.yul\":6275:6338   */\n      tag_231\n        /* \"#utility.yul\":6332:6336   */\n      0x80\n        /* \"#utility.yul\":6327:6330   */\n      dup7\n        /* \"#utility.yul\":6323:6337   */\n      add\n        /* \"#utility.yul\":6309:6321   */\n      dup3\n        /* \"#utility.yul\":6275:6338   */\n      tag_122\n      jump\t// in\n    tag_231:\n        /* \"#utility.yul\":6183:6348   */\n      pop\n        /* \"#utility.yul\":6365:6369   */\n      dup1\n        /* \"#utility.yul\":6358:6369   */\n      swap2\n      pop\n        /* \"#utility.yul\":5362:6375   */\n      pop\n        /* \"#utility.yul\":5256:6375   */\n      swap3\n      swap2\n      pop\n      pop\n      jump\t// out\n        /* \"#utility.yul\":6381:6621   */\n    tag_127:\n        /* \"#utility.yul\":6492:6502   */\n      0x00\n        /* \"#utility.yul\":6527:6615   */\n      tag_233\n        /* \"#utility.yul\":6611:6614   */\n      dup4\n        /* \"#utility.yul\":6603:6609   */\n      dup4\n        /* \"#utility.yul\":6527:6615   */\n      tag_126\n      jump\t// in\n    tag_233:\n        /* \"#utility.yul\":6513:6615   */\n      swap1\n      pop\n        /* \"#utility.yul\":6381:6621   */\n      swap3\n      swap2\n      pop\n      pop\n      jump\t// out\n        /* \"#utility.yul\":6627:6761   */\n    tag_128:\n        /* \"#utility.yul\":6718:6722   */\n      0x00\n        /* \"#utility.yul\":6750:6754   */\n      0x20\n        /* \"#utility.yul\":6745:6748   */\n      dup3\n        /* \"#utility.yul\":6741:6755   */\n      add\n        /* \"#utility.yul\":6733:6755   */\n      swap1\n      pop\n        /* \"#utility.yul\":6627:6761   */\n      swap2\n      swap1\n      pop\n      jump\t// out\n        /* \"#utility.yul\":6823:7902   */\n    tag_129:\n        /* \"#utility.yul\":6984:6987   */\n      0x00\n        /* \"#utility.yul\":7013:7088   */\n      tag_236\n        /* \"#utility.yul\":7082:7087   */\n      dup3\n        /* \"#utility.yul\":7013:7088   */\n      tag_119\n      jump\t// in\n    tag_236:\n        /* \"#utility.yul\":7104:7211   */\n      tag_237\n        /* \"#utility.yul\":7204:7210   */\n      dup2\n        /* \"#utility.yul\":7199:7202   */\n      dup6\n        /* \"#utility.yul\":7104:7211   */\n      tag_120\n      jump\t// in\n    tag_237:\n        /* \"#utility.yul\":7097:7211   */\n      swap4\n      pop\n        /* \"#utility.yul\":7237:7240   */\n      dup4\n        /* \"#utility.yul\":7282:7286   */\n      0x20\n        /* \"#utility.yul\":7274:7280   */\n      dup3\n        /* \"#utility.yul\":7270:7287   */\n      mul\n        /* \"#utility.yul\":7265:7268   */\n      dup6\n        /* \"#utility.yul\":7261:7288   */\n      add\n        /* \"#utility.yul\":7312:7389   */\n      tag_238\n        /* \"#utility.yul\":7383:7388   */\n      dup6\n        /* \"#utility.yul\":7312:7389   */\n      tag_121\n      jump\t// in\n    tag_238:\n        /* \"#utility.yul\":7412:7419   */\n      dup1\n        /* \"#utility.yul\":7443:7444   */\n      0x00\n        /* \"#utility.yul\":7428:7857   */\n    tag_239:\n        /* \"#utility.yul\":7453:7459   */\n      dup6\n        /* \"#utility.yul\":7450:7451   */\n      dup2\n        /* \"#utility.yul\":7447:7460   */\n      lt\n        /* \"#utility.yul\":7428:7857   */\n      iszero\n      tag_241\n      jumpi\n        /* \"#utility.yul\":7524:7533   */\n      dup5\n        /* \"#utility.yul\":7518:7522   */\n      dup5\n        /* \"#utility.yul\":7514:7534   */\n      sub\n        /* \"#utility.yul\":7509:7512   */\n      dup10\n        /* \"#utility.yul\":7502:7535   */\n      mstore\n        /* \"#utility.yul\":7575:7581   */\n      dup2\n        /* \"#utility.yul\":7569:7582   */\n      mload\n        /* \"#utility.yul\":7603:7709   */\n      tag_242\n        /* \"#utility.yul\":7704:7708   */\n      dup6\n        /* \"#utility.yul\":7689:7702   */\n      dup3\n        /* \"#utility.yul\":7603:7709   */\n      tag_127\n      jump\t// in\n    tag_242:\n        /* \"#utility.yul\":7595:7709   */\n      swap5\n      pop\n        /* \"#utility.yul\":7732:7813   */\n      tag_243\n        /* \"#utility.yul\":7806:7812   */\n      dup4\n        /* \"#utility.yul\":7732:7813   */\n      tag_128\n      jump\t// in\n    tag_243:\n        /* \"#utility.yul\":7722:7813   */\n      swap3\n      pop\n        /* \"#utility.yul\":7842:7846   */\n      0x20\n        /* \"#utility.yul\":7837:7840   */\n      dup11\n        /* \"#utility.yul\":7833:7847   */\n      add\n        /* \"#utility.yul\":7826:7847   */\n      swap10\n      pop\n        /* \"#utility.yul\":7488:7857   */\n      pop\n        /* \"#utility.yul\":7475:7476   */\n      0x01\n        /* \"#utility.yul\":7472:7473   */\n      dup2\n        /* \"#utility.yul\":7468:7477   */\n      add\n        /* \"#utility.yul\":7463:7477   */\n      swap1\n      pop\n        /* \"#utility.yul\":7428:7857   */\n      jump(tag_239)\n    tag_241:\n        /* \"#utility.yul\":7432:7446   */\n      pop\n        /* \"#utility.yul\":7873:7877   */\n      dup3\n        /* \"#utility.yul\":7866:7877   */\n      swap8\n      pop\n        /* \"#utility.yul\":7893:7896   */\n      dup8\n        /* \"#utility.yul\":7886:7896   */\n      swap6\n      pop\n        /* \"#utility.yul\":6989:7902   */\n      pop\n      pop\n      pop\n      pop\n      pop\n        /* \"#utility.yul\":6823:7902   */\n      swap3\n      swap2\n      pop\n      pop\n      jump\t// out\n        /* \"#utility.yul\":7908:8365   */\n    tag_23:\n        /* \"#utility.yul\":8093:8097   */\n      0x00\n        /* \"#utility.yul\":8131:8133   */\n      0x20\n        /* \"#utility.yul\":8120:8129   */\n      dup3\n        /* \"#utility.yul\":8116:8134   */\n      add\n        /* \"#utility.yul\":8108:8134   */\n      swap1\n      pop\n        /* \"#utility.yul\":8180:8189   */\n      dup2\n        /* \"#utility.yul\":8174:8178   */\n      dup2\n        /* \"#utility.yul\":8170:8190   */\n      sub\n        /* \"#utility.yul\":8166:8167   */\n      0x00\n        /* \"#utility.yul\":8155:8164   */\n      dup4\n        /* \"#utility.yul\":8151:8168   */\n      add\n        /* \"#utility.yul\":8144:8191   */\n      mstore\n        /* \"#utility.yul\":8208:8358   */\n      tag_245\n        /* \"#utility.yul\":8353:8357   */\n      dup2\n        /* \"#utility.yul\":8344:8350   */\n      dup5\n        /* \"#utility.yul\":8208:8358   */\n      tag_129\n      jump\t// in\n    tag_245:\n        /* \"#utility.yul\":8200:8358   */\n      swap1\n      pop\n        /* \"#utility.yul\":7908:8365   */\n      swap3\n      swap2\n      pop\n      pop\n      jump\t// out\n        /* \"#utility.yul\":8371:8460   */\n    tag_130:\n        /* \"#utility.yul\":8407:8414   */\n      0x00\n        /* \"#utility.yul\":8447:8453   */\n      0xffff\n        /* \"#utility.yul\":8440:8445   */\n      dup3\n        /* \"#utility.yul\":8436:8454   */\n      and\n        /* \"#utility.yul\":8425:8454   */\n      swap1\n      pop\n        /* \"#utility.yul\":8371:8460   */\n      swap2\n      swap1\n      pop\n      jump\t// out\n        /* \"#utility.yul\":8466:8586   */\n    tag_131:\n        /* \"#utility.yul\":8538:8561   */\n      tag_248\n        /* \"#utility.yul\":8555:8560   */\n      dup2\n        /* \"#utility.yul\":8538:8561   */\n      tag_130\n      jump\t// in\n    tag_248:\n        /* \"#utility.yul\":8531:8536   */\n      dup2\n        /* \"#utility.yul\":8528:8562   */\n      eq\n        /* \"#utility.yul\":8518:8580   */\n      tag_249\n      jumpi\n        /* \"#utility.yul\":8576:8577   */\n      0x00\n        /* \"#utility.yul\":8573:8574   */\n      dup1\n        /* \"#utility.yul\":8566:8578   */\n      revert\n        /* \"#utility.yul\":8518:8580   */\n    tag_249:\n        /* \"#utility.yul\":8466:8586   */\n      pop\n      jump\t// out\n        /* \"#utility.yul\":8592:8729   */\n    tag_132:\n        /* \"#utility.yul\":8637:8642   */\n      0x00\n        /* \"#utility.yul\":8675:8681   */\n      dup2\n        /* \"#utility.yul\":8662:8682   */\n      calldataload\n        /* \"#utility.yul\":8653:8682   */\n      swap1\n      pop\n        /* \"#utility.yul\":8691:8723   */\n      tag_251\n        /* \"#utility.yul\":8717:8722   */\n      dup2\n        /* \"#utility.yul\":8691:8723   */\n      tag_131\n      jump\t// in\n    tag_251:\n        /* \"#utility.yul\":8592:8729   */\n      swap3\n      swap2\n      pop\n      pop\n      jump\t// out\n        /* \"#utility.yul\":8735:9062   */\n    tag_26:\n        /* \"#utility.yul\":8793:8799   */\n      0x00\n        /* \"#utility.yul\":8842:8844   */\n      0x20\n        /* \"#utility.yul\":8830:8839   */\n      dup3\n        /* \"#utility.yul\":8821:8828   */\n      dup5\n        /* \"#utility.yul\":8817:8840   */\n      sub\n        /* \"#utility.yul\":8813:8845   */\n      slt\n        /* \"#utility.yul\":8810:8929   */\n      iszero\n      tag_253\n      jumpi\n        /* \"#utility.yul\":8848:8927   */\n      tag_254\n      tag_103\n      jump\t// in\n    tag_254:\n        /* \"#utility.yul\":8810:8929   */\n    tag_253:\n        /* \"#utility.yul\":8968:8969   */\n      0x00\n        /* \"#utility.yul\":8993:9045   */\n      tag_255\n        /* \"#utility.yul\":9037:9044   */\n      dup5\n        /* \"#utility.yul\":9028:9034   */\n      dup3\n        /* \"#utility.yul\":9017:9026   */\n      dup6\n        /* \"#utility.yul\":9013:9035   */\n      add\n        /* \"#utility.yul\":8993:9045   */\n      tag_132\n      jump\t// in\n    tag_255:\n        /* \"#utility.yul\":8983:9045   */\n      swap2\n      pop\n        /* \"#utility.yul\":8939:9055   */\n      pop\n        /* \"#utility.yul\":8735:9062   */\n      swap3\n      swap2\n      pop\n      pop\n      jump\t// out\n        /* \"#utility.yul\":9068:9183   */\n    tag_133:\n        /* \"#utility.yul\":9153:9176   */\n      tag_257\n        /* \"#utility.yul\":9170:9175   */\n      dup2\n        /* \"#utility.yul\":9153:9176   */\n      tag_130\n      jump\t// in\n    tag_257:\n        /* \"#utility.yul\":9148:9151   */\n      dup3\n        /* \"#utility.yul\":9141:9177   */\n      mstore\n        /* \"#utility.yul\":9068:9183   */\n      pop\n      pop\n      jump\t// out\n        /* \"#utility.yul\":9189:9407   */\n    tag_34:\n        /* \"#utility.yul\":9280:9284   */\n      0x00\n        /* \"#utility.yul\":9318:9320   */\n      0x20\n        /* \"#utility.yul\":9307:9316   */\n      dup3\n        /* \"#utility.yul\":9303:9321   */\n      add\n        /* \"#utility.yul\":9295:9321   */\n      swap1\n      pop\n        /* \"#utility.yul\":9331:9400   */\n      tag_259\n        /* \"#utility.yul\":9397:9398   */\n      0x00\n        /* \"#utility.yul\":9386:9395   */\n      dup4\n        /* \"#utility.yul\":9382:9399   */\n      add\n        /* \"#utility.yul\":9373:9379   */\n      dup5\n        /* \"#utility.yul\":9331:9400   */\n      tag_133\n      jump\t// in\n    tag_259:\n        /* \"#utility.yul\":9189:9407   */\n      swap3\n      swap2\n      pop\n      pop\n      jump\t// out\n        /* \"#utility.yul\":9413:9530   */\n    tag_134:\n        /* \"#utility.yul\":9522:9523   */\n      0x00\n        /* \"#utility.yul\":9519:9520   */\n      dup1\n        /* \"#utility.yul\":9512:9524   */\n      revert\n        /* \"#utility.yul\":9536:9653   */\n    tag_135:\n        /* \"#utility.yul\":9645:9646   */\n      0x00\n        /* \"#utility.yul\":9642:9643   */\n      dup1\n        /* \"#utility.yul\":9635:9647   */\n      revert\n        /* \"#utility.yul\":9659:9839   */\n    tag_136:\n        /* \"#utility.yul\":9707:9784   */\n      0x4e487b7100000000000000000000000000000000000000000000000000000000\n        /* \"#utility.yul\":9704:9705   */\n      0x00\n        /* \"#utility.yul\":9697:9785   */\n      mstore\n        /* \"#utility.yul\":9804:9808   */\n      0x41\n        /* \"#utility.yul\":9801:9802   */\n      0x04\n        /* \"#utility.yul\":9794:9809   */\n      mstore\n        /* \"#utility.yul\":9828:9832   */\n      0x24\n        /* \"#utility.yul\":9825:9826   */\n      0x00\n        /* \"#utility.yul\":9818:9833   */\n      revert\n        /* \"#utility.yul\":9845:10126   */\n    tag_137:\n        /* \"#utility.yul\":9928:9955   */\n      tag_264\n        /* \"#utility.yul\":9950:9954   */\n      dup3\n        /* \"#utility.yul\":9928:9955   */\n      tag_117\n      jump\t// in\n    tag_264:\n        /* \"#utility.yul\":9920:9926   */\n      dup2\n        /* \"#utility.yul\":9916:9956   */\n      add\n        /* \"#utility.yul\":10058:10064   */\n      dup2\n        /* \"#utility.yul\":10046:10056   */\n      dup2\n        /* \"#utility.yul\":10043:10065   */\n      lt\n        /* \"#utility.yul\":10022:10040   */\n      0xffffffffffffffff\n        /* \"#utility.yul\":10010:10020   */\n      dup3\n        /* \"#utility.yul\":10007:10041   */\n      gt\n        /* \"#utility.yul\":10004:10066   */\n      or\n        /* \"#utility.yul\":10001:10089   */\n      iszero\n      tag_265\n      jumpi\n        /* \"#utility.yul\":10069:10087   */\n      tag_266\n      tag_136\n      jump\t// in\n    tag_266:\n        /* \"#utility.yul\":10001:10089   */\n    tag_265:\n        /* \"#utility.yul\":10109:10119   */\n      dup1\n        /* \"#utility.yul\":10105:10107   */\n      0x40\n        /* \"#utility.yul\":10098:10120   */\n      mstore\n        /* \"#utility.yul\":9888:10126   */\n      pop\n        /* \"#utility.yul\":9845:10126   */\n      pop\n      pop\n      jump\t// out\n        /* \"#utility.yul\":10132:10261   */\n    tag_138:\n        /* \"#utility.yul\":10166:10172   */\n      0x00\n        /* \"#utility.yul\":10193:10213   */\n      tag_268\n      tag_102\n      jump\t// in\n    tag_268:\n        /* \"#utility.yul\":10183:10213   */\n      swap1\n      pop\n        /* \"#utility.yul\":10222:10255   */\n      tag_269\n        /* \"#utility.yul\":10250:10254   */\n      dup3\n        /* \"#utility.yul\":10242:10248   */\n      dup3\n        /* \"#utility.yul\":10222:10255   */\n      tag_137\n      jump\t// in\n    tag_269:\n        /* \"#utility.yul\":10132:10261   */\n      swap2\n      swap1\n      pop\n      jump\t// out\n        /* \"#utility.yul\":10267:10575   */\n    tag_139:\n        /* \"#utility.yul\":10329:10333   */\n      0x00\n        /* \"#utility.yul\":10419:10437   */\n      0xffffffffffffffff\n        /* \"#utility.yul\":10411:10417   */\n      dup3\n        /* \"#utility.yul\":10408:10438   */\n      gt\n        /* \"#utility.yul\":10405:10461   */\n      iszero\n      tag_271\n      jumpi\n        /* \"#utility.yul\":10441:10459   */\n      tag_272\n      tag_136\n      jump\t// in\n    tag_272:\n        /* \"#utility.yul\":10405:10461   */\n    tag_271:\n        /* \"#utility.yul\":10479:10508   */\n      tag_273\n        /* \"#utility.yul\":10501:10507   */\n      dup3\n        /* \"#utility.yul\":10479:10508   */\n      tag_117\n      jump\t// in\n    tag_273:\n        /* \"#utility.yul\":10471:10508   */\n      swap1\n      pop\n        /* \"#utility.yul\":10563:10567   */\n      0x20\n        /* \"#utility.yul\":10557:10561   */\n      dup2\n        /* \"#utility.yul\":10553:10568   */\n      add\n        /* \"#utility.yul\":10545:10568   */\n      swap1\n      pop\n        /* \"#utility.yul\":10267:10575   */\n      swap2\n      swap1\n      pop\n      jump\t// out\n        /* \"#utility.yul\":10581:10729   */\n    tag_140:\n        /* \"#utility.yul\":10679:10685   */\n      dup3\n        /* \"#utility.yul\":10674:10677   */\n      dup2\n        /* \"#utility.yul\":10669:10672   */\n      dup4\n        /* \"#utility.yul\":10656:10686   */\n      calldatacopy\n        /* \"#utility.yul\":10720:10721   */\n      0x00\n        /* \"#utility.yul\":10711:10717   */\n      dup4\n        /* \"#utility.yul\":10706:10709   */\n      dup4\n        /* \"#utility.yul\":10702:10718   */\n      add\n        /* \"#utility.yul\":10695:10722   */\n      mstore\n        /* \"#utility.yul\":10581:10729   */\n      pop\n      pop\n      pop\n      jump\t// out\n        /* \"#utility.yul\":10735:11160   */\n    tag_141:\n        /* \"#utility.yul\":10813:10818   */\n      0x00\n        /* \"#utility.yul\":10838:10904   */\n      tag_276\n        /* \"#utility.yul\":10854:10903   */\n      tag_277\n        /* \"#utility.yul\":10896:10902   */\n      dup5\n        /* \"#utility.yul\":10854:10903   */\n      tag_139\n      jump\t// in\n    tag_277:\n        /* \"#utility.yul\":10838:10904   */\n      tag_138\n      jump\t// in\n    tag_276:\n        /* \"#utility.yul\":10829:10904   */\n      swap1\n      pop\n        /* \"#utility.yul\":10927:10933   */\n      dup3\n        /* \"#utility.yul\":10920:10925   */\n      dup2\n        /* \"#utility.yul\":10913:10934   */\n      mstore\n        /* \"#utility.yul\":10965:10969   */\n      0x20\n        /* \"#utility.yul\":10958:10963   */\n      dup2\n        /* \"#utility.yul\":10954:10970   */\n      add\n        /* \"#utility.yul\":11003:11006   */\n      dup5\n        /* \"#utility.yul\":10994:11000   */\n      dup5\n        /* \"#utility.yul\":10989:10992   */\n      dup5\n        /* \"#utility.yul\":10985:11001   */\n      add\n        /* \"#utility.yul\":10982:11007   */\n      gt\n        /* \"#utility.yul\":10979:11091   */\n      iszero\n      tag_278\n      jumpi\n        /* \"#utility.yul\":11010:11089   */\n      tag_279\n      tag_135\n      jump\t// in\n    tag_279:\n        /* \"#utility.yul\":10979:11091   */\n    tag_278:\n        /* \"#utility.yul\":11100:11154   */\n      tag_280\n        /* \"#utility.yul\":11147:11153   */\n      dup5\n        /* \"#utility.yul\":11142:11145   */\n      dup3\n        /* \"#utility.yul\":11137:11140   */\n      dup6\n        /* \"#utility.yul\":11100:11154   */\n      tag_140\n      jump\t// in\n    tag_280:\n        /* \"#utility.yul\":10819:11160   */\n      pop\n        /* \"#utility.yul\":10735:11160   */\n      swap4\n      swap3\n      pop\n      pop\n      pop\n      jump\t// out\n        /* \"#utility.yul\":11180:11520   */\n    tag_142:\n        /* \"#utility.yul\":11236:11241   */\n      0x00\n        /* \"#utility.yul\":11285:11288   */\n      dup3\n        /* \"#utility.yul\":11278:11282   */\n      0x1f\n        /* \"#utility.yul\":11270:11276   */\n      dup4\n        /* \"#utility.yul\":11266:11283   */\n      add\n        /* \"#utility.yul\":11262:11289   */\n      slt\n        /* \"#utility.yul\":11252:11374   */\n      tag_282\n      jumpi\n        /* \"#utility.yul\":11293:11372   */\n      tag_283\n      tag_134\n      jump\t// in\n    tag_283:\n        /* \"#utility.yul\":11252:11374   */\n    tag_282:\n        /* \"#utility.yul\":11410:11416   */\n      dup2\n        /* \"#utility.yul\":11397:11417   */\n      calldataload\n        /* \"#utility.yul\":11435:11514   */\n      tag_284\n        /* \"#utility.yul\":11510:11513   */\n      dup5\n        /* \"#utility.yul\":11502:11508   */\n      dup3\n        /* \"#utility.yul\":11495:11499   */\n      0x20\n        /* \"#utility.yul\":11487:11493   */\n      dup7\n        /* \"#utility.yul\":11483:11500   */\n      add\n        /* \"#utility.yul\":11435:11514   */\n      tag_141\n      jump\t// in\n    tag_284:\n        /* \"#utility.yul\":11426:11514   */\n      swap2\n      pop\n        /* \"#utility.yul\":11242:11520   */\n      pop\n        /* \"#utility.yul\":11180:11520   */\n      swap3\n      swap2\n      pop\n      pop\n      jump\t// out\n        /* \"#utility.yul\":11526:12035   */\n    tag_37:\n        /* \"#utility.yul\":11595:11601   */\n      0x00\n        /* \"#utility.yul\":11644:11646   */\n      0x20\n        /* \"#utility.yul\":11632:11641   */\n      dup3\n        /* \"#utility.yul\":11623:11630   */\n      dup5\n        /* \"#utility.yul\":11619:11642   */\n      sub\n        /* \"#utility.yul\":11615:11647   */\n      slt\n        /* \"#utility.yul\":11612:11731   */\n      iszero\n      tag_286\n      jumpi\n        /* \"#utility.yul\":11650:11729   */\n      tag_287\n      tag_103\n      jump\t// in\n    tag_287:\n        /* \"#utility.yul\":11612:11731   */\n    tag_286:\n        /* \"#utility.yul\":11798:11799   */\n      0x00\n        /* \"#utility.yul\":11787:11796   */\n      dup3\n        /* \"#utility.yul\":11783:11800   */\n      add\n        /* \"#utility.yul\":11770:11801   */\n      calldataload\n        /* \"#utility.yul\":11828:11846   */\n      0xffffffffffffffff\n        /* \"#utility.yul\":11820:11826   */\n      dup2\n        /* \"#utility.yul\":11817:11847   */\n      gt\n        /* \"#utility.yul\":11814:11931   */\n      iszero\n      tag_288\n      jumpi\n        /* \"#utility.yul\":11850:11929   */\n      tag_289\n      tag_104\n      jump\t// in\n    tag_289:\n        /* \"#utility.yul\":11814:11931   */\n    tag_288:\n        /* \"#utility.yul\":11955:12018   */\n      tag_290\n        /* \"#utility.yul\":12010:12017   */\n      dup5\n        /* \"#utility.yul\":12001:12007   */\n      dup3\n        /* \"#utility.yul\":11990:11999   */\n      dup6\n        /* \"#utility.yul\":11986:12008   */\n      add\n        /* \"#utility.yul\":11955:12018   */\n      tag_142\n      jump\t// in\n    tag_290:\n        /* \"#utility.yul\":11945:12018   */\n      swap2\n      pop\n        /* \"#utility.yul\":11741:12028   */\n      pop\n        /* \"#utility.yul\":11526:12035   */\n      swap3\n      swap2\n      pop\n      pop\n      jump\t// out\n        /* \"#utility.yul\":12041:12263   */\n    tag_42:\n        /* \"#utility.yul\":12134:12138   */\n      0x00\n        /* \"#utility.yul\":12172:12174   */\n      0x20\n        /* \"#utility.yul\":12161:12170   */\n      dup3\n        /* \"#utility.yul\":12157:12175   */\n      add\n        /* \"#utility.yul\":12149:12175   */\n      swap1\n      pop\n        /* \"#utility.yul\":12185:12256   */\n      tag_292\n        /* \"#utility.yul\":12253:12254   */\n      0x00\n        /* \"#utility.yul\":12242:12251   */\n      dup4\n        /* \"#utility.yul\":12238:12255   */\n      add\n        /* \"#utility.yul\":12229:12235   */\n      dup5\n        /* \"#utility.yul\":12185:12256   */\n      tag_113\n      jump\t// in\n    tag_292:\n        /* \"#utility.yul\":12041:12263   */\n      swap3\n      swap2\n      pop\n      pop\n      jump\t// out\n        /* \"#utility.yul\":12269:12598   */\n    tag_45:\n        /* \"#utility.yul\":12328:12334   */\n      0x00\n        /* \"#utility.yul\":12377:12379   */\n      0x20\n        /* \"#utility.yul\":12365:12374   */\n      dup3\n        /* \"#utility.yul\":12356:12363   */\n      dup5\n        /* \"#utility.yul\":12352:12375   */\n      sub\n        /* \"#utility.yul\":12348:12380   */\n      slt\n        /* \"#utility.yul\":12345:12464   */\n      iszero\n      tag_294\n      jumpi\n        /* \"#utility.yul\":12383:12462   */\n      tag_295\n      tag_103\n      jump\t// in\n    tag_295:\n        /* \"#utility.yul\":12345:12464   */\n    tag_294:\n        /* \"#utility.yul\":12503:12504   */\n      0x00\n        /* \"#utility.yul\":12528:12581   */\n      tag_296\n        /* \"#utility.yul\":12573:12580   */\n      dup5\n        /* \"#utility.yul\":12564:12570   */\n      dup3\n        /* \"#utility.yul\":12553:12562   */\n      dup6\n        /* \"#utility.yul\":12549:12571   */\n      add\n        /* \"#utility.yul\":12528:12581   */\n      tag_111\n      jump\t// in\n    tag_296:\n        /* \"#utility.yul\":12518:12581   */\n      swap2\n      pop\n        /* \"#utility.yul\":12474:12591   */\n      pop\n        /* \"#utility.yul\":12269:12598   */\n      swap3\n      swap2\n      pop\n      pop\n      jump\t// out\n        /* \"#utility.yul\":12656:13785   */\n    tag_143:\n        /* \"#utility.yul\":12767:12770   */\n      0x00\n        /* \"#utility.yul\":12803:12807   */\n      0xa0\n        /* \"#utility.yul\":12798:12801   */\n      dup4\n        /* \"#utility.yul\":12794:12808   */\n      add\n        /* \"#utility.yul\":12888:12892   */\n      0x00\n        /* \"#utility.yul\":12881:12886   */\n      dup4\n        /* \"#utility.yul\":12877:12893   */\n      add\n        /* \"#utility.yul\":12871:12894   */\n      mload\n        /* \"#utility.yul\":12907:12970   */\n      tag_298\n        /* \"#utility.yul\":12964:12968   */\n      0x00\n        /* \"#utility.yul\":12959:12962   */\n      dup7\n        /* \"#utility.yul\":12955:12969   */\n      add\n        /* \"#utility.yul\":12941:12953   */\n      dup3\n        /* \"#utility.yul\":12907:12970   */\n      tag_122\n      jump\t// in\n    tag_298:\n        /* \"#utility.yul\":12818:12980   */\n      pop\n        /* \"#utility.yul\":13064:13068   */\n      0x20\n        /* \"#utility.yul\":13057:13062   */\n      dup4\n        /* \"#utility.yul\":13053:13069   */\n      add\n        /* \"#utility.yul\":13047:13070   */\n      mload\n        /* \"#utility.yul\":13083:13146   */\n      tag_299\n        /* \"#utility.yul\":13140:13144   */\n      0x20\n        /* \"#utility.yul\":13135:13138   */\n      dup7\n        /* \"#utility.yul\":13131:13145   */\n      add\n        /* \"#utility.yul\":13117:13129   */\n      dup3\n        /* \"#utility.yul\":13083:13146   */\n      tag_123\n      jump\t// in\n    tag_299:\n        /* \"#utility.yul\":12990:13156   */\n      pop\n        /* \"#utility.yul\":13241:13245   */\n      0x40\n        /* \"#utility.yul\":13234:13239   */\n      dup4\n        /* \"#utility.yul\":13230:13246   */\n      add\n        /* \"#utility.yul\":13224:13247   */\n      mload\n        /* \"#utility.yul\":13294:13297   */\n      dup5\n        /* \"#utility.yul\":13288:13292   */\n      dup3\n        /* \"#utility.yul\":13284:13298   */\n      sub\n        /* \"#utility.yul\":13277:13281   */\n      0x40\n        /* \"#utility.yul\":13272:13275   */\n      dup7\n        /* \"#utility.yul\":13268:13282   */\n      add\n        /* \"#utility.yul\":13261:13299   */\n      mstore\n        /* \"#utility.yul\":13320:13393   */\n      tag_300\n        /* \"#utility.yul\":13388:13392   */\n      dup3\n        /* \"#utility.yul\":13374:13386   */\n      dup3\n        /* \"#utility.yul\":13320:13393   */\n      tag_125\n      jump\t// in\n    tag_300:\n        /* \"#utility.yul\":13312:13393   */\n      swap2\n      pop\n        /* \"#utility.yul\":13166:13404   */\n      pop\n        /* \"#utility.yul\":13491:13495   */\n      0x60\n        /* \"#utility.yul\":13484:13489   */\n      dup4\n        /* \"#utility.yul\":13480:13496   */\n      add\n        /* \"#utility.yul\":13474:13497   */\n      mload\n        /* \"#utility.yul\":13510:13573   */\n      tag_301\n        /* \"#utility.yul\":13567:13571   */\n      0x60\n        /* \"#utility.yul\":13562:13565   */\n      dup7\n        /* \"#utility.yul\":13558:13572   */\n      add\n        /* \"#utility.yul\":13544:13556   */\n      dup3\n        /* \"#utility.yul\":13510:13573   */\n      tag_122\n      jump\t// in\n    tag_301:\n        /* \"#utility.yul\":13414:13583   */\n      pop\n        /* \"#utility.yul\":13666:13670   */\n      0x80\n        /* \"#utility.yul\":13659:13664   */\n      dup4\n        /* \"#utility.yul\":13655:13671   */\n      add\n        /* \"#utility.yul\":13649:13672   */\n      mload\n        /* \"#utility.yul\":13685:13748   */\n      tag_302\n        /* \"#utility.yul\":13742:13746   */\n      0x80\n        /* \"#utility.yul\":13737:13740   */\n      dup7\n        /* \"#utility.yul\":13733:13747   */\n      add\n        /* \"#utility.yul\":13719:13731   */\n      dup3\n        /* \"#utility.yul\":13685:13748   */\n      tag_122\n      jump\t// in\n    tag_302:\n        /* \"#utility.yul\":13593:13758   */\n      pop\n        /* \"#utility.yul\":13775:13779   */\n      dup1\n        /* \"#utility.yul\":13768:13779   */\n      swap2\n      pop\n        /* \"#utility.yul\":12772:13785   */\n      pop\n        /* \"#utility.yul\":12656:13785   */\n      swap3\n      swap2\n      pop\n      pop\n      jump\t// out\n        /* \"#utility.yul\":13791:14148   */\n    tag_48:\n        /* \"#utility.yul\":13926:13930   */\n      0x00\n        /* \"#utility.yul\":13964:13966   */\n      0x20\n        /* \"#utility.yul\":13953:13962   */\n      dup3\n        /* \"#utility.yul\":13949:13967   */\n      add\n        /* \"#utility.yul\":13941:13967   */\n      swap1\n      pop\n        /* \"#utility.yul\":14013:14022   */\n      dup2\n        /* \"#utility.yul\":14007:14011   */\n      dup2\n        /* \"#utility.yul\":14003:14023   */\n      sub\n        /* \"#utility.yul\":13999:14000   */\n      0x00\n        /* \"#utility.yul\":13988:13997   */\n      dup4\n        /* \"#utility.yul\":13984:14001   */\n      add\n        /* \"#utility.yul\":13977:14024   */\n      mstore\n        /* \"#utility.yul\":14041:14141   */\n      tag_304\n        /* \"#utility.yul\":14136:14140   */\n      dup2\n        /* \"#utility.yul\":14127:14133   */\n      dup5\n        /* \"#utility.yul\":14041:14141   */\n      tag_143\n      jump\t// in\n    tag_304:\n        /* \"#utility.yul\":14033:14141   */\n      swap1\n      pop\n        /* \"#utility.yul\":13791:14148   */\n      swap3\n      swap2\n      pop\n      pop\n      jump\t// out\n        /* \"#utility.yul\":14154:14334   */\n    tag_144:\n        /* \"#utility.yul\":14202:14279   */\n      0x4e487b7100000000000000000000000000000000000000000000000000000000\n        /* \"#utility.yul\":14199:14200   */\n      0x00\n        /* \"#utility.yul\":14192:14280   */\n      mstore\n        /* \"#utility.yul\":14299:14303   */\n      0x22\n        /* \"#utility.yul\":14296:14297   */\n      0x04\n        /* \"#utility.yul\":14289:14304   */\n      mstore\n        /* \"#utility.yul\":14323:14327   */\n      0x24\n        /* \"#utility.yul\":14320:14321   */\n      0x00\n        /* \"#utility.yul\":14313:14328   */\n      revert\n        /* \"#utility.yul\":14340:14660   */\n    tag_52:\n        /* \"#utility.yul\":14384:14390   */\n      0x00\n        /* \"#utility.yul\":14421:14422   */\n      0x02\n        /* \"#utility.yul\":14415:14419   */\n      dup3\n        /* \"#utility.yul\":14411:14423   */\n      div\n        /* \"#utility.yul\":14401:14423   */\n      swap1\n      pop\n        /* \"#utility.yul\":14468:14469   */\n      0x01\n        /* \"#utility.yul\":14462:14466   */\n      dup3\n        /* \"#utility.yul\":14458:14470   */\n      and\n        /* \"#utility.yul\":14489:14507   */\n      dup1\n        /* \"#utility.yul\":14479:14560   */\n      tag_307\n      jumpi\n        /* \"#utility.yul\":14545:14549   */\n      0x7f\n        /* \"#utility.yul\":14537:14543   */\n      dup3\n        /* \"#utility.yul\":14533:14550   */\n      and\n        /* \"#utility.yul\":14523:14550   */\n      swap2\n      pop\n        /* \"#utility.yul\":14479:14560   */\n    tag_307:\n        /* \"#utility.yul\":14607:14609   */\n      0x20\n        /* \"#utility.yul\":14599:14605   */\n      dup3\n        /* \"#utility.yul\":14596:14610   */\n      lt\n        /* \"#utility.yul\":14576:14594   */\n      dup2\n        /* \"#utility.yul\":14573:14611   */\n      sub\n        /* \"#utility.yul\":14570:14654   */\n      tag_308\n      jumpi\n        /* \"#utility.yul\":14626:14644   */\n      tag_309\n      tag_144\n      jump\t// in\n    tag_309:\n        /* \"#utility.yul\":14570:14654   */\n    tag_308:\n        /* \"#utility.yul\":14391:14660   */\n      pop\n        /* \"#utility.yul\":14340:14660   */\n      swap2\n      swap1\n      pop\n      jump\t// out\n        /* \"#utility.yul\":14666:14838   */\n    tag_145:\n        /* \"#utility.yul\":14806:14830   */\n      0x594f5520415245204e4f5420544845204f574e45522100000000000000000000\n        /* \"#utility.yul\":14802:14803   */\n      0x00\n        /* \"#utility.yul\":14794:14800   */\n      dup3\n        /* \"#utility.yul\":14790:14804   */\n      add\n        /* \"#utility.yul\":14783:14831   */\n      mstore\n        /* \"#utility.yul\":14666:14838   */\n      pop\n      jump\t// out\n        /* \"#utility.yul\":14844:15210   */\n    tag_146:\n        /* \"#utility.yul\":14986:14989   */\n      0x00\n        /* \"#utility.yul\":15007:15074   */\n      tag_312\n        /* \"#utility.yul\":15071:15073   */\n      0x16\n        /* \"#utility.yul\":15066:15069   */\n      dup4\n        /* \"#utility.yul\":15007:15074   */\n      tag_115\n      jump\t// in\n    tag_312:\n        /* \"#utility.yul\":15000:15074   */\n      swap2\n      pop\n        /* \"#utility.yul\":15083:15176   */\n      tag_313\n        /* \"#utility.yul\":15172:15175   */\n      dup3\n        /* \"#utility.yul\":15083:15176   */\n      tag_145\n      jump\t// in\n    tag_313:\n        /* \"#utility.yul\":15201:15203   */\n      0x20\n        /* \"#utility.yul\":15196:15199   */\n      dup3\n        /* \"#utility.yul\":15192:15204   */\n      add\n        /* \"#utility.yul\":15185:15204   */\n      swap1\n      pop\n        /* \"#utility.yul\":14844:15210   */\n      swap2\n      swap1\n      pop\n      jump\t// out\n        /* \"#utility.yul\":15216:15635   */\n    tag_69:\n        /* \"#utility.yul\":15382:15386   */\n      0x00\n        /* \"#utility.yul\":15420:15422   */\n      0x20\n        /* \"#utility.yul\":15409:15418   */\n      dup3\n        /* \"#utility.yul\":15405:15423   */\n      add\n        /* \"#utility.yul\":15397:15423   */\n      swap1\n      pop\n        /* \"#utility.yul\":15469:15478   */\n      dup2\n        /* \"#utility.yul\":15463:15467   */\n      dup2\n        /* \"#utility.yul\":15459:15479   */\n      sub\n        /* \"#utility.yul\":15455:15456   */\n      0x00\n        /* \"#utility.yul\":15444:15453   */\n      dup4\n        /* \"#utility.yul\":15440:15457   */\n      add\n        /* \"#utility.yul\":15433:15480   */\n      mstore\n        /* \"#utility.yul\":15497:15628   */\n      tag_315\n        /* \"#utility.yul\":15623:15627   */\n      dup2\n        /* \"#utility.yul\":15497:15628   */\n      tag_146\n      jump\t// in\n    tag_315:\n        /* \"#utility.yul\":15489:15628   */\n      swap1\n      pop\n        /* \"#utility.yul\":15216:15635   */\n      swap2\n      swap1\n      pop\n      jump\t// out\n        /* \"#utility.yul\":15641:15821   */\n    tag_74:\n        /* \"#utility.yul\":15689:15766   */\n      0x4e487b7100000000000000000000000000000000000000000000000000000000\n        /* \"#utility.yul\":15686:15687   */\n      0x00\n        /* \"#utility.yul\":15679:15767   */\n      mstore\n        /* \"#utility.yul\":15786:15790   */\n      0x32\n        /* \"#utility.yul\":15783:15784   */\n      0x04\n        /* \"#utility.yul\":15776:15791   */\n      mstore\n        /* \"#utility.yul\":15810:15814   */\n      0x24\n        /* \"#utility.yul\":15807:15808   */\n      0x00\n        /* \"#utility.yul\":15800:15815   */\n      revert\n        /* \"#utility.yul\":15827:15997   */\n    tag_147:\n        /* \"#utility.yul\":15967:15989   */\n      0x547765657420646f6573206e6f74206578697374000000000000000000000000\n        /* \"#utility.yul\":15963:15964   */\n      0x00\n        /* \"#utility.yul\":15955:15961   */\n      dup3\n        /* \"#utility.yul\":15951:15965   */\n      add\n        /* \"#utility.yul\":15944:15990   */\n      mstore\n        /* \"#utility.yul\":15827:15997   */\n      pop\n      jump\t// out\n        /* \"#utility.yul\":16003:16369   */\n    tag_148:\n        /* \"#utility.yul\":16145:16148   */\n      0x00\n        /* \"#utility.yul\":16166:16233   */\n      tag_319\n        /* \"#utility.yul\":16230:16232   */\n      0x14\n        /* \"#utility.yul\":16225:16228   */\n      dup4\n        /* \"#utility.yul\":16166:16233   */\n      tag_115\n      jump\t// in\n    tag_319:\n        /* \"#utility.yul\":16159:16233   */\n      swap2\n      pop\n        /* \"#utility.yul\":16242:16335   */\n      tag_320\n        /* \"#utility.yul\":16331:16334   */\n      dup3\n        /* \"#utility.yul\":16242:16335   */\n      tag_147\n      jump\t// in\n    tag_320:\n        /* \"#utility.yul\":16360:16362   */\n      0x20\n        /* \"#utility.yul\":16355:16358   */\n      dup3\n        /* \"#utility.yul\":16351:16363   */\n      add\n        /* \"#utility.yul\":16344:16363   */\n      swap1\n      pop\n        /* \"#utility.yul\":16003:16369   */\n      swap2\n      swap1\n      pop\n      jump\t// out\n        /* \"#utility.yul\":16375:16794   */\n    tag_78:\n        /* \"#utility.yul\":16541:16545   */\n      0x00\n        /* \"#utility.yul\":16579:16581   */\n      0x20\n        /* \"#utility.yul\":16568:16577   */\n      dup3\n        /* \"#utility.yul\":16564:16582   */\n      add\n        /* \"#utility.yul\":16556:16582   */\n      swap1\n      pop\n        /* \"#utility.yul\":16628:16637   */\n      dup2\n        /* \"#utility.yul\":16622:16626   */\n      dup2\n        /* \"#utility.yul\":16618:16638   */\n      sub\n        /* \"#utility.yul\":16614:16615   */\n      0x00\n        /* \"#utility.yul\":16603:16612   */\n      dup4\n        /* \"#utility.yul\":16599:16616   */\n      add\n        /* \"#utility.yul\":16592:16639   */\n      mstore\n        /* \"#utility.yul\":16656:16787   */\n      tag_322\n        /* \"#utility.yul\":16782:16786   */\n      dup2\n        /* \"#utility.yul\":16656:16787   */\n      tag_148\n      jump\t// in\n    tag_322:\n        /* \"#utility.yul\":16648:16787   */\n      swap1\n      pop\n        /* \"#utility.yul\":16375:16794   */\n      swap2\n      swap1\n      pop\n      jump\t// out\n        /* \"#utility.yul\":16800:16980   */\n    tag_149:\n        /* \"#utility.yul\":16848:16925   */\n      0x4e487b7100000000000000000000000000000000000000000000000000000000\n        /* \"#utility.yul\":16845:16846   */\n      0x00\n        /* \"#utility.yul\":16838:16926   */\n      mstore\n        /* \"#utility.yul\":16945:16949   */\n      0x11\n        /* \"#utility.yul\":16942:16943   */\n      0x04\n        /* \"#utility.yul\":16935:16950   */\n      mstore\n        /* \"#utility.yul\":16969:16973   */\n      0x24\n        /* \"#utility.yul\":16966:16967   */\n      0x00\n        /* \"#utility.yul\":16959:16974   */\n      revert\n        /* \"#utility.yul\":16986:17219   */\n    tag_83:\n        /* \"#utility.yul\":17025:17028   */\n      0x00\n        /* \"#utility.yul\":17048:17072   */\n      tag_325\n        /* \"#utility.yul\":17066:17071   */\n      dup3\n        /* \"#utility.yul\":17048:17072   */\n      tag_109\n      jump\t// in\n    tag_325:\n        /* \"#utility.yul\":17039:17072   */\n      swap2\n      pop\n        /* \"#utility.yul\":17094:17160   */\n      0xffffffffffffffffffffffffffffffffffffffffffffffffffffffffffffffff\n        /* \"#utility.yul\":17087:17092   */\n      dup3\n        /* \"#utility.yul\":17084:17161   */\n      sub\n        /* \"#utility.yul\":17081:17184   */\n      tag_326\n      jumpi\n        /* \"#utility.yul\":17164:17182   */\n      tag_327\n      tag_149\n      jump\t// in\n    tag_327:\n        /* \"#utility.yul\":17081:17184   */\n    tag_326:\n        /* \"#utility.yul\":17211:17212   */\n      0x01\n        /* \"#utility.yul\":17204:17209   */\n      dup3\n        /* \"#utility.yul\":17200:17213   */\n      add\n        /* \"#utility.yul\":17193:17213   */\n      swap1\n      pop\n        /* \"#utility.yul\":16986:17219   */\n      swap2\n      swap1\n      pop\n      jump\t// out\n        /* \"#utility.yul\":17225:17397   */\n    tag_150:\n        /* \"#utility.yul\":17365:17389   */\n      0x547765657420697320746f6f206c6f6e672062726f2100000000000000000000\n        /* \"#utility.yul\":17361:17362   */\n      0x00\n        /* \"#utility.yul\":17353:17359   */\n      dup3\n        /* \"#utility.yul\":17349:17363   */\n      add\n        /* \"#utility.yul\":17342:17390   */\n      mstore\n        /* \"#utility.yul\":17225:17397   */\n      pop\n      jump\t// out\n        /* \"#utility.yul\":17403:17769   */\n    tag_151:\n        /* \"#utility.yul\":17545:17548   */\n      0x00\n        /* \"#utility.yul\":17566:17633   */\n      tag_330\n        /* \"#utility.yul\":17630:17632   */\n      0x16\n        /* \"#utility.yul\":17625:17628   */\n      dup4\n        /* \"#utility.yul\":17566:17633   */\n      tag_115\n      jump\t// in\n    tag_330:\n        /* \"#utility.yul\":17559:17633   */\n      swap2\n      pop\n        /* \"#utility.yul\":17642:17735   */\n      tag_331\n        /* \"#utility.yul\":17731:17734   */\n      dup3\n        /* \"#utility.yul\":17642:17735   */\n      tag_150\n      jump\t// in\n    tag_331:\n        /* \"#utility.yul\":17760:17762   */\n      0x20\n        /* \"#utility.yul\":17755:17758   */\n      dup3\n        /* \"#utility.yul\":17751:17763   */\n      add\n        /* \"#utility.yul\":17744:17763   */\n      swap1\n      pop\n        /* \"#utility.yul\":17403:17769   */\n      swap2\n      swap1\n      pop\n      jump\t// out\n        /* \"#utility.yul\":17775:18194   */\n    tag_87:\n        /* \"#utility.yul\":17941:17945   */\n      0x00\n        /* \"#utility.yul\":17979:17981   */\n      0x20\n        /* \"#utility.yul\":17968:17977   */\n      dup3\n        /* \"#utility.yul\":17964:17982   */\n      add\n        /* \"#utility.yul\":17956:17982   */\n      swap1\n      pop\n        /* \"#utility.yul\":18028:18037   */\n      dup2\n        /* \"#utility.yul\":18022:18026   */\n      dup2\n        /* \"#utility.yul\":18018:18038   */\n      sub\n        /* \"#utility.yul\":18014:18015   */\n      0x00\n        /* \"#utility.yul\":18003:18012   */\n      dup4\n        /* \"#utility.yul\":17999:18016   */\n      add\n        /* \"#utility.yul\":17992:18039   */\n      mstore\n        /* \"#utility.yul\":18056:18187   */\n      tag_333\n        /* \"#utility.yul\":18182:18186   */\n      dup2\n        /* \"#utility.yul\":18056:18187   */\n      tag_151\n      jump\t// in\n    tag_333:\n        /* \"#utility.yul\":18048:18187   */\n      swap1\n      pop\n        /* \"#utility.yul\":17775:18194   */\n      swap2\n      swap1\n      pop\n      jump\t// out\n        /* \"#utility.yul\":18200:18341   */\n    tag_152:\n        /* \"#utility.yul\":18249:18253   */\n      0x00\n        /* \"#utility.yul\":18272:18275   */\n      dup2\n        /* \"#utility.yul\":18264:18275   */\n      swap1\n      pop\n        /* \"#utility.yul\":18295:18298   */\n      dup2\n        /* \"#utility.yul\":18292:18293   */\n      0x00\n        /* \"#utility.yul\":18285:18299   */\n      mstore\n        /* \"#utility.yul\":18329:18333   */\n      0x20\n        /* \"#utility.yul\":18326:18327   */\n      0x00\n        /* \"#utility.yul\":18316:18334   */\n      keccak256\n        /* \"#utility.yul\":18308:18334   */\n      swap1\n      pop\n        /* \"#utility.yul\":18200:18341   */\n      swap2\n      swap1\n      pop\n      jump\t// out\n        /* \"#utility.yul\":18347:18440   */\n    tag_153:\n        /* \"#utility.yul\":18384:18390   */\n      0x00\n        /* \"#utility.yul\":18431:18433   */\n      0x20\n        /* \"#utility.yul\":18426:18428   */\n      0x1f\n        /* \"#utility.yul\":18419:18424   */\n      dup4\n        /* \"#utility.yul\":18415:18429   */\n      add\n        /* \"#utility.yul\":18411:18434   */\n      div\n        /* \"#utility.yul\":18401:18434   */\n      swap1\n      pop\n        /* \"#utility.yul\":18347:18440   */\n      swap2\n      swap1\n      pop\n      jump\t// out\n        /* \"#utility.yul\":18446:18553   */\n    tag_154:\n        /* \"#utility.yul\":18490:18498   */\n      0x00\n        /* \"#utility.yul\":18540:18545   */\n      dup3\n        /* \"#utility.yul\":18534:18538   */\n      dup3\n        /* \"#utility.yul\":18530:18546   */\n      shl\n        /* \"#utility.yul\":18509:18546   */\n      swap1\n      pop\n        /* \"#utility.yul\":18446:18553   */\n      swap3\n      swap2\n      pop\n      pop\n      jump\t// out\n        /* \"#utility.yul\":18559:18952   */\n    tag_155:\n        /* \"#utility.yul\":18628:18634   */\n      0x00\n        /* \"#utility.yul\":18678:18679   */\n      0x08\n        /* \"#utility.yul\":18666:18676   */\n      dup4\n        /* \"#utility.yul\":18662:18680   */\n      mul\n        /* \"#utility.yul\":18701:18798   */\n      tag_338\n        /* \"#utility.yul\":18731:18797   */\n      0xffffffffffffffffffffffffffffffffffffffffffffffffffffffffffffffff\n        /* \"#utility.yul\":18720:18729   */\n      dup3\n        /* \"#utility.yul\":18701:18798   */\n      tag_154\n      jump\t// in\n    tag_338:\n        /* \"#utility.yul\":18819:18858   */\n      tag_339\n        /* \"#utility.yul\":18849:18857   */\n      dup7\n        /* \"#utility.yul\":18838:18847   */\n      dup4\n        /* \"#utility.yul\":18819:18858   */\n      tag_154\n      jump\t// in\n    tag_339:\n        /* \"#utility.yul\":18807:18858   */\n      swap6\n      pop\n        /* \"#utility.yul\":18891:18895   */\n      dup1\n        /* \"#utility.yul\":18887:18896   */\n      not\n        /* \"#utility.yul\":18880:18885   */\n      dup5\n        /* \"#utility.yul\":18876:18897   */\n      and\n        /* \"#utility.yul\":18867:18897   */\n      swap4\n      pop\n        /* \"#utility.yul\":18940:18944   */\n      dup1\n        /* \"#utility.yul\":18930:18938   */\n      dup7\n        /* \"#utility.yul\":18926:18945   */\n      and\n        /* \"#utility.yul\":18919:18924   */\n      dup5\n        /* \"#utility.yul\":18916:18946   */\n      or\n        /* \"#utility.yul\":18906:18946   */\n      swap3\n      pop\n        /* \"#utility.yul\":18635:18952   */\n      pop\n      pop\n        /* \"#utility.yul\":18559:18952   */\n      swap4\n      swap3\n      pop\n      pop\n      pop\n      jump\t// out\n        /* \"#utility.yul\":18958:19018   */\n    tag_156:\n        /* \"#utility.yul\":18986:18989   */\n      0x00\n        /* \"#utility.yul\":19007:19012   */\n      dup2\n        /* \"#utility.yul\":19000:19012   */\n      swap1\n      pop\n        /* \"#utility.yul\":18958:19018   */\n      swap2\n      swap1\n      pop\n      jump\t// out\n        /* \"#utility.yul\":19024:19166   */\n    tag_157:\n        /* \"#utility.yul\":19074:19083   */\n      0x00\n        /* \"#utility.yul\":19107:19160   */\n      tag_342\n        /* \"#utility.yul\":19125:19159   */\n      tag_343\n        /* \"#utility.yul\":19134:19158   */\n      tag_344\n        /* \"#utility.yul\":19152:19157   */\n      dup5\n        /* \"#utility.yul\":19134:19158   */\n      tag_109\n      jump\t// in\n    tag_344:\n        /* \"#utility.yul\":19125:19159   */\n      tag_156\n      jump\t// in\n    tag_343:\n        /* \"#utility.yul\":19107:19160   */\n      tag_109\n      jump\t// in\n    tag_342:\n        /* \"#utility.yul\":19094:19160   */\n      swap1\n      pop\n        /* \"#utility.yul\":19024:19166   */\n      swap2\n      swap1\n      pop\n      jump\t// out\n        /* \"#utility.yul\":19172:19247   */\n    tag_158:\n        /* \"#utility.yul\":19215:19218   */\n      0x00\n        /* \"#utility.yul\":19236:19241   */\n      dup2\n        /* \"#utility.yul\":19229:19241   */\n      swap1\n      pop\n        /* \"#utility.yul\":19172:19247   */\n      swap2\n      swap1\n      pop\n      jump\t// out\n        /* \"#utility.yul\":19253:19522   */\n    tag_159:\n        /* \"#utility.yul\":19363:19402   */\n      tag_347\n        /* \"#utility.yul\":19394:19401   */\n      dup4\n        /* \"#utility.yul\":19363:19402   */\n      tag_157\n      jump\t// in\n    tag_347:\n        /* \"#utility.yul\":19424:19515   */\n      tag_348\n        /* \"#utility.yul\":19473:19514   */\n      tag_349\n        /* \"#utility.yul\":19497:19513   */\n      dup3\n        /* \"#utility.yul\":19473:19514   */\n      tag_158\n      jump\t// in\n    tag_349:\n        /* \"#utility.yul\":19465:19471   */\n      dup5\n        /* \"#utility.yul\":19458:19462   */\n      dup5\n        /* \"#utility.yul\":19452:19463   */\n      sload\n        /* \"#utility.yul\":19424:19515   */\n      tag_155\n      jump\t// in\n    tag_348:\n        /* \"#utility.yul\":19418:19422   */\n      dup3\n        /* \"#utility.yul\":19411:19516   */\n      sstore\n        /* \"#utility.yul\":19329:19522   */\n      pop\n        /* \"#utility.yul\":19253:19522   */\n      pop\n      pop\n      pop\n      jump\t// out\n        /* \"#utility.yul\":19528:19601   */\n    tag_160:\n        /* \"#utility.yul\":19573:19576   */\n      0x00\n        /* \"#utility.yul\":19528:19601   */\n      swap1\n      jump\t// out\n        /* \"#utility.yul\":19607:19796   */\n    tag_161:\n        /* \"#utility.yul\":19684:19716   */\n      tag_352\n      tag_160\n      jump\t// in\n    tag_352:\n        /* \"#utility.yul\":19725:19790   */\n      tag_353\n        /* \"#utility.yul\":19783:19789   */\n      dup2\n        /* \"#utility.yul\":19775:19781   */\n      dup5\n        /* \"#utility.yul\":19769:19773   */\n      dup5\n        /* \"#utility.yul\":19725:19790   */\n      tag_159\n      jump\t// in\n    tag_353:\n        /* \"#utility.yul\":19660:19796   */\n      pop\n        /* \"#utility.yul\":19607:19796   */\n      pop\n      pop\n      jump\t// out\n        /* \"#utility.yul\":19802:19988   */\n    tag_162:\n        /* \"#utility.yul\":19862:19982   */\n    tag_355:\n        /* \"#utility.yul\":19879:19882   */\n      dup2\n        /* \"#utility.yul\":19872:19877   */\n      dup2\n        /* \"#utility.yul\":19869:19883   */\n      lt\n        /* \"#utility.yul\":19862:19982   */\n      iszero\n      tag_357\n      jumpi\n        /* \"#utility.yul\":19933:19972   */\n      tag_358\n        /* \"#utility.yul\":19970:19971   */\n      0x00\n        /* \"#utility.yul\":19963:19968   */\n      dup3\n        /* \"#utility.yul\":19933:19972   */\n      tag_161\n      jump\t// in\n    tag_358:\n        /* \"#utility.yul\":19906:19907   */\n      0x01\n        /* \"#utility.yul\":19899:19904   */\n      dup2\n        /* \"#utility.yul\":19895:19908   */\n      add\n        /* \"#utility.yul\":19886:19908   */\n      swap1\n      pop\n        /* \"#utility.yul\":19862:19982   */\n      jump(tag_355)\n    tag_357:\n        /* \"#utility.yul\":19802:19988   */\n      pop\n      pop\n      jump\t// out\n        /* \"#utility.yul\":19994:20537   */\n    tag_163:\n        /* \"#utility.yul\":20095:20097   */\n      0x1f\n        /* \"#utility.yul\":20090:20093   */\n      dup3\n        /* \"#utility.yul\":20087:20098   */\n      gt\n        /* \"#utility.yul\":20084:20530   */\n      iszero\n      tag_360\n      jumpi\n        /* \"#utility.yul\":20129:20167   */\n      tag_361\n        /* \"#utility.yul\":20161:20166   */\n      dup2\n        /* \"#utility.yul\":20129:20167   */\n      tag_152\n      jump\t// in\n    tag_361:\n        /* \"#utility.yul\":20213:20242   */\n      tag_362\n        /* \"#utility.yul\":20231:20241   */\n      dup5\n        /* \"#utility.yul\":20213:20242   */\n      tag_153\n      jump\t// in\n    tag_362:\n        /* \"#utility.yul\":20203:20211   */\n      dup2\n        /* \"#utility.yul\":20199:20243   */\n      add\n        /* \"#utility.yul\":20396:20398   */\n      0x20\n        /* \"#utility.yul\":20384:20394   */\n      dup6\n        /* \"#utility.yul\":20381:20399   */\n      lt\n        /* \"#utility.yul\":20378:20427   */\n      iszero\n      tag_363\n      jumpi\n        /* \"#utility.yul\":20417:20425   */\n      dup2\n        /* \"#utility.yul\":20402:20425   */\n      swap1\n      pop\n        /* \"#utility.yul\":20378:20427   */\n    tag_363:\n        /* \"#utility.yul\":20440:20520   */\n      tag_364\n        /* \"#utility.yul\":20496:20518   */\n      tag_365\n        /* \"#utility.yul\":20514:20517   */\n      dup6\n        /* \"#utility.yul\":20496:20518   */\n      tag_153\n      jump\t// in\n    tag_365:\n        /* \"#utility.yul\":20486:20494   */\n      dup4\n        /* \"#utility.yul\":20482:20519   */\n      add\n        /* \"#utility.yul\":20469:20480   */\n      dup3\n        /* \"#utility.yul\":20440:20520   */\n      tag_162\n      jump\t// in\n    tag_364:\n        /* \"#utility.yul\":20099:20530   */\n      pop\n      pop\n        /* \"#utility.yul\":20084:20530   */\n    tag_360:\n        /* \"#utility.yul\":19994:20537   */\n      pop\n      pop\n      pop\n      jump\t// out\n        /* \"#utility.yul\":20543:20660   */\n    tag_164:\n        /* \"#utility.yul\":20597:20605   */\n      0x00\n        /* \"#utility.yul\":20647:20652   */\n      dup3\n        /* \"#utility.yul\":20641:20645   */\n      dup3\n        /* \"#utility.yul\":20637:20653   */\n      shr\n        /* \"#utility.yul\":20616:20653   */\n      swap1\n      pop\n        /* \"#utility.yul\":20543:20660   */\n      swap3\n      swap2\n      pop\n      pop\n      jump\t// out\n        /* \"#utility.yul\":20666:20835   */\n    tag_165:\n        /* \"#utility.yul\":20710:20716   */\n      0x00\n        /* \"#utility.yul\":20743:20794   */\n      tag_368\n        /* \"#utility.yul\":20791:20792   */\n      0x00\n        /* \"#utility.yul\":20787:20793   */\n      not\n        /* \"#utility.yul\":20779:20784   */\n      dup5\n        /* \"#utility.yul\":20776:20777   */\n      0x08\n        /* \"#utility.yul\":20772:20785   */\n      mul\n        /* \"#utility.yul\":20743:20794   */\n      tag_164\n      jump\t// in\n    tag_368:\n        /* \"#utility.yul\":20739:20795   */\n      not\n        /* \"#utility.yul\":20824:20828   */\n      dup1\n        /* \"#utility.yul\":20818:20822   */\n      dup4\n        /* \"#utility.yul\":20814:20829   */\n      and\n        /* \"#utility.yul\":20804:20829   */\n      swap2\n      pop\n        /* \"#utility.yul\":20717:20835   */\n      pop\n        /* \"#utility.yul\":20666:20835   */\n      swap3\n      swap2\n      pop\n      pop\n      jump\t// out\n        /* \"#utility.yul\":20840:21135   */\n    tag_166:\n        /* \"#utility.yul\":20916:20920   */\n      0x00\n        /* \"#utility.yul\":21062:21091   */\n      tag_370\n        /* \"#utility.yul\":21087:21090   */\n      dup4\n        /* \"#utility.yul\":21081:21085   */\n      dup4\n        /* \"#utility.yul\":21062:21091   */\n      tag_165\n      jump\t// in\n    tag_370:\n        /* \"#utility.yul\":21054:21091   */\n      swap2\n      pop\n        /* \"#utility.yul\":21124:21127   */\n      dup3\n        /* \"#utility.yul\":21121:21122   */\n      0x02\n        /* \"#utility.yul\":21117:21128   */\n      mul\n        /* \"#utility.yul\":21111:21115   */\n      dup3\n        /* \"#utility.yul\":21108:21129   */\n      or\n        /* \"#utility.yul\":21100:21129   */\n      swap1\n      pop\n        /* \"#utility.yul\":20840:21135   */\n      swap3\n      swap2\n      pop\n      pop\n      jump\t// out\n        /* \"#utility.yul\":21140:22535   */\n    tag_90:\n        /* \"#utility.yul\":21257:21294   */\n      tag_372\n        /* \"#utility.yul\":21290:21293   */\n      dup3\n        /* \"#utility.yul\":21257:21294   */\n      tag_114\n      jump\t// in\n    tag_372:\n        /* \"#utility.yul\":21359:21377   */\n      0xffffffffffffffff\n        /* \"#utility.yul\":21351:21357   */\n      dup2\n        /* \"#utility.yul\":21348:21378   */\n      gt\n        /* \"#utility.yul\":21345:21401   */\n      iszero\n      tag_373\n      jumpi\n        /* \"#utility.yul\":21381:21399   */\n      tag_374\n      tag_136\n      jump\t// in\n    tag_374:\n        /* \"#utility.yul\":21345:21401   */\n    tag_373:\n        /* \"#utility.yul\":21425:21463   */\n      tag_375\n        /* \"#utility.yul\":21457:21461   */\n      dup3\n        /* \"#utility.yul\":21451:21462   */\n      sload\n        /* \"#utility.yul\":21425:21463   */\n      tag_52\n      jump\t// in\n    tag_375:\n        /* \"#utility.yul\":21510:21577   */\n      tag_376\n        /* \"#utility.yul\":21570:21576   */\n      dup3\n        /* \"#utility.yul\":21562:21568   */\n      dup3\n        /* \"#utility.yul\":21556:21560   */\n      dup6\n        /* \"#utility.yul\":21510:21577   */\n      tag_163\n      jump\t// in\n    tag_376:\n        /* \"#utility.yul\":21604:21605   */\n      0x00\n        /* \"#utility.yul\":21628:21632   */\n      0x20\n        /* \"#utility.yul\":21615:21632   */\n      swap1\n      pop\n        /* \"#utility.yul\":21660:21662   */\n      0x1f\n        /* \"#utility.yul\":21652:21658   */\n      dup4\n        /* \"#utility.yul\":21649:21663   */\n      gt\n        /* \"#utility.yul\":21677:21678   */\n      0x01\n        /* \"#utility.yul\":21672:22290   */\n      dup2\n      eq\n      tag_378\n      jumpi\n        /* \"#utility.yul\":22334:22335   */\n      0x00\n        /* \"#utility.yul\":22351:22357   */\n      dup5\n        /* \"#utility.yul\":22348:22425   */\n      iszero\n      tag_379\n      jumpi\n        /* \"#utility.yul\":22400:22409   */\n      dup3\n        /* \"#utility.yul\":22395:22398   */\n      dup8\n        /* \"#utility.yul\":22391:22410   */\n      add\n        /* \"#utility.yul\":22385:22411   */\n      mload\n        /* \"#utility.yul\":22376:22411   */\n      swap1\n      pop\n        /* \"#utility.yul\":22348:22425   */\n    tag_379:\n        /* \"#utility.yul\":22451:22518   */\n      tag_380\n        /* \"#utility.yul\":22511:22517   */\n      dup6\n        /* \"#utility.yul\":22504:22509   */\n      dup3\n        /* \"#utility.yul\":22451:22518   */\n      tag_166\n      jump\t// in\n    tag_380:\n        /* \"#utility.yul\":22445:22449   */\n      dup7\n        /* \"#utility.yul\":22438:22519   */\n      sstore\n        /* \"#utility.yul\":22307:22529   */\n      pop\n        /* \"#utility.yul\":21642:22529   */\n      jump(tag_377)\n        /* \"#utility.yul\":21672:22290   */\n    tag_378:\n        /* \"#utility.yul\":21724:21728   */\n      0x1f\n        /* \"#utility.yul\":21720:21729   */\n      not\n        /* \"#utility.yul\":21712:21718   */\n      dup5\n        /* \"#utility.yul\":21708:21730   */\n      and\n        /* \"#utility.yul\":21758:21795   */\n      tag_381\n        /* \"#utility.yul\":21790:21794   */\n      dup7\n        /* \"#utility.yul\":21758:21795   */\n      tag_152\n      jump\t// in\n    tag_381:\n        /* \"#utility.yul\":21817:21818   */\n      0x00\n        /* \"#utility.yul\":21831:22039   */\n    tag_382:\n        /* \"#utility.yul\":21845:21852   */\n      dup3\n        /* \"#utility.yul\":21842:21843   */\n      dup2\n        /* \"#utility.yul\":21839:21853   */\n      lt\n        /* \"#utility.yul\":21831:22039   */\n      iszero\n      tag_384\n      jumpi\n        /* \"#utility.yul\":21924:21933   */\n      dup5\n        /* \"#utility.yul\":21919:21922   */\n      dup10\n        /* \"#utility.yul\":21915:21934   */\n      add\n        /* \"#utility.yul\":21909:21935   */\n      mload\n        /* \"#utility.yul\":21901:21907   */\n      dup3\n        /* \"#utility.yul\":21894:21936   */\n      sstore\n        /* \"#utility.yul\":21975:21976   */\n      0x01\n        /* \"#utility.yul\":21967:21973   */\n      dup3\n        /* \"#utility.yul\":21963:21977   */\n      add\n        /* \"#utility.yul\":21953:21977   */\n      swap2\n      pop\n        /* \"#utility.yul\":22022:22024   */\n      0x20\n        /* \"#utility.yul\":22011:22020   */\n      dup6\n        /* \"#utility.yul\":22007:22025   */\n      add\n        /* \"#utility.yul\":21994:22025   */\n      swap5\n      pop\n        /* \"#utility.yul\":21868:21872   */\n      0x20\n        /* \"#utility.yul\":21865:21866   */\n      dup2\n        /* \"#utility.yul\":21861:21873   */\n      add\n        /* \"#utility.yul\":21856:21873   */\n      swap1\n      pop\n        /* \"#utility.yul\":21831:22039   */\n      jump(tag_382)\n    tag_384:\n        /* \"#utility.yul\":22067:22073   */\n      dup7\n        /* \"#utility.yul\":22058:22065   */\n      dup4\n        /* \"#utility.yul\":22055:22074   */\n      lt\n        /* \"#utility.yul\":22052:22231   */\n      iszero\n      tag_385\n      jumpi\n        /* \"#utility.yul\":22125:22134   */\n      dup5\n        /* \"#utility.yul\":22120:22123   */\n      dup10\n        /* \"#utility.yul\":22116:22135   */\n      add\n        /* \"#utility.yul\":22110:22136   */\n      mload\n        /* \"#utility.yul\":22168:22216   */\n      tag_386\n        /* \"#utility.yul\":22210:22214   */\n      0x1f\n        /* \"#utility.yul\":22202:22208   */\n      dup10\n        /* \"#utility.yul\":22198:22215   */\n      and\n        /* \"#utility.yul\":22187:22196   */\n      dup3\n        /* \"#utility.yul\":22168:22216   */\n      tag_165\n      jump\t// in\n    tag_386:\n        /* \"#utility.yul\":22160:22166   */\n      dup4\n        /* \"#utility.yul\":22153:22217   */\n      sstore\n        /* \"#utility.yul\":22075:22231   */\n      pop\n        /* \"#utility.yul\":22052:22231   */\n    tag_385:\n        /* \"#utility.yul\":22277:22278   */\n      0x01\n        /* \"#utility.yul\":22273:22274   */\n      0x02\n        /* \"#utility.yul\":22265:22271   */\n      dup9\n        /* \"#utility.yul\":22261:22275   */\n      mul\n        /* \"#utility.yul\":22257:22279   */\n      add\n        /* \"#utility.yul\":22251:22255   */\n      dup9\n        /* \"#utility.yul\":22244:22280   */\n      sstore\n        /* \"#utility.yul\":21679:22290   */\n      pop\n      pop\n      pop\n        /* \"#utility.yul\":21642:22529   */\n    tag_377:\n      pop\n        /* \"#utility.yul\":21232:22535   */\n      pop\n      pop\n      pop\n        /* \"#utility.yul\":21140:22535   */\n      pop\n      pop\n      jump\t// out\n\n    auxdata: 0xa2646970667358221220851d9128330aa350e66bf284fd60941236c725d03336165b996a7d2e64222f4464736f6c634300081a0033\n}\n",
				"bytecode": {
					"linkReferences": {},
					"object": "60806040526101185f806101000a81548161ffff021916908361ffff160217905550348015602b575f80fd5b503360025f6101000a81548173ffffffffffffffffffffffffffffffffffffffff021916908373ffffffffffffffffffffffffffffffffffffffff1602179055506114ef806100795f395ff3fe608060405234801561000f575f80fd5b5060043610610086575f3560e01c80636eb10797116100595780636eb10797146101265780637c9cd2bc146101445780638da5cb5b14610160578063c3ad5ecb1461017e57610086565b806305a1b4a91461008a57806312e7ee1c146100be57806358bfa4ab146100ee578063633782161461010a575b5f80fd5b6100a4600480360381019061009f9190610a40565b6101ae565b6040516100b5959493929190610b0c565b60405180910390f35b6100d860048036038101906100d39190610b64565b61029f565b6040516100e59190610d23565b60405180910390f35b61010860048036038101906101039190610d7a565b61043a565b005b610124600480360381019061011f9190610a40565b6104e7565b005b61012e6105fd565b60405161013b9190610db4565b60405180910390f35b61015e60048036038101906101599190610ef9565b61060e565b005b6101686107c5565b6040516101759190610f40565b60405180910390f35b61019860048036038101906101939190610f59565b6107ea565b6040516101a59190610ff7565b60405180910390f35b6001602052815f5260405f2081815481106101c7575f80fd5b905f5260205f2090600502015f9150915050805f015490806001015f9054906101000a900473ffffffffffffffffffffffffffffffffffffffff169080600201805461021290611044565b80601f016020809104026020016040519081016040528092919081815260200182805461023e90611044565b80156102895780601f1061026057610100808354040283529160200191610289565b820191905f5260205f20905b81548152906001019060200180831161026c57829003601f168201915b5050505050908060030154908060040154905085565b606060015f8373ffffffffffffffffffffffffffffffffffffffff1673ffffffffffffffffffffffffffffffffffffffff1681526020019081526020015f20805480602002602001604051908101604052809291908181526020015f905b8282101561042f578382905f5260205f2090600502016040518060a00160405290815f8201548152602001600182015f9054906101000a900473ffffffffffffffffffffffffffffffffffffffff1673ffffffffffffffffffffffffffffffffffffffff1673ffffffffffffffffffffffffffffffffffffffff16815260200160028201805461038c90611044565b80601f01602080910402602001604051908101604052809291908181526020018280546103b890611044565b80156104035780601f106103da57610100808354040283529160200191610403565b820191905f5260205f20905b8154815290600101906020018083116103e657829003601f168201915b5050505050815260200160038201548152602001600482015481525050815260200190600101906102fd565b505050509050919050565b60025f9054906101000a900473ffffffffffffffffffffffffffffffffffffffff1673ffffffffffffffffffffffffffffffffffffffff163373ffffffffffffffffffffffffffffffffffffffff16146104c9576040517f08c379a00000000000000000000000000000000000000000000000000000000081526004016104c0906110be565b60405180910390fd5b805f806101000a81548161ffff021916908361ffff16021790555050565b8060015f8473ffffffffffffffffffffffffffffffffffffffff1673ffffffffffffffffffffffffffffffffffffffff1681526020019081526020015f208281548110610537576105366110dc565b5b905f5260205f2090600502015f015414610586576040517f08c379a000000000000000000000000000000000000000000000000000000000815260040161057d90611153565b60405180910390fd5b60015f8373ffffffffffffffffffffffffffffffffffffffff1673ffffffffffffffffffffffffffffffffffffffff1681526020019081526020015f2081815481106105d5576105d46110dc565b5b905f5260205f2090600502016004015f8154809291906105f49061119e565b91905055505050565b5f8054906101000a900461ffff1681565b5f8054906101000a900461ffff1661ffff1681511115610663576040517f08c379a000000000000000000000000000000000000000000000000000000000815260040161065a9061122f565b60405180910390fd5b5f6040518060a0016040528060015f3373ffffffffffffffffffffffffffffffffffffffff1673ffffffffffffffffffffffffffffffffffffffff1681526020019081526020015f208054905081526020013373ffffffffffffffffffffffffffffffffffffffff1681526020018381526020014281526020015f815250905060015f3373ffffffffffffffffffffffffffffffffffffffff1673ffffffffffffffffffffffffffffffffffffffff1681526020019081526020015f2081908060018154018082558091505060019003905f5260205f2090600502015f909190919091505f820151815f01556020820151816001015f6101000a81548173ffffffffffffffffffffffffffffffffffffffff021916908373ffffffffffffffffffffffffffffffffffffffff16021790555060408201518160020190816107aa91906113ea565b50606082015181600301556080820151816004015550505050565b60025f9054906101000a900473ffffffffffffffffffffffffffffffffffffffff1681565b6107f2610961565b60015f3373ffffffffffffffffffffffffffffffffffffffff1673ffffffffffffffffffffffffffffffffffffffff1681526020019081526020015f208281548110610841576108406110dc565b5b905f5260205f2090600502016040518060a00160405290815f8201548152602001600182015f9054906101000a900473ffffffffffffffffffffffffffffffffffffffff1673ffffffffffffffffffffffffffffffffffffffff1673ffffffffffffffffffffffffffffffffffffffff1681526020016002820180546108c690611044565b80601f01602080910402602001604051908101604052809291908181526020018280546108f290611044565b801561093d5780601f106109145761010080835404028352916020019161093d565b820191905f5260205f20905b81548152906001019060200180831161092057829003601f168201915b50505050508152602001600382015481526020016004820154815250509050919050565b6040518060a001604052805f81526020015f73ffffffffffffffffffffffffffffffffffffffff168152602001606081526020015f81526020015f81525090565b5f604051905090565b5f80fd5b5f80fd5b5f73ffffffffffffffffffffffffffffffffffffffff82169050919050565b5f6109dc826109b3565b9050919050565b6109ec816109d2565b81146109f6575f80fd5b50565b5f81359050610a07816109e3565b92915050565b5f819050919050565b610a1f81610a0d565b8114610a29575f80fd5b50565b5f81359050610a3a81610a16565b92915050565b5f8060408385031215610a5657610a556109ab565b5b5f610a63858286016109f9565b9250506020610a7485828601610a2c565b9150509250929050565b610a8781610a0d565b82525050565b610a96816109d2565b82525050565b5f81519050919050565b5f82825260208201905092915050565b8281835e5f83830152505050565b5f601f19601f8301169050919050565b5f610ade82610a9c565b610ae88185610aa6565b9350610af8818560208601610ab6565b610b0181610ac4565b840191505092915050565b5f60a082019050610b1f5f830188610a7e565b610b2c6020830187610a8d565b8181036040830152610b3e8186610ad4565b9050610b4d6060830185610a7e565b610b5a6080830184610a7e565b9695505050505050565b5f60208284031215610b7957610b786109ab565b5b5f610b86848285016109f9565b91505092915050565b5f81519050919050565b5f82825260208201905092915050565b5f819050602082019050919050565b610bc181610a0d565b82525050565b610bd0816109d2565b82525050565b5f82825260208201905092915050565b5f610bf082610a9c565b610bfa8185610bd6565b9350610c0a818560208601610ab6565b610c1381610ac4565b840191505092915050565b5f60a083015f830151610c335f860182610bb8565b506020830151610c466020860182610bc7565b5060408301518482036040860152610c5e8282610be6565b9150506060830151610c736060860182610bb8565b506080830151610c866080860182610bb8565b508091505092915050565b5f610c9c8383610c1e565b905092915050565b5f602082019050919050565b5f610cba82610b8f565b610cc48185610b99565b935083602082028501610cd685610ba9565b805f5b85811015610d115784840389528151610cf28582610c91565b9450610cfd83610ca4565b925060208a01995050600181019050610cd9565b50829750879550505050505092915050565b5f6020820190508181035f830152610d3b8184610cb0565b905092915050565b5f61ffff82169050919050565b610d5981610d43565b8114610d63575f80fd5b50565b5f81359050610d7481610d50565b92915050565b5f60208284031215610d8f57610d8e6109ab565b5b5f610d9c84828501610d66565b91505092915050565b610dae81610d43565b82525050565b5f602082019050610dc75f830184610da5565b92915050565b5f80fd5b5f80fd5b7f4e487b71000000000000000000000000000000000000000000000000000000005f52604160045260245ffd5b610e0b82610ac4565b810181811067ffffffffffffffff82111715610e2a57610e29610dd5565b5b80604052505050565b5f610e3c6109a2565b9050610e488282610e02565b919050565b5f67ffffffffffffffff821115610e6757610e66610dd5565b5b610e7082610ac4565b9050602081019050919050565b828183375f83830152505050565b5f610e9d610e9884610e4d565b610e33565b905082815260208101848484011115610eb957610eb8610dd1565b5b610ec4848285610e7d565b509392505050565b5f82601f830112610ee057610edf610dcd565b5b8135610ef0848260208601610e8b565b91505092915050565b5f60208284031215610f0e57610f0d6109ab565b5b5f82013567ffffffffffffffff811115610f2b57610f2a6109af565b5b610f3784828501610ecc565b91505092915050565b5f602082019050610f535f830184610a8d565b92915050565b5f60208284031215610f6e57610f6d6109ab565b5b5f610f7b84828501610a2c565b91505092915050565b5f60a083015f830151610f995f860182610bb8565b506020830151610fac6020860182610bc7565b5060408301518482036040860152610fc48282610be6565b9150506060830151610fd96060860182610bb8565b506080830151610fec6080860182610bb8565b508091505092915050565b5f6020820190508181035f83015261100f8184610f84565b905092915050565b7f4e487b71000000000000000000000000000000000000000000000000000000005f52602260045260245ffd5b5f600282049050600182168061105b57607f821691505b60208210810361106e5761106d611017565b5b50919050565b7f594f5520415245204e4f5420544845204f574e455221000000000000000000005f82015250565b5f6110a8601683610aa6565b91506110b382611074565b602082019050919050565b5f6020820190508181035f8301526110d58161109c565b9050919050565b7f4e487b71000000000000000000000000000000000000000000000000000000005f52603260045260245ffd5b7f547765657420646f6573206e6f742065786973740000000000000000000000005f82015250565b5f61113d601483610aa6565b915061114882611109565b602082019050919050565b5f6020820190508181035f83015261116a81611131565b9050919050565b7f4e487b71000000000000000000000000000000000000000000000000000000005f52601160045260245ffd5b5f6111a882610a0d565b91507fffffffffffffffffffffffffffffffffffffffffffffffffffffffffffffffff82036111da576111d9611171565b5b600182019050919050565b7f547765657420697320746f6f206c6f6e672062726f21000000000000000000005f82015250565b5f611219601683610aa6565b9150611224826111e5565b602082019050919050565b5f6020820190508181035f8301526112468161120d565b9050919050565b5f819050815f5260205f209050919050565b5f6020601f8301049050919050565b5f82821b905092915050565b5f600883026112a97fffffffffffffffffffffffffffffffffffffffffffffffffffffffffffffffff8261126e565b6112b3868361126e565b95508019841693508086168417925050509392505050565b5f819050919050565b5f6112ee6112e96112e484610a0d565b6112cb565b610a0d565b9050919050565b5f819050919050565b611307836112d4565b61131b611313826112f5565b84845461127a565b825550505050565b5f90565b61132f611323565b61133a8184846112fe565b505050565b5b8181101561135d576113525f82611327565b600181019050611340565b5050565b601f8211156113a2576113738161124d565b61137c8461125f565b8101602085101561138b578190505b61139f6113978561125f565b83018261133f565b50505b505050565b5f82821c905092915050565b5f6113c25f19846008026113a7565b1980831691505092915050565b5f6113da83836113b3565b9150826002028217905092915050565b6113f382610a9c565b67ffffffffffffffff81111561140c5761140b610dd5565b5b6114168254611044565b611421828285611361565b5f60209050601f831160018114611452575f8415611440578287015190505b61144a85826113cf565b8655506114b1565b601f1984166114608661124d565b5f5b8281101561148757848901518255600182019150602085019450602081019050611462565b868310156114a457848901516114a0601f8916826113b3565b8355505b6001600288020188555050505b50505050505056fea2646970667358221220851d9128330aa350e66bf284fd60941236c725d03336165b996a7d2e64222f4464736f6c634300081a0033",
					"opcodes": "PUSH1 0x80 PUSH1 0x40 MSTORE PUSH2 0x118 PUSH0 DUP1 PUSH2 0x100 EXP DUP2 SLOAD DUP2 PUSH2 0xFFFF MUL NOT AND SWAP1 DUP4 PUSH2 0xFFFF AND MUL OR SWAP1 SSTORE POP CALLVALUE DUP1 ISZERO PUSH1 0x2B JUMPI PUSH0 DUP1 REVERT JUMPDEST POP CALLER PUSH1 0x2 PUSH0 PUSH2 0x100 EXP DUP2 SLOAD DUP2 PUSH20 0xFFFFFFFFFFFFFFFFFFFFFFFFFFFFFFFFFFFFFFFF MUL NOT AND SWAP1 DUP4 PUSH20 0xFFFFFFFFFFFFFFFFFFFFFFFFFFFFFFFFFFFFFFFF AND MUL OR SWAP1 SSTORE POP PUSH2 0x14EF DUP1 PUSH2 0x79 PUSH0 CODECOPY PUSH0 RETURN INVALID PUSH1 0x80 PUSH1 0x40 MSTORE CALLVALUE DUP1 ISZERO PUSH2 0xF JUMPI PUSH0 DUP1 REVERT JUMPDEST POP PUSH1 0x4 CALLDATASIZE LT PUSH2 0x86 JUMPI PUSH0 CALLDATALOAD PUSH1 0xE0 SHR DUP1 PUSH4 0x6EB10797 GT PUSH2 0x59 JUMPI DUP1 PUSH4 0x6EB10797 EQ PUSH2 0x126 JUMPI DUP1 PUSH4 0x7C9CD2BC EQ PUSH2 0x144 JUMPI DUP1 PUSH4 0x8DA5CB5B EQ PUSH2 0x160 JUMPI DUP1 PUSH4 0xC3AD5ECB EQ PUSH2 0x17E JUMPI PUSH2 0x86 JUMP JUMPDEST DUP1 PUSH4 0x5A1B4A9 EQ PUSH2 0x8A JUMPI DUP1 PUSH4 0x12E7EE1C EQ PUSH2 0xBE JUMPI DUP1 PUSH4 0x58BFA4AB EQ PUSH2 0xEE JUMPI DUP1 PUSH4 0x63378216 EQ PUSH2 0x10A JUMPI JUMPDEST PUSH0 DUP1 REVERT JUMPDEST PUSH2 0xA4 PUSH1 0x4 DUP1 CALLDATASIZE SUB DUP2 ADD SWAP1 PUSH2 0x9F SWAP2 SWAP1 PUSH2 0xA40 JUMP JUMPDEST PUSH2 0x1AE JUMP JUMPDEST PUSH1 0x40 MLOAD PUSH2 0xB5 SWAP6 SWAP5 SWAP4 SWAP3 SWAP2 SWAP1 PUSH2 0xB0C JUMP JUMPDEST PUSH1 0x40 MLOAD DUP1 SWAP2 SUB SWAP1 RETURN JUMPDEST PUSH2 0xD8 PUSH1 0x4 DUP1 CALLDATASIZE SUB DUP2 ADD SWAP1 PUSH2 0xD3 SWAP2 SWAP1 PUSH2 0xB64 JUMP JUMPDEST PUSH2 0x29F JUMP JUMPDEST PUSH1 0x40 MLOAD PUSH2 0xE5 SWAP2 SWAP1 PUSH2 0xD23 JUMP JUMPDEST PUSH1 0x40 MLOAD DUP1 SWAP2 SUB SWAP1 RETURN JUMPDEST PUSH2 0x108 PUSH1 0x4 DUP1 CALLDATASIZE SUB DUP2 ADD SWAP1 PUSH2 0x103 SWAP2 SWAP1 PUSH2 0xD7A JUMP JUMPDEST PUSH2 0x43A JUMP JUMPDEST STOP JUMPDEST PUSH2 0x124 PUSH1 0x4 DUP1 CALLDATASIZE SUB DUP2 ADD SWAP1 PUSH2 0x11F SWAP2 SWAP1 PUSH2 0xA40 JUMP JUMPDEST PUSH2 0x4E7 JUMP JUMPDEST STOP JUMPDEST PUSH2 0x12E PUSH2 0x5FD JUMP JUMPDEST PUSH1 0x40 MLOAD PUSH2 0x13B SWAP2 SWAP1 PUSH2 0xDB4 JUMP JUMPDEST PUSH1 0x40 MLOAD DUP1 SWAP2 SUB SWAP1 RETURN JUMPDEST PUSH2 0x15E PUSH1 0x4 DUP1 CALLDATASIZE SUB DUP2 ADD SWAP1 PUSH2 0x159 SWAP2 SWAP1 PUSH2 0xEF9 JUMP JUMPDEST PUSH2 0x60E JUMP JUMPDEST STOP JUMPDEST PUSH2 0x168 PUSH2 0x7C5 JUMP JUMPDEST PUSH1 0x40 MLOAD PUSH2 0x175 SWAP2 SWAP1 PUSH2 0xF40 JUMP JUMPDEST PUSH1 0x40 MLOAD DUP1 SWAP2 SUB SWAP1 RETURN JUMPDEST PUSH2 0x198 PUSH1 0x4 DUP1 CALLDATASIZE SUB DUP2 ADD SWAP1 PUSH2 0x193 SWAP2 SWAP1 PUSH2 0xF59 JUMP JUMPDEST PUSH2 0x7EA JUMP JUMPDEST PUSH1 0x40 MLOAD PUSH2 0x1A5 SWAP2 SWAP1 PUSH2 0xFF7 JUMP JUMPDEST PUSH1 0x40 MLOAD DUP1 SWAP2 SUB SWAP1 RETURN JUMPDEST PUSH1 0x1 PUSH1 0x20 MSTORE DUP2 PUSH0 MSTORE PUSH1 0x40 PUSH0 KECCAK256 DUP2 DUP2 SLOAD DUP2 LT PUSH2 0x1C7 JUMPI PUSH0 DUP1 REVERT JUMPDEST SWAP1 PUSH0 MSTORE PUSH1 0x20 PUSH0 KECCAK256 SWAP1 PUSH1 0x5 MUL ADD PUSH0 SWAP2 POP SWAP2 POP POP DUP1 PUSH0 ADD SLOAD SWAP1 DUP1 PUSH1 0x1 ADD PUSH0 SWAP1 SLOAD SWAP1 PUSH2 0x100 EXP SWAP1 DIV PUSH20 0xFFFFFFFFFFFFFFFFFFFFFFFFFFFFFFFFFFFFFFFF AND SWAP1 DUP1 PUSH1 0x2 ADD DUP1 SLOAD PUSH2 0x212 SWAP1 PUSH2 0x1044 JUMP JUMPDEST DUP1 PUSH1 0x1F ADD PUSH1 0x20 DUP1 SWAP2 DIV MUL PUSH1 0x20 ADD PUSH1 0x40 MLOAD SWAP1 DUP2 ADD PUSH1 0x40 MSTORE DUP1 SWAP3 SWAP2 SWAP1 DUP2 DUP2 MSTORE PUSH1 0x20 ADD DUP3 DUP1 SLOAD PUSH2 0x23E SWAP1 PUSH2 0x1044 JUMP JUMPDEST DUP1 ISZERO PUSH2 0x289 JUMPI DUP1 PUSH1 0x1F LT PUSH2 0x260 JUMPI PUSH2 0x100 DUP1 DUP4 SLOAD DIV MUL DUP4 MSTORE SWAP2 PUSH1 0x20 ADD SWAP2 PUSH2 0x289 JUMP JUMPDEST DUP3 ADD SWAP2 SWAP1 PUSH0 MSTORE PUSH1 0x20 PUSH0 KECCAK256 SWAP1 JUMPDEST DUP2 SLOAD DUP2 MSTORE SWAP1 PUSH1 0x1 ADD SWAP1 PUSH1 0x20 ADD DUP1 DUP4 GT PUSH2 0x26C JUMPI DUP3 SWAP1 SUB PUSH1 0x1F AND DUP3 ADD SWAP2 JUMPDEST POP POP POP POP POP SWAP1 DUP1 PUSH1 0x3 ADD SLOAD SWAP1 DUP1 PUSH1 0x4 ADD SLOAD SWAP1 POP DUP6 JUMP JUMPDEST PUSH1 0x60 PUSH1 0x1 PUSH0 DUP4 PUSH20 0xFFFFFFFFFFFFFFFFFFFFFFFFFFFFFFFFFFFFFFFF AND PUSH20 0xFFFFFFFFFFFFFFFFFFFFFFFFFFFFFFFFFFFFFFFF AND DUP2 MSTORE PUSH1 0x20 ADD SWAP1 DUP2 MSTORE PUSH1 0x20 ADD PUSH0 KECCAK256 DUP1 SLOAD DUP1 PUSH1 0x20 MUL PUSH1 0x20 ADD PUSH1 0x40 MLOAD SWAP1 DUP2 ADD PUSH1 0x40 MSTORE DUP1 SWAP3 SWAP2 SWAP1 DUP2 DUP2 MSTORE PUSH1 0x20 ADD PUSH0 SWAP1 JUMPDEST DUP3 DUP3 LT ISZERO PUSH2 0x42F JUMPI DUP4 DUP3 SWAP1 PUSH0 MSTORE PUSH1 0x20 PUSH0 KECCAK256 SWAP1 PUSH1 0x5 MUL ADD PUSH1 0x40 MLOAD DUP1 PUSH1 0xA0 ADD PUSH1 0x40 MSTORE SWAP1 DUP2 PUSH0 DUP3 ADD SLOAD DUP2 MSTORE PUSH1 0x20 ADD PUSH1 0x1 DUP3 ADD PUSH0 SWAP1 SLOAD SWAP1 PUSH2 0x100 EXP SWAP1 DIV PUSH20 0xFFFFFFFFFFFFFFFFFFFFFFFFFFFFFFFFFFFFFFFF AND PUSH20 0xFFFFFFFFFFFFFFFFFFFFFFFFFFFFFFFFFFFFFFFF AND PUSH20 0xFFFFFFFFFFFFFFFFFFFFFFFFFFFFFFFFFFFFFFFF AND DUP2 MSTORE PUSH1 0x20 ADD PUSH1 0x2 DUP3 ADD DUP1 SLOAD PUSH2 0x38C SWAP1 PUSH2 0x1044 JUMP JUMPDEST DUP1 PUSH1 0x1F ADD PUSH1 0x20 DUP1 SWAP2 DIV MUL PUSH1 0x20 ADD PUSH1 0x40 MLOAD SWAP1 DUP2 ADD PUSH1 0x40 MSTORE DUP1 SWAP3 SWAP2 SWAP1 DUP2 DUP2 MSTORE PUSH1 0x20 ADD DUP3 DUP1 SLOAD PUSH2 0x3B8 SWAP1 PUSH2 0x1044 JUMP JUMPDEST DUP1 ISZERO PUSH2 0x403 JUMPI DUP1 PUSH1 0x1F LT PUSH2 0x3DA JUMPI PUSH2 0x100 DUP1 DUP4 SLOAD DIV MUL DUP4 MSTORE SWAP2 PUSH1 0x20 ADD SWAP2 PUSH2 0x403 JUMP JUMPDEST DUP3 ADD SWAP2 SWAP1 PUSH0 MSTORE PUSH1 0x20 PUSH0 KECCAK256 SWAP1 JUMPDEST DUP2 SLOAD DUP2 MSTORE SWAP1 PUSH1 0x1 ADD SWAP1 PUSH1 0x20 ADD DUP1 DUP4 GT PUSH2 0x3E6 JUMPI DUP3 SWAP1 SUB PUSH1 0x1F AND DUP3 ADD SWAP2 JUMPDEST POP POP POP POP POP DUP2 MSTORE PUSH1 0x20 ADD PUSH1 0x3 DUP3 ADD SLOAD DUP2 MSTORE PUSH1 0x20 ADD PUSH1 0x4 DUP3 ADD SLOAD DUP2 MSTORE POP POP DUP2 MSTORE PUSH1 0x20 ADD SWAP1 PUSH1 0x1 ADD SWAP1 PUSH2 0x2FD JUMP JUMPDEST POP POP POP POP SWAP1 POP SWAP2 SWAP1 POP JUMP JUMPDEST PUSH1 0x2 PUSH0 SWAP1 SLOAD SWAP1 PUSH2 0x100 EXP SWAP1 DIV PUSH20 0xFFFFFFFFFFFFFFFFFFFFFFFFFFFFFFFFFFFFFFFF AND PUSH20 0xFFFFFFFFFFFFFFFFFFFFFFFFFFFFFFFFFFFFFFFF AND CALLER PUSH20 0xFFFFFFFFFFFFFFFFFFFFFFFFFFFFFFFFFFFFFFFF AND EQ PUSH2 0x4C9 JUMPI PUSH1 0x40 MLOAD PUSH32 0x8C379A000000000000000000000000000000000000000000000000000000000 DUP2 MSTORE PUSH1 0x4 ADD PUSH2 0x4C0 SWAP1 PUSH2 0x10BE JUMP JUMPDEST PUSH1 0x40 MLOAD DUP1 SWAP2 SUB SWAP1 REVERT JUMPDEST DUP1 PUSH0 DUP1 PUSH2 0x100 EXP DUP2 SLOAD DUP2 PUSH2 0xFFFF MUL NOT AND SWAP1 DUP4 PUSH2 0xFFFF AND MUL OR SWAP1 SSTORE POP POP JUMP JUMPDEST DUP1 PUSH1 0x1 PUSH0 DUP5 PUSH20 0xFFFFFFFFFFFFFFFFFFFFFFFFFFFFFFFFFFFFFFFF AND PUSH20 0xFFFFFFFFFFFFFFFFFFFFFFFFFFFFFFFFFFFFFFFF AND DUP2 MSTORE PUSH1 0x20 ADD SWAP1 DUP2 MSTORE PUSH1 0x20 ADD PUSH0 KECCAK256 DUP3 DUP2 SLOAD DUP2 LT PUSH2 0x537 JUMPI PUSH2 0x536 PUSH2 0x10DC JUMP JUMPDEST JUMPDEST SWAP1 PUSH0 MSTORE PUSH1 0x20 PUSH0 KECCAK256 SWAP1 PUSH1 0x5 MUL ADD PUSH0 ADD SLOAD EQ PUSH2 0x586 JUMPI PUSH1 0x40 MLOAD PUSH32 0x8C379A000000000000000000000000000000000000000000000000000000000 DUP2 MSTORE PUSH1 0x4 ADD PUSH2 0x57D SWAP1 PUSH2 0x1153 JUMP JUMPDEST PUSH1 0x40 MLOAD DUP1 SWAP2 SUB SWAP1 REVERT JUMPDEST PUSH1 0x1 PUSH0 DUP4 PUSH20 0xFFFFFFFFFFFFFFFFFFFFFFFFFFFFFFFFFFFFFFFF AND PUSH20 0xFFFFFFFFFFFFFFFFFFFFFFFFFFFFFFFFFFFFFFFF AND DUP2 MSTORE PUSH1 0x20 ADD SWAP1 DUP2 MSTORE PUSH1 0x20 ADD PUSH0 KECCAK256 DUP2 DUP2 SLOAD DUP2 LT PUSH2 0x5D5 JUMPI PUSH2 0x5D4 PUSH2 0x10DC JUMP JUMPDEST JUMPDEST SWAP1 PUSH0 MSTORE PUSH1 0x20 PUSH0 KECCAK256 SWAP1 PUSH1 0x5 MUL ADD PUSH1 0x4 ADD PUSH0 DUP2 SLOAD DUP1 SWAP3 SWAP2 SWAP1 PUSH2 0x5F4 SWAP1 PUSH2 0x119E JUMP JUMPDEST SWAP2 SWAP1 POP SSTORE POP POP POP JUMP JUMPDEST PUSH0 DUP1 SLOAD SWAP1 PUSH2 0x100 EXP SWAP1 DIV PUSH2 0xFFFF AND DUP2 JUMP JUMPDEST PUSH0 DUP1 SLOAD SWAP1 PUSH2 0x100 EXP SWAP1 DIV PUSH2 0xFFFF AND PUSH2 0xFFFF AND DUP2 MLOAD GT ISZERO PUSH2 0x663 JUMPI PUSH1 0x40 MLOAD PUSH32 0x8C379A000000000000000000000000000000000000000000000000000000000 DUP2 MSTORE PUSH1 0x4 ADD PUSH2 0x65A SWAP1 PUSH2 0x122F JUMP JUMPDEST PUSH1 0x40 MLOAD DUP1 SWAP2 SUB SWAP1 REVERT JUMPDEST PUSH0 PUSH1 0x40 MLOAD DUP1 PUSH1 0xA0 ADD PUSH1 0x40 MSTORE DUP1 PUSH1 0x1 PUSH0 CALLER PUSH20 0xFFFFFFFFFFFFFFFFFFFFFFFFFFFFFFFFFFFFFFFF AND PUSH20 0xFFFFFFFFFFFFFFFFFFFFFFFFFFFFFFFFFFFFFFFF AND DUP2 MSTORE PUSH1 0x20 ADD SWAP1 DUP2 MSTORE PUSH1 0x20 ADD PUSH0 KECCAK256 DUP1 SLOAD SWAP1 POP DUP2 MSTORE PUSH1 0x20 ADD CALLER PUSH20 0xFFFFFFFFFFFFFFFFFFFFFFFFFFFFFFFFFFFFFFFF AND DUP2 MSTORE PUSH1 0x20 ADD DUP4 DUP2 MSTORE PUSH1 0x20 ADD TIMESTAMP DUP2 MSTORE PUSH1 0x20 ADD PUSH0 DUP2 MSTORE POP SWAP1 POP PUSH1 0x1 PUSH0 CALLER PUSH20 0xFFFFFFFFFFFFFFFFFFFFFFFFFFFFFFFFFFFFFFFF AND PUSH20 0xFFFFFFFFFFFFFFFFFFFFFFFFFFFFFFFFFFFFFFFF AND DUP2 MSTORE PUSH1 0x20 ADD SWAP1 DUP2 MSTORE PUSH1 0x20 ADD PUSH0 KECCAK256 DUP2 SWAP1 DUP1 PUSH1 0x1 DUP2 SLOAD ADD DUP1 DUP3 SSTORE DUP1 SWAP2 POP POP PUSH1 0x1 SWAP1 SUB SWAP1 PUSH0 MSTORE PUSH1 0x20 PUSH0 KECCAK256 SWAP1 PUSH1 0x5 MUL ADD PUSH0 SWAP1 SWAP2 SWAP1 SWAP2 SWAP1 SWAP2 POP PUSH0 DUP3 ADD MLOAD DUP2 PUSH0 ADD SSTORE PUSH1 0x20 DUP3 ADD MLOAD DUP2 PUSH1 0x1 ADD PUSH0 PUSH2 0x100 EXP DUP2 SLOAD DUP2 PUSH20 0xFFFFFFFFFFFFFFFFFFFFFFFFFFFFFFFFFFFFFFFF MUL NOT AND SWAP1 DUP4 PUSH20 0xFFFFFFFFFFFFFFFFFFFFFFFFFFFFFFFFFFFFFFFF AND MUL OR SWAP1 SSTORE POP PUSH1 0x40 DUP3 ADD MLOAD DUP2 PUSH1 0x2 ADD SWAP1 DUP2 PUSH2 0x7AA SWAP2 SWAP1 PUSH2 0x13EA JUMP JUMPDEST POP PUSH1 0x60 DUP3 ADD MLOAD DUP2 PUSH1 0x3 ADD SSTORE PUSH1 0x80 DUP3 ADD MLOAD DUP2 PUSH1 0x4 ADD SSTORE POP POP POP POP JUMP JUMPDEST PUSH1 0x2 PUSH0 SWAP1 SLOAD SWAP1 PUSH2 0x100 EXP SWAP1 DIV PUSH20 0xFFFFFFFFFFFFFFFFFFFFFFFFFFFFFFFFFFFFFFFF AND DUP2 JUMP JUMPDEST PUSH2 0x7F2 PUSH2 0x961 JUMP JUMPDEST PUSH1 0x1 PUSH0 CALLER PUSH20 0xFFFFFFFFFFFFFFFFFFFFFFFFFFFFFFFFFFFFFFFF AND PUSH20 0xFFFFFFFFFFFFFFFFFFFFFFFFFFFFFFFFFFFFFFFF AND DUP2 MSTORE PUSH1 0x20 ADD SWAP1 DUP2 MSTORE PUSH1 0x20 ADD PUSH0 KECCAK256 DUP3 DUP2 SLOAD DUP2 LT PUSH2 0x841 JUMPI PUSH2 0x840 PUSH2 0x10DC JUMP JUMPDEST JUMPDEST SWAP1 PUSH0 MSTORE PUSH1 0x20 PUSH0 KECCAK256 SWAP1 PUSH1 0x5 MUL ADD PUSH1 0x40 MLOAD DUP1 PUSH1 0xA0 ADD PUSH1 0x40 MSTORE SWAP1 DUP2 PUSH0 DUP3 ADD SLOAD DUP2 MSTORE PUSH1 0x20 ADD PUSH1 0x1 DUP3 ADD PUSH0 SWAP1 SLOAD SWAP1 PUSH2 0x100 EXP SWAP1 DIV PUSH20 0xFFFFFFFFFFFFFFFFFFFFFFFFFFFFFFFFFFFFFFFF AND PUSH20 0xFFFFFFFFFFFFFFFFFFFFFFFFFFFFFFFFFFFFFFFF AND PUSH20 0xFFFFFFFFFFFFFFFFFFFFFFFFFFFFFFFFFFFFFFFF AND DUP2 MSTORE PUSH1 0x20 ADD PUSH1 0x2 DUP3 ADD DUP1 SLOAD PUSH2 0x8C6 SWAP1 PUSH2 0x1044 JUMP JUMPDEST DUP1 PUSH1 0x1F ADD PUSH1 0x20 DUP1 SWAP2 DIV MUL PUSH1 0x20 ADD PUSH1 0x40 MLOAD SWAP1 DUP2 ADD PUSH1 0x40 MSTORE DUP1 SWAP3 SWAP2 SWAP1 DUP2 DUP2 MSTORE PUSH1 0x20 ADD DUP3 DUP1 SLOAD PUSH2 0x8F2 SWAP1 PUSH2 0x1044 JUMP JUMPDEST DUP1 ISZERO PUSH2 0x93D JUMPI DUP1 PUSH1 0x1F LT PUSH2 0x914 JUMPI PUSH2 0x100 DUP1 DUP4 SLOAD DIV MUL DUP4 MSTORE SWAP2 PUSH1 0x20 ADD SWAP2 PUSH2 0x93D JUMP JUMPDEST DUP3 ADD SWAP2 SWAP1 PUSH0 MSTORE PUSH1 0x20 PUSH0 KECCAK256 SWAP1 JUMPDEST DUP2 SLOAD DUP2 MSTORE SWAP1 PUSH1 0x1 ADD SWAP1 PUSH1 0x20 ADD DUP1 DUP4 GT PUSH2 0x920 JUMPI DUP3 SWAP1 SUB PUSH1 0x1F AND DUP3 ADD SWAP2 JUMPDEST POP POP POP POP POP DUP2 MSTORE PUSH1 0x20 ADD PUSH1 0x3 DUP3 ADD SLOAD DUP2 MSTORE PUSH1 0x20 ADD PUSH1 0x4 DUP3 ADD SLOAD DUP2 MSTORE POP POP SWAP1 POP SWAP2 SWAP1 POP JUMP JUMPDEST PUSH1 0x40 MLOAD DUP1 PUSH1 0xA0 ADD PUSH1 0x40 MSTORE DUP1 PUSH0 DUP2 MSTORE PUSH1 0x20 ADD PUSH0 PUSH20 0xFFFFFFFFFFFFFFFFFFFFFFFFFFFFFFFFFFFFFFFF AND DUP2 MSTORE PUSH1 0x20 ADD PUSH1 0x60 DUP2 MSTORE PUSH1 0x20 ADD PUSH0 DUP2 MSTORE PUSH1 0x20 ADD PUSH0 DUP2 MSTORE POP SWAP1 JUMP JUMPDEST PUSH0 PUSH1 0x40 MLOAD SWAP1 POP SWAP1 JUMP JUMPDEST PUSH0 DUP1 REVERT JUMPDEST PUSH0 DUP1 REVERT JUMPDEST PUSH0 PUSH20 0xFFFFFFFFFFFFFFFFFFFFFFFFFFFFFFFFFFFFFFFF DUP3 AND SWAP1 POP SWAP2 SWAP1 POP JUMP JUMPDEST PUSH0 PUSH2 0x9DC DUP3 PUSH2 0x9B3 JUMP JUMPDEST SWAP1 POP SWAP2 SWAP1 POP JUMP JUMPDEST PUSH2 0x9EC DUP2 PUSH2 0x9D2 JUMP JUMPDEST DUP2 EQ PUSH2 0x9F6 JUMPI PUSH0 DUP1 REVERT JUMPDEST POP JUMP JUMPDEST PUSH0 DUP2 CALLDATALOAD SWAP1 POP PUSH2 0xA07 DUP2 PUSH2 0x9E3 JUMP JUMPDEST SWAP3 SWAP2 POP POP JUMP JUMPDEST PUSH0 DUP2 SWAP1 POP SWAP2 SWAP1 POP JUMP JUMPDEST PUSH2 0xA1F DUP2 PUSH2 0xA0D JUMP JUMPDEST DUP2 EQ PUSH2 0xA29 JUMPI PUSH0 DUP1 REVERT JUMPDEST POP JUMP JUMPDEST PUSH0 DUP2 CALLDATALOAD SWAP1 POP PUSH2 0xA3A DUP2 PUSH2 0xA16 JUMP JUMPDEST SWAP3 SWAP2 POP POP JUMP JUMPDEST PUSH0 DUP1 PUSH1 0x40 DUP4 DUP6 SUB SLT ISZERO PUSH2 0xA56 JUMPI PUSH2 0xA55 PUSH2 0x9AB JUMP JUMPDEST JUMPDEST PUSH0 PUSH2 0xA63 DUP6 DUP3 DUP7 ADD PUSH2 0x9F9 JUMP JUMPDEST SWAP3 POP POP PUSH1 0x20 PUSH2 0xA74 DUP6 DUP3 DUP7 ADD PUSH2 0xA2C JUMP JUMPDEST SWAP2 POP POP SWAP3 POP SWAP3 SWAP1 POP JUMP JUMPDEST PUSH2 0xA87 DUP2 PUSH2 0xA0D JUMP JUMPDEST DUP3 MSTORE POP POP JUMP JUMPDEST PUSH2 0xA96 DUP2 PUSH2 0x9D2 JUMP JUMPDEST DUP3 MSTORE POP POP JUMP JUMPDEST PUSH0 DUP2 MLOAD SWAP1 POP SWAP2 SWAP1 POP JUMP JUMPDEST PUSH0 DUP3 DUP3 MSTORE PUSH1 0x20 DUP3 ADD SWAP1 POP SWAP3 SWAP2 POP POP JUMP JUMPDEST DUP3 DUP2 DUP4 MCOPY PUSH0 DUP4 DUP4 ADD MSTORE POP POP POP JUMP JUMPDEST PUSH0 PUSH1 0x1F NOT PUSH1 0x1F DUP4 ADD AND SWAP1 POP SWAP2 SWAP1 POP JUMP JUMPDEST PUSH0 PUSH2 0xADE DUP3 PUSH2 0xA9C JUMP JUMPDEST PUSH2 0xAE8 DUP2 DUP6 PUSH2 0xAA6 JUMP JUMPDEST SWAP4 POP PUSH2 0xAF8 DUP2 DUP6 PUSH1 0x20 DUP7 ADD PUSH2 0xAB6 JUMP JUMPDEST PUSH2 0xB01 DUP2 PUSH2 0xAC4 JUMP JUMPDEST DUP5 ADD SWAP2 POP POP SWAP3 SWAP2 POP POP JUMP JUMPDEST PUSH0 PUSH1 0xA0 DUP3 ADD SWAP1 POP PUSH2 0xB1F PUSH0 DUP4 ADD DUP9 PUSH2 0xA7E JUMP JUMPDEST PUSH2 0xB2C PUSH1 0x20 DUP4 ADD DUP8 PUSH2 0xA8D JUMP JUMPDEST DUP2 DUP2 SUB PUSH1 0x40 DUP4 ADD MSTORE PUSH2 0xB3E DUP2 DUP7 PUSH2 0xAD4 JUMP JUMPDEST SWAP1 POP PUSH2 0xB4D PUSH1 0x60 DUP4 ADD DUP6 PUSH2 0xA7E JUMP JUMPDEST PUSH2 0xB5A PUSH1 0x80 DUP4 ADD DUP5 PUSH2 0xA7E JUMP JUMPDEST SWAP7 SWAP6 POP POP POP POP POP POP JUMP JUMPDEST PUSH0 PUSH1 0x20 DUP3 DUP5 SUB SLT ISZERO PUSH2 0xB79 JUMPI PUSH2 0xB78 PUSH2 0x9AB JUMP JUMPDEST JUMPDEST PUSH0 PUSH2 0xB86 DUP5 DUP3 DUP6 ADD PUSH2 0x9F9 JUMP JUMPDEST SWAP2 POP POP SWAP3 SWAP2 POP POP JUMP JUMPDEST PUSH0 DUP2 MLOAD SWAP1 POP SWAP2 SWAP1 POP JUMP JUMPDEST PUSH0 DUP3 DUP3 MSTORE PUSH1 0x20 DUP3 ADD SWAP1 POP SWAP3 SWAP2 POP POP JUMP JUMPDEST PUSH0 DUP2 SWAP1 POP PUSH1 0x20 DUP3 ADD SWAP1 POP SWAP2 SWAP1 POP JUMP JUMPDEST PUSH2 0xBC1 DUP2 PUSH2 0xA0D JUMP JUMPDEST DUP3 MSTORE POP POP JUMP JUMPDEST PUSH2 0xBD0 DUP2 PUSH2 0x9D2 JUMP JUMPDEST DUP3 MSTORE POP POP JUMP JUMPDEST PUSH0 DUP3 DUP3 MSTORE PUSH1 0x20 DUP3 ADD SWAP1 POP SWAP3 SWAP2 POP POP JUMP JUMPDEST PUSH0 PUSH2 0xBF0 DUP3 PUSH2 0xA9C JUMP JUMPDEST PUSH2 0xBFA DUP2 DUP6 PUSH2 0xBD6 JUMP JUMPDEST SWAP4 POP PUSH2 0xC0A DUP2 DUP6 PUSH1 0x20 DUP7 ADD PUSH2 0xAB6 JUMP JUMPDEST PUSH2 0xC13 DUP2 PUSH2 0xAC4 JUMP JUMPDEST DUP5 ADD SWAP2 POP POP SWAP3 SWAP2 POP POP JUMP JUMPDEST PUSH0 PUSH1 0xA0 DUP4 ADD PUSH0 DUP4 ADD MLOAD PUSH2 0xC33 PUSH0 DUP7 ADD DUP3 PUSH2 0xBB8 JUMP JUMPDEST POP PUSH1 0x20 DUP4 ADD MLOAD PUSH2 0xC46 PUSH1 0x20 DUP7 ADD DUP3 PUSH2 0xBC7 JUMP JUMPDEST POP PUSH1 0x40 DUP4 ADD MLOAD DUP5 DUP3 SUB PUSH1 0x40 DUP7 ADD MSTORE PUSH2 0xC5E DUP3 DUP3 PUSH2 0xBE6 JUMP JUMPDEST SWAP2 POP POP PUSH1 0x60 DUP4 ADD MLOAD PUSH2 0xC73 PUSH1 0x60 DUP7 ADD DUP3 PUSH2 0xBB8 JUMP JUMPDEST POP PUSH1 0x80 DUP4 ADD MLOAD PUSH2 0xC86 PUSH1 0x80 DUP7 ADD DUP3 PUSH2 0xBB8 JUMP JUMPDEST POP DUP1 SWAP2 POP POP SWAP3 SWAP2 POP POP JUMP JUMPDEST PUSH0 PUSH2 0xC9C DUP4 DUP4 PUSH2 0xC1E JUMP JUMPDEST SWAP1 POP SWAP3 SWAP2 POP POP JUMP JUMPDEST PUSH0 PUSH1 0x20 DUP3 ADD SWAP1 POP SWAP2 SWAP1 POP JUMP JUMPDEST PUSH0 PUSH2 0xCBA DUP3 PUSH2 0xB8F JUMP JUMPDEST PUSH2 0xCC4 DUP2 DUP6 PUSH2 0xB99 JUMP JUMPDEST SWAP4 POP DUP4 PUSH1 0x20 DUP3 MUL DUP6 ADD PUSH2 0xCD6 DUP6 PUSH2 0xBA9 JUMP JUMPDEST DUP1 PUSH0 JUMPDEST DUP6 DUP2 LT ISZERO PUSH2 0xD11 JUMPI DUP5 DUP5 SUB DUP10 MSTORE DUP2 MLOAD PUSH2 0xCF2 DUP6 DUP3 PUSH2 0xC91 JUMP JUMPDEST SWAP5 POP PUSH2 0xCFD DUP4 PUSH2 0xCA4 JUMP JUMPDEST SWAP3 POP PUSH1 0x20 DUP11 ADD SWAP10 POP POP PUSH1 0x1 DUP2 ADD SWAP1 POP PUSH2 0xCD9 JUMP JUMPDEST POP DUP3 SWAP8 POP DUP8 SWAP6 POP POP POP POP POP POP SWAP3 SWAP2 POP POP JUMP JUMPDEST PUSH0 PUSH1 0x20 DUP3 ADD SWAP1 POP DUP2 DUP2 SUB PUSH0 DUP4 ADD MSTORE PUSH2 0xD3B DUP2 DUP5 PUSH2 0xCB0 JUMP JUMPDEST SWAP1 POP SWAP3 SWAP2 POP POP JUMP JUMPDEST PUSH0 PUSH2 0xFFFF DUP3 AND SWAP1 POP SWAP2 SWAP1 POP JUMP JUMPDEST PUSH2 0xD59 DUP2 PUSH2 0xD43 JUMP JUMPDEST DUP2 EQ PUSH2 0xD63 JUMPI PUSH0 DUP1 REVERT JUMPDEST POP JUMP JUMPDEST PUSH0 DUP2 CALLDATALOAD SWAP1 POP PUSH2 0xD74 DUP2 PUSH2 0xD50 JUMP JUMPDEST SWAP3 SWAP2 POP POP JUMP JUMPDEST PUSH0 PUSH1 0x20 DUP3 DUP5 SUB SLT ISZERO PUSH2 0xD8F JUMPI PUSH2 0xD8E PUSH2 0x9AB JUMP JUMPDEST JUMPDEST PUSH0 PUSH2 0xD9C DUP5 DUP3 DUP6 ADD PUSH2 0xD66 JUMP JUMPDEST SWAP2 POP POP SWAP3 SWAP2 POP POP JUMP JUMPDEST PUSH2 0xDAE DUP2 PUSH2 0xD43 JUMP JUMPDEST DUP3 MSTORE POP POP JUMP JUMPDEST PUSH0 PUSH1 0x20 DUP3 ADD SWAP1 POP PUSH2 0xDC7 PUSH0 DUP4 ADD DUP5 PUSH2 0xDA5 JUMP JUMPDEST SWAP3 SWAP2 POP POP JUMP JUMPDEST PUSH0 DUP1 REVERT JUMPDEST PUSH0 DUP1 REVERT JUMPDEST PUSH32 0x4E487B7100000000000000000000000000000000000000000000000000000000 PUSH0 MSTORE PUSH1 0x41 PUSH1 0x4 MSTORE PUSH1 0x24 PUSH0 REVERT JUMPDEST PUSH2 0xE0B DUP3 PUSH2 0xAC4 JUMP JUMPDEST DUP2 ADD DUP2 DUP2 LT PUSH8 0xFFFFFFFFFFFFFFFF DUP3 GT OR ISZERO PUSH2 0xE2A JUMPI PUSH2 0xE29 PUSH2 0xDD5 JUMP JUMPDEST JUMPDEST DUP1 PUSH1 0x40 MSTORE POP POP POP JUMP JUMPDEST PUSH0 PUSH2 0xE3C PUSH2 0x9A2 JUMP JUMPDEST SWAP1 POP PUSH2 0xE48 DUP3 DUP3 PUSH2 0xE02 JUMP JUMPDEST SWAP2 SWAP1 POP JUMP JUMPDEST PUSH0 PUSH8 0xFFFFFFFFFFFFFFFF DUP3 GT ISZERO PUSH2 0xE67 JUMPI PUSH2 0xE66 PUSH2 0xDD5 JUMP JUMPDEST JUMPDEST PUSH2 0xE70 DUP3 PUSH2 0xAC4 JUMP JUMPDEST SWAP1 POP PUSH1 0x20 DUP2 ADD SWAP1 POP SWAP2 SWAP1 POP JUMP JUMPDEST DUP3 DUP2 DUP4 CALLDATACOPY PUSH0 DUP4 DUP4 ADD MSTORE POP POP POP JUMP JUMPDEST PUSH0 PUSH2 0xE9D PUSH2 0xE98 DUP5 PUSH2 0xE4D JUMP JUMPDEST PUSH2 0xE33 JUMP JUMPDEST SWAP1 POP DUP3 DUP2 MSTORE PUSH1 0x20 DUP2 ADD DUP5 DUP5 DUP5 ADD GT ISZERO PUSH2 0xEB9 JUMPI PUSH2 0xEB8 PUSH2 0xDD1 JUMP JUMPDEST JUMPDEST PUSH2 0xEC4 DUP5 DUP3 DUP6 PUSH2 0xE7D JUMP JUMPDEST POP SWAP4 SWAP3 POP POP POP JUMP JUMPDEST PUSH0 DUP3 PUSH1 0x1F DUP4 ADD SLT PUSH2 0xEE0 JUMPI PUSH2 0xEDF PUSH2 0xDCD JUMP JUMPDEST JUMPDEST DUP2 CALLDATALOAD PUSH2 0xEF0 DUP5 DUP3 PUSH1 0x20 DUP7 ADD PUSH2 0xE8B JUMP JUMPDEST SWAP2 POP POP SWAP3 SWAP2 POP POP JUMP JUMPDEST PUSH0 PUSH1 0x20 DUP3 DUP5 SUB SLT ISZERO PUSH2 0xF0E JUMPI PUSH2 0xF0D PUSH2 0x9AB JUMP JUMPDEST JUMPDEST PUSH0 DUP3 ADD CALLDATALOAD PUSH8 0xFFFFFFFFFFFFFFFF DUP2 GT ISZERO PUSH2 0xF2B JUMPI PUSH2 0xF2A PUSH2 0x9AF JUMP JUMPDEST JUMPDEST PUSH2 0xF37 DUP5 DUP3 DUP6 ADD PUSH2 0xECC JUMP JUMPDEST SWAP2 POP POP SWAP3 SWAP2 POP POP JUMP JUMPDEST PUSH0 PUSH1 0x20 DUP3 ADD SWAP1 POP PUSH2 0xF53 PUSH0 DUP4 ADD DUP5 PUSH2 0xA8D JUMP JUMPDEST SWAP3 SWAP2 POP POP JUMP JUMPDEST PUSH0 PUSH1 0x20 DUP3 DUP5 SUB SLT ISZERO PUSH2 0xF6E JUMPI PUSH2 0xF6D PUSH2 0x9AB JUMP JUMPDEST JUMPDEST PUSH0 PUSH2 0xF7B DUP5 DUP3 DUP6 ADD PUSH2 0xA2C JUMP JUMPDEST SWAP2 POP POP SWAP3 SWAP2 POP POP JUMP JUMPDEST PUSH0 PUSH1 0xA0 DUP4 ADD PUSH0 DUP4 ADD MLOAD PUSH2 0xF99 PUSH0 DUP7 ADD DUP3 PUSH2 0xBB8 JUMP JUMPDEST POP PUSH1 0x20 DUP4 ADD MLOAD PUSH2 0xFAC PUSH1 0x20 DUP7 ADD DUP3 PUSH2 0xBC7 JUMP JUMPDEST POP PUSH1 0x40 DUP4 ADD MLOAD DUP5 DUP3 SUB PUSH1 0x40 DUP7 ADD MSTORE PUSH2 0xFC4 DUP3 DUP3 PUSH2 0xBE6 JUMP JUMPDEST SWAP2 POP POP PUSH1 0x60 DUP4 ADD MLOAD PUSH2 0xFD9 PUSH1 0x60 DUP7 ADD DUP3 PUSH2 0xBB8 JUMP JUMPDEST POP PUSH1 0x80 DUP4 ADD MLOAD PUSH2 0xFEC PUSH1 0x80 DUP7 ADD DUP3 PUSH2 0xBB8 JUMP JUMPDEST POP DUP1 SWAP2 POP POP SWAP3 SWAP2 POP POP JUMP JUMPDEST PUSH0 PUSH1 0x20 DUP3 ADD SWAP1 POP DUP2 DUP2 SUB PUSH0 DUP4 ADD MSTORE PUSH2 0x100F DUP2 DUP5 PUSH2 0xF84 JUMP JUMPDEST SWAP1 POP SWAP3 SWAP2 POP POP JUMP JUMPDEST PUSH32 0x4E487B7100000000000000000000000000000000000000000000000000000000 PUSH0 MSTORE PUSH1 0x22 PUSH1 0x4 MSTORE PUSH1 0x24 PUSH0 REVERT JUMPDEST PUSH0 PUSH1 0x2 DUP3 DIV SWAP1 POP PUSH1 0x1 DUP3 AND DUP1 PUSH2 0x105B JUMPI PUSH1 0x7F DUP3 AND SWAP2 POP JUMPDEST PUSH1 0x20 DUP3 LT DUP2 SUB PUSH2 0x106E JUMPI PUSH2 0x106D PUSH2 0x1017 JUMP JUMPDEST JUMPDEST POP SWAP2 SWAP1 POP JUMP JUMPDEST PUSH32 0x594F5520415245204E4F5420544845204F574E45522100000000000000000000 PUSH0 DUP3 ADD MSTORE POP JUMP JUMPDEST PUSH0 PUSH2 0x10A8 PUSH1 0x16 DUP4 PUSH2 0xAA6 JUMP JUMPDEST SWAP2 POP PUSH2 0x10B3 DUP3 PUSH2 0x1074 JUMP JUMPDEST PUSH1 0x20 DUP3 ADD SWAP1 POP SWAP2 SWAP1 POP JUMP JUMPDEST PUSH0 PUSH1 0x20 DUP3 ADD SWAP1 POP DUP2 DUP2 SUB PUSH0 DUP4 ADD MSTORE PUSH2 0x10D5 DUP2 PUSH2 0x109C JUMP JUMPDEST SWAP1 POP SWAP2 SWAP1 POP JUMP JUMPDEST PUSH32 0x4E487B7100000000000000000000000000000000000000000000000000000000 PUSH0 MSTORE PUSH1 0x32 PUSH1 0x4 MSTORE PUSH1 0x24 PUSH0 REVERT JUMPDEST PUSH32 0x547765657420646F6573206E6F74206578697374000000000000000000000000 PUSH0 DUP3 ADD MSTORE POP JUMP JUMPDEST PUSH0 PUSH2 0x113D PUSH1 0x14 DUP4 PUSH2 0xAA6 JUMP JUMPDEST SWAP2 POP PUSH2 0x1148 DUP3 PUSH2 0x1109 JUMP JUMPDEST PUSH1 0x20 DUP3 ADD SWAP1 POP SWAP2 SWAP1 POP JUMP JUMPDEST PUSH0 PUSH1 0x20 DUP3 ADD SWAP1 POP DUP2 DUP2 SUB PUSH0 DUP4 ADD MSTORE PUSH2 0x116A DUP2 PUSH2 0x1131 JUMP JUMPDEST SWAP1 POP SWAP2 SWAP1 POP JUMP JUMPDEST PUSH32 0x4E487B7100000000000000000000000000000000000000000000000000000000 PUSH0 MSTORE PUSH1 0x11 PUSH1 0x4 MSTORE PUSH1 0x24 PUSH0 REVERT JUMPDEST PUSH0 PUSH2 0x11A8 DUP3 PUSH2 0xA0D JUMP JUMPDEST SWAP2 POP PUSH32 0xFFFFFFFFFFFFFFFFFFFFFFFFFFFFFFFFFFFFFFFFFFFFFFFFFFFFFFFFFFFFFFFF DUP3 SUB PUSH2 0x11DA JUMPI PUSH2 0x11D9 PUSH2 0x1171 JUMP JUMPDEST JUMPDEST PUSH1 0x1 DUP3 ADD SWAP1 POP SWAP2 SWAP1 POP JUMP JUMPDEST PUSH32 0x547765657420697320746F6F206C6F6E672062726F2100000000000000000000 PUSH0 DUP3 ADD MSTORE POP JUMP JUMPDEST PUSH0 PUSH2 0x1219 PUSH1 0x16 DUP4 PUSH2 0xAA6 JUMP JUMPDEST SWAP2 POP PUSH2 0x1224 DUP3 PUSH2 0x11E5 JUMP JUMPDEST PUSH1 0x20 DUP3 ADD SWAP1 POP SWAP2 SWAP1 POP JUMP JUMPDEST PUSH0 PUSH1 0x20 DUP3 ADD SWAP1 POP DUP2 DUP2 SUB PUSH0 DUP4 ADD MSTORE PUSH2 0x1246 DUP2 PUSH2 0x120D JUMP JUMPDEST SWAP1 POP SWAP2 SWAP1 POP JUMP JUMPDEST PUSH0 DUP2 SWAP1 POP DUP2 PUSH0 MSTORE PUSH1 0x20 PUSH0 KECCAK256 SWAP1 POP SWAP2 SWAP1 POP JUMP JUMPDEST PUSH0 PUSH1 0x20 PUSH1 0x1F DUP4 ADD DIV SWAP1 POP SWAP2 SWAP1 POP JUMP JUMPDEST PUSH0 DUP3 DUP3 SHL SWAP1 POP SWAP3 SWAP2 POP POP JUMP JUMPDEST PUSH0 PUSH1 0x8 DUP4 MUL PUSH2 0x12A9 PUSH32 0xFFFFFFFFFFFFFFFFFFFFFFFFFFFFFFFFFFFFFFFFFFFFFFFFFFFFFFFFFFFFFFFF DUP3 PUSH2 0x126E JUMP JUMPDEST PUSH2 0x12B3 DUP7 DUP4 PUSH2 0x126E JUMP JUMPDEST SWAP6 POP DUP1 NOT DUP5 AND SWAP4 POP DUP1 DUP7 AND DUP5 OR SWAP3 POP POP POP SWAP4 SWAP3 POP POP POP JUMP JUMPDEST PUSH0 DUP2 SWAP1 POP SWAP2 SWAP1 POP JUMP JUMPDEST PUSH0 PUSH2 0x12EE PUSH2 0x12E9 PUSH2 0x12E4 DUP5 PUSH2 0xA0D JUMP JUMPDEST PUSH2 0x12CB JUMP JUMPDEST PUSH2 0xA0D JUMP JUMPDEST SWAP1 POP SWAP2 SWAP1 POP JUMP JUMPDEST PUSH0 DUP2 SWAP1 POP SWAP2 SWAP1 POP JUMP JUMPDEST PUSH2 0x1307 DUP4 PUSH2 0x12D4 JUMP JUMPDEST PUSH2 0x131B PUSH2 0x1313 DUP3 PUSH2 0x12F5 JUMP JUMPDEST DUP5 DUP5 SLOAD PUSH2 0x127A JUMP JUMPDEST DUP3 SSTORE POP POP POP POP JUMP JUMPDEST PUSH0 SWAP1 JUMP JUMPDEST PUSH2 0x132F PUSH2 0x1323 JUMP JUMPDEST PUSH2 0x133A DUP2 DUP5 DUP5 PUSH2 0x12FE JUMP JUMPDEST POP POP POP JUMP JUMPDEST JUMPDEST DUP2 DUP2 LT ISZERO PUSH2 0x135D JUMPI PUSH2 0x1352 PUSH0 DUP3 PUSH2 0x1327 JUMP JUMPDEST PUSH1 0x1 DUP2 ADD SWAP1 POP PUSH2 0x1340 JUMP JUMPDEST POP POP JUMP JUMPDEST PUSH1 0x1F DUP3 GT ISZERO PUSH2 0x13A2 JUMPI PUSH2 0x1373 DUP2 PUSH2 0x124D JUMP JUMPDEST PUSH2 0x137C DUP5 PUSH2 0x125F JUMP JUMPDEST DUP2 ADD PUSH1 0x20 DUP6 LT ISZERO PUSH2 0x138B JUMPI DUP2 SWAP1 POP JUMPDEST PUSH2 0x139F PUSH2 0x1397 DUP6 PUSH2 0x125F JUMP JUMPDEST DUP4 ADD DUP3 PUSH2 0x133F JUMP JUMPDEST POP POP JUMPDEST POP POP POP JUMP JUMPDEST PUSH0 DUP3 DUP3 SHR SWAP1 POP SWAP3 SWAP2 POP POP JUMP JUMPDEST PUSH0 PUSH2 0x13C2 PUSH0 NOT DUP5 PUSH1 0x8 MUL PUSH2 0x13A7 JUMP JUMPDEST NOT DUP1 DUP4 AND SWAP2 POP POP SWAP3 SWAP2 POP POP JUMP JUMPDEST PUSH0 PUSH2 0x13DA DUP4 DUP4 PUSH2 0x13B3 JUMP JUMPDEST SWAP2 POP DUP3 PUSH1 0x2 MUL DUP3 OR SWAP1 POP SWAP3 SWAP2 POP POP JUMP JUMPDEST PUSH2 0x13F3 DUP3 PUSH2 0xA9C JUMP JUMPDEST PUSH8 0xFFFFFFFFFFFFFFFF DUP2 GT ISZERO PUSH2 0x140C JUMPI PUSH2 0x140B PUSH2 0xDD5 JUMP JUMPDEST JUMPDEST PUSH2 0x1416 DUP3 SLOAD PUSH2 0x1044 JUMP JUMPDEST PUSH2 0x1421 DUP3 DUP3 DUP6 PUSH2 0x1361 JUMP JUMPDEST PUSH0 PUSH1 0x20 SWAP1 POP PUSH1 0x1F DUP4 GT PUSH1 0x1 DUP2 EQ PUSH2 0x1452 JUMPI PUSH0 DUP5 ISZERO PUSH2 0x1440 JUMPI DUP3 DUP8 ADD MLOAD SWAP1 POP JUMPDEST PUSH2 0x144A DUP6 DUP3 PUSH2 0x13CF JUMP JUMPDEST DUP7 SSTORE POP PUSH2 0x14B1 JUMP JUMPDEST PUSH1 0x1F NOT DUP5 AND PUSH2 0x1460 DUP7 PUSH2 0x124D JUMP JUMPDEST PUSH0 JUMPDEST DUP3 DUP2 LT ISZERO PUSH2 0x1487 JUMPI DUP5 DUP10 ADD MLOAD DUP3 SSTORE PUSH1 0x1 DUP3 ADD SWAP2 POP PUSH1 0x20 DUP6 ADD SWAP5 POP PUSH1 0x20 DUP2 ADD SWAP1 POP PUSH2 0x1462 JUMP JUMPDEST DUP7 DUP4 LT ISZERO PUSH2 0x14A4 JUMPI DUP5 DUP10 ADD MLOAD PUSH2 0x14A0 PUSH1 0x1F DUP10 AND DUP3 PUSH2 0x13B3 JUMP JUMPDEST DUP4 SSTORE POP JUMPDEST PUSH1 0x1 PUSH1 0x2 DUP9 MUL ADD DUP9 SSTORE POP POP POP JUMPDEST POP POP POP POP POP POP JUMP INVALID LOG2 PUSH5 0x6970667358 0x22 SLT KECCAK256 DUP6 SAR SWAP2 0x28 CALLER EXP LOG3 POP 0xE6 PUSH12 0xF284FD60941236C725D03336 AND JUMPDEST SWAP10 PUSH11 0x7D2E64222F4464736F6C63 NUMBER STOP ADDMOD BYTE STOP CALLER "
				},
				"gasEstimates": {
					"creation": {
						"codeDepositCost": "1071800",
						"executionCost": "49643",
						"totalCost": "1121443"
					},
					"external": {
						"MAX_TWEET_LENGTH()": "2463",
						"changeTweetLength(uint16)": "26887",
						"createTweet(string)": "infinite",
						"getAllTweets(address)": "infinite",
						"getTweet(uint256)": "infinite",
						"likeTweet(address,uint256)": "infinite",
						"owner()": "2552",
						"tweets(address,uint256)": "infinite"
					}
				},
				"methodIdentifiers": {
					"MAX_TWEET_LENGTH()": "6eb10797",
					"changeTweetLength(uint16)": "58bfa4ab",
					"createTweet(string)": "7c9cd2bc",
					"getAllTweets(address)": "12e7ee1c",
					"getTweet(uint256)": "c3ad5ecb",
					"likeTweet(address,uint256)": "63378216",
					"owner()": "8da5cb5b",
					"tweets(address,uint256)": "05a1b4a9"
				}
			},
			"storageLayout": {
				"storage": [
					{
						"astId": 4,
						"contract": "contracts/Tweet-like.sol:Twitter",
						"label": "MAX_TWEET_LENGTH",
						"offset": 0,
						"slot": "0",
						"type": "t_uint16"
					},
					{
						"astId": 21,
						"contract": "contracts/Tweet-like.sol:Twitter",
						"label": "tweets",
						"offset": 0,
						"slot": "1",
						"type": "t_mapping(t_address,t_array(t_struct(Tweet)15_storage)dyn_storage)"
					},
					{
						"astId": 23,
						"contract": "contracts/Tweet-like.sol:Twitter",
						"label": "owner",
						"offset": 0,
						"slot": "2",
						"type": "t_address"
					}
				],
				"types": {
					"t_address": {
						"encoding": "inplace",
						"label": "address",
						"numberOfBytes": "20"
					},
					"t_array(t_struct(Tweet)15_storage)dyn_storage": {
						"base": "t_struct(Tweet)15_storage",
						"encoding": "dynamic_array",
						"label": "struct Twitter.Tweet[]",
						"numberOfBytes": "32"
					},
					"t_mapping(t_address,t_array(t_struct(Tweet)15_storage)dyn_storage)": {
						"encoding": "mapping",
						"key": "t_address",
						"label": "mapping(address => struct Twitter.Tweet[])",
						"numberOfBytes": "32",
						"value": "t_array(t_struct(Tweet)15_storage)dyn_storage"
					},
					"t_string_storage": {
						"encoding": "bytes",
						"label": "string",
						"numberOfBytes": "32"
					},
					"t_struct(Tweet)15_storage": {
						"encoding": "inplace",
						"label": "struct Twitter.Tweet",
						"members": [
							{
								"astId": 6,
								"contract": "contracts/Tweet-like.sol:Twitter",
								"label": "id",
								"offset": 0,
								"slot": "0",
								"type": "t_uint256"
							},
							{
								"astId": 8,
								"contract": "contracts/Tweet-like.sol:Twitter",
								"label": "author",
								"offset": 0,
								"slot": "1",
								"type": "t_address"
							},
							{
								"astId": 10,
								"contract": "contracts/Tweet-like.sol:Twitter",
								"label": "content",
								"offset": 0,
								"slot": "2",
								"type": "t_string_storage"
							},
							{
								"astId": 12,
								"contract": "contracts/Tweet-like.sol:Twitter",
								"label": "timestamp",
								"offset": 0,
								"slot": "3",
								"type": "t_uint256"
							},
							{
								"astId": 14,
								"contract": "contracts/Tweet-like.sol:Twitter",
								"label": "likes",
								"offset": 0,
								"slot": "4",
								"type": "t_uint256"
							}
						],
						"numberOfBytes": "160"
					},
					"t_uint16": {
						"encoding": "inplace",
						"label": "uint16",
						"numberOfBytes": "2"
					},
					"t_uint256": {
						"encoding": "inplace",
						"label": "uint256",
						"numberOfBytes": "32"
					}
				}
			},
			"userdoc": {
				"kind": "user",
				"methods": {},
				"version": 1
			}
		}
	}
}