{
	"contracts/Twitter-AddEvent.sol": {
		"Twitter": {
			"abi": [
				{
					"inputs": [],
					"stateMutability": "nonpayable",
					"type": "constructor"
				},
				{
					"anonymous": false,
					"inputs": [
						{
							"indexed": false,
							"internalType": "uint256",
							"name": "id",
							"type": "uint256"
						},
						{
							"indexed": true,
							"internalType": "address",
							"name": "author",
							"type": "address"
						},
						{
							"indexed": false,
							"internalType": "string",
							"name": "content",
							"type": "string"
						},
						{
							"indexed": false,
							"internalType": "uint256",
							"name": "timestamp",
							"type": "uint256"
						}
					],
					"name": "TweetCreated",
					"type": "event"
				},
				{
					"anonymous": false,
					"inputs": [
						{
							"indexed": true,
							"internalType": "address",
							"name": "tweetAuthor",
							"type": "address"
						},
						{
							"indexed": false,
							"internalType": "uint256",
							"name": "tweetId",
							"type": "uint256"
						},
						{
							"indexed": true,
							"internalType": "address",
							"name": "liker",
							"type": "address"
						},
						{
							"indexed": false,
							"internalType": "uint256",
							"name": "newLikeCount",
							"type": "uint256"
						}
					],
					"name": "TweetLiked",
					"type": "event"
				},
				{
					"anonymous": false,
					"inputs": [
						{
							"indexed": true,
							"internalType": "address",
							"name": "tweetAuthor",
							"type": "address"
						},
						{
							"indexed": false,
							"internalType": "uint256",
							"name": "tweetId",
							"type": "uint256"
						},
						{
							"indexed": true,
							"internalType": "address",
							"name": "unliker",
							"type": "address"
						},
						{
							"indexed": false,
							"internalType": "uint256",
							"name": "newLikeCount",
							"type": "uint256"
						}
					],
					"name": "TweetUnliked",
					"type": "event"
				},
				{
					"inputs": [],
					"name": "MAX_TWEET_LENGTH",
					"outputs": [
						{
							"internalType": "uint16",
							"name": "",
							"type": "uint16"
						}
					],
					"stateMutability": "view",
					"type": "function"
				},
				{
					"inputs": [
						{
							"internalType": "uint16",
							"name": "newTweetLength",
							"type": "uint16"
						}
					],
					"name": "changeTweetLength",
					"outputs": [],
					"stateMutability": "nonpayable",
					"type": "function"
				},
				{
					"inputs": [
						{
							"internalType": "string",
							"name": "_tweet",
							"type": "string"
						}
					],
					"name": "createTweet",
					"outputs": [],
					"stateMutability": "nonpayable",
					"type": "function"
				},
				{
					"inputs": [
						{
							"internalType": "address",
							"name": "_owner",
							"type": "address"
						}
					],
					"name": "getAllTweets",
					"outputs": [
						{
							"components": [
								{
									"internalType": "uint256",
									"name": "id",
									"type": "uint256"
								},
								{
									"internalType": "address",
									"name": "author",
									"type": "address"
								},
								{
									"internalType": "string",
									"name": "content",
									"type": "string"
								},
								{
									"internalType": "uint256",
									"name": "timestamp",
									"type": "uint256"
								},
								{
									"internalType": "uint256",
									"name": "likes",
									"type": "uint256"
								}
							],
							"internalType": "struct Twitter.Tweet[]",
							"name": "",
							"type": "tuple[]"
						}
					],
					"stateMutability": "view",
					"type": "function"
				},
				{
					"inputs": [
						{
							"internalType": "uint256",
							"name": "_i",
							"type": "uint256"
						}
					],
					"name": "getTweet",
					"outputs": [
						{
							"components": [
								{
									"internalType": "uint256",
									"name": "id",
									"type": "uint256"
								},
								{
									"internalType": "address",
									"name": "author",
									"type": "address"
								},
								{
									"internalType": "string",
									"name": "content",
									"type": "string"
								},
								{
									"internalType": "uint256",
									"name": "timestamp",
									"type": "uint256"
								},
								{
									"internalType": "uint256",
									"name": "likes",
									"type": "uint256"
								}
							],
							"internalType": "struct Twitter.Tweet",
							"name": "",
							"type": "tuple"
						}
					],
					"stateMutability": "view",
					"type": "function"
				},
				{
					"inputs": [
						{
							"internalType": "address",
							"name": "author",
							"type": "address"
						},
						{
							"internalType": "uint256",
							"name": "id",
							"type": "uint256"
						}
					],
					"name": "likeTweet",
					"outputs": [],
					"stateMutability": "nonpayable",
					"type": "function"
				},
				{
					"inputs": [],
					"name": "owner",
					"outputs": [
						{
							"internalType": "address",
							"name": "",
							"type": "address"
						}
					],
					"stateMutability": "view",
					"type": "function"
				},
				{
					"inputs": [
						{
							"internalType": "address",
							"name": "",
							"type": "address"
						},
						{
							"internalType": "uint256",
							"name": "",
							"type": "uint256"
						}
					],
					"name": "tweets",
					"outputs": [
						{
							"internalType": "uint256",
							"name": "id",
							"type": "uint256"
						},
						{
							"internalType": "address",
							"name": "author",
							"type": "address"
						},
						{
							"internalType": "string",
							"name": "content",
							"type": "string"
						},
						{
							"internalType": "uint256",
							"name": "timestamp",
							"type": "uint256"
						},
						{
							"internalType": "uint256",
							"name": "likes",
							"type": "uint256"
						}
					],
					"stateMutability": "view",
					"type": "function"
				},
				{
					"inputs": [
						{
							"internalType": "address",
							"name": "author",
							"type": "address"
						},
						{
							"internalType": "uint256",
							"name": "id",
							"type": "uint256"
						}
					],
					"name": "unlikeTweet",
					"outputs": [],
					"stateMutability": "nonpayable",
					"type": "function"
				}
			],
			"devdoc": {
				"kind": "dev",
				"methods": {},
				"version": 1
			},
			"evm": {
				"assembly": "    /* \"contracts/Twitter-AddEvent.sol\":451:2716  contract Twitter {... */\n  mstore(0x40, 0x80)\n    /* \"contracts/Twitter-AddEvent.sol\":508:511  280 */\n  0x0118\n    /* \"contracts/Twitter-AddEvent.sol\":475:511  uint16 public MAX_TWEET_LENGTH = 280 */\n  0x00\n  dup1\n  0x0100\n  exp\n  dup2\n  sload\n  dup2\n  0xffff\n  mul\n  not\n  and\n  swap1\n  dup4\n  0xffff\n  and\n  mul\n  or\n  swap1\n  sstore\n  pop\n    /* \"contracts/Twitter-AddEvent.sol\":1098:1147  constructor() {... */\n  callvalue\n  dup1\n  iszero\n  tag_1\n  jumpi\n  0x00\n  dup1\n  revert\ntag_1:\n  pop\n    /* \"contracts/Twitter-AddEvent.sol\":1130:1140  msg.sender */\n  caller\n    /* \"contracts/Twitter-AddEvent.sol\":1122:1127  owner */\n  0x02\n  0x00\n    /* \"contracts/Twitter-AddEvent.sol\":1122:1140  owner = msg.sender */\n  0x0100\n  exp\n  dup2\n  sload\n  dup2\n  0xffffffffffffffffffffffffffffffffffffffff\n  mul\n  not\n  and\n  swap1\n  dup4\n  0xffffffffffffffffffffffffffffffffffffffff\n  and\n  mul\n  or\n  swap1\n  sstore\n  pop\n    /* \"contracts/Twitter-AddEvent.sol\":451:2716  contract Twitter {... */\n  dataSize(sub_0)\n  dup1\n  dataOffset(sub_0)\n  0x00\n  codecopy\n  0x00\n  return\nstop\n\nsub_0: assembly {\n        /* \"contracts/Twitter-AddEvent.sol\":451:2716  contract Twitter {... */\n      mstore(0x40, 0x80)\n      callvalue\n      dup1\n      iszero\n      tag_1\n      jumpi\n      0x00\n      dup1\n      revert\n    tag_1:\n      pop\n      jumpi(tag_2, lt(calldatasize, 0x04))\n      shr(0xe0, calldataload(0x00))\n      dup1\n      0x63378216\n      gt\n      tag_12\n      jumpi\n      dup1\n      0x63378216\n      eq\n      tag_7\n      jumpi\n      dup1\n      0x6eb10797\n      eq\n      tag_8\n      jumpi\n      dup1\n      0x7c9cd2bc\n      eq\n      tag_9\n      jumpi\n      dup1\n      0x8da5cb5b\n      eq\n      tag_10\n      jumpi\n      dup1\n      0xc3ad5ecb\n      eq\n      tag_11\n      jumpi\n      jump(tag_2)\n    tag_12:\n      dup1\n      0x05a1b4a9\n      eq\n      tag_3\n      jumpi\n      dup1\n      0x12e7ee1c\n      eq\n      tag_4\n      jumpi\n      dup1\n      0x3d9b569f\n      eq\n      tag_5\n      jumpi\n      dup1\n      0x58bfa4ab\n      eq\n      tag_6\n      jumpi\n    tag_2:\n      0x00\n      dup1\n      revert\n        /* \"contracts/Twitter-AddEvent.sol\":661:703  mapping(address => Tweet[] ) public tweets */\n    tag_3:\n      tag_13\n      0x04\n      dup1\n      calldatasize\n      sub\n      dup2\n      add\n      swap1\n      tag_14\n      swap2\n      swap1\n      tag_15\n      jump\t// in\n    tag_14:\n      tag_16\n      jump\t// in\n    tag_13:\n      mload(0x40)\n      tag_17\n      swap6\n      swap5\n      swap4\n      swap3\n      swap2\n      swap1\n      tag_18\n      jump\t// in\n    tag_17:\n      mload(0x40)\n      dup1\n      swap2\n      sub\n      swap1\n      return\n        /* \"contracts/Twitter-AddEvent.sol\":2600:2713  function getAllTweets(address _owner) public view returns (Tweet[] memory ){... */\n    tag_4:\n      tag_19\n      0x04\n      dup1\n      calldatasize\n      sub\n      dup2\n      add\n      swap1\n      tag_20\n      swap2\n      swap1\n      tag_21\n      jump\t// in\n    tag_20:\n      tag_22\n      jump\t// in\n    tag_19:\n      mload(0x40)\n      tag_23\n      swap2\n      swap1\n      tag_24\n      jump\t// in\n    tag_23:\n      mload(0x40)\n      dup1\n      swap2\n      sub\n      swap1\n      return\n        /* \"contracts/Twitter-AddEvent.sol\":2154:2479  function unlikeTweet(address author, uint256 id) external {... */\n    tag_5:\n      tag_25\n      0x04\n      dup1\n      calldatasize\n      sub\n      dup2\n      add\n      swap1\n      tag_26\n      swap2\n      swap1\n      tag_15\n      jump\t// in\n    tag_26:\n      tag_27\n      jump\t// in\n    tag_25:\n      stop\n        /* \"contracts/Twitter-AddEvent.sol\":1262:1379  function changeTweetLength(uint16 newTweetLength) public onlyOwner {... */\n    tag_6:\n      tag_28\n      0x04\n      dup1\n      calldatasize\n      sub\n      dup2\n      add\n      swap1\n      tag_29\n      swap2\n      swap1\n      tag_30\n      jump\t// in\n    tag_29:\n      tag_31\n      jump\t// in\n    tag_28:\n      stop\n        /* \"contracts/Twitter-AddEvent.sol\":1892:2148  function likeTweet(address author, uint256 id) external {  ... */\n    tag_7:\n      tag_32\n      0x04\n      dup1\n      calldatasize\n      sub\n      dup2\n      add\n      swap1\n      tag_33\n      swap2\n      swap1\n      tag_15\n      jump\t// in\n    tag_33:\n      tag_34\n      jump\t// in\n    tag_32:\n      stop\n        /* \"contracts/Twitter-AddEvent.sol\":475:511  uint16 public MAX_TWEET_LENGTH = 280 */\n    tag_8:\n      tag_35\n      tag_36\n      jump\t// in\n    tag_35:\n      mload(0x40)\n      tag_37\n      swap2\n      swap1\n      tag_38\n      jump\t// in\n    tag_37:\n      mload(0x40)\n      dup1\n      swap2\n      sub\n      swap1\n      return\n        /* \"contracts/Twitter-AddEvent.sol\":1385:1886  function createTweet(string memory _tweet) public {... */\n    tag_9:\n      tag_39\n      0x04\n      dup1\n      calldatasize\n      sub\n      dup2\n      add\n      swap1\n      tag_40\n      swap2\n      swap1\n      tag_41\n      jump\t// in\n    tag_40:\n      tag_42\n      jump\t// in\n    tag_39:\n      stop\n        /* \"contracts/Twitter-AddEvent.sol\":709:729  address public owner */\n    tag_10:\n      tag_43\n      tag_44\n      jump\t// in\n    tag_43:\n      mload(0x40)\n      tag_45\n      swap2\n      swap1\n      tag_46\n      jump\t// in\n    tag_45:\n      mload(0x40)\n      dup1\n      swap2\n      sub\n      swap1\n      return\n        /* \"contracts/Twitter-AddEvent.sol\":2485:2594  function getTweet( uint _i) public view returns (Tweet memory) {... */\n    tag_11:\n      tag_47\n      0x04\n      dup1\n      calldatasize\n      sub\n      dup2\n      add\n      swap1\n      tag_48\n      swap2\n      swap1\n      tag_49\n      jump\t// in\n    tag_48:\n      tag_50\n      jump\t// in\n    tag_47:\n      mload(0x40)\n      tag_51\n      swap2\n      swap1\n      tag_52\n      jump\t// in\n    tag_51:\n      mload(0x40)\n      dup1\n      swap2\n      sub\n      swap1\n      return\n        /* \"contracts/Twitter-AddEvent.sol\":661:703  mapping(address => Tweet[] ) public tweets */\n    tag_16:\n      mstore(0x20, 0x01)\n      dup2\n      0x00\n      mstore\n      keccak256(0x00, 0x40)\n      dup2\n      dup2\n      sload\n      dup2\n      lt\n      tag_53\n      jumpi\n      0x00\n      dup1\n      revert\n    tag_53:\n      swap1\n      0x00\n      mstore\n      keccak256(0x00, 0x20)\n      swap1\n      0x05\n      mul\n      add\n      0x00\n      swap2\n      pop\n      swap2\n      pop\n      pop\n      dup1\n      0x00\n      add\n      sload\n      swap1\n      dup1\n      0x01\n      add\n      0x00\n      swap1\n      sload\n      swap1\n      0x0100\n      exp\n      swap1\n      div\n      0xffffffffffffffffffffffffffffffffffffffff\n      and\n      swap1\n      dup1\n      0x02\n      add\n      dup1\n      sload\n      tag_55\n      swap1\n      tag_56\n      jump\t// in\n    tag_55:\n      dup1\n      0x1f\n      add\n      0x20\n      dup1\n      swap2\n      div\n      mul\n      0x20\n      add\n      mload(0x40)\n      swap1\n      dup2\n      add\n      0x40\n      mstore\n      dup1\n      swap3\n      swap2\n      swap1\n      dup2\n      dup2\n      mstore\n      0x20\n      add\n      dup3\n      dup1\n      sload\n      tag_57\n      swap1\n      tag_56\n      jump\t// in\n    tag_57:\n      dup1\n      iszero\n      tag_58\n      jumpi\n      dup1\n      0x1f\n      lt\n      tag_59\n      jumpi\n      0x0100\n      dup1\n      dup4\n      sload\n      div\n      mul\n      dup4\n      mstore\n      swap2\n      0x20\n      add\n      swap2\n      jump(tag_58)\n    tag_59:\n      dup3\n      add\n      swap2\n      swap1\n      0x00\n      mstore\n      keccak256(0x00, 0x20)\n      swap1\n    tag_60:\n      dup2\n      sload\n      dup2\n      mstore\n      swap1\n      0x01\n      add\n      swap1\n      0x20\n      add\n      dup1\n      dup4\n      gt\n      tag_60\n      jumpi\n      dup3\n      swap1\n      sub\n      0x1f\n      and\n      dup3\n      add\n      swap2\n    tag_58:\n      pop\n      pop\n      pop\n      pop\n      pop\n      swap1\n      dup1\n      0x03\n      add\n      sload\n      swap1\n      dup1\n      0x04\n      add\n      sload\n      swap1\n      pop\n      dup6\n      jump\t// out\n        /* \"contracts/Twitter-AddEvent.sol\":2600:2713  function getAllTweets(address _owner) public view returns (Tweet[] memory ){... */\n    tag_22:\n        /* \"contracts/Twitter-AddEvent.sol\":2659:2673  Tweet[] memory */\n      0x60\n        /* \"contracts/Twitter-AddEvent.sol\":2692:2698  tweets */\n      0x01\n        /* \"contracts/Twitter-AddEvent.sol\":2692:2706  tweets[_owner] */\n      0x00\n        /* \"contracts/Twitter-AddEvent.sol\":2699:2705  _owner */\n      dup4\n        /* \"contracts/Twitter-AddEvent.sol\":2692:2706  tweets[_owner] */\n      0xffffffffffffffffffffffffffffffffffffffff\n      and\n      0xffffffffffffffffffffffffffffffffffffffff\n      and\n      dup2\n      mstore\n      0x20\n      add\n      swap1\n      dup2\n      mstore\n      0x20\n      add\n      0x00\n      keccak256\n        /* \"contracts/Twitter-AddEvent.sol\":2685:2706  return tweets[_owner] */\n      dup1\n      sload\n      dup1\n      0x20\n      mul\n      0x20\n      add\n      mload(0x40)\n      swap1\n      dup2\n      add\n      0x40\n      mstore\n      dup1\n      swap3\n      swap2\n      swap1\n      dup2\n      dup2\n      mstore\n      0x20\n      add\n      0x00\n      swap1\n    tag_62:\n      dup3\n      dup3\n      lt\n      iszero\n      tag_63\n      jumpi\n      dup4\n      dup3\n      swap1\n      0x00\n      mstore\n      keccak256(0x00, 0x20)\n      swap1\n      0x05\n      mul\n      add\n      mload(0x40)\n      dup1\n      0xa0\n      add\n      0x40\n      mstore\n      swap1\n      dup2\n      0x00\n      dup3\n      add\n      sload\n      dup2\n      mstore\n      0x20\n      add\n      0x01\n      dup3\n      add\n      0x00\n      swap1\n      sload\n      swap1\n      0x0100\n      exp\n      swap1\n      div\n      0xffffffffffffffffffffffffffffffffffffffff\n      and\n      0xffffffffffffffffffffffffffffffffffffffff\n      and\n      0xffffffffffffffffffffffffffffffffffffffff\n      and\n      dup2\n      mstore\n      0x20\n      add\n      0x02\n      dup3\n      add\n      dup1\n      sload\n      tag_65\n      swap1\n      tag_56\n      jump\t// in\n    tag_65:\n      dup1\n      0x1f\n      add\n      0x20\n      dup1\n      swap2\n      div\n      mul\n      0x20\n      add\n      mload(0x40)\n      swap1\n      dup2\n      add\n      0x40\n      mstore\n      dup1\n      swap3\n      swap2\n      swap1\n      dup2\n      dup2\n      mstore\n      0x20\n      add\n      dup3\n      dup1\n      sload\n      tag_66\n      swap1\n      tag_56\n      jump\t// in\n    tag_66:\n      dup1\n      iszero\n      tag_67\n      jumpi\n      dup1\n      0x1f\n      lt\n      tag_68\n      jumpi\n      0x0100\n      dup1\n      dup4\n      sload\n      div\n      mul\n      dup4\n      mstore\n      swap2\n      0x20\n      add\n      swap2\n      jump(tag_67)\n    tag_68:\n      dup3\n      add\n      swap2\n      swap1\n      0x00\n      mstore\n      keccak256(0x00, 0x20)\n      swap1\n    tag_69:\n      dup2\n      sload\n      dup2\n      mstore\n      swap1\n      0x01\n      add\n      swap1\n      0x20\n      add\n      dup1\n      dup4\n      gt\n      tag_69\n      jumpi\n      dup3\n      swap1\n      sub\n      0x1f\n      and\n      dup3\n      add\n      swap2\n    tag_67:\n      pop\n      pop\n      pop\n      pop\n      pop\n      dup2\n      mstore\n      0x20\n      add\n      0x03\n      dup3\n      add\n      sload\n      dup2\n      mstore\n      0x20\n      add\n      0x04\n      dup3\n      add\n      sload\n      dup2\n      mstore\n      pop\n      pop\n      dup2\n      mstore\n      0x20\n      add\n      swap1\n      0x01\n      add\n      swap1\n      jump(tag_62)\n    tag_63:\n      pop\n      pop\n      pop\n      pop\n      swap1\n      pop\n        /* \"contracts/Twitter-AddEvent.sol\":2600:2713  function getAllTweets(address _owner) public view returns (Tweet[] memory ){... */\n      swap2\n      swap1\n      pop\n      jump\t// out\n        /* \"contracts/Twitter-AddEvent.sol\":2154:2479  function unlikeTweet(address author, uint256 id) external {... */\n    tag_27:\n        /* \"contracts/Twitter-AddEvent.sol\":2255:2257  id */\n      dup1\n        /* \"contracts/Twitter-AddEvent.sol\":2230:2236  tweets */\n      0x01\n        /* \"contracts/Twitter-AddEvent.sol\":2230:2244  tweets[author] */\n      0x00\n        /* \"contracts/Twitter-AddEvent.sol\":2237:2243  author */\n      dup5\n        /* \"contracts/Twitter-AddEvent.sol\":2230:2244  tweets[author] */\n      0xffffffffffffffffffffffffffffffffffffffff\n      and\n      0xffffffffffffffffffffffffffffffffffffffff\n      and\n      dup2\n      mstore\n      0x20\n      add\n      swap1\n      dup2\n      mstore\n      0x20\n      add\n      0x00\n      keccak256\n        /* \"contracts/Twitter-AddEvent.sol\":2245:2247  id */\n      dup3\n        /* \"contracts/Twitter-AddEvent.sol\":2230:2248  tweets[author][id] */\n      dup2\n      sload\n      dup2\n      lt\n      tag_71\n      jumpi\n      tag_72\n      tag_73\n      jump\t// in\n    tag_72:\n    tag_71:\n      swap1\n      0x00\n      mstore\n      keccak256(0x00, 0x20)\n      swap1\n      0x05\n      mul\n      add\n        /* \"contracts/Twitter-AddEvent.sol\":2230:2251  tweets[author][id].id */\n      0x00\n      add\n      sload\n        /* \"contracts/Twitter-AddEvent.sol\":2230:2257  tweets[author][id].id == id */\n      eq\n        /* \"contracts/Twitter-AddEvent.sol\":2222:2282  require(tweets[author][id].id == id, \"TWEET DOES NOT EXIST\") */\n      tag_75\n      jumpi\n      mload(0x40)\n      0x08c379a000000000000000000000000000000000000000000000000000000000\n      dup2\n      mstore\n      0x04\n      add\n      tag_76\n      swap1\n      tag_77\n      jump\t// in\n    tag_76:\n      mload(0x40)\n      dup1\n      swap2\n      sub\n      swap1\n      revert\n    tag_75:\n        /* \"contracts/Twitter-AddEvent.sol\":2327:2328  0 */\n      0x00\n        /* \"contracts/Twitter-AddEvent.sol\":2300:2306  tweets */\n      0x01\n        /* \"contracts/Twitter-AddEvent.sol\":2300:2314  tweets[author] */\n      0x00\n        /* \"contracts/Twitter-AddEvent.sol\":2307:2313  author */\n      dup5\n        /* \"contracts/Twitter-AddEvent.sol\":2300:2314  tweets[author] */\n      0xffffffffffffffffffffffffffffffffffffffff\n      and\n      0xffffffffffffffffffffffffffffffffffffffff\n      and\n      dup2\n      mstore\n      0x20\n      add\n      swap1\n      dup2\n      mstore\n      0x20\n      add\n      0x00\n      keccak256\n        /* \"contracts/Twitter-AddEvent.sol\":2315:2317  id */\n      dup3\n        /* \"contracts/Twitter-AddEvent.sol\":2300:2318  tweets[author][id] */\n      dup2\n      sload\n      dup2\n      lt\n      tag_78\n      jumpi\n      tag_79\n      tag_73\n      jump\t// in\n    tag_79:\n    tag_78:\n      swap1\n      0x00\n      mstore\n      keccak256(0x00, 0x20)\n      swap1\n      0x05\n      mul\n      add\n        /* \"contracts/Twitter-AddEvent.sol\":2300:2324  tweets[author][id].likes */\n      0x04\n      add\n      sload\n        /* \"contracts/Twitter-AddEvent.sol\":2300:2328  tweets[author][id].likes > 0 */\n      gt\n        /* \"contracts/Twitter-AddEvent.sol\":2292:2351  require(tweets[author][id].likes > 0, \"TWEET HAS NO LIKES\") */\n      tag_81\n      jumpi\n      mload(0x40)\n      0x08c379a000000000000000000000000000000000000000000000000000000000\n      dup2\n      mstore\n      0x04\n      add\n      tag_82\n      swap1\n      tag_83\n      jump\t// in\n    tag_82:\n      mload(0x40)\n      dup1\n      swap2\n      sub\n      swap1\n      revert\n    tag_81:\n        /* \"contracts/Twitter-AddEvent.sol\":2370:2376  tweets */\n      0x01\n        /* \"contracts/Twitter-AddEvent.sol\":2370:2384  tweets[author] */\n      0x00\n        /* \"contracts/Twitter-AddEvent.sol\":2377:2383  author */\n      dup4\n        /* \"contracts/Twitter-AddEvent.sol\":2370:2384  tweets[author] */\n      0xffffffffffffffffffffffffffffffffffffffff\n      and\n      0xffffffffffffffffffffffffffffffffffffffff\n      and\n      dup2\n      mstore\n      0x20\n      add\n      swap1\n      dup2\n      mstore\n      0x20\n      add\n      0x00\n      keccak256\n        /* \"contracts/Twitter-AddEvent.sol\":2385:2387  id */\n      dup2\n        /* \"contracts/Twitter-AddEvent.sol\":2370:2388  tweets[author][id] */\n      dup2\n      sload\n      dup2\n      lt\n      tag_84\n      jumpi\n      tag_85\n      tag_73\n      jump\t// in\n    tag_85:\n    tag_84:\n      swap1\n      0x00\n      mstore\n      keccak256(0x00, 0x20)\n      swap1\n      0x05\n      mul\n      add\n        /* \"contracts/Twitter-AddEvent.sol\":2370:2394  tweets[author][id].likes */\n      0x04\n      add\n      0x00\n        /* \"contracts/Twitter-AddEvent.sol\":2370:2396  tweets[author][id].likes-- */\n      dup2\n      sload\n      dup1\n      swap3\n      swap2\n      swap1\n      tag_87\n      swap1\n      tag_88\n      jump\t// in\n    tag_87:\n      swap2\n      swap1\n      pop\n      sstore\n      pop\n        /* \"contracts/Twitter-AddEvent.sol\":2435:2445  msg.sender */\n      caller\n        /* \"contracts/Twitter-AddEvent.sol\":2412:2472  TweetLiked(author, id, msg.sender, tweets[author][id].likes) */\n      0xffffffffffffffffffffffffffffffffffffffff\n      and\n        /* \"contracts/Twitter-AddEvent.sol\":2423:2429  author */\n      dup3\n        /* \"contracts/Twitter-AddEvent.sol\":2412:2472  TweetLiked(author, id, msg.sender, tweets[author][id].likes) */\n      0xffffffffffffffffffffffffffffffffffffffff\n      and\n      0x92b28835d0b319899e89c1088bd96bc0c40dfa514215cffdc18dd53963914191\n        /* \"contracts/Twitter-AddEvent.sol\":2431:2433  id */\n      dup4\n        /* \"contracts/Twitter-AddEvent.sol\":2447:2453  tweets */\n      0x01\n        /* \"contracts/Twitter-AddEvent.sol\":2447:2461  tweets[author] */\n      0x00\n        /* \"contracts/Twitter-AddEvent.sol\":2454:2460  author */\n      dup8\n        /* \"contracts/Twitter-AddEvent.sol\":2447:2461  tweets[author] */\n      0xffffffffffffffffffffffffffffffffffffffff\n      and\n      0xffffffffffffffffffffffffffffffffffffffff\n      and\n      dup2\n      mstore\n      0x20\n      add\n      swap1\n      dup2\n      mstore\n      0x20\n      add\n      0x00\n      keccak256\n        /* \"contracts/Twitter-AddEvent.sol\":2462:2464  id */\n      dup6\n        /* \"contracts/Twitter-AddEvent.sol\":2447:2465  tweets[author][id] */\n      dup2\n      sload\n      dup2\n      lt\n      tag_89\n      jumpi\n      tag_90\n      tag_73\n      jump\t// in\n    tag_90:\n    tag_89:\n      swap1\n      0x00\n      mstore\n      keccak256(0x00, 0x20)\n      swap1\n      0x05\n      mul\n      add\n        /* \"contracts/Twitter-AddEvent.sol\":2447:2471  tweets[author][id].likes */\n      0x04\n      add\n      sload\n        /* \"contracts/Twitter-AddEvent.sol\":2412:2472  TweetLiked(author, id, msg.sender, tweets[author][id].likes) */\n      mload(0x40)\n      tag_92\n      swap3\n      swap2\n      swap1\n      tag_93\n      jump\t// in\n    tag_92:\n      mload(0x40)\n      dup1\n      swap2\n      sub\n      swap1\n      log3\n        /* \"contracts/Twitter-AddEvent.sol\":2154:2479  function unlikeTweet(address author, uint256 id) external {... */\n      pop\n      pop\n      jump\t// out\n        /* \"contracts/Twitter-AddEvent.sol\":1262:1379  function changeTweetLength(uint16 newTweetLength) public onlyOwner {... */\n    tag_31:\n        /* \"contracts/Twitter-AddEvent.sol\":1206:1211  owner */\n      0x02\n      0x00\n      swap1\n      sload\n      swap1\n      0x0100\n      exp\n      swap1\n      div\n      0xffffffffffffffffffffffffffffffffffffffff\n      and\n        /* \"contracts/Twitter-AddEvent.sol\":1192:1211  msg.sender == owner */\n      0xffffffffffffffffffffffffffffffffffffffff\n      and\n        /* \"contracts/Twitter-AddEvent.sol\":1192:1202  msg.sender */\n      caller\n        /* \"contracts/Twitter-AddEvent.sol\":1192:1211  msg.sender == owner */\n      0xffffffffffffffffffffffffffffffffffffffff\n      and\n      eq\n        /* \"contracts/Twitter-AddEvent.sol\":1184:1238  require(msg.sender == owner, \"YOU ARE NOT THE OWNER!\") */\n      tag_95\n      jumpi\n      mload(0x40)\n      0x08c379a000000000000000000000000000000000000000000000000000000000\n      dup2\n      mstore\n      0x04\n      add\n      tag_96\n      swap1\n      tag_97\n      jump\t// in\n    tag_96:\n      mload(0x40)\n      dup1\n      swap2\n      sub\n      swap1\n      revert\n    tag_95:\n        /* \"contracts/Twitter-AddEvent.sol\":1358:1372  newTweetLength */\n      dup1\n        /* \"contracts/Twitter-AddEvent.sol\":1339:1355  MAX_TWEET_LENGTH */\n      0x00\n      dup1\n        /* \"contracts/Twitter-AddEvent.sol\":1339:1372  MAX_TWEET_LENGTH = newTweetLength */\n      0x0100\n      exp\n      dup2\n      sload\n      dup2\n      0xffff\n      mul\n      not\n      and\n      swap1\n      dup4\n      0xffff\n      and\n      mul\n      or\n      swap1\n      sstore\n      pop\n        /* \"contracts/Twitter-AddEvent.sol\":1262:1379  function changeTweetLength(uint16 newTweetLength) public onlyOwner {... */\n      pop\n      jump\t// out\n        /* \"contracts/Twitter-AddEvent.sol\":1892:2148  function likeTweet(address author, uint256 id) external {  ... */\n    tag_34:\n        /* \"contracts/Twitter-AddEvent.sol\":1993:1995  id */\n      dup1\n        /* \"contracts/Twitter-AddEvent.sol\":1968:1974  tweets */\n      0x01\n        /* \"contracts/Twitter-AddEvent.sol\":1968:1982  tweets[author] */\n      0x00\n        /* \"contracts/Twitter-AddEvent.sol\":1975:1981  author */\n      dup5\n        /* \"contracts/Twitter-AddEvent.sol\":1968:1982  tweets[author] */\n      0xffffffffffffffffffffffffffffffffffffffff\n      and\n      0xffffffffffffffffffffffffffffffffffffffff\n      and\n      dup2\n      mstore\n      0x20\n      add\n      swap1\n      dup2\n      mstore\n      0x20\n      add\n      0x00\n      keccak256\n        /* \"contracts/Twitter-AddEvent.sol\":1983:1985  id */\n      dup3\n        /* \"contracts/Twitter-AddEvent.sol\":1968:1986  tweets[author][id] */\n      dup2\n      sload\n      dup2\n      lt\n      tag_100\n      jumpi\n      tag_101\n      tag_73\n      jump\t// in\n    tag_101:\n    tag_100:\n      swap1\n      0x00\n      mstore\n      keccak256(0x00, 0x20)\n      swap1\n      0x05\n      mul\n      add\n        /* \"contracts/Twitter-AddEvent.sol\":1968:1989  tweets[author][id].id */\n      0x00\n      add\n      sload\n        /* \"contracts/Twitter-AddEvent.sol\":1968:1995  tweets[author][id].id == id */\n      eq\n        /* \"contracts/Twitter-AddEvent.sol\":1960:2020  require(tweets[author][id].id == id, \"TWEET DOES NOT EXIST\") */\n      tag_103\n      jumpi\n      mload(0x40)\n      0x08c379a000000000000000000000000000000000000000000000000000000000\n      dup2\n      mstore\n      0x04\n      add\n      tag_104\n      swap1\n      tag_77\n      jump\t// in\n    tag_104:\n      mload(0x40)\n      dup1\n      swap2\n      sub\n      swap1\n      revert\n    tag_103:\n        /* \"contracts/Twitter-AddEvent.sol\":2031:2037  tweets */\n      0x01\n        /* \"contracts/Twitter-AddEvent.sol\":2031:2045  tweets[author] */\n      0x00\n        /* \"contracts/Twitter-AddEvent.sol\":2038:2044  author */\n      dup4\n        /* \"contracts/Twitter-AddEvent.sol\":2031:2045  tweets[author] */\n      0xffffffffffffffffffffffffffffffffffffffff\n      and\n      0xffffffffffffffffffffffffffffffffffffffff\n      and\n      dup2\n      mstore\n      0x20\n      add\n      swap1\n      dup2\n      mstore\n      0x20\n      add\n      0x00\n      keccak256\n        /* \"contracts/Twitter-AddEvent.sol\":2046:2048  id */\n      dup2\n        /* \"contracts/Twitter-AddEvent.sol\":2031:2049  tweets[author][id] */\n      dup2\n      sload\n      dup2\n      lt\n      tag_105\n      jumpi\n      tag_106\n      tag_73\n      jump\t// in\n    tag_106:\n    tag_105:\n      swap1\n      0x00\n      mstore\n      keccak256(0x00, 0x20)\n      swap1\n      0x05\n      mul\n      add\n        /* \"contracts/Twitter-AddEvent.sol\":2031:2055  tweets[author][id].likes */\n      0x04\n      add\n      0x00\n        /* \"contracts/Twitter-AddEvent.sol\":2031:2057  tweets[author][id].likes++ */\n      dup2\n      sload\n      dup1\n      swap3\n      swap2\n      swap1\n      tag_108\n      swap1\n      tag_109\n      jump\t// in\n    tag_108:\n      swap2\n      swap1\n      pop\n      sstore\n      pop\n        /* \"contracts/Twitter-AddEvent.sol\":2104:2114  msg.sender */\n      caller\n        /* \"contracts/Twitter-AddEvent.sol\":2081:2141  TweetLiked(author, id, msg.sender, tweets[author][id].likes) */\n      0xffffffffffffffffffffffffffffffffffffffff\n      and\n        /* \"contracts/Twitter-AddEvent.sol\":2092:2098  author */\n      dup3\n        /* \"contracts/Twitter-AddEvent.sol\":2081:2141  TweetLiked(author, id, msg.sender, tweets[author][id].likes) */\n      0xffffffffffffffffffffffffffffffffffffffff\n      and\n      0x92b28835d0b319899e89c1088bd96bc0c40dfa514215cffdc18dd53963914191\n        /* \"contracts/Twitter-AddEvent.sol\":2100:2102  id */\n      dup4\n        /* \"contracts/Twitter-AddEvent.sol\":2116:2122  tweets */\n      0x01\n        /* \"contracts/Twitter-AddEvent.sol\":2116:2130  tweets[author] */\n      0x00\n        /* \"contracts/Twitter-AddEvent.sol\":2123:2129  author */\n      dup8\n        /* \"contracts/Twitter-AddEvent.sol\":2116:2130  tweets[author] */\n      0xffffffffffffffffffffffffffffffffffffffff\n      and\n      0xffffffffffffffffffffffffffffffffffffffff\n      and\n      dup2\n      mstore\n      0x20\n      add\n      swap1\n      dup2\n      mstore\n      0x20\n      add\n      0x00\n      keccak256\n        /* \"contracts/Twitter-AddEvent.sol\":2131:2133  id */\n      dup6\n        /* \"contracts/Twitter-AddEvent.sol\":2116:2134  tweets[author][id] */\n      dup2\n      sload\n      dup2\n      lt\n      tag_110\n      jumpi\n      tag_111\n      tag_73\n      jump\t// in\n    tag_111:\n    tag_110:\n      swap1\n      0x00\n      mstore\n      keccak256(0x00, 0x20)\n      swap1\n      0x05\n      mul\n      add\n        /* \"contracts/Twitter-AddEvent.sol\":2116:2140  tweets[author][id].likes */\n      0x04\n      add\n      sload\n        /* \"contracts/Twitter-AddEvent.sol\":2081:2141  TweetLiked(author, id, msg.sender, tweets[author][id].likes) */\n      mload(0x40)\n      tag_113\n      swap3\n      swap2\n      swap1\n      tag_93\n      jump\t// in\n    tag_113:\n      mload(0x40)\n      dup1\n      swap2\n      sub\n      swap1\n      log3\n        /* \"contracts/Twitter-AddEvent.sol\":1892:2148  function likeTweet(address author, uint256 id) external {  ... */\n      pop\n      pop\n      jump\t// out\n        /* \"contracts/Twitter-AddEvent.sol\":475:511  uint16 public MAX_TWEET_LENGTH = 280 */\n    tag_36:\n      0x00\n      dup1\n      sload\n      swap1\n      0x0100\n      exp\n      swap1\n      div\n      0xffff\n      and\n      dup2\n      jump\t// out\n        /* \"contracts/Twitter-AddEvent.sol\":1385:1886  function createTweet(string memory _tweet) public {... */\n    tag_42:\n        /* \"contracts/Twitter-AddEvent.sol\":1477:1493  MAX_TWEET_LENGTH */\n      0x00\n      dup1\n      sload\n      swap1\n      0x0100\n      exp\n      swap1\n      div\n      0xffff\n      and\n        /* \"contracts/Twitter-AddEvent.sol\":1453:1493  bytes(_tweet).length <= MAX_TWEET_LENGTH */\n      0xffff\n      and\n        /* \"contracts/Twitter-AddEvent.sol\":1459:1465  _tweet */\n      dup2\n        /* \"contracts/Twitter-AddEvent.sol\":1453:1473  bytes(_tweet).length */\n      mload\n        /* \"contracts/Twitter-AddEvent.sol\":1453:1493  bytes(_tweet).length <= MAX_TWEET_LENGTH */\n      gt\n      iszero\n        /* \"contracts/Twitter-AddEvent.sol\":1445:1521  require(bytes(_tweet).length <= MAX_TWEET_LENGTH, \"Tweet is too long bro!\" ) */\n      tag_115\n      jumpi\n      mload(0x40)\n      0x08c379a000000000000000000000000000000000000000000000000000000000\n      dup2\n      mstore\n      0x04\n      add\n      tag_116\n      swap1\n      tag_117\n      jump\t// in\n    tag_116:\n      mload(0x40)\n      dup1\n      swap2\n      sub\n      swap1\n      revert\n    tag_115:\n        /* \"contracts/Twitter-AddEvent.sol\":1532:1553  Tweet memory newTweet */\n      0x00\n        /* \"contracts/Twitter-AddEvent.sol\":1556:1739  Tweet({... */\n      mload(0x40)\n      dup1\n      0xa0\n      add\n      0x40\n      mstore\n      dup1\n        /* \"contracts/Twitter-AddEvent.sol\":1580:1586  tweets */\n      0x01\n        /* \"contracts/Twitter-AddEvent.sol\":1580:1598  tweets[msg.sender] */\n      0x00\n        /* \"contracts/Twitter-AddEvent.sol\":1587:1597  msg.sender */\n      caller\n        /* \"contracts/Twitter-AddEvent.sol\":1580:1598  tweets[msg.sender] */\n      0xffffffffffffffffffffffffffffffffffffffff\n      and\n      0xffffffffffffffffffffffffffffffffffffffff\n      and\n      dup2\n      mstore\n      0x20\n      add\n      swap1\n      dup2\n      mstore\n      0x20\n      add\n      0x00\n      keccak256\n        /* \"contracts/Twitter-AddEvent.sol\":1580:1605  tweets[msg.sender].length */\n      dup1\n      sload\n      swap1\n      pop\n        /* \"contracts/Twitter-AddEvent.sol\":1556:1739  Tweet({... */\n      dup2\n      mstore\n      0x20\n      add\n        /* \"contracts/Twitter-AddEvent.sol\":1627:1637  msg.sender */\n      caller\n        /* \"contracts/Twitter-AddEvent.sol\":1556:1739  Tweet({... */\n      0xffffffffffffffffffffffffffffffffffffffff\n      and\n      dup2\n      mstore\n      0x20\n      add\n        /* \"contracts/Twitter-AddEvent.sol\":1660:1666  _tweet */\n      dup4\n        /* \"contracts/Twitter-AddEvent.sol\":1556:1739  Tweet({... */\n      dup2\n      mstore\n      0x20\n      add\n        /* \"contracts/Twitter-AddEvent.sol\":1691:1706  block.timestamp */\n      timestamp\n        /* \"contracts/Twitter-AddEvent.sol\":1556:1739  Tweet({... */\n      dup2\n      mstore\n      0x20\n      add\n        /* \"contracts/Twitter-AddEvent.sol\":1727:1728  0 */\n      0x00\n        /* \"contracts/Twitter-AddEvent.sol\":1556:1739  Tweet({... */\n      dup2\n      mstore\n      pop\n        /* \"contracts/Twitter-AddEvent.sol\":1532:1739  Tweet memory newTweet = Tweet({... */\n      swap1\n      pop\n        /* \"contracts/Twitter-AddEvent.sol\":1750:1756  tweets */\n      0x01\n        /* \"contracts/Twitter-AddEvent.sol\":1750:1768  tweets[msg.sender] */\n      0x00\n        /* \"contracts/Twitter-AddEvent.sol\":1757:1767  msg.sender */\n      caller\n        /* \"contracts/Twitter-AddEvent.sol\":1750:1768  tweets[msg.sender] */\n      0xffffffffffffffffffffffffffffffffffffffff\n      and\n      0xffffffffffffffffffffffffffffffffffffffff\n      and\n      dup2\n      mstore\n      0x20\n      add\n      swap1\n      dup2\n      mstore\n      0x20\n      add\n      0x00\n      keccak256\n        /* \"contracts/Twitter-AddEvent.sol\":1774:1782  newTweet */\n      dup2\n        /* \"contracts/Twitter-AddEvent.sol\":1750:1783  tweets[msg.sender].push(newTweet) */\n      swap1\n      dup1\n      0x01\n      dup2\n      sload\n      add\n      dup1\n      dup3\n      sstore\n      dup1\n      swap2\n      pop\n      pop\n      0x01\n      swap1\n      sub\n      swap1\n      0x00\n      mstore\n      keccak256(0x00, 0x20)\n      swap1\n      0x05\n      mul\n      add\n      0x00\n      swap1\n      swap2\n      swap1\n      swap2\n      swap1\n      swap2\n      pop\n      0x00\n      dup3\n      add\n      mload\n      dup2\n      0x00\n      add\n      sstore\n      0x20\n      dup3\n      add\n      mload\n      dup2\n      0x01\n      add\n      exp(0x0100, 0x00)\n      dup2\n      sload\n      dup2\n      0xffffffffffffffffffffffffffffffffffffffff\n      mul\n      not\n      and\n      swap1\n      dup4\n      0xffffffffffffffffffffffffffffffffffffffff\n      and\n      mul\n      or\n      swap1\n      sstore\n      pop\n      0x40\n      dup3\n      add\n      mload\n      dup2\n      0x02\n      add\n      swap1\n      dup2\n      tag_119\n      swap2\n      swap1\n      tag_120\n      jump\t// in\n    tag_119:\n      pop\n      0x60\n      dup3\n      add\n      mload\n      dup2\n      0x03\n      add\n      sstore\n      0x80\n      dup3\n      add\n      mload\n      dup2\n      0x04\n      add\n      sstore\n      pop\n      pop\n        /* \"contracts/Twitter-AddEvent.sol\":1825:1833  newTweet */\n      dup1\n        /* \"contracts/Twitter-AddEvent.sol\":1825:1840  newTweet.author */\n      0x20\n      add\n      mload\n        /* \"contracts/Twitter-AddEvent.sol\":1799:1879  TweetCreated(newTweet.id, newTweet.author, newTweet.content, newTweet.timestamp) */\n      0xffffffffffffffffffffffffffffffffffffffff\n      and\n      0x16fd3c13e9d46923e0a8bce11c7b473ec508a72e6c96cd2404b29ce972afc29e\n        /* \"contracts/Twitter-AddEvent.sol\":1812:1820  newTweet */\n      dup3\n        /* \"contracts/Twitter-AddEvent.sol\":1812:1823  newTweet.id */\n      0x00\n      add\n      mload\n        /* \"contracts/Twitter-AddEvent.sol\":1842:1850  newTweet */\n      dup4\n        /* \"contracts/Twitter-AddEvent.sol\":1842:1858  newTweet.content */\n      0x40\n      add\n      mload\n        /* \"contracts/Twitter-AddEvent.sol\":1860:1868  newTweet */\n      dup5\n        /* \"contracts/Twitter-AddEvent.sol\":1860:1878  newTweet.timestamp */\n      0x60\n      add\n      mload\n        /* \"contracts/Twitter-AddEvent.sol\":1799:1879  TweetCreated(newTweet.id, newTweet.author, newTweet.content, newTweet.timestamp) */\n      mload(0x40)\n      tag_121\n      swap4\n      swap3\n      swap2\n      swap1\n      tag_122\n      jump\t// in\n    tag_121:\n      mload(0x40)\n      dup1\n      swap2\n      sub\n      swap1\n      log2\n        /* \"contracts/Twitter-AddEvent.sol\":1435:1886  {... */\n      pop\n        /* \"contracts/Twitter-AddEvent.sol\":1385:1886  function createTweet(string memory _tweet) public {... */\n      pop\n      jump\t// out\n        /* \"contracts/Twitter-AddEvent.sol\":709:729  address public owner */\n    tag_44:\n      0x02\n      0x00\n      swap1\n      sload\n      swap1\n      0x0100\n      exp\n      swap1\n      div\n      0xffffffffffffffffffffffffffffffffffffffff\n      and\n      dup2\n      jump\t// out\n        /* \"contracts/Twitter-AddEvent.sol\":2485:2594  function getTweet( uint _i) public view returns (Tweet memory) {... */\n    tag_50:\n        /* \"contracts/Twitter-AddEvent.sol\":2534:2546  Tweet memory */\n      tag_123\n      tag_124\n      jump\t// in\n    tag_123:\n        /* \"contracts/Twitter-AddEvent.sol\":2565:2571  tweets */\n      0x01\n        /* \"contracts/Twitter-AddEvent.sol\":2565:2583  tweets[msg.sender] */\n      0x00\n        /* \"contracts/Twitter-AddEvent.sol\":2572:2582  msg.sender */\n      caller\n        /* \"contracts/Twitter-AddEvent.sol\":2565:2583  tweets[msg.sender] */\n      0xffffffffffffffffffffffffffffffffffffffff\n      and\n      0xffffffffffffffffffffffffffffffffffffffff\n      and\n      dup2\n      mstore\n      0x20\n      add\n      swap1\n      dup2\n      mstore\n      0x20\n      add\n      0x00\n      keccak256\n        /* \"contracts/Twitter-AddEvent.sol\":2584:2586  _i */\n      dup3\n        /* \"contracts/Twitter-AddEvent.sol\":2565:2587  tweets[msg.sender][_i] */\n      dup2\n      sload\n      dup2\n      lt\n      tag_126\n      jumpi\n      tag_127\n      tag_73\n      jump\t// in\n    tag_127:\n    tag_126:\n      swap1\n      0x00\n      mstore\n      keccak256(0x00, 0x20)\n      swap1\n      0x05\n      mul\n      add\n        /* \"contracts/Twitter-AddEvent.sol\":2558:2587  return tweets[msg.sender][_i] */\n      mload(0x40)\n      dup1\n      0xa0\n      add\n      0x40\n      mstore\n      swap1\n      dup2\n      0x00\n      dup3\n      add\n      sload\n      dup2\n      mstore\n      0x20\n      add\n      0x01\n      dup3\n      add\n      0x00\n      swap1\n      sload\n      swap1\n      0x0100\n      exp\n      swap1\n      div\n      0xffffffffffffffffffffffffffffffffffffffff\n      and\n      0xffffffffffffffffffffffffffffffffffffffff\n      and\n      0xffffffffffffffffffffffffffffffffffffffff\n      and\n      dup2\n      mstore\n      0x20\n      add\n      0x02\n      dup3\n      add\n      dup1\n      sload\n      tag_129\n      swap1\n      tag_56\n      jump\t// in\n    tag_129:\n      dup1\n      0x1f\n      add\n      0x20\n      dup1\n      swap2\n      div\n      mul\n      0x20\n      add\n      mload(0x40)\n      swap1\n      dup2\n      add\n      0x40\n      mstore\n      dup1\n      swap3\n      swap2\n      swap1\n      dup2\n      dup2\n      mstore\n      0x20\n      add\n      dup3\n      dup1\n      sload\n      tag_130\n      swap1\n      tag_56\n      jump\t// in\n    tag_130:\n      dup1\n      iszero\n      tag_131\n      jumpi\n      dup1\n      0x1f\n      lt\n      tag_132\n      jumpi\n      0x0100\n      dup1\n      dup4\n      sload\n      div\n      mul\n      dup4\n      mstore\n      swap2\n      0x20\n      add\n      swap2\n      jump(tag_131)\n    tag_132:\n      dup3\n      add\n      swap2\n      swap1\n      0x00\n      mstore\n      keccak256(0x00, 0x20)\n      swap1\n    tag_133:\n      dup2\n      sload\n      dup2\n      mstore\n      swap1\n      0x01\n      add\n      swap1\n      0x20\n      add\n      dup1\n      dup4\n      gt\n      tag_133\n      jumpi\n      dup3\n      swap1\n      sub\n      0x1f\n      and\n      dup3\n      add\n      swap2\n    tag_131:\n      pop\n      pop\n      pop\n      pop\n      pop\n      dup2\n      mstore\n      0x20\n      add\n      0x03\n      dup3\n      add\n      sload\n      dup2\n      mstore\n      0x20\n      add\n      0x04\n      dup3\n      add\n      sload\n      dup2\n      mstore\n      pop\n      pop\n      swap1\n      pop\n        /* \"contracts/Twitter-AddEvent.sol\":2485:2594  function getTweet( uint _i) public view returns (Tweet memory) {... */\n      swap2\n      swap1\n      pop\n      jump\t// out\n    tag_124:\n      mload(0x40)\n      dup1\n      0xa0\n      add\n      0x40\n      mstore\n      dup1\n      0x00\n      dup2\n      mstore\n      0x20\n      add\n      and(0xffffffffffffffffffffffffffffffffffffffff, 0x00)\n      dup2\n      mstore\n      0x20\n      add\n      0x60\n      dup2\n      mstore\n      0x20\n      add\n      0x00\n      dup2\n      mstore\n      0x20\n      add\n      0x00\n      dup2\n      mstore\n      pop\n      swap1\n      jump\t// out\n        /* \"#utility.yul\":7:82   */\n    tag_134:\n        /* \"#utility.yul\":40:46   */\n      0x00\n        /* \"#utility.yul\":73:75   */\n      0x40\n        /* \"#utility.yul\":67:76   */\n      mload\n        /* \"#utility.yul\":57:76   */\n      swap1\n      pop\n        /* \"#utility.yul\":7:82   */\n      swap1\n      jump\t// out\n        /* \"#utility.yul\":88:205   */\n    tag_135:\n        /* \"#utility.yul\":197:198   */\n      0x00\n        /* \"#utility.yul\":194:195   */\n      dup1\n        /* \"#utility.yul\":187:199   */\n      revert\n        /* \"#utility.yul\":211:328   */\n    tag_136:\n        /* \"#utility.yul\":320:321   */\n      0x00\n        /* \"#utility.yul\":317:318   */\n      dup1\n        /* \"#utility.yul\":310:322   */\n      revert\n        /* \"#utility.yul\":334:460   */\n    tag_137:\n        /* \"#utility.yul\":371:378   */\n      0x00\n        /* \"#utility.yul\":411:453   */\n      0xffffffffffffffffffffffffffffffffffffffff\n        /* \"#utility.yul\":404:409   */\n      dup3\n        /* \"#utility.yul\":400:454   */\n      and\n        /* \"#utility.yul\":389:454   */\n      swap1\n      pop\n        /* \"#utility.yul\":334:460   */\n      swap2\n      swap1\n      pop\n      jump\t// out\n        /* \"#utility.yul\":466:562   */\n    tag_138:\n        /* \"#utility.yul\":503:510   */\n      0x00\n        /* \"#utility.yul\":532:556   */\n      tag_207\n        /* \"#utility.yul\":550:555   */\n      dup3\n        /* \"#utility.yul\":532:556   */\n      tag_137\n      jump\t// in\n    tag_207:\n        /* \"#utility.yul\":521:556   */\n      swap1\n      pop\n        /* \"#utility.yul\":466:562   */\n      swap2\n      swap1\n      pop\n      jump\t// out\n        /* \"#utility.yul\":568:690   */\n    tag_139:\n        /* \"#utility.yul\":641:665   */\n      tag_209\n        /* \"#utility.yul\":659:664   */\n      dup2\n        /* \"#utility.yul\":641:665   */\n      tag_138\n      jump\t// in\n    tag_209:\n        /* \"#utility.yul\":634:639   */\n      dup2\n        /* \"#utility.yul\":631:666   */\n      eq\n        /* \"#utility.yul\":621:684   */\n      tag_210\n      jumpi\n        /* \"#utility.yul\":680:681   */\n      0x00\n        /* \"#utility.yul\":677:678   */\n      dup1\n        /* \"#utility.yul\":670:682   */\n      revert\n        /* \"#utility.yul\":621:684   */\n    tag_210:\n        /* \"#utility.yul\":568:690   */\n      pop\n      jump\t// out\n        /* \"#utility.yul\":696:835   */\n    tag_140:\n        /* \"#utility.yul\":742:747   */\n      0x00\n        /* \"#utility.yul\":780:786   */\n      dup2\n        /* \"#utility.yul\":767:787   */\n      calldataload\n        /* \"#utility.yul\":758:787   */\n      swap1\n      pop\n        /* \"#utility.yul\":796:829   */\n      tag_212\n        /* \"#utility.yul\":823:828   */\n      dup2\n        /* \"#utility.yul\":796:829   */\n      tag_139\n      jump\t// in\n    tag_212:\n        /* \"#utility.yul\":696:835   */\n      swap3\n      swap2\n      pop\n      pop\n      jump\t// out\n        /* \"#utility.yul\":841:918   */\n    tag_141:\n        /* \"#utility.yul\":878:885   */\n      0x00\n        /* \"#utility.yul\":907:912   */\n      dup2\n        /* \"#utility.yul\":896:912   */\n      swap1\n      pop\n        /* \"#utility.yul\":841:918   */\n      swap2\n      swap1\n      pop\n      jump\t// out\n        /* \"#utility.yul\":924:1046   */\n    tag_142:\n        /* \"#utility.yul\":997:1021   */\n      tag_215\n        /* \"#utility.yul\":1015:1020   */\n      dup2\n        /* \"#utility.yul\":997:1021   */\n      tag_141\n      jump\t// in\n    tag_215:\n        /* \"#utility.yul\":990:995   */\n      dup2\n        /* \"#utility.yul\":987:1022   */\n      eq\n        /* \"#utility.yul\":977:1040   */\n      tag_216\n      jumpi\n        /* \"#utility.yul\":1036:1037   */\n      0x00\n        /* \"#utility.yul\":1033:1034   */\n      dup1\n        /* \"#utility.yul\":1026:1038   */\n      revert\n        /* \"#utility.yul\":977:1040   */\n    tag_216:\n        /* \"#utility.yul\":924:1046   */\n      pop\n      jump\t// out\n        /* \"#utility.yul\":1052:1191   */\n    tag_143:\n        /* \"#utility.yul\":1098:1103   */\n      0x00\n        /* \"#utility.yul\":1136:1142   */\n      dup2\n        /* \"#utility.yul\":1123:1143   */\n      calldataload\n        /* \"#utility.yul\":1114:1143   */\n      swap1\n      pop\n        /* \"#utility.yul\":1152:1185   */\n      tag_218\n        /* \"#utility.yul\":1179:1184   */\n      dup2\n        /* \"#utility.yul\":1152:1185   */\n      tag_142\n      jump\t// in\n    tag_218:\n        /* \"#utility.yul\":1052:1191   */\n      swap3\n      swap2\n      pop\n      pop\n      jump\t// out\n        /* \"#utility.yul\":1197:1671   */\n    tag_15:\n        /* \"#utility.yul\":1265:1271   */\n      0x00\n        /* \"#utility.yul\":1273:1279   */\n      dup1\n        /* \"#utility.yul\":1322:1324   */\n      0x40\n        /* \"#utility.yul\":1310:1319   */\n      dup4\n        /* \"#utility.yul\":1301:1308   */\n      dup6\n        /* \"#utility.yul\":1297:1320   */\n      sub\n        /* \"#utility.yul\":1293:1325   */\n      slt\n        /* \"#utility.yul\":1290:1409   */\n      iszero\n      tag_220\n      jumpi\n        /* \"#utility.yul\":1328:1407   */\n      tag_221\n      tag_135\n      jump\t// in\n    tag_221:\n        /* \"#utility.yul\":1290:1409   */\n    tag_220:\n        /* \"#utility.yul\":1448:1449   */\n      0x00\n        /* \"#utility.yul\":1473:1526   */\n      tag_222\n        /* \"#utility.yul\":1518:1525   */\n      dup6\n        /* \"#utility.yul\":1509:1515   */\n      dup3\n        /* \"#utility.yul\":1498:1507   */\n      dup7\n        /* \"#utility.yul\":1494:1516   */\n      add\n        /* \"#utility.yul\":1473:1526   */\n      tag_140\n      jump\t// in\n    tag_222:\n        /* \"#utility.yul\":1463:1526   */\n      swap3\n      pop\n        /* \"#utility.yul\":1419:1536   */\n      pop\n        /* \"#utility.yul\":1575:1577   */\n      0x20\n        /* \"#utility.yul\":1601:1654   */\n      tag_223\n        /* \"#utility.yul\":1646:1653   */\n      dup6\n        /* \"#utility.yul\":1637:1643   */\n      dup3\n        /* \"#utility.yul\":1626:1635   */\n      dup7\n        /* \"#utility.yul\":1622:1644   */\n      add\n        /* \"#utility.yul\":1601:1654   */\n      tag_143\n      jump\t// in\n    tag_223:\n        /* \"#utility.yul\":1591:1654   */\n      swap2\n      pop\n        /* \"#utility.yul\":1546:1664   */\n      pop\n        /* \"#utility.yul\":1197:1671   */\n      swap3\n      pop\n      swap3\n      swap1\n      pop\n      jump\t// out\n        /* \"#utility.yul\":1677:1795   */\n    tag_144:\n        /* \"#utility.yul\":1764:1788   */\n      tag_225\n        /* \"#utility.yul\":1782:1787   */\n      dup2\n        /* \"#utility.yul\":1764:1788   */\n      tag_141\n      jump\t// in\n    tag_225:\n        /* \"#utility.yul\":1759:1762   */\n      dup3\n        /* \"#utility.yul\":1752:1789   */\n      mstore\n        /* \"#utility.yul\":1677:1795   */\n      pop\n      pop\n      jump\t// out\n        /* \"#utility.yul\":1801:1919   */\n    tag_145:\n        /* \"#utility.yul\":1888:1912   */\n      tag_227\n        /* \"#utility.yul\":1906:1911   */\n      dup2\n        /* \"#utility.yul\":1888:1912   */\n      tag_138\n      jump\t// in\n    tag_227:\n        /* \"#utility.yul\":1883:1886   */\n      dup3\n        /* \"#utility.yul\":1876:1913   */\n      mstore\n        /* \"#utility.yul\":1801:1919   */\n      pop\n      pop\n      jump\t// out\n        /* \"#utility.yul\":1925:2024   */\n    tag_146:\n        /* \"#utility.yul\":1977:1983   */\n      0x00\n        /* \"#utility.yul\":2011:2016   */\n      dup2\n        /* \"#utility.yul\":2005:2017   */\n      mload\n        /* \"#utility.yul\":1995:2017   */\n      swap1\n      pop\n        /* \"#utility.yul\":1925:2024   */\n      swap2\n      swap1\n      pop\n      jump\t// out\n        /* \"#utility.yul\":2030:2199   */\n    tag_147:\n        /* \"#utility.yul\":2114:2125   */\n      0x00\n        /* \"#utility.yul\":2148:2154   */\n      dup3\n        /* \"#utility.yul\":2143:2146   */\n      dup3\n        /* \"#utility.yul\":2136:2155   */\n      mstore\n        /* \"#utility.yul\":2188:2192   */\n      0x20\n        /* \"#utility.yul\":2183:2186   */\n      dup3\n        /* \"#utility.yul\":2179:2193   */\n      add\n        /* \"#utility.yul\":2164:2193   */\n      swap1\n      pop\n        /* \"#utility.yul\":2030:2199   */\n      swap3\n      swap2\n      pop\n      pop\n      jump\t// out\n        /* \"#utility.yul\":2205:2344   */\n    tag_148:\n        /* \"#utility.yul\":2294:2300   */\n      dup3\n        /* \"#utility.yul\":2289:2292   */\n      dup2\n        /* \"#utility.yul\":2284:2287   */\n      dup4\n        /* \"#utility.yul\":2278:2301   */\n      mcopy\n        /* \"#utility.yul\":2335:2336   */\n      0x00\n        /* \"#utility.yul\":2326:2332   */\n      dup4\n        /* \"#utility.yul\":2321:2324   */\n      dup4\n        /* \"#utility.yul\":2317:2333   */\n      add\n        /* \"#utility.yul\":2310:2337   */\n      mstore\n        /* \"#utility.yul\":2205:2344   */\n      pop\n      pop\n      pop\n      jump\t// out\n        /* \"#utility.yul\":2350:2452   */\n    tag_149:\n        /* \"#utility.yul\":2391:2397   */\n      0x00\n        /* \"#utility.yul\":2442:2444   */\n      0x1f\n        /* \"#utility.yul\":2438:2445   */\n      not\n        /* \"#utility.yul\":2433:2435   */\n      0x1f\n        /* \"#utility.yul\":2426:2431   */\n      dup4\n        /* \"#utility.yul\":2422:2436   */\n      add\n        /* \"#utility.yul\":2418:2446   */\n      and\n        /* \"#utility.yul\":2408:2446   */\n      swap1\n      pop\n        /* \"#utility.yul\":2350:2452   */\n      swap2\n      swap1\n      pop\n      jump\t// out\n        /* \"#utility.yul\":2458:2835   */\n    tag_150:\n        /* \"#utility.yul\":2546:2549   */\n      0x00\n        /* \"#utility.yul\":2574:2613   */\n      tag_233\n        /* \"#utility.yul\":2607:2612   */\n      dup3\n        /* \"#utility.yul\":2574:2613   */\n      tag_146\n      jump\t// in\n    tag_233:\n        /* \"#utility.yul\":2629:2700   */\n      tag_234\n        /* \"#utility.yul\":2693:2699   */\n      dup2\n        /* \"#utility.yul\":2688:2691   */\n      dup6\n        /* \"#utility.yul\":2629:2700   */\n      tag_147\n      jump\t// in\n    tag_234:\n        /* \"#utility.yul\":2622:2700   */\n      swap4\n      pop\n        /* \"#utility.yul\":2709:2774   */\n      tag_235\n        /* \"#utility.yul\":2767:2773   */\n      dup2\n        /* \"#utility.yul\":2762:2765   */\n      dup6\n        /* \"#utility.yul\":2755:2759   */\n      0x20\n        /* \"#utility.yul\":2748:2753   */\n      dup7\n        /* \"#utility.yul\":2744:2760   */\n      add\n        /* \"#utility.yul\":2709:2774   */\n      tag_148\n      jump\t// in\n    tag_235:\n        /* \"#utility.yul\":2799:2828   */\n      tag_236\n        /* \"#utility.yul\":2821:2827   */\n      dup2\n        /* \"#utility.yul\":2799:2828   */\n      tag_149\n      jump\t// in\n    tag_236:\n        /* \"#utility.yul\":2794:2797   */\n      dup5\n        /* \"#utility.yul\":2790:2829   */\n      add\n        /* \"#utility.yul\":2783:2829   */\n      swap2\n      pop\n        /* \"#utility.yul\":2550:2835   */\n      pop\n        /* \"#utility.yul\":2458:2835   */\n      swap3\n      swap2\n      pop\n      pop\n      jump\t// out\n        /* \"#utility.yul\":2841:3596   */\n    tag_18:\n        /* \"#utility.yul\":3066:3070   */\n      0x00\n        /* \"#utility.yul\":3104:3107   */\n      0xa0\n        /* \"#utility.yul\":3093:3102   */\n      dup3\n        /* \"#utility.yul\":3089:3108   */\n      add\n        /* \"#utility.yul\":3081:3108   */\n      swap1\n      pop\n        /* \"#utility.yul\":3118:3189   */\n      tag_238\n        /* \"#utility.yul\":3186:3187   */\n      0x00\n        /* \"#utility.yul\":3175:3184   */\n      dup4\n        /* \"#utility.yul\":3171:3188   */\n      add\n        /* \"#utility.yul\":3162:3168   */\n      dup9\n        /* \"#utility.yul\":3118:3189   */\n      tag_144\n      jump\t// in\n    tag_238:\n        /* \"#utility.yul\":3199:3271   */\n      tag_239\n        /* \"#utility.yul\":3267:3269   */\n      0x20\n        /* \"#utility.yul\":3256:3265   */\n      dup4\n        /* \"#utility.yul\":3252:3270   */\n      add\n        /* \"#utility.yul\":3243:3249   */\n      dup8\n        /* \"#utility.yul\":3199:3271   */\n      tag_145\n      jump\t// in\n    tag_239:\n        /* \"#utility.yul\":3318:3327   */\n      dup2\n        /* \"#utility.yul\":3312:3316   */\n      dup2\n        /* \"#utility.yul\":3308:3328   */\n      sub\n        /* \"#utility.yul\":3303:3305   */\n      0x40\n        /* \"#utility.yul\":3292:3301   */\n      dup4\n        /* \"#utility.yul\":3288:3306   */\n      add\n        /* \"#utility.yul\":3281:3329   */\n      mstore\n        /* \"#utility.yul\":3346:3424   */\n      tag_240\n        /* \"#utility.yul\":3419:3423   */\n      dup2\n        /* \"#utility.yul\":3410:3416   */\n      dup7\n        /* \"#utility.yul\":3346:3424   */\n      tag_150\n      jump\t// in\n    tag_240:\n        /* \"#utility.yul\":3338:3424   */\n      swap1\n      pop\n        /* \"#utility.yul\":3434:3506   */\n      tag_241\n        /* \"#utility.yul\":3502:3504   */\n      0x60\n        /* \"#utility.yul\":3491:3500   */\n      dup4\n        /* \"#utility.yul\":3487:3505   */\n      add\n        /* \"#utility.yul\":3478:3484   */\n      dup6\n        /* \"#utility.yul\":3434:3506   */\n      tag_144\n      jump\t// in\n    tag_241:\n        /* \"#utility.yul\":3516:3589   */\n      tag_242\n        /* \"#utility.yul\":3584:3587   */\n      0x80\n        /* \"#utility.yul\":3573:3582   */\n      dup4\n        /* \"#utility.yul\":3569:3588   */\n      add\n        /* \"#utility.yul\":3560:3566   */\n      dup5\n        /* \"#utility.yul\":3516:3589   */\n      tag_144\n      jump\t// in\n    tag_242:\n        /* \"#utility.yul\":2841:3596   */\n      swap7\n      swap6\n      pop\n      pop\n      pop\n      pop\n      pop\n      pop\n      jump\t// out\n        /* \"#utility.yul\":3602:3931   */\n    tag_21:\n        /* \"#utility.yul\":3661:3667   */\n      0x00\n        /* \"#utility.yul\":3710:3712   */\n      0x20\n        /* \"#utility.yul\":3698:3707   */\n      dup3\n        /* \"#utility.yul\":3689:3696   */\n      dup5\n        /* \"#utility.yul\":3685:3708   */\n      sub\n        /* \"#utility.yul\":3681:3713   */\n      slt\n        /* \"#utility.yul\":3678:3797   */\n      iszero\n      tag_244\n      jumpi\n        /* \"#utility.yul\":3716:3795   */\n      tag_245\n      tag_135\n      jump\t// in\n    tag_245:\n        /* \"#utility.yul\":3678:3797   */\n    tag_244:\n        /* \"#utility.yul\":3836:3837   */\n      0x00\n        /* \"#utility.yul\":3861:3914   */\n      tag_246\n        /* \"#utility.yul\":3906:3913   */\n      dup5\n        /* \"#utility.yul\":3897:3903   */\n      dup3\n        /* \"#utility.yul\":3886:3895   */\n      dup6\n        /* \"#utility.yul\":3882:3904   */\n      add\n        /* \"#utility.yul\":3861:3914   */\n      tag_140\n      jump\t// in\n    tag_246:\n        /* \"#utility.yul\":3851:3914   */\n      swap2\n      pop\n        /* \"#utility.yul\":3807:3924   */\n      pop\n        /* \"#utility.yul\":3602:3931   */\n      swap3\n      swap2\n      pop\n      pop\n      jump\t// out\n        /* \"#utility.yul\":3937:4072   */\n    tag_151:\n        /* \"#utility.yul\":4025:4031   */\n      0x00\n        /* \"#utility.yul\":4059:4064   */\n      dup2\n        /* \"#utility.yul\":4053:4065   */\n      mload\n        /* \"#utility.yul\":4043:4065   */\n      swap1\n      pop\n        /* \"#utility.yul\":3937:4072   */\n      swap2\n      swap1\n      pop\n      jump\t// out\n        /* \"#utility.yul\":4078:4283   */\n    tag_152:\n        /* \"#utility.yul\":4198:4209   */\n      0x00\n        /* \"#utility.yul\":4232:4238   */\n      dup3\n        /* \"#utility.yul\":4227:4230   */\n      dup3\n        /* \"#utility.yul\":4220:4239   */\n      mstore\n        /* \"#utility.yul\":4272:4276   */\n      0x20\n        /* \"#utility.yul\":4267:4270   */\n      dup3\n        /* \"#utility.yul\":4263:4277   */\n      add\n        /* \"#utility.yul\":4248:4277   */\n      swap1\n      pop\n        /* \"#utility.yul\":4078:4283   */\n      swap3\n      swap2\n      pop\n      pop\n      jump\t// out\n        /* \"#utility.yul\":4289:4442   */\n    tag_153:\n        /* \"#utility.yul\":4377:4381   */\n      0x00\n        /* \"#utility.yul\":4400:4403   */\n      dup2\n        /* \"#utility.yul\":4392:4403   */\n      swap1\n      pop\n        /* \"#utility.yul\":4430:4434   */\n      0x20\n        /* \"#utility.yul\":4425:4428   */\n      dup3\n        /* \"#utility.yul\":4421:4435   */\n      add\n        /* \"#utility.yul\":4413:4435   */\n      swap1\n      pop\n        /* \"#utility.yul\":4289:4442   */\n      swap2\n      swap1\n      pop\n      jump\t// out\n        /* \"#utility.yul\":4448:4556   */\n    tag_154:\n        /* \"#utility.yul\":4525:4549   */\n      tag_251\n        /* \"#utility.yul\":4543:4548   */\n      dup2\n        /* \"#utility.yul\":4525:4549   */\n      tag_141\n      jump\t// in\n    tag_251:\n        /* \"#utility.yul\":4520:4523   */\n      dup3\n        /* \"#utility.yul\":4513:4550   */\n      mstore\n        /* \"#utility.yul\":4448:4556   */\n      pop\n      pop\n      jump\t// out\n        /* \"#utility.yul\":4562:4670   */\n    tag_155:\n        /* \"#utility.yul\":4639:4663   */\n      tag_253\n        /* \"#utility.yul\":4657:4662   */\n      dup2\n        /* \"#utility.yul\":4639:4663   */\n      tag_138\n      jump\t// in\n    tag_253:\n        /* \"#utility.yul\":4634:4637   */\n      dup3\n        /* \"#utility.yul\":4627:4664   */\n      mstore\n        /* \"#utility.yul\":4562:4670   */\n      pop\n      pop\n      jump\t// out\n        /* \"#utility.yul\":4676:4835   */\n    tag_156:\n        /* \"#utility.yul\":4750:4761   */\n      0x00\n        /* \"#utility.yul\":4784:4790   */\n      dup3\n        /* \"#utility.yul\":4779:4782   */\n      dup3\n        /* \"#utility.yul\":4772:4791   */\n      mstore\n        /* \"#utility.yul\":4824:4828   */\n      0x20\n        /* \"#utility.yul\":4819:4822   */\n      dup3\n        /* \"#utility.yul\":4815:4829   */\n      add\n        /* \"#utility.yul\":4800:4829   */\n      swap1\n      pop\n        /* \"#utility.yul\":4676:4835   */\n      swap3\n      swap2\n      pop\n      pop\n      jump\t// out\n        /* \"#utility.yul\":4841:5198   */\n    tag_157:\n        /* \"#utility.yul\":4919:4922   */\n      0x00\n        /* \"#utility.yul\":4947:4986   */\n      tag_256\n        /* \"#utility.yul\":4980:4985   */\n      dup3\n        /* \"#utility.yul\":4947:4986   */\n      tag_146\n      jump\t// in\n    tag_256:\n        /* \"#utility.yul\":5002:5063   */\n      tag_257\n        /* \"#utility.yul\":5056:5062   */\n      dup2\n        /* \"#utility.yul\":5051:5054   */\n      dup6\n        /* \"#utility.yul\":5002:5063   */\n      tag_156\n      jump\t// in\n    tag_257:\n        /* \"#utility.yul\":4995:5063   */\n      swap4\n      pop\n        /* \"#utility.yul\":5072:5137   */\n      tag_258\n        /* \"#utility.yul\":5130:5136   */\n      dup2\n        /* \"#utility.yul\":5125:5128   */\n      dup6\n        /* \"#utility.yul\":5118:5122   */\n      0x20\n        /* \"#utility.yul\":5111:5116   */\n      dup7\n        /* \"#utility.yul\":5107:5123   */\n      add\n        /* \"#utility.yul\":5072:5137   */\n      tag_148\n      jump\t// in\n    tag_258:\n        /* \"#utility.yul\":5162:5191   */\n      tag_259\n        /* \"#utility.yul\":5184:5190   */\n      dup2\n        /* \"#utility.yul\":5162:5191   */\n      tag_149\n      jump\t// in\n    tag_259:\n        /* \"#utility.yul\":5157:5160   */\n      dup5\n        /* \"#utility.yul\":5153:5192   */\n      add\n        /* \"#utility.yul\":5146:5192   */\n      swap2\n      pop\n        /* \"#utility.yul\":4923:5198   */\n      pop\n        /* \"#utility.yul\":4841:5198   */\n      swap3\n      swap2\n      pop\n      pop\n      jump\t// out\n        /* \"#utility.yul\":5256:6375   */\n    tag_158:\n        /* \"#utility.yul\":5357:5360   */\n      0x00\n        /* \"#utility.yul\":5393:5397   */\n      0xa0\n        /* \"#utility.yul\":5388:5391   */\n      dup4\n        /* \"#utility.yul\":5384:5398   */\n      add\n        /* \"#utility.yul\":5478:5482   */\n      0x00\n        /* \"#utility.yul\":5471:5476   */\n      dup4\n        /* \"#utility.yul\":5467:5483   */\n      add\n        /* \"#utility.yul\":5461:5484   */\n      mload\n        /* \"#utility.yul\":5497:5560   */\n      tag_261\n        /* \"#utility.yul\":5554:5558   */\n      0x00\n        /* \"#utility.yul\":5549:5552   */\n      dup7\n        /* \"#utility.yul\":5545:5559   */\n      add\n        /* \"#utility.yul\":5531:5543   */\n      dup3\n        /* \"#utility.yul\":5497:5560   */\n      tag_154\n      jump\t// in\n    tag_261:\n        /* \"#utility.yul\":5408:5570   */\n      pop\n        /* \"#utility.yul\":5654:5658   */\n      0x20\n        /* \"#utility.yul\":5647:5652   */\n      dup4\n        /* \"#utility.yul\":5643:5659   */\n      add\n        /* \"#utility.yul\":5637:5660   */\n      mload\n        /* \"#utility.yul\":5673:5736   */\n      tag_262\n        /* \"#utility.yul\":5730:5734   */\n      0x20\n        /* \"#utility.yul\":5725:5728   */\n      dup7\n        /* \"#utility.yul\":5721:5735   */\n      add\n        /* \"#utility.yul\":5707:5719   */\n      dup3\n        /* \"#utility.yul\":5673:5736   */\n      tag_155\n      jump\t// in\n    tag_262:\n        /* \"#utility.yul\":5580:5746   */\n      pop\n        /* \"#utility.yul\":5831:5835   */\n      0x40\n        /* \"#utility.yul\":5824:5829   */\n      dup4\n        /* \"#utility.yul\":5820:5836   */\n      add\n        /* \"#utility.yul\":5814:5837   */\n      mload\n        /* \"#utility.yul\":5884:5887   */\n      dup5\n        /* \"#utility.yul\":5878:5882   */\n      dup3\n        /* \"#utility.yul\":5874:5888   */\n      sub\n        /* \"#utility.yul\":5867:5871   */\n      0x40\n        /* \"#utility.yul\":5862:5865   */\n      dup7\n        /* \"#utility.yul\":5858:5872   */\n      add\n        /* \"#utility.yul\":5851:5889   */\n      mstore\n        /* \"#utility.yul\":5910:5983   */\n      tag_263\n        /* \"#utility.yul\":5978:5982   */\n      dup3\n        /* \"#utility.yul\":5964:5976   */\n      dup3\n        /* \"#utility.yul\":5910:5983   */\n      tag_157\n      jump\t// in\n    tag_263:\n        /* \"#utility.yul\":5902:5983   */\n      swap2\n      pop\n        /* \"#utility.yul\":5756:5994   */\n      pop\n        /* \"#utility.yul\":6081:6085   */\n      0x60\n        /* \"#utility.yul\":6074:6079   */\n      dup4\n        /* \"#utility.yul\":6070:6086   */\n      add\n        /* \"#utility.yul\":6064:6087   */\n      mload\n        /* \"#utility.yul\":6100:6163   */\n      tag_264\n        /* \"#utility.yul\":6157:6161   */\n      0x60\n        /* \"#utility.yul\":6152:6155   */\n      dup7\n        /* \"#utility.yul\":6148:6162   */\n      add\n        /* \"#utility.yul\":6134:6146   */\n      dup3\n        /* \"#utility.yul\":6100:6163   */\n      tag_154\n      jump\t// in\n    tag_264:\n        /* \"#utility.yul\":6004:6173   */\n      pop\n        /* \"#utility.yul\":6256:6260   */\n      0x80\n        /* \"#utility.yul\":6249:6254   */\n      dup4\n        /* \"#utility.yul\":6245:6261   */\n      add\n        /* \"#utility.yul\":6239:6262   */\n      mload\n        /* \"#utility.yul\":6275:6338   */\n      tag_265\n        /* \"#utility.yul\":6332:6336   */\n      0x80\n        /* \"#utility.yul\":6327:6330   */\n      dup7\n        /* \"#utility.yul\":6323:6337   */\n      add\n        /* \"#utility.yul\":6309:6321   */\n      dup3\n        /* \"#utility.yul\":6275:6338   */\n      tag_154\n      jump\t// in\n    tag_265:\n        /* \"#utility.yul\":6183:6348   */\n      pop\n        /* \"#utility.yul\":6365:6369   */\n      dup1\n        /* \"#utility.yul\":6358:6369   */\n      swap2\n      pop\n        /* \"#utility.yul\":5362:6375   */\n      pop\n        /* \"#utility.yul\":5256:6375   */\n      swap3\n      swap2\n      pop\n      pop\n      jump\t// out\n        /* \"#utility.yul\":6381:6621   */\n    tag_159:\n        /* \"#utility.yul\":6492:6502   */\n      0x00\n        /* \"#utility.yul\":6527:6615   */\n      tag_267\n        /* \"#utility.yul\":6611:6614   */\n      dup4\n        /* \"#utility.yul\":6603:6609   */\n      dup4\n        /* \"#utility.yul\":6527:6615   */\n      tag_158\n      jump\t// in\n    tag_267:\n        /* \"#utility.yul\":6513:6615   */\n      swap1\n      pop\n        /* \"#utility.yul\":6381:6621   */\n      swap3\n      swap2\n      pop\n      pop\n      jump\t// out\n        /* \"#utility.yul\":6627:6761   */\n    tag_160:\n        /* \"#utility.yul\":6718:6722   */\n      0x00\n        /* \"#utility.yul\":6750:6754   */\n      0x20\n        /* \"#utility.yul\":6745:6748   */\n      dup3\n        /* \"#utility.yul\":6741:6755   */\n      add\n        /* \"#utility.yul\":6733:6755   */\n      swap1\n      pop\n        /* \"#utility.yul\":6627:6761   */\n      swap2\n      swap1\n      pop\n      jump\t// out\n        /* \"#utility.yul\":6823:7902   */\n    tag_161:\n        /* \"#utility.yul\":6984:6987   */\n      0x00\n        /* \"#utility.yul\":7013:7088   */\n      tag_270\n        /* \"#utility.yul\":7082:7087   */\n      dup3\n        /* \"#utility.yul\":7013:7088   */\n      tag_151\n      jump\t// in\n    tag_270:\n        /* \"#utility.yul\":7104:7211   */\n      tag_271\n        /* \"#utility.yul\":7204:7210   */\n      dup2\n        /* \"#utility.yul\":7199:7202   */\n      dup6\n        /* \"#utility.yul\":7104:7211   */\n      tag_152\n      jump\t// in\n    tag_271:\n        /* \"#utility.yul\":7097:7211   */\n      swap4\n      pop\n        /* \"#utility.yul\":7237:7240   */\n      dup4\n        /* \"#utility.yul\":7282:7286   */\n      0x20\n        /* \"#utility.yul\":7274:7280   */\n      dup3\n        /* \"#utility.yul\":7270:7287   */\n      mul\n        /* \"#utility.yul\":7265:7268   */\n      dup6\n        /* \"#utility.yul\":7261:7288   */\n      add\n        /* \"#utility.yul\":7312:7389   */\n      tag_272\n        /* \"#utility.yul\":7383:7388   */\n      dup6\n        /* \"#utility.yul\":7312:7389   */\n      tag_153\n      jump\t// in\n    tag_272:\n        /* \"#utility.yul\":7412:7419   */\n      dup1\n        /* \"#utility.yul\":7443:7444   */\n      0x00\n        /* \"#utility.yul\":7428:7857   */\n    tag_273:\n        /* \"#utility.yul\":7453:7459   */\n      dup6\n        /* \"#utility.yul\":7450:7451   */\n      dup2\n        /* \"#utility.yul\":7447:7460   */\n      lt\n        /* \"#utility.yul\":7428:7857   */\n      iszero\n      tag_275\n      jumpi\n        /* \"#utility.yul\":7524:7533   */\n      dup5\n        /* \"#utility.yul\":7518:7522   */\n      dup5\n        /* \"#utility.yul\":7514:7534   */\n      sub\n        /* \"#utility.yul\":7509:7512   */\n      dup10\n        /* \"#utility.yul\":7502:7535   */\n      mstore\n        /* \"#utility.yul\":7575:7581   */\n      dup2\n        /* \"#utility.yul\":7569:7582   */\n      mload\n        /* \"#utility.yul\":7603:7709   */\n      tag_276\n        /* \"#utility.yul\":7704:7708   */\n      dup6\n        /* \"#utility.yul\":7689:7702   */\n      dup3\n        /* \"#utility.yul\":7603:7709   */\n      tag_159\n      jump\t// in\n    tag_276:\n        /* \"#utility.yul\":7595:7709   */\n      swap5\n      pop\n        /* \"#utility.yul\":7732:7813   */\n      tag_277\n        /* \"#utility.yul\":7806:7812   */\n      dup4\n        /* \"#utility.yul\":7732:7813   */\n      tag_160\n      jump\t// in\n    tag_277:\n        /* \"#utility.yul\":7722:7813   */\n      swap3\n      pop\n        /* \"#utility.yul\":7842:7846   */\n      0x20\n        /* \"#utility.yul\":7837:7840   */\n      dup11\n        /* \"#utility.yul\":7833:7847   */\n      add\n        /* \"#utility.yul\":7826:7847   */\n      swap10\n      pop\n        /* \"#utility.yul\":7488:7857   */\n      pop\n        /* \"#utility.yul\":7475:7476   */\n      0x01\n        /* \"#utility.yul\":7472:7473   */\n      dup2\n        /* \"#utility.yul\":7468:7477   */\n      add\n        /* \"#utility.yul\":7463:7477   */\n      swap1\n      pop\n        /* \"#utility.yul\":7428:7857   */\n      jump(tag_273)\n    tag_275:\n        /* \"#utility.yul\":7432:7446   */\n      pop\n        /* \"#utility.yul\":7873:7877   */\n      dup3\n        /* \"#utility.yul\":7866:7877   */\n      swap8\n      pop\n        /* \"#utility.yul\":7893:7896   */\n      dup8\n        /* \"#utility.yul\":7886:7896   */\n      swap6\n      pop\n        /* \"#utility.yul\":6989:7902   */\n      pop\n      pop\n      pop\n      pop\n      pop\n        /* \"#utility.yul\":6823:7902   */\n      swap3\n      swap2\n      pop\n      pop\n      jump\t// out\n        /* \"#utility.yul\":7908:8365   */\n    tag_24:\n        /* \"#utility.yul\":8093:8097   */\n      0x00\n        /* \"#utility.yul\":8131:8133   */\n      0x20\n        /* \"#utility.yul\":8120:8129   */\n      dup3\n        /* \"#utility.yul\":8116:8134   */\n      add\n        /* \"#utility.yul\":8108:8134   */\n      swap1\n      pop\n        /* \"#utility.yul\":8180:8189   */\n      dup2\n        /* \"#utility.yul\":8174:8178   */\n      dup2\n        /* \"#utility.yul\":8170:8190   */\n      sub\n        /* \"#utility.yul\":8166:8167   */\n      0x00\n        /* \"#utility.yul\":8155:8164   */\n      dup4\n        /* \"#utility.yul\":8151:8168   */\n      add\n        /* \"#utility.yul\":8144:8191   */\n      mstore\n        /* \"#utility.yul\":8208:8358   */\n      tag_279\n        /* \"#utility.yul\":8353:8357   */\n      dup2\n        /* \"#utility.yul\":8344:8350   */\n      dup5\n        /* \"#utility.yul\":8208:8358   */\n      tag_161\n      jump\t// in\n    tag_279:\n        /* \"#utility.yul\":8200:8358   */\n      swap1\n      pop\n        /* \"#utility.yul\":7908:8365   */\n      swap3\n      swap2\n      pop\n      pop\n      jump\t// out\n        /* \"#utility.yul\":8371:8460   */\n    tag_162:\n        /* \"#utility.yul\":8407:8414   */\n      0x00\n        /* \"#utility.yul\":8447:8453   */\n      0xffff\n        /* \"#utility.yul\":8440:8445   */\n      dup3\n        /* \"#utility.yul\":8436:8454   */\n      and\n        /* \"#utility.yul\":8425:8454   */\n      swap1\n      pop\n        /* \"#utility.yul\":8371:8460   */\n      swap2\n      swap1\n      pop\n      jump\t// out\n        /* \"#utility.yul\":8466:8586   */\n    tag_163:\n        /* \"#utility.yul\":8538:8561   */\n      tag_282\n        /* \"#utility.yul\":8555:8560   */\n      dup2\n        /* \"#utility.yul\":8538:8561   */\n      tag_162\n      jump\t// in\n    tag_282:\n        /* \"#utility.yul\":8531:8536   */\n      dup2\n        /* \"#utility.yul\":8528:8562   */\n      eq\n        /* \"#utility.yul\":8518:8580   */\n      tag_283\n      jumpi\n        /* \"#utility.yul\":8576:8577   */\n      0x00\n        /* \"#utility.yul\":8573:8574   */\n      dup1\n        /* \"#utility.yul\":8566:8578   */\n      revert\n        /* \"#utility.yul\":8518:8580   */\n    tag_283:\n        /* \"#utility.yul\":8466:8586   */\n      pop\n      jump\t// out\n        /* \"#utility.yul\":8592:8729   */\n    tag_164:\n        /* \"#utility.yul\":8637:8642   */\n      0x00\n        /* \"#utility.yul\":8675:8681   */\n      dup2\n        /* \"#utility.yul\":8662:8682   */\n      calldataload\n        /* \"#utility.yul\":8653:8682   */\n      swap1\n      pop\n        /* \"#utility.yul\":8691:8723   */\n      tag_285\n        /* \"#utility.yul\":8717:8722   */\n      dup2\n        /* \"#utility.yul\":8691:8723   */\n      tag_163\n      jump\t// in\n    tag_285:\n        /* \"#utility.yul\":8592:8729   */\n      swap3\n      swap2\n      pop\n      pop\n      jump\t// out\n        /* \"#utility.yul\":8735:9062   */\n    tag_30:\n        /* \"#utility.yul\":8793:8799   */\n      0x00\n        /* \"#utility.yul\":8842:8844   */\n      0x20\n        /* \"#utility.yul\":8830:8839   */\n      dup3\n        /* \"#utility.yul\":8821:8828   */\n      dup5\n        /* \"#utility.yul\":8817:8840   */\n      sub\n        /* \"#utility.yul\":8813:8845   */\n      slt\n        /* \"#utility.yul\":8810:8929   */\n      iszero\n      tag_287\n      jumpi\n        /* \"#utility.yul\":8848:8927   */\n      tag_288\n      tag_135\n      jump\t// in\n    tag_288:\n        /* \"#utility.yul\":8810:8929   */\n    tag_287:\n        /* \"#utility.yul\":8968:8969   */\n      0x00\n        /* \"#utility.yul\":8993:9045   */\n      tag_289\n        /* \"#utility.yul\":9037:9044   */\n      dup5\n        /* \"#utility.yul\":9028:9034   */\n      dup3\n        /* \"#utility.yul\":9017:9026   */\n      dup6\n        /* \"#utility.yul\":9013:9035   */\n      add\n        /* \"#utility.yul\":8993:9045   */\n      tag_164\n      jump\t// in\n    tag_289:\n        /* \"#utility.yul\":8983:9045   */\n      swap2\n      pop\n        /* \"#utility.yul\":8939:9055   */\n      pop\n        /* \"#utility.yul\":8735:9062   */\n      swap3\n      swap2\n      pop\n      pop\n      jump\t// out\n        /* \"#utility.yul\":9068:9183   */\n    tag_165:\n        /* \"#utility.yul\":9153:9176   */\n      tag_291\n        /* \"#utility.yul\":9170:9175   */\n      dup2\n        /* \"#utility.yul\":9153:9176   */\n      tag_162\n      jump\t// in\n    tag_291:\n        /* \"#utility.yul\":9148:9151   */\n      dup3\n        /* \"#utility.yul\":9141:9177   */\n      mstore\n        /* \"#utility.yul\":9068:9183   */\n      pop\n      pop\n      jump\t// out\n        /* \"#utility.yul\":9189:9407   */\n    tag_38:\n        /* \"#utility.yul\":9280:9284   */\n      0x00\n        /* \"#utility.yul\":9318:9320   */\n      0x20\n        /* \"#utility.yul\":9307:9316   */\n      dup3\n        /* \"#utility.yul\":9303:9321   */\n      add\n        /* \"#utility.yul\":9295:9321   */\n      swap1\n      pop\n        /* \"#utility.yul\":9331:9400   */\n      tag_293\n        /* \"#utility.yul\":9397:9398   */\n      0x00\n        /* \"#utility.yul\":9386:9395   */\n      dup4\n        /* \"#utility.yul\":9382:9399   */\n      add\n        /* \"#utility.yul\":9373:9379   */\n      dup5\n        /* \"#utility.yul\":9331:9400   */\n      tag_165\n      jump\t// in\n    tag_293:\n        /* \"#utility.yul\":9189:9407   */\n      swap3\n      swap2\n      pop\n      pop\n      jump\t// out\n        /* \"#utility.yul\":9413:9530   */\n    tag_166:\n        /* \"#utility.yul\":9522:9523   */\n      0x00\n        /* \"#utility.yul\":9519:9520   */\n      dup1\n        /* \"#utility.yul\":9512:9524   */\n      revert\n        /* \"#utility.yul\":9536:9653   */\n    tag_167:\n        /* \"#utility.yul\":9645:9646   */\n      0x00\n        /* \"#utility.yul\":9642:9643   */\n      dup1\n        /* \"#utility.yul\":9635:9647   */\n      revert\n        /* \"#utility.yul\":9659:9839   */\n    tag_168:\n        /* \"#utility.yul\":9707:9784   */\n      0x4e487b7100000000000000000000000000000000000000000000000000000000\n        /* \"#utility.yul\":9704:9705   */\n      0x00\n        /* \"#utility.yul\":9697:9785   */\n      mstore\n        /* \"#utility.yul\":9804:9808   */\n      0x41\n        /* \"#utility.yul\":9801:9802   */\n      0x04\n        /* \"#utility.yul\":9794:9809   */\n      mstore\n        /* \"#utility.yul\":9828:9832   */\n      0x24\n        /* \"#utility.yul\":9825:9826   */\n      0x00\n        /* \"#utility.yul\":9818:9833   */\n      revert\n        /* \"#utility.yul\":9845:10126   */\n    tag_169:\n        /* \"#utility.yul\":9928:9955   */\n      tag_298\n        /* \"#utility.yul\":9950:9954   */\n      dup3\n        /* \"#utility.yul\":9928:9955   */\n      tag_149\n      jump\t// in\n    tag_298:\n        /* \"#utility.yul\":9920:9926   */\n      dup2\n        /* \"#utility.yul\":9916:9956   */\n      add\n        /* \"#utility.yul\":10058:10064   */\n      dup2\n        /* \"#utility.yul\":10046:10056   */\n      dup2\n        /* \"#utility.yul\":10043:10065   */\n      lt\n        /* \"#utility.yul\":10022:10040   */\n      0xffffffffffffffff\n        /* \"#utility.yul\":10010:10020   */\n      dup3\n        /* \"#utility.yul\":10007:10041   */\n      gt\n        /* \"#utility.yul\":10004:10066   */\n      or\n        /* \"#utility.yul\":10001:10089   */\n      iszero\n      tag_299\n      jumpi\n        /* \"#utility.yul\":10069:10087   */\n      tag_300\n      tag_168\n      jump\t// in\n    tag_300:\n        /* \"#utility.yul\":10001:10089   */\n    tag_299:\n        /* \"#utility.yul\":10109:10119   */\n      dup1\n        /* \"#utility.yul\":10105:10107   */\n      0x40\n        /* \"#utility.yul\":10098:10120   */\n      mstore\n        /* \"#utility.yul\":9888:10126   */\n      pop\n        /* \"#utility.yul\":9845:10126   */\n      pop\n      pop\n      jump\t// out\n        /* \"#utility.yul\":10132:10261   */\n    tag_170:\n        /* \"#utility.yul\":10166:10172   */\n      0x00\n        /* \"#utility.yul\":10193:10213   */\n      tag_302\n      tag_134\n      jump\t// in\n    tag_302:\n        /* \"#utility.yul\":10183:10213   */\n      swap1\n      pop\n        /* \"#utility.yul\":10222:10255   */\n      tag_303\n        /* \"#utility.yul\":10250:10254   */\n      dup3\n        /* \"#utility.yul\":10242:10248   */\n      dup3\n        /* \"#utility.yul\":10222:10255   */\n      tag_169\n      jump\t// in\n    tag_303:\n        /* \"#utility.yul\":10132:10261   */\n      swap2\n      swap1\n      pop\n      jump\t// out\n        /* \"#utility.yul\":10267:10575   */\n    tag_171:\n        /* \"#utility.yul\":10329:10333   */\n      0x00\n        /* \"#utility.yul\":10419:10437   */\n      0xffffffffffffffff\n        /* \"#utility.yul\":10411:10417   */\n      dup3\n        /* \"#utility.yul\":10408:10438   */\n      gt\n        /* \"#utility.yul\":10405:10461   */\n      iszero\n      tag_305\n      jumpi\n        /* \"#utility.yul\":10441:10459   */\n      tag_306\n      tag_168\n      jump\t// in\n    tag_306:\n        /* \"#utility.yul\":10405:10461   */\n    tag_305:\n        /* \"#utility.yul\":10479:10508   */\n      tag_307\n        /* \"#utility.yul\":10501:10507   */\n      dup3\n        /* \"#utility.yul\":10479:10508   */\n      tag_149\n      jump\t// in\n    tag_307:\n        /* \"#utility.yul\":10471:10508   */\n      swap1\n      pop\n        /* \"#utility.yul\":10563:10567   */\n      0x20\n        /* \"#utility.yul\":10557:10561   */\n      dup2\n        /* \"#utility.yul\":10553:10568   */\n      add\n        /* \"#utility.yul\":10545:10568   */\n      swap1\n      pop\n        /* \"#utility.yul\":10267:10575   */\n      swap2\n      swap1\n      pop\n      jump\t// out\n        /* \"#utility.yul\":10581:10729   */\n    tag_172:\n        /* \"#utility.yul\":10679:10685   */\n      dup3\n        /* \"#utility.yul\":10674:10677   */\n      dup2\n        /* \"#utility.yul\":10669:10672   */\n      dup4\n        /* \"#utility.yul\":10656:10686   */\n      calldatacopy\n        /* \"#utility.yul\":10720:10721   */\n      0x00\n        /* \"#utility.yul\":10711:10717   */\n      dup4\n        /* \"#utility.yul\":10706:10709   */\n      dup4\n        /* \"#utility.yul\":10702:10718   */\n      add\n        /* \"#utility.yul\":10695:10722   */\n      mstore\n        /* \"#utility.yul\":10581:10729   */\n      pop\n      pop\n      pop\n      jump\t// out\n        /* \"#utility.yul\":10735:11160   */\n    tag_173:\n        /* \"#utility.yul\":10813:10818   */\n      0x00\n        /* \"#utility.yul\":10838:10904   */\n      tag_310\n        /* \"#utility.yul\":10854:10903   */\n      tag_311\n        /* \"#utility.yul\":10896:10902   */\n      dup5\n        /* \"#utility.yul\":10854:10903   */\n      tag_171\n      jump\t// in\n    tag_311:\n        /* \"#utility.yul\":10838:10904   */\n      tag_170\n      jump\t// in\n    tag_310:\n        /* \"#utility.yul\":10829:10904   */\n      swap1\n      pop\n        /* \"#utility.yul\":10927:10933   */\n      dup3\n        /* \"#utility.yul\":10920:10925   */\n      dup2\n        /* \"#utility.yul\":10913:10934   */\n      mstore\n        /* \"#utility.yul\":10965:10969   */\n      0x20\n        /* \"#utility.yul\":10958:10963   */\n      dup2\n        /* \"#utility.yul\":10954:10970   */\n      add\n        /* \"#utility.yul\":11003:11006   */\n      dup5\n        /* \"#utility.yul\":10994:11000   */\n      dup5\n        /* \"#utility.yul\":10989:10992   */\n      dup5\n        /* \"#utility.yul\":10985:11001   */\n      add\n        /* \"#utility.yul\":10982:11007   */\n      gt\n        /* \"#utility.yul\":10979:11091   */\n      iszero\n      tag_312\n      jumpi\n        /* \"#utility.yul\":11010:11089   */\n      tag_313\n      tag_167\n      jump\t// in\n    tag_313:\n        /* \"#utility.yul\":10979:11091   */\n    tag_312:\n        /* \"#utility.yul\":11100:11154   */\n      tag_314\n        /* \"#utility.yul\":11147:11153   */\n      dup5\n        /* \"#utility.yul\":11142:11145   */\n      dup3\n        /* \"#utility.yul\":11137:11140   */\n      dup6\n        /* \"#utility.yul\":11100:11154   */\n      tag_172\n      jump\t// in\n    tag_314:\n        /* \"#utility.yul\":10819:11160   */\n      pop\n        /* \"#utility.yul\":10735:11160   */\n      swap4\n      swap3\n      pop\n      pop\n      pop\n      jump\t// out\n        /* \"#utility.yul\":11180:11520   */\n    tag_174:\n        /* \"#utility.yul\":11236:11241   */\n      0x00\n        /* \"#utility.yul\":11285:11288   */\n      dup3\n        /* \"#utility.yul\":11278:11282   */\n      0x1f\n        /* \"#utility.yul\":11270:11276   */\n      dup4\n        /* \"#utility.yul\":11266:11283   */\n      add\n        /* \"#utility.yul\":11262:11289   */\n      slt\n        /* \"#utility.yul\":11252:11374   */\n      tag_316\n      jumpi\n        /* \"#utility.yul\":11293:11372   */\n      tag_317\n      tag_166\n      jump\t// in\n    tag_317:\n        /* \"#utility.yul\":11252:11374   */\n    tag_316:\n        /* \"#utility.yul\":11410:11416   */\n      dup2\n        /* \"#utility.yul\":11397:11417   */\n      calldataload\n        /* \"#utility.yul\":11435:11514   */\n      tag_318\n        /* \"#utility.yul\":11510:11513   */\n      dup5\n        /* \"#utility.yul\":11502:11508   */\n      dup3\n        /* \"#utility.yul\":11495:11499   */\n      0x20\n        /* \"#utility.yul\":11487:11493   */\n      dup7\n        /* \"#utility.yul\":11483:11500   */\n      add\n        /* \"#utility.yul\":11435:11514   */\n      tag_173\n      jump\t// in\n    tag_318:\n        /* \"#utility.yul\":11426:11514   */\n      swap2\n      pop\n        /* \"#utility.yul\":11242:11520   */\n      pop\n        /* \"#utility.yul\":11180:11520   */\n      swap3\n      swap2\n      pop\n      pop\n      jump\t// out\n        /* \"#utility.yul\":11526:12035   */\n    tag_41:\n        /* \"#utility.yul\":11595:11601   */\n      0x00\n        /* \"#utility.yul\":11644:11646   */\n      0x20\n        /* \"#utility.yul\":11632:11641   */\n      dup3\n        /* \"#utility.yul\":11623:11630   */\n      dup5\n        /* \"#utility.yul\":11619:11642   */\n      sub\n        /* \"#utility.yul\":11615:11647   */\n      slt\n        /* \"#utility.yul\":11612:11731   */\n      iszero\n      tag_320\n      jumpi\n        /* \"#utility.yul\":11650:11729   */\n      tag_321\n      tag_135\n      jump\t// in\n    tag_321:\n        /* \"#utility.yul\":11612:11731   */\n    tag_320:\n        /* \"#utility.yul\":11798:11799   */\n      0x00\n        /* \"#utility.yul\":11787:11796   */\n      dup3\n        /* \"#utility.yul\":11783:11800   */\n      add\n        /* \"#utility.yul\":11770:11801   */\n      calldataload\n        /* \"#utility.yul\":11828:11846   */\n      0xffffffffffffffff\n        /* \"#utility.yul\":11820:11826   */\n      dup2\n        /* \"#utility.yul\":11817:11847   */\n      gt\n        /* \"#utility.yul\":11814:11931   */\n      iszero\n      tag_322\n      jumpi\n        /* \"#utility.yul\":11850:11929   */\n      tag_323\n      tag_136\n      jump\t// in\n    tag_323:\n        /* \"#utility.yul\":11814:11931   */\n    tag_322:\n        /* \"#utility.yul\":11955:12018   */\n      tag_324\n        /* \"#utility.yul\":12010:12017   */\n      dup5\n        /* \"#utility.yul\":12001:12007   */\n      dup3\n        /* \"#utility.yul\":11990:11999   */\n      dup6\n        /* \"#utility.yul\":11986:12008   */\n      add\n        /* \"#utility.yul\":11955:12018   */\n      tag_174\n      jump\t// in\n    tag_324:\n        /* \"#utility.yul\":11945:12018   */\n      swap2\n      pop\n        /* \"#utility.yul\":11741:12028   */\n      pop\n        /* \"#utility.yul\":11526:12035   */\n      swap3\n      swap2\n      pop\n      pop\n      jump\t// out\n        /* \"#utility.yul\":12041:12263   */\n    tag_46:\n        /* \"#utility.yul\":12134:12138   */\n      0x00\n        /* \"#utility.yul\":12172:12174   */\n      0x20\n        /* \"#utility.yul\":12161:12170   */\n      dup3\n        /* \"#utility.yul\":12157:12175   */\n      add\n        /* \"#utility.yul\":12149:12175   */\n      swap1\n      pop\n        /* \"#utility.yul\":12185:12256   */\n      tag_326\n        /* \"#utility.yul\":12253:12254   */\n      0x00\n        /* \"#utility.yul\":12242:12251   */\n      dup4\n        /* \"#utility.yul\":12238:12255   */\n      add\n        /* \"#utility.yul\":12229:12235   */\n      dup5\n        /* \"#utility.yul\":12185:12256   */\n      tag_145\n      jump\t// in\n    tag_326:\n        /* \"#utility.yul\":12041:12263   */\n      swap3\n      swap2\n      pop\n      pop\n      jump\t// out\n        /* \"#utility.yul\":12269:12598   */\n    tag_49:\n        /* \"#utility.yul\":12328:12334   */\n      0x00\n        /* \"#utility.yul\":12377:12379   */\n      0x20\n        /* \"#utility.yul\":12365:12374   */\n      dup3\n        /* \"#utility.yul\":12356:12363   */\n      dup5\n        /* \"#utility.yul\":12352:12375   */\n      sub\n        /* \"#utility.yul\":12348:12380   */\n      slt\n        /* \"#utility.yul\":12345:12464   */\n      iszero\n      tag_328\n      jumpi\n        /* \"#utility.yul\":12383:12462   */\n      tag_329\n      tag_135\n      jump\t// in\n    tag_329:\n        /* \"#utility.yul\":12345:12464   */\n    tag_328:\n        /* \"#utility.yul\":12503:12504   */\n      0x00\n        /* \"#utility.yul\":12528:12581   */\n      tag_330\n        /* \"#utility.yul\":12573:12580   */\n      dup5\n        /* \"#utility.yul\":12564:12570   */\n      dup3\n        /* \"#utility.yul\":12553:12562   */\n      dup6\n        /* \"#utility.yul\":12549:12571   */\n      add\n        /* \"#utility.yul\":12528:12581   */\n      tag_143\n      jump\t// in\n    tag_330:\n        /* \"#utility.yul\":12518:12581   */\n      swap2\n      pop\n        /* \"#utility.yul\":12474:12591   */\n      pop\n        /* \"#utility.yul\":12269:12598   */\n      swap3\n      swap2\n      pop\n      pop\n      jump\t// out\n        /* \"#utility.yul\":12656:13785   */\n    tag_175:\n        /* \"#utility.yul\":12767:12770   */\n      0x00\n        /* \"#utility.yul\":12803:12807   */\n      0xa0\n        /* \"#utility.yul\":12798:12801   */\n      dup4\n        /* \"#utility.yul\":12794:12808   */\n      add\n        /* \"#utility.yul\":12888:12892   */\n      0x00\n        /* \"#utility.yul\":12881:12886   */\n      dup4\n        /* \"#utility.yul\":12877:12893   */\n      add\n        /* \"#utility.yul\":12871:12894   */\n      mload\n        /* \"#utility.yul\":12907:12970   */\n      tag_332\n        /* \"#utility.yul\":12964:12968   */\n      0x00\n        /* \"#utility.yul\":12959:12962   */\n      dup7\n        /* \"#utility.yul\":12955:12969   */\n      add\n        /* \"#utility.yul\":12941:12953   */\n      dup3\n        /* \"#utility.yul\":12907:12970   */\n      tag_154\n      jump\t// in\n    tag_332:\n        /* \"#utility.yul\":12818:12980   */\n      pop\n        /* \"#utility.yul\":13064:13068   */\n      0x20\n        /* \"#utility.yul\":13057:13062   */\n      dup4\n        /* \"#utility.yul\":13053:13069   */\n      add\n        /* \"#utility.yul\":13047:13070   */\n      mload\n        /* \"#utility.yul\":13083:13146   */\n      tag_333\n        /* \"#utility.yul\":13140:13144   */\n      0x20\n        /* \"#utility.yul\":13135:13138   */\n      dup7\n        /* \"#utility.yul\":13131:13145   */\n      add\n        /* \"#utility.yul\":13117:13129   */\n      dup3\n        /* \"#utility.yul\":13083:13146   */\n      tag_155\n      jump\t// in\n    tag_333:\n        /* \"#utility.yul\":12990:13156   */\n      pop\n        /* \"#utility.yul\":13241:13245   */\n      0x40\n        /* \"#utility.yul\":13234:13239   */\n      dup4\n        /* \"#utility.yul\":13230:13246   */\n      add\n        /* \"#utility.yul\":13224:13247   */\n      mload\n        /* \"#utility.yul\":13294:13297   */\n      dup5\n        /* \"#utility.yul\":13288:13292   */\n      dup3\n        /* \"#utility.yul\":13284:13298   */\n      sub\n        /* \"#utility.yul\":13277:13281   */\n      0x40\n        /* \"#utility.yul\":13272:13275   */\n      dup7\n        /* \"#utility.yul\":13268:13282   */\n      add\n        /* \"#utility.yul\":13261:13299   */\n      mstore\n        /* \"#utility.yul\":13320:13393   */\n      tag_334\n        /* \"#utility.yul\":13388:13392   */\n      dup3\n        /* \"#utility.yul\":13374:13386   */\n      dup3\n        /* \"#utility.yul\":13320:13393   */\n      tag_157\n      jump\t// in\n    tag_334:\n        /* \"#utility.yul\":13312:13393   */\n      swap2\n      pop\n        /* \"#utility.yul\":13166:13404   */\n      pop\n        /* \"#utility.yul\":13491:13495   */\n      0x60\n        /* \"#utility.yul\":13484:13489   */\n      dup4\n        /* \"#utility.yul\":13480:13496   */\n      add\n        /* \"#utility.yul\":13474:13497   */\n      mload\n        /* \"#utility.yul\":13510:13573   */\n      tag_335\n        /* \"#utility.yul\":13567:13571   */\n      0x60\n        /* \"#utility.yul\":13562:13565   */\n      dup7\n        /* \"#utility.yul\":13558:13572   */\n      add\n        /* \"#utility.yul\":13544:13556   */\n      dup3\n        /* \"#utility.yul\":13510:13573   */\n      tag_154\n      jump\t// in\n    tag_335:\n        /* \"#utility.yul\":13414:13583   */\n      pop\n        /* \"#utility.yul\":13666:13670   */\n      0x80\n        /* \"#utility.yul\":13659:13664   */\n      dup4\n        /* \"#utility.yul\":13655:13671   */\n      add\n        /* \"#utility.yul\":13649:13672   */\n      mload\n        /* \"#utility.yul\":13685:13748   */\n      tag_336\n        /* \"#utility.yul\":13742:13746   */\n      0x80\n        /* \"#utility.yul\":13737:13740   */\n      dup7\n        /* \"#utility.yul\":13733:13747   */\n      add\n        /* \"#utility.yul\":13719:13731   */\n      dup3\n        /* \"#utility.yul\":13685:13748   */\n      tag_154\n      jump\t// in\n    tag_336:\n        /* \"#utility.yul\":13593:13758   */\n      pop\n        /* \"#utility.yul\":13775:13779   */\n      dup1\n        /* \"#utility.yul\":13768:13779   */\n      swap2\n      pop\n        /* \"#utility.yul\":12772:13785   */\n      pop\n        /* \"#utility.yul\":12656:13785   */\n      swap3\n      swap2\n      pop\n      pop\n      jump\t// out\n        /* \"#utility.yul\":13791:14148   */\n    tag_52:\n        /* \"#utility.yul\":13926:13930   */\n      0x00\n        /* \"#utility.yul\":13964:13966   */\n      0x20\n        /* \"#utility.yul\":13953:13962   */\n      dup3\n        /* \"#utility.yul\":13949:13967   */\n      add\n        /* \"#utility.yul\":13941:13967   */\n      swap1\n      pop\n        /* \"#utility.yul\":14013:14022   */\n      dup2\n        /* \"#utility.yul\":14007:14011   */\n      dup2\n        /* \"#utility.yul\":14003:14023   */\n      sub\n        /* \"#utility.yul\":13999:14000   */\n      0x00\n        /* \"#utility.yul\":13988:13997   */\n      dup4\n        /* \"#utility.yul\":13984:14001   */\n      add\n        /* \"#utility.yul\":13977:14024   */\n      mstore\n        /* \"#utility.yul\":14041:14141   */\n      tag_338\n        /* \"#utility.yul\":14136:14140   */\n      dup2\n        /* \"#utility.yul\":14127:14133   */\n      dup5\n        /* \"#utility.yul\":14041:14141   */\n      tag_175\n      jump\t// in\n    tag_338:\n        /* \"#utility.yul\":14033:14141   */\n      swap1\n      pop\n        /* \"#utility.yul\":13791:14148   */\n      swap3\n      swap2\n      pop\n      pop\n      jump\t// out\n        /* \"#utility.yul\":14154:14334   */\n    tag_176:\n        /* \"#utility.yul\":14202:14279   */\n      0x4e487b7100000000000000000000000000000000000000000000000000000000\n        /* \"#utility.yul\":14199:14200   */\n      0x00\n        /* \"#utility.yul\":14192:14280   */\n      mstore\n        /* \"#utility.yul\":14299:14303   */\n      0x22\n        /* \"#utility.yul\":14296:14297   */\n      0x04\n        /* \"#utility.yul\":14289:14304   */\n      mstore\n        /* \"#utility.yul\":14323:14327   */\n      0x24\n        /* \"#utility.yul\":14320:14321   */\n      0x00\n        /* \"#utility.yul\":14313:14328   */\n      revert\n        /* \"#utility.yul\":14340:14660   */\n    tag_56:\n        /* \"#utility.yul\":14384:14390   */\n      0x00\n        /* \"#utility.yul\":14421:14422   */\n      0x02\n        /* \"#utility.yul\":14415:14419   */\n      dup3\n        /* \"#utility.yul\":14411:14423   */\n      div\n        /* \"#utility.yul\":14401:14423   */\n      swap1\n      pop\n        /* \"#utility.yul\":14468:14469   */\n      0x01\n        /* \"#utility.yul\":14462:14466   */\n      dup3\n        /* \"#utility.yul\":14458:14470   */\n      and\n        /* \"#utility.yul\":14489:14507   */\n      dup1\n        /* \"#utility.yul\":14479:14560   */\n      tag_341\n      jumpi\n        /* \"#utility.yul\":14545:14549   */\n      0x7f\n        /* \"#utility.yul\":14537:14543   */\n      dup3\n        /* \"#utility.yul\":14533:14550   */\n      and\n        /* \"#utility.yul\":14523:14550   */\n      swap2\n      pop\n        /* \"#utility.yul\":14479:14560   */\n    tag_341:\n        /* \"#utility.yul\":14607:14609   */\n      0x20\n        /* \"#utility.yul\":14599:14605   */\n      dup3\n        /* \"#utility.yul\":14596:14610   */\n      lt\n        /* \"#utility.yul\":14576:14594   */\n      dup2\n        /* \"#utility.yul\":14573:14611   */\n      sub\n        /* \"#utility.yul\":14570:14654   */\n      tag_342\n      jumpi\n        /* \"#utility.yul\":14626:14644   */\n      tag_343\n      tag_176\n      jump\t// in\n    tag_343:\n        /* \"#utility.yul\":14570:14654   */\n    tag_342:\n        /* \"#utility.yul\":14391:14660   */\n      pop\n        /* \"#utility.yul\":14340:14660   */\n      swap2\n      swap1\n      pop\n      jump\t// out\n        /* \"#utility.yul\":14666:14846   */\n    tag_73:\n        /* \"#utility.yul\":14714:14791   */\n      0x4e487b7100000000000000000000000000000000000000000000000000000000\n        /* \"#utility.yul\":14711:14712   */\n      0x00\n        /* \"#utility.yul\":14704:14792   */\n      mstore\n        /* \"#utility.yul\":14811:14815   */\n      0x32\n        /* \"#utility.yul\":14808:14809   */\n      0x04\n        /* \"#utility.yul\":14801:14816   */\n      mstore\n        /* \"#utility.yul\":14835:14839   */\n      0x24\n        /* \"#utility.yul\":14832:14833   */\n      0x00\n        /* \"#utility.yul\":14825:14840   */\n      revert\n        /* \"#utility.yul\":14852:15022   */\n    tag_177:\n        /* \"#utility.yul\":14992:15014   */\n      0x545745455420444f4553204e4f54204558495354000000000000000000000000\n        /* \"#utility.yul\":14988:14989   */\n      0x00\n        /* \"#utility.yul\":14980:14986   */\n      dup3\n        /* \"#utility.yul\":14976:14990   */\n      add\n        /* \"#utility.yul\":14969:15015   */\n      mstore\n        /* \"#utility.yul\":14852:15022   */\n      pop\n      jump\t// out\n        /* \"#utility.yul\":15028:15394   */\n    tag_178:\n        /* \"#utility.yul\":15170:15173   */\n      0x00\n        /* \"#utility.yul\":15191:15258   */\n      tag_347\n        /* \"#utility.yul\":15255:15257   */\n      0x14\n        /* \"#utility.yul\":15250:15253   */\n      dup4\n        /* \"#utility.yul\":15191:15258   */\n      tag_147\n      jump\t// in\n    tag_347:\n        /* \"#utility.yul\":15184:15258   */\n      swap2\n      pop\n        /* \"#utility.yul\":15267:15360   */\n      tag_348\n        /* \"#utility.yul\":15356:15359   */\n      dup3\n        /* \"#utility.yul\":15267:15360   */\n      tag_177\n      jump\t// in\n    tag_348:\n        /* \"#utility.yul\":15385:15387   */\n      0x20\n        /* \"#utility.yul\":15380:15383   */\n      dup3\n        /* \"#utility.yul\":15376:15388   */\n      add\n        /* \"#utility.yul\":15369:15388   */\n      swap1\n      pop\n        /* \"#utility.yul\":15028:15394   */\n      swap2\n      swap1\n      pop\n      jump\t// out\n        /* \"#utility.yul\":15400:15819   */\n    tag_77:\n        /* \"#utility.yul\":15566:15570   */\n      0x00\n        /* \"#utility.yul\":15604:15606   */\n      0x20\n        /* \"#utility.yul\":15593:15602   */\n      dup3\n        /* \"#utility.yul\":15589:15607   */\n      add\n        /* \"#utility.yul\":15581:15607   */\n      swap1\n      pop\n        /* \"#utility.yul\":15653:15662   */\n      dup2\n        /* \"#utility.yul\":15647:15651   */\n      dup2\n        /* \"#utility.yul\":15643:15663   */\n      sub\n        /* \"#utility.yul\":15639:15640   */\n      0x00\n        /* \"#utility.yul\":15628:15637   */\n      dup4\n        /* \"#utility.yul\":15624:15641   */\n      add\n        /* \"#utility.yul\":15617:15664   */\n      mstore\n        /* \"#utility.yul\":15681:15812   */\n      tag_350\n        /* \"#utility.yul\":15807:15811   */\n      dup2\n        /* \"#utility.yul\":15681:15812   */\n      tag_178\n      jump\t// in\n    tag_350:\n        /* \"#utility.yul\":15673:15812   */\n      swap1\n      pop\n        /* \"#utility.yul\":15400:15819   */\n      swap2\n      swap1\n      pop\n      jump\t// out\n        /* \"#utility.yul\":15825:15993   */\n    tag_179:\n        /* \"#utility.yul\":15965:15985   */\n      0x545745455420484153204e4f204c494b45530000000000000000000000000000\n        /* \"#utility.yul\":15961:15962   */\n      0x00\n        /* \"#utility.yul\":15953:15959   */\n      dup3\n        /* \"#utility.yul\":15949:15963   */\n      add\n        /* \"#utility.yul\":15942:15986   */\n      mstore\n        /* \"#utility.yul\":15825:15993   */\n      pop\n      jump\t// out\n        /* \"#utility.yul\":15999:16365   */\n    tag_180:\n        /* \"#utility.yul\":16141:16144   */\n      0x00\n        /* \"#utility.yul\":16162:16229   */\n      tag_353\n        /* \"#utility.yul\":16226:16228   */\n      0x12\n        /* \"#utility.yul\":16221:16224   */\n      dup4\n        /* \"#utility.yul\":16162:16229   */\n      tag_147\n      jump\t// in\n    tag_353:\n        /* \"#utility.yul\":16155:16229   */\n      swap2\n      pop\n        /* \"#utility.yul\":16238:16331   */\n      tag_354\n        /* \"#utility.yul\":16327:16330   */\n      dup3\n        /* \"#utility.yul\":16238:16331   */\n      tag_179\n      jump\t// in\n    tag_354:\n        /* \"#utility.yul\":16356:16358   */\n      0x20\n        /* \"#utility.yul\":16351:16354   */\n      dup3\n        /* \"#utility.yul\":16347:16359   */\n      add\n        /* \"#utility.yul\":16340:16359   */\n      swap1\n      pop\n        /* \"#utility.yul\":15999:16365   */\n      swap2\n      swap1\n      pop\n      jump\t// out\n        /* \"#utility.yul\":16371:16790   */\n    tag_83:\n        /* \"#utility.yul\":16537:16541   */\n      0x00\n        /* \"#utility.yul\":16575:16577   */\n      0x20\n        /* \"#utility.yul\":16564:16573   */\n      dup3\n        /* \"#utility.yul\":16560:16578   */\n      add\n        /* \"#utility.yul\":16552:16578   */\n      swap1\n      pop\n        /* \"#utility.yul\":16624:16633   */\n      dup2\n        /* \"#utility.yul\":16618:16622   */\n      dup2\n        /* \"#utility.yul\":16614:16634   */\n      sub\n        /* \"#utility.yul\":16610:16611   */\n      0x00\n        /* \"#utility.yul\":16599:16608   */\n      dup4\n        /* \"#utility.yul\":16595:16612   */\n      add\n        /* \"#utility.yul\":16588:16635   */\n      mstore\n        /* \"#utility.yul\":16652:16783   */\n      tag_356\n        /* \"#utility.yul\":16778:16782   */\n      dup2\n        /* \"#utility.yul\":16652:16783   */\n      tag_180\n      jump\t// in\n    tag_356:\n        /* \"#utility.yul\":16644:16783   */\n      swap1\n      pop\n        /* \"#utility.yul\":16371:16790   */\n      swap2\n      swap1\n      pop\n      jump\t// out\n        /* \"#utility.yul\":16796:16976   */\n    tag_181:\n        /* \"#utility.yul\":16844:16921   */\n      0x4e487b7100000000000000000000000000000000000000000000000000000000\n        /* \"#utility.yul\":16841:16842   */\n      0x00\n        /* \"#utility.yul\":16834:16922   */\n      mstore\n        /* \"#utility.yul\":16941:16945   */\n      0x11\n        /* \"#utility.yul\":16938:16939   */\n      0x04\n        /* \"#utility.yul\":16931:16946   */\n      mstore\n        /* \"#utility.yul\":16965:16969   */\n      0x24\n        /* \"#utility.yul\":16962:16963   */\n      0x00\n        /* \"#utility.yul\":16955:16970   */\n      revert\n        /* \"#utility.yul\":16982:17153   */\n    tag_88:\n        /* \"#utility.yul\":17021:17024   */\n      0x00\n        /* \"#utility.yul\":17044:17068   */\n      tag_359\n        /* \"#utility.yul\":17062:17067   */\n      dup3\n        /* \"#utility.yul\":17044:17068   */\n      tag_141\n      jump\t// in\n    tag_359:\n        /* \"#utility.yul\":17035:17068   */\n      swap2\n      pop\n        /* \"#utility.yul\":17090:17094   */\n      0x00\n        /* \"#utility.yul\":17083:17088   */\n      dup3\n        /* \"#utility.yul\":17080:17095   */\n      sub\n        /* \"#utility.yul\":17077:17118   */\n      tag_360\n      jumpi\n        /* \"#utility.yul\":17098:17116   */\n      tag_361\n      tag_181\n      jump\t// in\n    tag_361:\n        /* \"#utility.yul\":17077:17118   */\n    tag_360:\n        /* \"#utility.yul\":17145:17146   */\n      0x01\n        /* \"#utility.yul\":17138:17143   */\n      dup3\n        /* \"#utility.yul\":17134:17147   */\n      sub\n        /* \"#utility.yul\":17127:17147   */\n      swap1\n      pop\n        /* \"#utility.yul\":16982:17153   */\n      swap2\n      swap1\n      pop\n      jump\t// out\n        /* \"#utility.yul\":17159:17491   */\n    tag_93:\n        /* \"#utility.yul\":17280:17284   */\n      0x00\n        /* \"#utility.yul\":17318:17320   */\n      0x40\n        /* \"#utility.yul\":17307:17316   */\n      dup3\n        /* \"#utility.yul\":17303:17321   */\n      add\n        /* \"#utility.yul\":17295:17321   */\n      swap1\n      pop\n        /* \"#utility.yul\":17331:17402   */\n      tag_363\n        /* \"#utility.yul\":17399:17400   */\n      0x00\n        /* \"#utility.yul\":17388:17397   */\n      dup4\n        /* \"#utility.yul\":17384:17401   */\n      add\n        /* \"#utility.yul\":17375:17381   */\n      dup6\n        /* \"#utility.yul\":17331:17402   */\n      tag_144\n      jump\t// in\n    tag_363:\n        /* \"#utility.yul\":17412:17484   */\n      tag_364\n        /* \"#utility.yul\":17480:17482   */\n      0x20\n        /* \"#utility.yul\":17469:17478   */\n      dup4\n        /* \"#utility.yul\":17465:17483   */\n      add\n        /* \"#utility.yul\":17456:17462   */\n      dup5\n        /* \"#utility.yul\":17412:17484   */\n      tag_144\n      jump\t// in\n    tag_364:\n        /* \"#utility.yul\":17159:17491   */\n      swap4\n      swap3\n      pop\n      pop\n      pop\n      jump\t// out\n        /* \"#utility.yul\":17497:17669   */\n    tag_182:\n        /* \"#utility.yul\":17637:17661   */\n      0x594f5520415245204e4f5420544845204f574e45522100000000000000000000\n        /* \"#utility.yul\":17633:17634   */\n      0x00\n        /* \"#utility.yul\":17625:17631   */\n      dup3\n        /* \"#utility.yul\":17621:17635   */\n      add\n        /* \"#utility.yul\":17614:17662   */\n      mstore\n        /* \"#utility.yul\":17497:17669   */\n      pop\n      jump\t// out\n        /* \"#utility.yul\":17675:18041   */\n    tag_183:\n        /* \"#utility.yul\":17817:17820   */\n      0x00\n        /* \"#utility.yul\":17838:17905   */\n      tag_367\n        /* \"#utility.yul\":17902:17904   */\n      0x16\n        /* \"#utility.yul\":17897:17900   */\n      dup4\n        /* \"#utility.yul\":17838:17905   */\n      tag_147\n      jump\t// in\n    tag_367:\n        /* \"#utility.yul\":17831:17905   */\n      swap2\n      pop\n        /* \"#utility.yul\":17914:18007   */\n      tag_368\n        /* \"#utility.yul\":18003:18006   */\n      dup3\n        /* \"#utility.yul\":17914:18007   */\n      tag_182\n      jump\t// in\n    tag_368:\n        /* \"#utility.yul\":18032:18034   */\n      0x20\n        /* \"#utility.yul\":18027:18030   */\n      dup3\n        /* \"#utility.yul\":18023:18035   */\n      add\n        /* \"#utility.yul\":18016:18035   */\n      swap1\n      pop\n        /* \"#utility.yul\":17675:18041   */\n      swap2\n      swap1\n      pop\n      jump\t// out\n        /* \"#utility.yul\":18047:18466   */\n    tag_97:\n        /* \"#utility.yul\":18213:18217   */\n      0x00\n        /* \"#utility.yul\":18251:18253   */\n      0x20\n        /* \"#utility.yul\":18240:18249   */\n      dup3\n        /* \"#utility.yul\":18236:18254   */\n      add\n        /* \"#utility.yul\":18228:18254   */\n      swap1\n      pop\n        /* \"#utility.yul\":18300:18309   */\n      dup2\n        /* \"#utility.yul\":18294:18298   */\n      dup2\n        /* \"#utility.yul\":18290:18310   */\n      sub\n        /* \"#utility.yul\":18286:18287   */\n      0x00\n        /* \"#utility.yul\":18275:18284   */\n      dup4\n        /* \"#utility.yul\":18271:18288   */\n      add\n        /* \"#utility.yul\":18264:18311   */\n      mstore\n        /* \"#utility.yul\":18328:18459   */\n      tag_370\n        /* \"#utility.yul\":18454:18458   */\n      dup2\n        /* \"#utility.yul\":18328:18459   */\n      tag_183\n      jump\t// in\n    tag_370:\n        /* \"#utility.yul\":18320:18459   */\n      swap1\n      pop\n        /* \"#utility.yul\":18047:18466   */\n      swap2\n      swap1\n      pop\n      jump\t// out\n        /* \"#utility.yul\":18472:18705   */\n    tag_109:\n        /* \"#utility.yul\":18511:18514   */\n      0x00\n        /* \"#utility.yul\":18534:18558   */\n      tag_372\n        /* \"#utility.yul\":18552:18557   */\n      dup3\n        /* \"#utility.yul\":18534:18558   */\n      tag_141\n      jump\t// in\n    tag_372:\n        /* \"#utility.yul\":18525:18558   */\n      swap2\n      pop\n        /* \"#utility.yul\":18580:18646   */\n      0xffffffffffffffffffffffffffffffffffffffffffffffffffffffffffffffff\n        /* \"#utility.yul\":18573:18578   */\n      dup3\n        /* \"#utility.yul\":18570:18647   */\n      sub\n        /* \"#utility.yul\":18567:18670   */\n      tag_373\n      jumpi\n        /* \"#utility.yul\":18650:18668   */\n      tag_374\n      tag_181\n      jump\t// in\n    tag_374:\n        /* \"#utility.yul\":18567:18670   */\n    tag_373:\n        /* \"#utility.yul\":18697:18698   */\n      0x01\n        /* \"#utility.yul\":18690:18695   */\n      dup3\n        /* \"#utility.yul\":18686:18699   */\n      add\n        /* \"#utility.yul\":18679:18699   */\n      swap1\n      pop\n        /* \"#utility.yul\":18472:18705   */\n      swap2\n      swap1\n      pop\n      jump\t// out\n        /* \"#utility.yul\":18711:18883   */\n    tag_184:\n        /* \"#utility.yul\":18851:18875   */\n      0x547765657420697320746f6f206c6f6e672062726f2100000000000000000000\n        /* \"#utility.yul\":18847:18848   */\n      0x00\n        /* \"#utility.yul\":18839:18845   */\n      dup3\n        /* \"#utility.yul\":18835:18849   */\n      add\n        /* \"#utility.yul\":18828:18876   */\n      mstore\n        /* \"#utility.yul\":18711:18883   */\n      pop\n      jump\t// out\n        /* \"#utility.yul\":18889:19255   */\n    tag_185:\n        /* \"#utility.yul\":19031:19034   */\n      0x00\n        /* \"#utility.yul\":19052:19119   */\n      tag_377\n        /* \"#utility.yul\":19116:19118   */\n      0x16\n        /* \"#utility.yul\":19111:19114   */\n      dup4\n        /* \"#utility.yul\":19052:19119   */\n      tag_147\n      jump\t// in\n    tag_377:\n        /* \"#utility.yul\":19045:19119   */\n      swap2\n      pop\n        /* \"#utility.yul\":19128:19221   */\n      tag_378\n        /* \"#utility.yul\":19217:19220   */\n      dup3\n        /* \"#utility.yul\":19128:19221   */\n      tag_184\n      jump\t// in\n    tag_378:\n        /* \"#utility.yul\":19246:19248   */\n      0x20\n        /* \"#utility.yul\":19241:19244   */\n      dup3\n        /* \"#utility.yul\":19237:19249   */\n      add\n        /* \"#utility.yul\":19230:19249   */\n      swap1\n      pop\n        /* \"#utility.yul\":18889:19255   */\n      swap2\n      swap1\n      pop\n      jump\t// out\n        /* \"#utility.yul\":19261:19680   */\n    tag_117:\n        /* \"#utility.yul\":19427:19431   */\n      0x00\n        /* \"#utility.yul\":19465:19467   */\n      0x20\n        /* \"#utility.yul\":19454:19463   */\n      dup3\n        /* \"#utility.yul\":19450:19468   */\n      add\n        /* \"#utility.yul\":19442:19468   */\n      swap1\n      pop\n        /* \"#utility.yul\":19514:19523   */\n      dup2\n        /* \"#utility.yul\":19508:19512   */\n      dup2\n        /* \"#utility.yul\":19504:19524   */\n      sub\n        /* \"#utility.yul\":19500:19501   */\n      0x00\n        /* \"#utility.yul\":19489:19498   */\n      dup4\n        /* \"#utility.yul\":19485:19502   */\n      add\n        /* \"#utility.yul\":19478:19525   */\n      mstore\n        /* \"#utility.yul\":19542:19673   */\n      tag_380\n        /* \"#utility.yul\":19668:19672   */\n      dup2\n        /* \"#utility.yul\":19542:19673   */\n      tag_185\n      jump\t// in\n    tag_380:\n        /* \"#utility.yul\":19534:19673   */\n      swap1\n      pop\n        /* \"#utility.yul\":19261:19680   */\n      swap2\n      swap1\n      pop\n      jump\t// out\n        /* \"#utility.yul\":19686:19827   */\n    tag_186:\n        /* \"#utility.yul\":19735:19739   */\n      0x00\n        /* \"#utility.yul\":19758:19761   */\n      dup2\n        /* \"#utility.yul\":19750:19761   */\n      swap1\n      pop\n        /* \"#utility.yul\":19781:19784   */\n      dup2\n        /* \"#utility.yul\":19778:19779   */\n      0x00\n        /* \"#utility.yul\":19771:19785   */\n      mstore\n        /* \"#utility.yul\":19815:19819   */\n      0x20\n        /* \"#utility.yul\":19812:19813   */\n      0x00\n        /* \"#utility.yul\":19802:19820   */\n      keccak256\n        /* \"#utility.yul\":19794:19820   */\n      swap1\n      pop\n        /* \"#utility.yul\":19686:19827   */\n      swap2\n      swap1\n      pop\n      jump\t// out\n        /* \"#utility.yul\":19833:19926   */\n    tag_187:\n        /* \"#utility.yul\":19870:19876   */\n      0x00\n        /* \"#utility.yul\":19917:19919   */\n      0x20\n        /* \"#utility.yul\":19912:19914   */\n      0x1f\n        /* \"#utility.yul\":19905:19910   */\n      dup4\n        /* \"#utility.yul\":19901:19915   */\n      add\n        /* \"#utility.yul\":19897:19920   */\n      div\n        /* \"#utility.yul\":19887:19920   */\n      swap1\n      pop\n        /* \"#utility.yul\":19833:19926   */\n      swap2\n      swap1\n      pop\n      jump\t// out\n        /* \"#utility.yul\":19932:20039   */\n    tag_188:\n        /* \"#utility.yul\":19976:19984   */\n      0x00\n        /* \"#utility.yul\":20026:20031   */\n      dup3\n        /* \"#utility.yul\":20020:20024   */\n      dup3\n        /* \"#utility.yul\":20016:20032   */\n      shl\n        /* \"#utility.yul\":19995:20032   */\n      swap1\n      pop\n        /* \"#utility.yul\":19932:20039   */\n      swap3\n      swap2\n      pop\n      pop\n      jump\t// out\n        /* \"#utility.yul\":20045:20438   */\n    tag_189:\n        /* \"#utility.yul\":20114:20120   */\n      0x00\n        /* \"#utility.yul\":20164:20165   */\n      0x08\n        /* \"#utility.yul\":20152:20162   */\n      dup4\n        /* \"#utility.yul\":20148:20166   */\n      mul\n        /* \"#utility.yul\":20187:20284   */\n      tag_385\n        /* \"#utility.yul\":20217:20283   */\n      0xffffffffffffffffffffffffffffffffffffffffffffffffffffffffffffffff\n        /* \"#utility.yul\":20206:20215   */\n      dup3\n        /* \"#utility.yul\":20187:20284   */\n      tag_188\n      jump\t// in\n    tag_385:\n        /* \"#utility.yul\":20305:20344   */\n      tag_386\n        /* \"#utility.yul\":20335:20343   */\n      dup7\n        /* \"#utility.yul\":20324:20333   */\n      dup4\n        /* \"#utility.yul\":20305:20344   */\n      tag_188\n      jump\t// in\n    tag_386:\n        /* \"#utility.yul\":20293:20344   */\n      swap6\n      pop\n        /* \"#utility.yul\":20377:20381   */\n      dup1\n        /* \"#utility.yul\":20373:20382   */\n      not\n        /* \"#utility.yul\":20366:20371   */\n      dup5\n        /* \"#utility.yul\":20362:20383   */\n      and\n        /* \"#utility.yul\":20353:20383   */\n      swap4\n      pop\n        /* \"#utility.yul\":20426:20430   */\n      dup1\n        /* \"#utility.yul\":20416:20424   */\n      dup7\n        /* \"#utility.yul\":20412:20431   */\n      and\n        /* \"#utility.yul\":20405:20410   */\n      dup5\n        /* \"#utility.yul\":20402:20432   */\n      or\n        /* \"#utility.yul\":20392:20432   */\n      swap3\n      pop\n        /* \"#utility.yul\":20121:20438   */\n      pop\n      pop\n        /* \"#utility.yul\":20045:20438   */\n      swap4\n      swap3\n      pop\n      pop\n      pop\n      jump\t// out\n        /* \"#utility.yul\":20444:20504   */\n    tag_190:\n        /* \"#utility.yul\":20472:20475   */\n      0x00\n        /* \"#utility.yul\":20493:20498   */\n      dup2\n        /* \"#utility.yul\":20486:20498   */\n      swap1\n      pop\n        /* \"#utility.yul\":20444:20504   */\n      swap2\n      swap1\n      pop\n      jump\t// out\n        /* \"#utility.yul\":20510:20652   */\n    tag_191:\n        /* \"#utility.yul\":20560:20569   */\n      0x00\n        /* \"#utility.yul\":20593:20646   */\n      tag_389\n        /* \"#utility.yul\":20611:20645   */\n      tag_390\n        /* \"#utility.yul\":20620:20644   */\n      tag_391\n        /* \"#utility.yul\":20638:20643   */\n      dup5\n        /* \"#utility.yul\":20620:20644   */\n      tag_141\n      jump\t// in\n    tag_391:\n        /* \"#utility.yul\":20611:20645   */\n      tag_190\n      jump\t// in\n    tag_390:\n        /* \"#utility.yul\":20593:20646   */\n      tag_141\n      jump\t// in\n    tag_389:\n        /* \"#utility.yul\":20580:20646   */\n      swap1\n      pop\n        /* \"#utility.yul\":20510:20652   */\n      swap2\n      swap1\n      pop\n      jump\t// out\n        /* \"#utility.yul\":20658:20733   */\n    tag_192:\n        /* \"#utility.yul\":20701:20704   */\n      0x00\n        /* \"#utility.yul\":20722:20727   */\n      dup2\n        /* \"#utility.yul\":20715:20727   */\n      swap1\n      pop\n        /* \"#utility.yul\":20658:20733   */\n      swap2\n      swap1\n      pop\n      jump\t// out\n        /* \"#utility.yul\":20739:21008   */\n    tag_193:\n        /* \"#utility.yul\":20849:20888   */\n      tag_394\n        /* \"#utility.yul\":20880:20887   */\n      dup4\n        /* \"#utility.yul\":20849:20888   */\n      tag_191\n      jump\t// in\n    tag_394:\n        /* \"#utility.yul\":20910:21001   */\n      tag_395\n        /* \"#utility.yul\":20959:21000   */\n      tag_396\n        /* \"#utility.yul\":20983:20999   */\n      dup3\n        /* \"#utility.yul\":20959:21000   */\n      tag_192\n      jump\t// in\n    tag_396:\n        /* \"#utility.yul\":20951:20957   */\n      dup5\n        /* \"#utility.yul\":20944:20948   */\n      dup5\n        /* \"#utility.yul\":20938:20949   */\n      sload\n        /* \"#utility.yul\":20910:21001   */\n      tag_189\n      jump\t// in\n    tag_395:\n        /* \"#utility.yul\":20904:20908   */\n      dup3\n        /* \"#utility.yul\":20897:21002   */\n      sstore\n        /* \"#utility.yul\":20815:21008   */\n      pop\n        /* \"#utility.yul\":20739:21008   */\n      pop\n      pop\n      pop\n      jump\t// out\n        /* \"#utility.yul\":21014:21087   */\n    tag_194:\n        /* \"#utility.yul\":21059:21062   */\n      0x00\n        /* \"#utility.yul\":21014:21087   */\n      swap1\n      jump\t// out\n        /* \"#utility.yul\":21093:21282   */\n    tag_195:\n        /* \"#utility.yul\":21170:21202   */\n      tag_399\n      tag_194\n      jump\t// in\n    tag_399:\n        /* \"#utility.yul\":21211:21276   */\n      tag_400\n        /* \"#utility.yul\":21269:21275   */\n      dup2\n        /* \"#utility.yul\":21261:21267   */\n      dup5\n        /* \"#utility.yul\":21255:21259   */\n      dup5\n        /* \"#utility.yul\":21211:21276   */\n      tag_193\n      jump\t// in\n    tag_400:\n        /* \"#utility.yul\":21146:21282   */\n      pop\n        /* \"#utility.yul\":21093:21282   */\n      pop\n      pop\n      jump\t// out\n        /* \"#utility.yul\":21288:21474   */\n    tag_196:\n        /* \"#utility.yul\":21348:21468   */\n    tag_402:\n        /* \"#utility.yul\":21365:21368   */\n      dup2\n        /* \"#utility.yul\":21358:21363   */\n      dup2\n        /* \"#utility.yul\":21355:21369   */\n      lt\n        /* \"#utility.yul\":21348:21468   */\n      iszero\n      tag_404\n      jumpi\n        /* \"#utility.yul\":21419:21458   */\n      tag_405\n        /* \"#utility.yul\":21456:21457   */\n      0x00\n        /* \"#utility.yul\":21449:21454   */\n      dup3\n        /* \"#utility.yul\":21419:21458   */\n      tag_195\n      jump\t// in\n    tag_405:\n        /* \"#utility.yul\":21392:21393   */\n      0x01\n        /* \"#utility.yul\":21385:21390   */\n      dup2\n        /* \"#utility.yul\":21381:21394   */\n      add\n        /* \"#utility.yul\":21372:21394   */\n      swap1\n      pop\n        /* \"#utility.yul\":21348:21468   */\n      jump(tag_402)\n    tag_404:\n        /* \"#utility.yul\":21288:21474   */\n      pop\n      pop\n      jump\t// out\n        /* \"#utility.yul\":21480:22023   */\n    tag_197:\n        /* \"#utility.yul\":21581:21583   */\n      0x1f\n        /* \"#utility.yul\":21576:21579   */\n      dup3\n        /* \"#utility.yul\":21573:21584   */\n      gt\n        /* \"#utility.yul\":21570:22016   */\n      iszero\n      tag_407\n      jumpi\n        /* \"#utility.yul\":21615:21653   */\n      tag_408\n        /* \"#utility.yul\":21647:21652   */\n      dup2\n        /* \"#utility.yul\":21615:21653   */\n      tag_186\n      jump\t// in\n    tag_408:\n        /* \"#utility.yul\":21699:21728   */\n      tag_409\n        /* \"#utility.yul\":21717:21727   */\n      dup5\n        /* \"#utility.yul\":21699:21728   */\n      tag_187\n      jump\t// in\n    tag_409:\n        /* \"#utility.yul\":21689:21697   */\n      dup2\n        /* \"#utility.yul\":21685:21729   */\n      add\n        /* \"#utility.yul\":21882:21884   */\n      0x20\n        /* \"#utility.yul\":21870:21880   */\n      dup6\n        /* \"#utility.yul\":21867:21885   */\n      lt\n        /* \"#utility.yul\":21864:21913   */\n      iszero\n      tag_410\n      jumpi\n        /* \"#utility.yul\":21903:21911   */\n      dup2\n        /* \"#utility.yul\":21888:21911   */\n      swap1\n      pop\n        /* \"#utility.yul\":21864:21913   */\n    tag_410:\n        /* \"#utility.yul\":21926:22006   */\n      tag_411\n        /* \"#utility.yul\":21982:22004   */\n      tag_412\n        /* \"#utility.yul\":22000:22003   */\n      dup6\n        /* \"#utility.yul\":21982:22004   */\n      tag_187\n      jump\t// in\n    tag_412:\n        /* \"#utility.yul\":21972:21980   */\n      dup4\n        /* \"#utility.yul\":21968:22005   */\n      add\n        /* \"#utility.yul\":21955:21966   */\n      dup3\n        /* \"#utility.yul\":21926:22006   */\n      tag_196\n      jump\t// in\n    tag_411:\n        /* \"#utility.yul\":21585:22016   */\n      pop\n      pop\n        /* \"#utility.yul\":21570:22016   */\n    tag_407:\n        /* \"#utility.yul\":21480:22023   */\n      pop\n      pop\n      pop\n      jump\t// out\n        /* \"#utility.yul\":22029:22146   */\n    tag_198:\n        /* \"#utility.yul\":22083:22091   */\n      0x00\n        /* \"#utility.yul\":22133:22138   */\n      dup3\n        /* \"#utility.yul\":22127:22131   */\n      dup3\n        /* \"#utility.yul\":22123:22139   */\n      shr\n        /* \"#utility.yul\":22102:22139   */\n      swap1\n      pop\n        /* \"#utility.yul\":22029:22146   */\n      swap3\n      swap2\n      pop\n      pop\n      jump\t// out\n        /* \"#utility.yul\":22152:22321   */\n    tag_199:\n        /* \"#utility.yul\":22196:22202   */\n      0x00\n        /* \"#utility.yul\":22229:22280   */\n      tag_415\n        /* \"#utility.yul\":22277:22278   */\n      0x00\n        /* \"#utility.yul\":22273:22279   */\n      not\n        /* \"#utility.yul\":22265:22270   */\n      dup5\n        /* \"#utility.yul\":22262:22263   */\n      0x08\n        /* \"#utility.yul\":22258:22271   */\n      mul\n        /* \"#utility.yul\":22229:22280   */\n      tag_198\n      jump\t// in\n    tag_415:\n        /* \"#utility.yul\":22225:22281   */\n      not\n        /* \"#utility.yul\":22310:22314   */\n      dup1\n        /* \"#utility.yul\":22304:22308   */\n      dup4\n        /* \"#utility.yul\":22300:22315   */\n      and\n        /* \"#utility.yul\":22290:22315   */\n      swap2\n      pop\n        /* \"#utility.yul\":22203:22321   */\n      pop\n        /* \"#utility.yul\":22152:22321   */\n      swap3\n      swap2\n      pop\n      pop\n      jump\t// out\n        /* \"#utility.yul\":22326:22621   */\n    tag_200:\n        /* \"#utility.yul\":22402:22406   */\n      0x00\n        /* \"#utility.yul\":22548:22577   */\n      tag_417\n        /* \"#utility.yul\":22573:22576   */\n      dup4\n        /* \"#utility.yul\":22567:22571   */\n      dup4\n        /* \"#utility.yul\":22548:22577   */\n      tag_199\n      jump\t// in\n    tag_417:\n        /* \"#utility.yul\":22540:22577   */\n      swap2\n      pop\n        /* \"#utility.yul\":22610:22613   */\n      dup3\n        /* \"#utility.yul\":22607:22608   */\n      0x02\n        /* \"#utility.yul\":22603:22614   */\n      mul\n        /* \"#utility.yul\":22597:22601   */\n      dup3\n        /* \"#utility.yul\":22594:22615   */\n      or\n        /* \"#utility.yul\":22586:22615   */\n      swap1\n      pop\n        /* \"#utility.yul\":22326:22621   */\n      swap3\n      swap2\n      pop\n      pop\n      jump\t// out\n        /* \"#utility.yul\":22626:24021   */\n    tag_120:\n        /* \"#utility.yul\":22743:22780   */\n      tag_419\n        /* \"#utility.yul\":22776:22779   */\n      dup3\n        /* \"#utility.yul\":22743:22780   */\n      tag_146\n      jump\t// in\n    tag_419:\n        /* \"#utility.yul\":22845:22863   */\n      0xffffffffffffffff\n        /* \"#utility.yul\":22837:22843   */\n      dup2\n        /* \"#utility.yul\":22834:22864   */\n      gt\n        /* \"#utility.yul\":22831:22887   */\n      iszero\n      tag_420\n      jumpi\n        /* \"#utility.yul\":22867:22885   */\n      tag_421\n      tag_168\n      jump\t// in\n    tag_421:\n        /* \"#utility.yul\":22831:22887   */\n    tag_420:\n        /* \"#utility.yul\":22911:22949   */\n      tag_422\n        /* \"#utility.yul\":22943:22947   */\n      dup3\n        /* \"#utility.yul\":22937:22948   */\n      sload\n        /* \"#utility.yul\":22911:22949   */\n      tag_56\n      jump\t// in\n    tag_422:\n        /* \"#utility.yul\":22996:23063   */\n      tag_423\n        /* \"#utility.yul\":23056:23062   */\n      dup3\n        /* \"#utility.yul\":23048:23054   */\n      dup3\n        /* \"#utility.yul\":23042:23046   */\n      dup6\n        /* \"#utility.yul\":22996:23063   */\n      tag_197\n      jump\t// in\n    tag_423:\n        /* \"#utility.yul\":23090:23091   */\n      0x00\n        /* \"#utility.yul\":23114:23118   */\n      0x20\n        /* \"#utility.yul\":23101:23118   */\n      swap1\n      pop\n        /* \"#utility.yul\":23146:23148   */\n      0x1f\n        /* \"#utility.yul\":23138:23144   */\n      dup4\n        /* \"#utility.yul\":23135:23149   */\n      gt\n        /* \"#utility.yul\":23163:23164   */\n      0x01\n        /* \"#utility.yul\":23158:23776   */\n      dup2\n      eq\n      tag_425\n      jumpi\n        /* \"#utility.yul\":23820:23821   */\n      0x00\n        /* \"#utility.yul\":23837:23843   */\n      dup5\n        /* \"#utility.yul\":23834:23911   */\n      iszero\n      tag_426\n      jumpi\n        /* \"#utility.yul\":23886:23895   */\n      dup3\n        /* \"#utility.yul\":23881:23884   */\n      dup8\n        /* \"#utility.yul\":23877:23896   */\n      add\n        /* \"#utility.yul\":23871:23897   */\n      mload\n        /* \"#utility.yul\":23862:23897   */\n      swap1\n      pop\n        /* \"#utility.yul\":23834:23911   */\n    tag_426:\n        /* \"#utility.yul\":23937:24004   */\n      tag_427\n        /* \"#utility.yul\":23997:24003   */\n      dup6\n        /* \"#utility.yul\":23990:23995   */\n      dup3\n        /* \"#utility.yul\":23937:24004   */\n      tag_200\n      jump\t// in\n    tag_427:\n        /* \"#utility.yul\":23931:23935   */\n      dup7\n        /* \"#utility.yul\":23924:24005   */\n      sstore\n        /* \"#utility.yul\":23793:24015   */\n      pop\n        /* \"#utility.yul\":23128:24015   */\n      jump(tag_424)\n        /* \"#utility.yul\":23158:23776   */\n    tag_425:\n        /* \"#utility.yul\":23210:23214   */\n      0x1f\n        /* \"#utility.yul\":23206:23215   */\n      not\n        /* \"#utility.yul\":23198:23204   */\n      dup5\n        /* \"#utility.yul\":23194:23216   */\n      and\n        /* \"#utility.yul\":23244:23281   */\n      tag_428\n        /* \"#utility.yul\":23276:23280   */\n      dup7\n        /* \"#utility.yul\":23244:23281   */\n      tag_186\n      jump\t// in\n    tag_428:\n        /* \"#utility.yul\":23303:23304   */\n      0x00\n        /* \"#utility.yul\":23317:23525   */\n    tag_429:\n        /* \"#utility.yul\":23331:23338   */\n      dup3\n        /* \"#utility.yul\":23328:23329   */\n      dup2\n        /* \"#utility.yul\":23325:23339   */\n      lt\n        /* \"#utility.yul\":23317:23525   */\n      iszero\n      tag_431\n      jumpi\n        /* \"#utility.yul\":23410:23419   */\n      dup5\n        /* \"#utility.yul\":23405:23408   */\n      dup10\n        /* \"#utility.yul\":23401:23420   */\n      add\n        /* \"#utility.yul\":23395:23421   */\n      mload\n        /* \"#utility.yul\":23387:23393   */\n      dup3\n        /* \"#utility.yul\":23380:23422   */\n      sstore\n        /* \"#utility.yul\":23461:23462   */\n      0x01\n        /* \"#utility.yul\":23453:23459   */\n      dup3\n        /* \"#utility.yul\":23449:23463   */\n      add\n        /* \"#utility.yul\":23439:23463   */\n      swap2\n      pop\n        /* \"#utility.yul\":23508:23510   */\n      0x20\n        /* \"#utility.yul\":23497:23506   */\n      dup6\n        /* \"#utility.yul\":23493:23511   */\n      add\n        /* \"#utility.yul\":23480:23511   */\n      swap5\n      pop\n        /* \"#utility.yul\":23354:23358   */\n      0x20\n        /* \"#utility.yul\":23351:23352   */\n      dup2\n        /* \"#utility.yul\":23347:23359   */\n      add\n        /* \"#utility.yul\":23342:23359   */\n      swap1\n      pop\n        /* \"#utility.yul\":23317:23525   */\n      jump(tag_429)\n    tag_431:\n        /* \"#utility.yul\":23553:23559   */\n      dup7\n        /* \"#utility.yul\":23544:23551   */\n      dup4\n        /* \"#utility.yul\":23541:23560   */\n      lt\n        /* \"#utility.yul\":23538:23717   */\n      iszero\n      tag_432\n      jumpi\n        /* \"#utility.yul\":23611:23620   */\n      dup5\n        /* \"#utility.yul\":23606:23609   */\n      dup10\n        /* \"#utility.yul\":23602:23621   */\n      add\n        /* \"#utility.yul\":23596:23622   */\n      mload\n        /* \"#utility.yul\":23654:23702   */\n      tag_433\n        /* \"#utility.yul\":23696:23700   */\n      0x1f\n        /* \"#utility.yul\":23688:23694   */\n      dup10\n        /* \"#utility.yul\":23684:23701   */\n      and\n        /* \"#utility.yul\":23673:23682   */\n      dup3\n        /* \"#utility.yul\":23654:23702   */\n      tag_199\n      jump\t// in\n    tag_433:\n        /* \"#utility.yul\":23646:23652   */\n      dup4\n        /* \"#utility.yul\":23639:23703   */\n      sstore\n        /* \"#utility.yul\":23561:23717   */\n      pop\n        /* \"#utility.yul\":23538:23717   */\n    tag_432:\n        /* \"#utility.yul\":23763:23764   */\n      0x01\n        /* \"#utility.yul\":23759:23760   */\n      0x02\n        /* \"#utility.yul\":23751:23757   */\n      dup9\n        /* \"#utility.yul\":23747:23761   */\n      mul\n        /* \"#utility.yul\":23743:23765   */\n      add\n        /* \"#utility.yul\":23737:23741   */\n      dup9\n        /* \"#utility.yul\":23730:23766   */\n      sstore\n        /* \"#utility.yul\":23165:23776   */\n      pop\n      pop\n      pop\n        /* \"#utility.yul\":23128:24015   */\n    tag_424:\n      pop\n        /* \"#utility.yul\":22718:24021   */\n      pop\n      pop\n      pop\n        /* \"#utility.yul\":22626:24021   */\n      pop\n      pop\n      jump\t// out\n        /* \"#utility.yul\":24027:24560   */\n    tag_122:\n        /* \"#utility.yul\":24196:24200   */\n      0x00\n        /* \"#utility.yul\":24234:24236   */\n      0x60\n        /* \"#utility.yul\":24223:24232   */\n      dup3\n        /* \"#utility.yul\":24219:24237   */\n      add\n        /* \"#utility.yul\":24211:24237   */\n      swap1\n      pop\n        /* \"#utility.yul\":24247:24318   */\n      tag_435\n        /* \"#utility.yul\":24315:24316   */\n      0x00\n        /* \"#utility.yul\":24304:24313   */\n      dup4\n        /* \"#utility.yul\":24300:24317   */\n      add\n        /* \"#utility.yul\":24291:24297   */\n      dup7\n        /* \"#utility.yul\":24247:24318   */\n      tag_144\n      jump\t// in\n    tag_435:\n        /* \"#utility.yul\":24365:24374   */\n      dup2\n        /* \"#utility.yul\":24359:24363   */\n      dup2\n        /* \"#utility.yul\":24355:24375   */\n      sub\n        /* \"#utility.yul\":24350:24352   */\n      0x20\n        /* \"#utility.yul\":24339:24348   */\n      dup4\n        /* \"#utility.yul\":24335:24353   */\n      add\n        /* \"#utility.yul\":24328:24376   */\n      mstore\n        /* \"#utility.yul\":24393:24471   */\n      tag_436\n        /* \"#utility.yul\":24466:24470   */\n      dup2\n        /* \"#utility.yul\":24457:24463   */\n      dup6\n        /* \"#utility.yul\":24393:24471   */\n      tag_150\n      jump\t// in\n    tag_436:\n        /* \"#utility.yul\":24385:24471   */\n      swap1\n      pop\n        /* \"#utility.yul\":24481:24553   */\n      tag_437\n        /* \"#utility.yul\":24549:24551   */\n      0x40\n        /* \"#utility.yul\":24538:24547   */\n      dup4\n        /* \"#utility.yul\":24534:24552   */\n      add\n        /* \"#utility.yul\":24525:24531   */\n      dup5\n        /* \"#utility.yul\":24481:24553   */\n      tag_144\n      jump\t// in\n    tag_437:\n        /* \"#utility.yul\":24027:24560   */\n      swap5\n      swap4\n      pop\n      pop\n      pop\n      pop\n      jump\t// out\n\n    auxdata: 0xa26469706673582212202ba3c01f38a1036834a6c0075d9036ee6e7e4cf3a74c2f5559fcd56c284482cd64736f6c634300081a0033\n}\n",
				"bytecode": {
					"linkReferences": {},
					"object": "60806040526101185f806101000a81548161ffff021916908361ffff160217905550348015602b575f80fd5b503360025f6101000a81548173ffffffffffffffffffffffffffffffffffffffff021916908373ffffffffffffffffffffffffffffffffffffffff1602179055506119a9806100795f395ff3fe608060405234801561000f575f80fd5b5060043610610091575f3560e01c8063633782161161006457806363378216146101315780636eb107971461014d5780637c9cd2bc1461016b5780638da5cb5b14610187578063c3ad5ecb146101a557610091565b806305a1b4a91461009557806312e7ee1c146100c95780633d9b569f146100f957806358bfa4ab14610115575b5f80fd5b6100af60048036038101906100aa9190610e08565b6101d5565b6040516100c0959493929190610ed4565b60405180910390f35b6100e360048036038101906100de9190610f2c565b6102c6565b6040516100f091906110eb565b60405180910390f35b610113600480360381019061010e9190610e08565b610461565b005b61012f600480360381019061012a9190611142565b6106dc565b005b61014b60048036038101906101469190610e08565b610789565b005b610155610964565b604051610162919061117c565b60405180910390f35b610185600480360381019061018091906112c1565b610975565b005b61018f610b8d565b60405161019c9190611308565b60405180910390f35b6101bf60048036038101906101ba9190611321565b610bb2565b6040516101cc91906113bf565b60405180910390f35b6001602052815f5260405f2081815481106101ee575f80fd5b905f5260205f2090600502015f9150915050805f015490806001015f9054906101000a900473ffffffffffffffffffffffffffffffffffffffff16908060020180546102399061140c565b80601f01602080910402602001604051908101604052809291908181526020018280546102659061140c565b80156102b05780601f10610287576101008083540402835291602001916102b0565b820191905f5260205f20905b81548152906001019060200180831161029357829003601f168201915b5050505050908060030154908060040154905085565b606060015f8373ffffffffffffffffffffffffffffffffffffffff1673ffffffffffffffffffffffffffffffffffffffff1681526020019081526020015f20805480602002602001604051908101604052809291908181526020015f905b82821015610456578382905f5260205f2090600502016040518060a00160405290815f8201548152602001600182015f9054906101000a900473ffffffffffffffffffffffffffffffffffffffff1673ffffffffffffffffffffffffffffffffffffffff1673ffffffffffffffffffffffffffffffffffffffff1681526020016002820180546103b39061140c565b80601f01602080910402602001604051908101604052809291908181526020018280546103df9061140c565b801561042a5780601f106104015761010080835404028352916020019161042a565b820191905f5260205f20905b81548152906001019060200180831161040d57829003601f168201915b505050505081526020016003820154815260200160048201548152505081526020019060010190610324565b505050509050919050565b8060015f8473ffffffffffffffffffffffffffffffffffffffff1673ffffffffffffffffffffffffffffffffffffffff1681526020019081526020015f2082815481106104b1576104b061143c565b5b905f5260205f2090600502015f015414610500576040517f08c379a00000000000000000000000000000000000000000000000000000000081526004016104f7906114b3565b60405180910390fd5b5f60015f8473ffffffffffffffffffffffffffffffffffffffff1673ffffffffffffffffffffffffffffffffffffffff1681526020019081526020015f2082815481106105505761054f61143c565b5b905f5260205f20906005020160040154116105a0576040517f08c379a00000000000000000000000000000000000000000000000000000000081526004016105979061151b565b60405180910390fd5b60015f8373ffffffffffffffffffffffffffffffffffffffff1673ffffffffffffffffffffffffffffffffffffffff1681526020019081526020015f2081815481106105ef576105ee61143c565b5b905f5260205f2090600502016004015f81548092919061060e90611566565b91905055503373ffffffffffffffffffffffffffffffffffffffff168273ffffffffffffffffffffffffffffffffffffffff167f92b28835d0b319899e89c1088bd96bc0c40dfa514215cffdc18dd539639141918360015f8773ffffffffffffffffffffffffffffffffffffffff1673ffffffffffffffffffffffffffffffffffffffff1681526020019081526020015f2085815481106106b2576106b161143c565b5b905f5260205f209060050201600401546040516106d092919061158d565b60405180910390a35050565b60025f9054906101000a900473ffffffffffffffffffffffffffffffffffffffff1673ffffffffffffffffffffffffffffffffffffffff163373ffffffffffffffffffffffffffffffffffffffff161461076b576040517f08c379a0000000000000000000000000000000000000000000000000000000008152600401610762906115fe565b60405180910390fd5b805f806101000a81548161ffff021916908361ffff16021790555050565b8060015f8473ffffffffffffffffffffffffffffffffffffffff1673ffffffffffffffffffffffffffffffffffffffff1681526020019081526020015f2082815481106107d9576107d861143c565b5b905f5260205f2090600502015f015414610828576040517f08c379a000000000000000000000000000000000000000000000000000000000815260040161081f906114b3565b60405180910390fd5b60015f8373ffffffffffffffffffffffffffffffffffffffff1673ffffffffffffffffffffffffffffffffffffffff1681526020019081526020015f2081815481106108775761087661143c565b5b905f5260205f2090600502016004015f8154809291906108969061161c565b91905055503373ffffffffffffffffffffffffffffffffffffffff168273ffffffffffffffffffffffffffffffffffffffff167f92b28835d0b319899e89c1088bd96bc0c40dfa514215cffdc18dd539639141918360015f8773ffffffffffffffffffffffffffffffffffffffff1673ffffffffffffffffffffffffffffffffffffffff1681526020019081526020015f20858154811061093a5761093961143c565b5b905f5260205f2090600502016004015460405161095892919061158d565b60405180910390a35050565b5f8054906101000a900461ffff1681565b5f8054906101000a900461ffff1661ffff16815111156109ca576040517f08c379a00000000000000000000000000000000000000000000000000000000081526004016109c1906116ad565b60405180910390fd5b5f6040518060a0016040528060015f3373ffffffffffffffffffffffffffffffffffffffff1673ffffffffffffffffffffffffffffffffffffffff1681526020019081526020015f208054905081526020013373ffffffffffffffffffffffffffffffffffffffff1681526020018381526020014281526020015f815250905060015f3373ffffffffffffffffffffffffffffffffffffffff1673ffffffffffffffffffffffffffffffffffffffff1681526020019081526020015f2081908060018154018082558091505060019003905f5260205f2090600502015f909190919091505f820151815f01556020820151816001015f6101000a81548173ffffffffffffffffffffffffffffffffffffffff021916908373ffffffffffffffffffffffffffffffffffffffff1602179055506040820151816002019081610b119190611868565b5060608201518160030155608082015181600401555050806020015173ffffffffffffffffffffffffffffffffffffffff167f16fd3c13e9d46923e0a8bce11c7b473ec508a72e6c96cd2404b29ce972afc29e825f015183604001518460600151604051610b8193929190611937565b60405180910390a25050565b60025f9054906101000a900473ffffffffffffffffffffffffffffffffffffffff1681565b610bba610d29565b60015f3373ffffffffffffffffffffffffffffffffffffffff1673ffffffffffffffffffffffffffffffffffffffff1681526020019081526020015f208281548110610c0957610c0861143c565b5b905f5260205f2090600502016040518060a00160405290815f8201548152602001600182015f9054906101000a900473ffffffffffffffffffffffffffffffffffffffff1673ffffffffffffffffffffffffffffffffffffffff1673ffffffffffffffffffffffffffffffffffffffff168152602001600282018054610c8e9061140c565b80601f0160208091040260200160405190810160405280929190818152602001828054610cba9061140c565b8015610d055780601f10610cdc57610100808354040283529160200191610d05565b820191905f5260205f20905b815481529060010190602001808311610ce857829003601f168201915b50505050508152602001600382015481526020016004820154815250509050919050565b6040518060a001604052805f81526020015f73ffffffffffffffffffffffffffffffffffffffff168152602001606081526020015f81526020015f81525090565b5f604051905090565b5f80fd5b5f80fd5b5f73ffffffffffffffffffffffffffffffffffffffff82169050919050565b5f610da482610d7b565b9050919050565b610db481610d9a565b8114610dbe575f80fd5b50565b5f81359050610dcf81610dab565b92915050565b5f819050919050565b610de781610dd5565b8114610df1575f80fd5b50565b5f81359050610e0281610dde565b92915050565b5f8060408385031215610e1e57610e1d610d73565b5b5f610e2b85828601610dc1565b9250506020610e3c85828601610df4565b9150509250929050565b610e4f81610dd5565b82525050565b610e5e81610d9a565b82525050565b5f81519050919050565b5f82825260208201905092915050565b8281835e5f83830152505050565b5f601f19601f8301169050919050565b5f610ea682610e64565b610eb08185610e6e565b9350610ec0818560208601610e7e565b610ec981610e8c565b840191505092915050565b5f60a082019050610ee75f830188610e46565b610ef46020830187610e55565b8181036040830152610f068186610e9c565b9050610f156060830185610e46565b610f226080830184610e46565b9695505050505050565b5f60208284031215610f4157610f40610d73565b5b5f610f4e84828501610dc1565b91505092915050565b5f81519050919050565b5f82825260208201905092915050565b5f819050602082019050919050565b610f8981610dd5565b82525050565b610f9881610d9a565b82525050565b5f82825260208201905092915050565b5f610fb882610e64565b610fc28185610f9e565b9350610fd2818560208601610e7e565b610fdb81610e8c565b840191505092915050565b5f60a083015f830151610ffb5f860182610f80565b50602083015161100e6020860182610f8f565b50604083015184820360408601526110268282610fae565b915050606083015161103b6060860182610f80565b50608083015161104e6080860182610f80565b508091505092915050565b5f6110648383610fe6565b905092915050565b5f602082019050919050565b5f61108282610f57565b61108c8185610f61565b93508360208202850161109e85610f71565b805f5b858110156110d957848403895281516110ba8582611059565b94506110c58361106c565b925060208a019950506001810190506110a1565b50829750879550505050505092915050565b5f6020820190508181035f8301526111038184611078565b905092915050565b5f61ffff82169050919050565b6111218161110b565b811461112b575f80fd5b50565b5f8135905061113c81611118565b92915050565b5f6020828403121561115757611156610d73565b5b5f6111648482850161112e565b91505092915050565b6111768161110b565b82525050565b5f60208201905061118f5f83018461116d565b92915050565b5f80fd5b5f80fd5b7f4e487b71000000000000000000000000000000000000000000000000000000005f52604160045260245ffd5b6111d382610e8c565b810181811067ffffffffffffffff821117156111f2576111f161119d565b5b80604052505050565b5f611204610d6a565b905061121082826111ca565b919050565b5f67ffffffffffffffff82111561122f5761122e61119d565b5b61123882610e8c565b9050602081019050919050565b828183375f83830152505050565b5f61126561126084611215565b6111fb565b90508281526020810184848401111561128157611280611199565b5b61128c848285611245565b509392505050565b5f82601f8301126112a8576112a7611195565b5b81356112b8848260208601611253565b91505092915050565b5f602082840312156112d6576112d5610d73565b5b5f82013567ffffffffffffffff8111156112f3576112f2610d77565b5b6112ff84828501611294565b91505092915050565b5f60208201905061131b5f830184610e55565b92915050565b5f6020828403121561133657611335610d73565b5b5f61134384828501610df4565b91505092915050565b5f60a083015f8301516113615f860182610f80565b5060208301516113746020860182610f8f565b506040830151848203604086015261138c8282610fae565b91505060608301516113a16060860182610f80565b5060808301516113b46080860182610f80565b508091505092915050565b5f6020820190508181035f8301526113d7818461134c565b905092915050565b7f4e487b71000000000000000000000000000000000000000000000000000000005f52602260045260245ffd5b5f600282049050600182168061142357607f821691505b602082108103611436576114356113df565b5b50919050565b7f4e487b71000000000000000000000000000000000000000000000000000000005f52603260045260245ffd5b7f545745455420444f4553204e4f542045584953540000000000000000000000005f82015250565b5f61149d601483610e6e565b91506114a882611469565b602082019050919050565b5f6020820190508181035f8301526114ca81611491565b9050919050565b7f545745455420484153204e4f204c494b455300000000000000000000000000005f82015250565b5f611505601283610e6e565b9150611510826114d1565b602082019050919050565b5f6020820190508181035f830152611532816114f9565b9050919050565b7f4e487b71000000000000000000000000000000000000000000000000000000005f52601160045260245ffd5b5f61157082610dd5565b91505f820361158257611581611539565b5b600182039050919050565b5f6040820190506115a05f830185610e46565b6115ad6020830184610e46565b9392505050565b7f594f5520415245204e4f5420544845204f574e455221000000000000000000005f82015250565b5f6115e8601683610e6e565b91506115f3826115b4565b602082019050919050565b5f6020820190508181035f830152611615816115dc565b9050919050565b5f61162682610dd5565b91507fffffffffffffffffffffffffffffffffffffffffffffffffffffffffffffffff820361165857611657611539565b5b600182019050919050565b7f547765657420697320746f6f206c6f6e672062726f21000000000000000000005f82015250565b5f611697601683610e6e565b91506116a282611663565b602082019050919050565b5f6020820190508181035f8301526116c48161168b565b9050919050565b5f819050815f5260205f209050919050565b5f6020601f8301049050919050565b5f82821b905092915050565b5f600883026117277fffffffffffffffffffffffffffffffffffffffffffffffffffffffffffffffff826116ec565b61173186836116ec565b95508019841693508086168417925050509392505050565b5f819050919050565b5f61176c61176761176284610dd5565b611749565b610dd5565b9050919050565b5f819050919050565b61178583611752565b61179961179182611773565b8484546116f8565b825550505050565b5f90565b6117ad6117a1565b6117b881848461177c565b505050565b5b818110156117db576117d05f826117a5565b6001810190506117be565b5050565b601f821115611820576117f1816116cb565b6117fa846116dd565b81016020851015611809578190505b61181d611815856116dd565b8301826117bd565b50505b505050565b5f82821c905092915050565b5f6118405f1984600802611825565b1980831691505092915050565b5f6118588383611831565b9150826002028217905092915050565b61187182610e64565b67ffffffffffffffff81111561188a5761188961119d565b5b611894825461140c565b61189f8282856117df565b5f60209050601f8311600181146118d0575f84156118be578287015190505b6118c8858261184d565b86555061192f565b601f1984166118de866116cb565b5f5b82811015611905578489015182556001820191506020850194506020810190506118e0565b86831015611922578489015161191e601f891682611831565b8355505b6001600288020188555050505b505050505050565b5f60608201905061194a5f830186610e46565b818103602083015261195c8185610e9c565b905061196b6040830184610e46565b94935050505056fea26469706673582212202ba3c01f38a1036834a6c0075d9036ee6e7e4cf3a74c2f5559fcd56c284482cd64736f6c634300081a0033",
					"opcodes": "PUSH1 0x80 PUSH1 0x40 MSTORE PUSH2 0x118 PUSH0 DUP1 PUSH2 0x100 EXP DUP2 SLOAD DUP2 PUSH2 0xFFFF MUL NOT AND SWAP1 DUP4 PUSH2 0xFFFF AND MUL OR SWAP1 SSTORE POP CALLVALUE DUP1 ISZERO PUSH1 0x2B JUMPI PUSH0 DUP1 REVERT JUMPDEST POP CALLER PUSH1 0x2 PUSH0 PUSH2 0x100 EXP DUP2 SLOAD DUP2 PUSH20 0xFFFFFFFFFFFFFFFFFFFFFFFFFFFFFFFFFFFFFFFF MUL NOT AND SWAP1 DUP4 PUSH20 0xFFFFFFFFFFFFFFFFFFFFFFFFFFFFFFFFFFFFFFFF AND MUL OR SWAP1 SSTORE POP PUSH2 0x19A9 DUP1 PUSH2 0x79 PUSH0 CODECOPY PUSH0 RETURN INVALID PUSH1 0x80 PUSH1 0x40 MSTORE CALLVALUE DUP1 ISZERO PUSH2 0xF JUMPI PUSH0 DUP1 REVERT JUMPDEST POP PUSH1 0x4 CALLDATASIZE LT PUSH2 0x91 JUMPI PUSH0 CALLDATALOAD PUSH1 0xE0 SHR DUP1 PUSH4 0x63378216 GT PUSH2 0x64 JUMPI DUP1 PUSH4 0x63378216 EQ PUSH2 0x131 JUMPI DUP1 PUSH4 0x6EB10797 EQ PUSH2 0x14D JUMPI DUP1 PUSH4 0x7C9CD2BC EQ PUSH2 0x16B JUMPI DUP1 PUSH4 0x8DA5CB5B EQ PUSH2 0x187 JUMPI DUP1 PUSH4 0xC3AD5ECB EQ PUSH2 0x1A5 JUMPI PUSH2 0x91 JUMP JUMPDEST DUP1 PUSH4 0x5A1B4A9 EQ PUSH2 0x95 JUMPI DUP1 PUSH4 0x12E7EE1C EQ PUSH2 0xC9 JUMPI DUP1 PUSH4 0x3D9B569F EQ PUSH2 0xF9 JUMPI DUP1 PUSH4 0x58BFA4AB EQ PUSH2 0x115 JUMPI JUMPDEST PUSH0 DUP1 REVERT JUMPDEST PUSH2 0xAF PUSH1 0x4 DUP1 CALLDATASIZE SUB DUP2 ADD SWAP1 PUSH2 0xAA SWAP2 SWAP1 PUSH2 0xE08 JUMP JUMPDEST PUSH2 0x1D5 JUMP JUMPDEST PUSH1 0x40 MLOAD PUSH2 0xC0 SWAP6 SWAP5 SWAP4 SWAP3 SWAP2 SWAP1 PUSH2 0xED4 JUMP JUMPDEST PUSH1 0x40 MLOAD DUP1 SWAP2 SUB SWAP1 RETURN JUMPDEST PUSH2 0xE3 PUSH1 0x4 DUP1 CALLDATASIZE SUB DUP2 ADD SWAP1 PUSH2 0xDE SWAP2 SWAP1 PUSH2 0xF2C JUMP JUMPDEST PUSH2 0x2C6 JUMP JUMPDEST PUSH1 0x40 MLOAD PUSH2 0xF0 SWAP2 SWAP1 PUSH2 0x10EB JUMP JUMPDEST PUSH1 0x40 MLOAD DUP1 SWAP2 SUB SWAP1 RETURN JUMPDEST PUSH2 0x113 PUSH1 0x4 DUP1 CALLDATASIZE SUB DUP2 ADD SWAP1 PUSH2 0x10E SWAP2 SWAP1 PUSH2 0xE08 JUMP JUMPDEST PUSH2 0x461 JUMP JUMPDEST STOP JUMPDEST PUSH2 0x12F PUSH1 0x4 DUP1 CALLDATASIZE SUB DUP2 ADD SWAP1 PUSH2 0x12A SWAP2 SWAP1 PUSH2 0x1142 JUMP JUMPDEST PUSH2 0x6DC JUMP JUMPDEST STOP JUMPDEST PUSH2 0x14B PUSH1 0x4 DUP1 CALLDATASIZE SUB DUP2 ADD SWAP1 PUSH2 0x146 SWAP2 SWAP1 PUSH2 0xE08 JUMP JUMPDEST PUSH2 0x789 JUMP JUMPDEST STOP JUMPDEST PUSH2 0x155 PUSH2 0x964 JUMP JUMPDEST PUSH1 0x40 MLOAD PUSH2 0x162 SWAP2 SWAP1 PUSH2 0x117C JUMP JUMPDEST PUSH1 0x40 MLOAD DUP1 SWAP2 SUB SWAP1 RETURN JUMPDEST PUSH2 0x185 PUSH1 0x4 DUP1 CALLDATASIZE SUB DUP2 ADD SWAP1 PUSH2 0x180 SWAP2 SWAP1 PUSH2 0x12C1 JUMP JUMPDEST PUSH2 0x975 JUMP JUMPDEST STOP JUMPDEST PUSH2 0x18F PUSH2 0xB8D JUMP JUMPDEST PUSH1 0x40 MLOAD PUSH2 0x19C SWAP2 SWAP1 PUSH2 0x1308 JUMP JUMPDEST PUSH1 0x40 MLOAD DUP1 SWAP2 SUB SWAP1 RETURN JUMPDEST PUSH2 0x1BF PUSH1 0x4 DUP1 CALLDATASIZE SUB DUP2 ADD SWAP1 PUSH2 0x1BA SWAP2 SWAP1 PUSH2 0x1321 JUMP JUMPDEST PUSH2 0xBB2 JUMP JUMPDEST PUSH1 0x40 MLOAD PUSH2 0x1CC SWAP2 SWAP1 PUSH2 0x13BF JUMP JUMPDEST PUSH1 0x40 MLOAD DUP1 SWAP2 SUB SWAP1 RETURN JUMPDEST PUSH1 0x1 PUSH1 0x20 MSTORE DUP2 PUSH0 MSTORE PUSH1 0x40 PUSH0 KECCAK256 DUP2 DUP2 SLOAD DUP2 LT PUSH2 0x1EE JUMPI PUSH0 DUP1 REVERT JUMPDEST SWAP1 PUSH0 MSTORE PUSH1 0x20 PUSH0 KECCAK256 SWAP1 PUSH1 0x5 MUL ADD PUSH0 SWAP2 POP SWAP2 POP POP DUP1 PUSH0 ADD SLOAD SWAP1 DUP1 PUSH1 0x1 ADD PUSH0 SWAP1 SLOAD SWAP1 PUSH2 0x100 EXP SWAP1 DIV PUSH20 0xFFFFFFFFFFFFFFFFFFFFFFFFFFFFFFFFFFFFFFFF AND SWAP1 DUP1 PUSH1 0x2 ADD DUP1 SLOAD PUSH2 0x239 SWAP1 PUSH2 0x140C JUMP JUMPDEST DUP1 PUSH1 0x1F ADD PUSH1 0x20 DUP1 SWAP2 DIV MUL PUSH1 0x20 ADD PUSH1 0x40 MLOAD SWAP1 DUP2 ADD PUSH1 0x40 MSTORE DUP1 SWAP3 SWAP2 SWAP1 DUP2 DUP2 MSTORE PUSH1 0x20 ADD DUP3 DUP1 SLOAD PUSH2 0x265 SWAP1 PUSH2 0x140C JUMP JUMPDEST DUP1 ISZERO PUSH2 0x2B0 JUMPI DUP1 PUSH1 0x1F LT PUSH2 0x287 JUMPI PUSH2 0x100 DUP1 DUP4 SLOAD DIV MUL DUP4 MSTORE SWAP2 PUSH1 0x20 ADD SWAP2 PUSH2 0x2B0 JUMP JUMPDEST DUP3 ADD SWAP2 SWAP1 PUSH0 MSTORE PUSH1 0x20 PUSH0 KECCAK256 SWAP1 JUMPDEST DUP2 SLOAD DUP2 MSTORE SWAP1 PUSH1 0x1 ADD SWAP1 PUSH1 0x20 ADD DUP1 DUP4 GT PUSH2 0x293 JUMPI DUP3 SWAP1 SUB PUSH1 0x1F AND DUP3 ADD SWAP2 JUMPDEST POP POP POP POP POP SWAP1 DUP1 PUSH1 0x3 ADD SLOAD SWAP1 DUP1 PUSH1 0x4 ADD SLOAD SWAP1 POP DUP6 JUMP JUMPDEST PUSH1 0x60 PUSH1 0x1 PUSH0 DUP4 PUSH20 0xFFFFFFFFFFFFFFFFFFFFFFFFFFFFFFFFFFFFFFFF AND PUSH20 0xFFFFFFFFFFFFFFFFFFFFFFFFFFFFFFFFFFFFFFFF AND DUP2 MSTORE PUSH1 0x20 ADD SWAP1 DUP2 MSTORE PUSH1 0x20 ADD PUSH0 KECCAK256 DUP1 SLOAD DUP1 PUSH1 0x20 MUL PUSH1 0x20 ADD PUSH1 0x40 MLOAD SWAP1 DUP2 ADD PUSH1 0x40 MSTORE DUP1 SWAP3 SWAP2 SWAP1 DUP2 DUP2 MSTORE PUSH1 0x20 ADD PUSH0 SWAP1 JUMPDEST DUP3 DUP3 LT ISZERO PUSH2 0x456 JUMPI DUP4 DUP3 SWAP1 PUSH0 MSTORE PUSH1 0x20 PUSH0 KECCAK256 SWAP1 PUSH1 0x5 MUL ADD PUSH1 0x40 MLOAD DUP1 PUSH1 0xA0 ADD PUSH1 0x40 MSTORE SWAP1 DUP2 PUSH0 DUP3 ADD SLOAD DUP2 MSTORE PUSH1 0x20 ADD PUSH1 0x1 DUP3 ADD PUSH0 SWAP1 SLOAD SWAP1 PUSH2 0x100 EXP SWAP1 DIV PUSH20 0xFFFFFFFFFFFFFFFFFFFFFFFFFFFFFFFFFFFFFFFF AND PUSH20 0xFFFFFFFFFFFFFFFFFFFFFFFFFFFFFFFFFFFFFFFF AND PUSH20 0xFFFFFFFFFFFFFFFFFFFFFFFFFFFFFFFFFFFFFFFF AND DUP2 MSTORE PUSH1 0x20 ADD PUSH1 0x2 DUP3 ADD DUP1 SLOAD PUSH2 0x3B3 SWAP1 PUSH2 0x140C JUMP JUMPDEST DUP1 PUSH1 0x1F ADD PUSH1 0x20 DUP1 SWAP2 DIV MUL PUSH1 0x20 ADD PUSH1 0x40 MLOAD SWAP1 DUP2 ADD PUSH1 0x40 MSTORE DUP1 SWAP3 SWAP2 SWAP1 DUP2 DUP2 MSTORE PUSH1 0x20 ADD DUP3 DUP1 SLOAD PUSH2 0x3DF SWAP1 PUSH2 0x140C JUMP JUMPDEST DUP1 ISZERO PUSH2 0x42A JUMPI DUP1 PUSH1 0x1F LT PUSH2 0x401 JUMPI PUSH2 0x100 DUP1 DUP4 SLOAD DIV MUL DUP4 MSTORE SWAP2 PUSH1 0x20 ADD SWAP2 PUSH2 0x42A JUMP JUMPDEST DUP3 ADD SWAP2 SWAP1 PUSH0 MSTORE PUSH1 0x20 PUSH0 KECCAK256 SWAP1 JUMPDEST DUP2 SLOAD DUP2 MSTORE SWAP1 PUSH1 0x1 ADD SWAP1 PUSH1 0x20 ADD DUP1 DUP4 GT PUSH2 0x40D JUMPI DUP3 SWAP1 SUB PUSH1 0x1F AND DUP3 ADD SWAP2 JUMPDEST POP POP POP POP POP DUP2 MSTORE PUSH1 0x20 ADD PUSH1 0x3 DUP3 ADD SLOAD DUP2 MSTORE PUSH1 0x20 ADD PUSH1 0x4 DUP3 ADD SLOAD DUP2 MSTORE POP POP DUP2 MSTORE PUSH1 0x20 ADD SWAP1 PUSH1 0x1 ADD SWAP1 PUSH2 0x324 JUMP JUMPDEST POP POP POP POP SWAP1 POP SWAP2 SWAP1 POP JUMP JUMPDEST DUP1 PUSH1 0x1 PUSH0 DUP5 PUSH20 0xFFFFFFFFFFFFFFFFFFFFFFFFFFFFFFFFFFFFFFFF AND PUSH20 0xFFFFFFFFFFFFFFFFFFFFFFFFFFFFFFFFFFFFFFFF AND DUP2 MSTORE PUSH1 0x20 ADD SWAP1 DUP2 MSTORE PUSH1 0x20 ADD PUSH0 KECCAK256 DUP3 DUP2 SLOAD DUP2 LT PUSH2 0x4B1 JUMPI PUSH2 0x4B0 PUSH2 0x143C JUMP JUMPDEST JUMPDEST SWAP1 PUSH0 MSTORE PUSH1 0x20 PUSH0 KECCAK256 SWAP1 PUSH1 0x5 MUL ADD PUSH0 ADD SLOAD EQ PUSH2 0x500 JUMPI PUSH1 0x40 MLOAD PUSH32 0x8C379A000000000000000000000000000000000000000000000000000000000 DUP2 MSTORE PUSH1 0x4 ADD PUSH2 0x4F7 SWAP1 PUSH2 0x14B3 JUMP JUMPDEST PUSH1 0x40 MLOAD DUP1 SWAP2 SUB SWAP1 REVERT JUMPDEST PUSH0 PUSH1 0x1 PUSH0 DUP5 PUSH20 0xFFFFFFFFFFFFFFFFFFFFFFFFFFFFFFFFFFFFFFFF AND PUSH20 0xFFFFFFFFFFFFFFFFFFFFFFFFFFFFFFFFFFFFFFFF AND DUP2 MSTORE PUSH1 0x20 ADD SWAP1 DUP2 MSTORE PUSH1 0x20 ADD PUSH0 KECCAK256 DUP3 DUP2 SLOAD DUP2 LT PUSH2 0x550 JUMPI PUSH2 0x54F PUSH2 0x143C JUMP JUMPDEST JUMPDEST SWAP1 PUSH0 MSTORE PUSH1 0x20 PUSH0 KECCAK256 SWAP1 PUSH1 0x5 MUL ADD PUSH1 0x4 ADD SLOAD GT PUSH2 0x5A0 JUMPI PUSH1 0x40 MLOAD PUSH32 0x8C379A000000000000000000000000000000000000000000000000000000000 DUP2 MSTORE PUSH1 0x4 ADD PUSH2 0x597 SWAP1 PUSH2 0x151B JUMP JUMPDEST PUSH1 0x40 MLOAD DUP1 SWAP2 SUB SWAP1 REVERT JUMPDEST PUSH1 0x1 PUSH0 DUP4 PUSH20 0xFFFFFFFFFFFFFFFFFFFFFFFFFFFFFFFFFFFFFFFF AND PUSH20 0xFFFFFFFFFFFFFFFFFFFFFFFFFFFFFFFFFFFFFFFF AND DUP2 MSTORE PUSH1 0x20 ADD SWAP1 DUP2 MSTORE PUSH1 0x20 ADD PUSH0 KECCAK256 DUP2 DUP2 SLOAD DUP2 LT PUSH2 0x5EF JUMPI PUSH2 0x5EE PUSH2 0x143C JUMP JUMPDEST JUMPDEST SWAP1 PUSH0 MSTORE PUSH1 0x20 PUSH0 KECCAK256 SWAP1 PUSH1 0x5 MUL ADD PUSH1 0x4 ADD PUSH0 DUP2 SLOAD DUP1 SWAP3 SWAP2 SWAP1 PUSH2 0x60E SWAP1 PUSH2 0x1566 JUMP JUMPDEST SWAP2 SWAP1 POP SSTORE POP CALLER PUSH20 0xFFFFFFFFFFFFFFFFFFFFFFFFFFFFFFFFFFFFFFFF AND DUP3 PUSH20 0xFFFFFFFFFFFFFFFFFFFFFFFFFFFFFFFFFFFFFFFF AND PUSH32 0x92B28835D0B319899E89C1088BD96BC0C40DFA514215CFFDC18DD53963914191 DUP4 PUSH1 0x1 PUSH0 DUP8 PUSH20 0xFFFFFFFFFFFFFFFFFFFFFFFFFFFFFFFFFFFFFFFF AND PUSH20 0xFFFFFFFFFFFFFFFFFFFFFFFFFFFFFFFFFFFFFFFF AND DUP2 MSTORE PUSH1 0x20 ADD SWAP1 DUP2 MSTORE PUSH1 0x20 ADD PUSH0 KECCAK256 DUP6 DUP2 SLOAD DUP2 LT PUSH2 0x6B2 JUMPI PUSH2 0x6B1 PUSH2 0x143C JUMP JUMPDEST JUMPDEST SWAP1 PUSH0 MSTORE PUSH1 0x20 PUSH0 KECCAK256 SWAP1 PUSH1 0x5 MUL ADD PUSH1 0x4 ADD SLOAD PUSH1 0x40 MLOAD PUSH2 0x6D0 SWAP3 SWAP2 SWAP1 PUSH2 0x158D JUMP JUMPDEST PUSH1 0x40 MLOAD DUP1 SWAP2 SUB SWAP1 LOG3 POP POP JUMP JUMPDEST PUSH1 0x2 PUSH0 SWAP1 SLOAD SWAP1 PUSH2 0x100 EXP SWAP1 DIV PUSH20 0xFFFFFFFFFFFFFFFFFFFFFFFFFFFFFFFFFFFFFFFF AND PUSH20 0xFFFFFFFFFFFFFFFFFFFFFFFFFFFFFFFFFFFFFFFF AND CALLER PUSH20 0xFFFFFFFFFFFFFFFFFFFFFFFFFFFFFFFFFFFFFFFF AND EQ PUSH2 0x76B JUMPI PUSH1 0x40 MLOAD PUSH32 0x8C379A000000000000000000000000000000000000000000000000000000000 DUP2 MSTORE PUSH1 0x4 ADD PUSH2 0x762 SWAP1 PUSH2 0x15FE JUMP JUMPDEST PUSH1 0x40 MLOAD DUP1 SWAP2 SUB SWAP1 REVERT JUMPDEST DUP1 PUSH0 DUP1 PUSH2 0x100 EXP DUP2 SLOAD DUP2 PUSH2 0xFFFF MUL NOT AND SWAP1 DUP4 PUSH2 0xFFFF AND MUL OR SWAP1 SSTORE POP POP JUMP JUMPDEST DUP1 PUSH1 0x1 PUSH0 DUP5 PUSH20 0xFFFFFFFFFFFFFFFFFFFFFFFFFFFFFFFFFFFFFFFF AND PUSH20 0xFFFFFFFFFFFFFFFFFFFFFFFFFFFFFFFFFFFFFFFF AND DUP2 MSTORE PUSH1 0x20 ADD SWAP1 DUP2 MSTORE PUSH1 0x20 ADD PUSH0 KECCAK256 DUP3 DUP2 SLOAD DUP2 LT PUSH2 0x7D9 JUMPI PUSH2 0x7D8 PUSH2 0x143C JUMP JUMPDEST JUMPDEST SWAP1 PUSH0 MSTORE PUSH1 0x20 PUSH0 KECCAK256 SWAP1 PUSH1 0x5 MUL ADD PUSH0 ADD SLOAD EQ PUSH2 0x828 JUMPI PUSH1 0x40 MLOAD PUSH32 0x8C379A000000000000000000000000000000000000000000000000000000000 DUP2 MSTORE PUSH1 0x4 ADD PUSH2 0x81F SWAP1 PUSH2 0x14B3 JUMP JUMPDEST PUSH1 0x40 MLOAD DUP1 SWAP2 SUB SWAP1 REVERT JUMPDEST PUSH1 0x1 PUSH0 DUP4 PUSH20 0xFFFFFFFFFFFFFFFFFFFFFFFFFFFFFFFFFFFFFFFF AND PUSH20 0xFFFFFFFFFFFFFFFFFFFFFFFFFFFFFFFFFFFFFFFF AND DUP2 MSTORE PUSH1 0x20 ADD SWAP1 DUP2 MSTORE PUSH1 0x20 ADD PUSH0 KECCAK256 DUP2 DUP2 SLOAD DUP2 LT PUSH2 0x877 JUMPI PUSH2 0x876 PUSH2 0x143C JUMP JUMPDEST JUMPDEST SWAP1 PUSH0 MSTORE PUSH1 0x20 PUSH0 KECCAK256 SWAP1 PUSH1 0x5 MUL ADD PUSH1 0x4 ADD PUSH0 DUP2 SLOAD DUP1 SWAP3 SWAP2 SWAP1 PUSH2 0x896 SWAP1 PUSH2 0x161C JUMP JUMPDEST SWAP2 SWAP1 POP SSTORE POP CALLER PUSH20 0xFFFFFFFFFFFFFFFFFFFFFFFFFFFFFFFFFFFFFFFF AND DUP3 PUSH20 0xFFFFFFFFFFFFFFFFFFFFFFFFFFFFFFFFFFFFFFFF AND PUSH32 0x92B28835D0B319899E89C1088BD96BC0C40DFA514215CFFDC18DD53963914191 DUP4 PUSH1 0x1 PUSH0 DUP8 PUSH20 0xFFFFFFFFFFFFFFFFFFFFFFFFFFFFFFFFFFFFFFFF AND PUSH20 0xFFFFFFFFFFFFFFFFFFFFFFFFFFFFFFFFFFFFFFFF AND DUP2 MSTORE PUSH1 0x20 ADD SWAP1 DUP2 MSTORE PUSH1 0x20 ADD PUSH0 KECCAK256 DUP6 DUP2 SLOAD DUP2 LT PUSH2 0x93A JUMPI PUSH2 0x939 PUSH2 0x143C JUMP JUMPDEST JUMPDEST SWAP1 PUSH0 MSTORE PUSH1 0x20 PUSH0 KECCAK256 SWAP1 PUSH1 0x5 MUL ADD PUSH1 0x4 ADD SLOAD PUSH1 0x40 MLOAD PUSH2 0x958 SWAP3 SWAP2 SWAP1 PUSH2 0x158D JUMP JUMPDEST PUSH1 0x40 MLOAD DUP1 SWAP2 SUB SWAP1 LOG3 POP POP JUMP JUMPDEST PUSH0 DUP1 SLOAD SWAP1 PUSH2 0x100 EXP SWAP1 DIV PUSH2 0xFFFF AND DUP2 JUMP JUMPDEST PUSH0 DUP1 SLOAD SWAP1 PUSH2 0x100 EXP SWAP1 DIV PUSH2 0xFFFF AND PUSH2 0xFFFF AND DUP2 MLOAD GT ISZERO PUSH2 0x9CA JUMPI PUSH1 0x40 MLOAD PUSH32 0x8C379A000000000000000000000000000000000000000000000000000000000 DUP2 MSTORE PUSH1 0x4 ADD PUSH2 0x9C1 SWAP1 PUSH2 0x16AD JUMP JUMPDEST PUSH1 0x40 MLOAD DUP1 SWAP2 SUB SWAP1 REVERT JUMPDEST PUSH0 PUSH1 0x40 MLOAD DUP1 PUSH1 0xA0 ADD PUSH1 0x40 MSTORE DUP1 PUSH1 0x1 PUSH0 CALLER PUSH20 0xFFFFFFFFFFFFFFFFFFFFFFFFFFFFFFFFFFFFFFFF AND PUSH20 0xFFFFFFFFFFFFFFFFFFFFFFFFFFFFFFFFFFFFFFFF AND DUP2 MSTORE PUSH1 0x20 ADD SWAP1 DUP2 MSTORE PUSH1 0x20 ADD PUSH0 KECCAK256 DUP1 SLOAD SWAP1 POP DUP2 MSTORE PUSH1 0x20 ADD CALLER PUSH20 0xFFFFFFFFFFFFFFFFFFFFFFFFFFFFFFFFFFFFFFFF AND DUP2 MSTORE PUSH1 0x20 ADD DUP4 DUP2 MSTORE PUSH1 0x20 ADD TIMESTAMP DUP2 MSTORE PUSH1 0x20 ADD PUSH0 DUP2 MSTORE POP SWAP1 POP PUSH1 0x1 PUSH0 CALLER PUSH20 0xFFFFFFFFFFFFFFFFFFFFFFFFFFFFFFFFFFFFFFFF AND PUSH20 0xFFFFFFFFFFFFFFFFFFFFFFFFFFFFFFFFFFFFFFFF AND DUP2 MSTORE PUSH1 0x20 ADD SWAP1 DUP2 MSTORE PUSH1 0x20 ADD PUSH0 KECCAK256 DUP2 SWAP1 DUP1 PUSH1 0x1 DUP2 SLOAD ADD DUP1 DUP3 SSTORE DUP1 SWAP2 POP POP PUSH1 0x1 SWAP1 SUB SWAP1 PUSH0 MSTORE PUSH1 0x20 PUSH0 KECCAK256 SWAP1 PUSH1 0x5 MUL ADD PUSH0 SWAP1 SWAP2 SWAP1 SWAP2 SWAP1 SWAP2 POP PUSH0 DUP3 ADD MLOAD DUP2 PUSH0 ADD SSTORE PUSH1 0x20 DUP3 ADD MLOAD DUP2 PUSH1 0x1 ADD PUSH0 PUSH2 0x100 EXP DUP2 SLOAD DUP2 PUSH20 0xFFFFFFFFFFFFFFFFFFFFFFFFFFFFFFFFFFFFFFFF MUL NOT AND SWAP1 DUP4 PUSH20 0xFFFFFFFFFFFFFFFFFFFFFFFFFFFFFFFFFFFFFFFF AND MUL OR SWAP1 SSTORE POP PUSH1 0x40 DUP3 ADD MLOAD DUP2 PUSH1 0x2 ADD SWAP1 DUP2 PUSH2 0xB11 SWAP2 SWAP1 PUSH2 0x1868 JUMP JUMPDEST POP PUSH1 0x60 DUP3 ADD MLOAD DUP2 PUSH1 0x3 ADD SSTORE PUSH1 0x80 DUP3 ADD MLOAD DUP2 PUSH1 0x4 ADD SSTORE POP POP DUP1 PUSH1 0x20 ADD MLOAD PUSH20 0xFFFFFFFFFFFFFFFFFFFFFFFFFFFFFFFFFFFFFFFF AND PUSH32 0x16FD3C13E9D46923E0A8BCE11C7B473EC508A72E6C96CD2404B29CE972AFC29E DUP3 PUSH0 ADD MLOAD DUP4 PUSH1 0x40 ADD MLOAD DUP5 PUSH1 0x60 ADD MLOAD PUSH1 0x40 MLOAD PUSH2 0xB81 SWAP4 SWAP3 SWAP2 SWAP1 PUSH2 0x1937 JUMP JUMPDEST PUSH1 0x40 MLOAD DUP1 SWAP2 SUB SWAP1 LOG2 POP POP JUMP JUMPDEST PUSH1 0x2 PUSH0 SWAP1 SLOAD SWAP1 PUSH2 0x100 EXP SWAP1 DIV PUSH20 0xFFFFFFFFFFFFFFFFFFFFFFFFFFFFFFFFFFFFFFFF AND DUP2 JUMP JUMPDEST PUSH2 0xBBA PUSH2 0xD29 JUMP JUMPDEST PUSH1 0x1 PUSH0 CALLER PUSH20 0xFFFFFFFFFFFFFFFFFFFFFFFFFFFFFFFFFFFFFFFF AND PUSH20 0xFFFFFFFFFFFFFFFFFFFFFFFFFFFFFFFFFFFFFFFF AND DUP2 MSTORE PUSH1 0x20 ADD SWAP1 DUP2 MSTORE PUSH1 0x20 ADD PUSH0 KECCAK256 DUP3 DUP2 SLOAD DUP2 LT PUSH2 0xC09 JUMPI PUSH2 0xC08 PUSH2 0x143C JUMP JUMPDEST JUMPDEST SWAP1 PUSH0 MSTORE PUSH1 0x20 PUSH0 KECCAK256 SWAP1 PUSH1 0x5 MUL ADD PUSH1 0x40 MLOAD DUP1 PUSH1 0xA0 ADD PUSH1 0x40 MSTORE SWAP1 DUP2 PUSH0 DUP3 ADD SLOAD DUP2 MSTORE PUSH1 0x20 ADD PUSH1 0x1 DUP3 ADD PUSH0 SWAP1 SLOAD SWAP1 PUSH2 0x100 EXP SWAP1 DIV PUSH20 0xFFFFFFFFFFFFFFFFFFFFFFFFFFFFFFFFFFFFFFFF AND PUSH20 0xFFFFFFFFFFFFFFFFFFFFFFFFFFFFFFFFFFFFFFFF AND PUSH20 0xFFFFFFFFFFFFFFFFFFFFFFFFFFFFFFFFFFFFFFFF AND DUP2 MSTORE PUSH1 0x20 ADD PUSH1 0x2 DUP3 ADD DUP1 SLOAD PUSH2 0xC8E SWAP1 PUSH2 0x140C JUMP JUMPDEST DUP1 PUSH1 0x1F ADD PUSH1 0x20 DUP1 SWAP2 DIV MUL PUSH1 0x20 ADD PUSH1 0x40 MLOAD SWAP1 DUP2 ADD PUSH1 0x40 MSTORE DUP1 SWAP3 SWAP2 SWAP1 DUP2 DUP2 MSTORE PUSH1 0x20 ADD DUP3 DUP1 SLOAD PUSH2 0xCBA SWAP1 PUSH2 0x140C JUMP JUMPDEST DUP1 ISZERO PUSH2 0xD05 JUMPI DUP1 PUSH1 0x1F LT PUSH2 0xCDC JUMPI PUSH2 0x100 DUP1 DUP4 SLOAD DIV MUL DUP4 MSTORE SWAP2 PUSH1 0x20 ADD SWAP2 PUSH2 0xD05 JUMP JUMPDEST DUP3 ADD SWAP2 SWAP1 PUSH0 MSTORE PUSH1 0x20 PUSH0 KECCAK256 SWAP1 JUMPDEST DUP2 SLOAD DUP2 MSTORE SWAP1 PUSH1 0x1 ADD SWAP1 PUSH1 0x20 ADD DUP1 DUP4 GT PUSH2 0xCE8 JUMPI DUP3 SWAP1 SUB PUSH1 0x1F AND DUP3 ADD SWAP2 JUMPDEST POP POP POP POP POP DUP2 MSTORE PUSH1 0x20 ADD PUSH1 0x3 DUP3 ADD SLOAD DUP2 MSTORE PUSH1 0x20 ADD PUSH1 0x4 DUP3 ADD SLOAD DUP2 MSTORE POP POP SWAP1 POP SWAP2 SWAP1 POP JUMP JUMPDEST PUSH1 0x40 MLOAD DUP1 PUSH1 0xA0 ADD PUSH1 0x40 MSTORE DUP1 PUSH0 DUP2 MSTORE PUSH1 0x20 ADD PUSH0 PUSH20 0xFFFFFFFFFFFFFFFFFFFFFFFFFFFFFFFFFFFFFFFF AND DUP2 MSTORE PUSH1 0x20 ADD PUSH1 0x60 DUP2 MSTORE PUSH1 0x20 ADD PUSH0 DUP2 MSTORE PUSH1 0x20 ADD PUSH0 DUP2 MSTORE POP SWAP1 JUMP JUMPDEST PUSH0 PUSH1 0x40 MLOAD SWAP1 POP SWAP1 JUMP JUMPDEST PUSH0 DUP1 REVERT JUMPDEST PUSH0 DUP1 REVERT JUMPDEST PUSH0 PUSH20 0xFFFFFFFFFFFFFFFFFFFFFFFFFFFFFFFFFFFFFFFF DUP3 AND SWAP1 POP SWAP2 SWAP1 POP JUMP JUMPDEST PUSH0 PUSH2 0xDA4 DUP3 PUSH2 0xD7B JUMP JUMPDEST SWAP1 POP SWAP2 SWAP1 POP JUMP JUMPDEST PUSH2 0xDB4 DUP2 PUSH2 0xD9A JUMP JUMPDEST DUP2 EQ PUSH2 0xDBE JUMPI PUSH0 DUP1 REVERT JUMPDEST POP JUMP JUMPDEST PUSH0 DUP2 CALLDATALOAD SWAP1 POP PUSH2 0xDCF DUP2 PUSH2 0xDAB JUMP JUMPDEST SWAP3 SWAP2 POP POP JUMP JUMPDEST PUSH0 DUP2 SWAP1 POP SWAP2 SWAP1 POP JUMP JUMPDEST PUSH2 0xDE7 DUP2 PUSH2 0xDD5 JUMP JUMPDEST DUP2 EQ PUSH2 0xDF1 JUMPI PUSH0 DUP1 REVERT JUMPDEST POP JUMP JUMPDEST PUSH0 DUP2 CALLDATALOAD SWAP1 POP PUSH2 0xE02 DUP2 PUSH2 0xDDE JUMP JUMPDEST SWAP3 SWAP2 POP POP JUMP JUMPDEST PUSH0 DUP1 PUSH1 0x40 DUP4 DUP6 SUB SLT ISZERO PUSH2 0xE1E JUMPI PUSH2 0xE1D PUSH2 0xD73 JUMP JUMPDEST JUMPDEST PUSH0 PUSH2 0xE2B DUP6 DUP3 DUP7 ADD PUSH2 0xDC1 JUMP JUMPDEST SWAP3 POP POP PUSH1 0x20 PUSH2 0xE3C DUP6 DUP3 DUP7 ADD PUSH2 0xDF4 JUMP JUMPDEST SWAP2 POP POP SWAP3 POP SWAP3 SWAP1 POP JUMP JUMPDEST PUSH2 0xE4F DUP2 PUSH2 0xDD5 JUMP JUMPDEST DUP3 MSTORE POP POP JUMP JUMPDEST PUSH2 0xE5E DUP2 PUSH2 0xD9A JUMP JUMPDEST DUP3 MSTORE POP POP JUMP JUMPDEST PUSH0 DUP2 MLOAD SWAP1 POP SWAP2 SWAP1 POP JUMP JUMPDEST PUSH0 DUP3 DUP3 MSTORE PUSH1 0x20 DUP3 ADD SWAP1 POP SWAP3 SWAP2 POP POP JUMP JUMPDEST DUP3 DUP2 DUP4 MCOPY PUSH0 DUP4 DUP4 ADD MSTORE POP POP POP JUMP JUMPDEST PUSH0 PUSH1 0x1F NOT PUSH1 0x1F DUP4 ADD AND SWAP1 POP SWAP2 SWAP1 POP JUMP JUMPDEST PUSH0 PUSH2 0xEA6 DUP3 PUSH2 0xE64 JUMP JUMPDEST PUSH2 0xEB0 DUP2 DUP6 PUSH2 0xE6E JUMP JUMPDEST SWAP4 POP PUSH2 0xEC0 DUP2 DUP6 PUSH1 0x20 DUP7 ADD PUSH2 0xE7E JUMP JUMPDEST PUSH2 0xEC9 DUP2 PUSH2 0xE8C JUMP JUMPDEST DUP5 ADD SWAP2 POP POP SWAP3 SWAP2 POP POP JUMP JUMPDEST PUSH0 PUSH1 0xA0 DUP3 ADD SWAP1 POP PUSH2 0xEE7 PUSH0 DUP4 ADD DUP9 PUSH2 0xE46 JUMP JUMPDEST PUSH2 0xEF4 PUSH1 0x20 DUP4 ADD DUP8 PUSH2 0xE55 JUMP JUMPDEST DUP2 DUP2 SUB PUSH1 0x40 DUP4 ADD MSTORE PUSH2 0xF06 DUP2 DUP7 PUSH2 0xE9C JUMP JUMPDEST SWAP1 POP PUSH2 0xF15 PUSH1 0x60 DUP4 ADD DUP6 PUSH2 0xE46 JUMP JUMPDEST PUSH2 0xF22 PUSH1 0x80 DUP4 ADD DUP5 PUSH2 0xE46 JUMP JUMPDEST SWAP7 SWAP6 POP POP POP POP POP POP JUMP JUMPDEST PUSH0 PUSH1 0x20 DUP3 DUP5 SUB SLT ISZERO PUSH2 0xF41 JUMPI PUSH2 0xF40 PUSH2 0xD73 JUMP JUMPDEST JUMPDEST PUSH0 PUSH2 0xF4E DUP5 DUP3 DUP6 ADD PUSH2 0xDC1 JUMP JUMPDEST SWAP2 POP POP SWAP3 SWAP2 POP POP JUMP JUMPDEST PUSH0 DUP2 MLOAD SWAP1 POP SWAP2 SWAP1 POP JUMP JUMPDEST PUSH0 DUP3 DUP3 MSTORE PUSH1 0x20 DUP3 ADD SWAP1 POP SWAP3 SWAP2 POP POP JUMP JUMPDEST PUSH0 DUP2 SWAP1 POP PUSH1 0x20 DUP3 ADD SWAP1 POP SWAP2 SWAP1 POP JUMP JUMPDEST PUSH2 0xF89 DUP2 PUSH2 0xDD5 JUMP JUMPDEST DUP3 MSTORE POP POP JUMP JUMPDEST PUSH2 0xF98 DUP2 PUSH2 0xD9A JUMP JUMPDEST DUP3 MSTORE POP POP JUMP JUMPDEST PUSH0 DUP3 DUP3 MSTORE PUSH1 0x20 DUP3 ADD SWAP1 POP SWAP3 SWAP2 POP POP JUMP JUMPDEST PUSH0 PUSH2 0xFB8 DUP3 PUSH2 0xE64 JUMP JUMPDEST PUSH2 0xFC2 DUP2 DUP6 PUSH2 0xF9E JUMP JUMPDEST SWAP4 POP PUSH2 0xFD2 DUP2 DUP6 PUSH1 0x20 DUP7 ADD PUSH2 0xE7E JUMP JUMPDEST PUSH2 0xFDB DUP2 PUSH2 0xE8C JUMP JUMPDEST DUP5 ADD SWAP2 POP POP SWAP3 SWAP2 POP POP JUMP JUMPDEST PUSH0 PUSH1 0xA0 DUP4 ADD PUSH0 DUP4 ADD MLOAD PUSH2 0xFFB PUSH0 DUP7 ADD DUP3 PUSH2 0xF80 JUMP JUMPDEST POP PUSH1 0x20 DUP4 ADD MLOAD PUSH2 0x100E PUSH1 0x20 DUP7 ADD DUP3 PUSH2 0xF8F JUMP JUMPDEST POP PUSH1 0x40 DUP4 ADD MLOAD DUP5 DUP3 SUB PUSH1 0x40 DUP7 ADD MSTORE PUSH2 0x1026 DUP3 DUP3 PUSH2 0xFAE JUMP JUMPDEST SWAP2 POP POP PUSH1 0x60 DUP4 ADD MLOAD PUSH2 0x103B PUSH1 0x60 DUP7 ADD DUP3 PUSH2 0xF80 JUMP JUMPDEST POP PUSH1 0x80 DUP4 ADD MLOAD PUSH2 0x104E PUSH1 0x80 DUP7 ADD DUP3 PUSH2 0xF80 JUMP JUMPDEST POP DUP1 SWAP2 POP POP SWAP3 SWAP2 POP POP JUMP JUMPDEST PUSH0 PUSH2 0x1064 DUP4 DUP4 PUSH2 0xFE6 JUMP JUMPDEST SWAP1 POP SWAP3 SWAP2 POP POP JUMP JUMPDEST PUSH0 PUSH1 0x20 DUP3 ADD SWAP1 POP SWAP2 SWAP1 POP JUMP JUMPDEST PUSH0 PUSH2 0x1082 DUP3 PUSH2 0xF57 JUMP JUMPDEST PUSH2 0x108C DUP2 DUP6 PUSH2 0xF61 JUMP JUMPDEST SWAP4 POP DUP4 PUSH1 0x20 DUP3 MUL DUP6 ADD PUSH2 0x109E DUP6 PUSH2 0xF71 JUMP JUMPDEST DUP1 PUSH0 JUMPDEST DUP6 DUP2 LT ISZERO PUSH2 0x10D9 JUMPI DUP5 DUP5 SUB DUP10 MSTORE DUP2 MLOAD PUSH2 0x10BA DUP6 DUP3 PUSH2 0x1059 JUMP JUMPDEST SWAP5 POP PUSH2 0x10C5 DUP4 PUSH2 0x106C JUMP JUMPDEST SWAP3 POP PUSH1 0x20 DUP11 ADD SWAP10 POP POP PUSH1 0x1 DUP2 ADD SWAP1 POP PUSH2 0x10A1 JUMP JUMPDEST POP DUP3 SWAP8 POP DUP8 SWAP6 POP POP POP POP POP POP SWAP3 SWAP2 POP POP JUMP JUMPDEST PUSH0 PUSH1 0x20 DUP3 ADD SWAP1 POP DUP2 DUP2 SUB PUSH0 DUP4 ADD MSTORE PUSH2 0x1103 DUP2 DUP5 PUSH2 0x1078 JUMP JUMPDEST SWAP1 POP SWAP3 SWAP2 POP POP JUMP JUMPDEST PUSH0 PUSH2 0xFFFF DUP3 AND SWAP1 POP SWAP2 SWAP1 POP JUMP JUMPDEST PUSH2 0x1121 DUP2 PUSH2 0x110B JUMP JUMPDEST DUP2 EQ PUSH2 0x112B JUMPI PUSH0 DUP1 REVERT JUMPDEST POP JUMP JUMPDEST PUSH0 DUP2 CALLDATALOAD SWAP1 POP PUSH2 0x113C DUP2 PUSH2 0x1118 JUMP JUMPDEST SWAP3 SWAP2 POP POP JUMP JUMPDEST PUSH0 PUSH1 0x20 DUP3 DUP5 SUB SLT ISZERO PUSH2 0x1157 JUMPI PUSH2 0x1156 PUSH2 0xD73 JUMP JUMPDEST JUMPDEST PUSH0 PUSH2 0x1164 DUP5 DUP3 DUP6 ADD PUSH2 0x112E JUMP JUMPDEST SWAP2 POP POP SWAP3 SWAP2 POP POP JUMP JUMPDEST PUSH2 0x1176 DUP2 PUSH2 0x110B JUMP JUMPDEST DUP3 MSTORE POP POP JUMP JUMPDEST PUSH0 PUSH1 0x20 DUP3 ADD SWAP1 POP PUSH2 0x118F PUSH0 DUP4 ADD DUP5 PUSH2 0x116D JUMP JUMPDEST SWAP3 SWAP2 POP POP JUMP JUMPDEST PUSH0 DUP1 REVERT JUMPDEST PUSH0 DUP1 REVERT JUMPDEST PUSH32 0x4E487B7100000000000000000000000000000000000000000000000000000000 PUSH0 MSTORE PUSH1 0x41 PUSH1 0x4 MSTORE PUSH1 0x24 PUSH0 REVERT JUMPDEST PUSH2 0x11D3 DUP3 PUSH2 0xE8C JUMP JUMPDEST DUP2 ADD DUP2 DUP2 LT PUSH8 0xFFFFFFFFFFFFFFFF DUP3 GT OR ISZERO PUSH2 0x11F2 JUMPI PUSH2 0x11F1 PUSH2 0x119D JUMP JUMPDEST JUMPDEST DUP1 PUSH1 0x40 MSTORE POP POP POP JUMP JUMPDEST PUSH0 PUSH2 0x1204 PUSH2 0xD6A JUMP JUMPDEST SWAP1 POP PUSH2 0x1210 DUP3 DUP3 PUSH2 0x11CA JUMP JUMPDEST SWAP2 SWAP1 POP JUMP JUMPDEST PUSH0 PUSH8 0xFFFFFFFFFFFFFFFF DUP3 GT ISZERO PUSH2 0x122F JUMPI PUSH2 0x122E PUSH2 0x119D JUMP JUMPDEST JUMPDEST PUSH2 0x1238 DUP3 PUSH2 0xE8C JUMP JUMPDEST SWAP1 POP PUSH1 0x20 DUP2 ADD SWAP1 POP SWAP2 SWAP1 POP JUMP JUMPDEST DUP3 DUP2 DUP4 CALLDATACOPY PUSH0 DUP4 DUP4 ADD MSTORE POP POP POP JUMP JUMPDEST PUSH0 PUSH2 0x1265 PUSH2 0x1260 DUP5 PUSH2 0x1215 JUMP JUMPDEST PUSH2 0x11FB JUMP JUMPDEST SWAP1 POP DUP3 DUP2 MSTORE PUSH1 0x20 DUP2 ADD DUP5 DUP5 DUP5 ADD GT ISZERO PUSH2 0x1281 JUMPI PUSH2 0x1280 PUSH2 0x1199 JUMP JUMPDEST JUMPDEST PUSH2 0x128C DUP5 DUP3 DUP6 PUSH2 0x1245 JUMP JUMPDEST POP SWAP4 SWAP3 POP POP POP JUMP JUMPDEST PUSH0 DUP3 PUSH1 0x1F DUP4 ADD SLT PUSH2 0x12A8 JUMPI PUSH2 0x12A7 PUSH2 0x1195 JUMP JUMPDEST JUMPDEST DUP2 CALLDATALOAD PUSH2 0x12B8 DUP5 DUP3 PUSH1 0x20 DUP7 ADD PUSH2 0x1253 JUMP JUMPDEST SWAP2 POP POP SWAP3 SWAP2 POP POP JUMP JUMPDEST PUSH0 PUSH1 0x20 DUP3 DUP5 SUB SLT ISZERO PUSH2 0x12D6 JUMPI PUSH2 0x12D5 PUSH2 0xD73 JUMP JUMPDEST JUMPDEST PUSH0 DUP3 ADD CALLDATALOAD PUSH8 0xFFFFFFFFFFFFFFFF DUP2 GT ISZERO PUSH2 0x12F3 JUMPI PUSH2 0x12F2 PUSH2 0xD77 JUMP JUMPDEST JUMPDEST PUSH2 0x12FF DUP5 DUP3 DUP6 ADD PUSH2 0x1294 JUMP JUMPDEST SWAP2 POP POP SWAP3 SWAP2 POP POP JUMP JUMPDEST PUSH0 PUSH1 0x20 DUP3 ADD SWAP1 POP PUSH2 0x131B PUSH0 DUP4 ADD DUP5 PUSH2 0xE55 JUMP JUMPDEST SWAP3 SWAP2 POP POP JUMP JUMPDEST PUSH0 PUSH1 0x20 DUP3 DUP5 SUB SLT ISZERO PUSH2 0x1336 JUMPI PUSH2 0x1335 PUSH2 0xD73 JUMP JUMPDEST JUMPDEST PUSH0 PUSH2 0x1343 DUP5 DUP3 DUP6 ADD PUSH2 0xDF4 JUMP JUMPDEST SWAP2 POP POP SWAP3 SWAP2 POP POP JUMP JUMPDEST PUSH0 PUSH1 0xA0 DUP4 ADD PUSH0 DUP4 ADD MLOAD PUSH2 0x1361 PUSH0 DUP7 ADD DUP3 PUSH2 0xF80 JUMP JUMPDEST POP PUSH1 0x20 DUP4 ADD MLOAD PUSH2 0x1374 PUSH1 0x20 DUP7 ADD DUP3 PUSH2 0xF8F JUMP JUMPDEST POP PUSH1 0x40 DUP4 ADD MLOAD DUP5 DUP3 SUB PUSH1 0x40 DUP7 ADD MSTORE PUSH2 0x138C DUP3 DUP3 PUSH2 0xFAE JUMP JUMPDEST SWAP2 POP POP PUSH1 0x60 DUP4 ADD MLOAD PUSH2 0x13A1 PUSH1 0x60 DUP7 ADD DUP3 PUSH2 0xF80 JUMP JUMPDEST POP PUSH1 0x80 DUP4 ADD MLOAD PUSH2 0x13B4 PUSH1 0x80 DUP7 ADD DUP3 PUSH2 0xF80 JUMP JUMPDEST POP DUP1 SWAP2 POP POP SWAP3 SWAP2 POP POP JUMP JUMPDEST PUSH0 PUSH1 0x20 DUP3 ADD SWAP1 POP DUP2 DUP2 SUB PUSH0 DUP4 ADD MSTORE PUSH2 0x13D7 DUP2 DUP5 PUSH2 0x134C JUMP JUMPDEST SWAP1 POP SWAP3 SWAP2 POP POP JUMP JUMPDEST PUSH32 0x4E487B7100000000000000000000000000000000000000000000000000000000 PUSH0 MSTORE PUSH1 0x22 PUSH1 0x4 MSTORE PUSH1 0x24 PUSH0 REVERT JUMPDEST PUSH0 PUSH1 0x2 DUP3 DIV SWAP1 POP PUSH1 0x1 DUP3 AND DUP1 PUSH2 0x1423 JUMPI PUSH1 0x7F DUP3 AND SWAP2 POP JUMPDEST PUSH1 0x20 DUP3 LT DUP2 SUB PUSH2 0x1436 JUMPI PUSH2 0x1435 PUSH2 0x13DF JUMP JUMPDEST JUMPDEST POP SWAP2 SWAP1 POP JUMP JUMPDEST PUSH32 0x4E487B7100000000000000000000000000000000000000000000000000000000 PUSH0 MSTORE PUSH1 0x32 PUSH1 0x4 MSTORE PUSH1 0x24 PUSH0 REVERT JUMPDEST PUSH32 0x545745455420444F4553204E4F54204558495354000000000000000000000000 PUSH0 DUP3 ADD MSTORE POP JUMP JUMPDEST PUSH0 PUSH2 0x149D PUSH1 0x14 DUP4 PUSH2 0xE6E JUMP JUMPDEST SWAP2 POP PUSH2 0x14A8 DUP3 PUSH2 0x1469 JUMP JUMPDEST PUSH1 0x20 DUP3 ADD SWAP1 POP SWAP2 SWAP1 POP JUMP JUMPDEST PUSH0 PUSH1 0x20 DUP3 ADD SWAP1 POP DUP2 DUP2 SUB PUSH0 DUP4 ADD MSTORE PUSH2 0x14CA DUP2 PUSH2 0x1491 JUMP JUMPDEST SWAP1 POP SWAP2 SWAP1 POP JUMP JUMPDEST PUSH32 0x545745455420484153204E4F204C494B45530000000000000000000000000000 PUSH0 DUP3 ADD MSTORE POP JUMP JUMPDEST PUSH0 PUSH2 0x1505 PUSH1 0x12 DUP4 PUSH2 0xE6E JUMP JUMPDEST SWAP2 POP PUSH2 0x1510 DUP3 PUSH2 0x14D1 JUMP JUMPDEST PUSH1 0x20 DUP3 ADD SWAP1 POP SWAP2 SWAP1 POP JUMP JUMPDEST PUSH0 PUSH1 0x20 DUP3 ADD SWAP1 POP DUP2 DUP2 SUB PUSH0 DUP4 ADD MSTORE PUSH2 0x1532 DUP2 PUSH2 0x14F9 JUMP JUMPDEST SWAP1 POP SWAP2 SWAP1 POP JUMP JUMPDEST PUSH32 0x4E487B7100000000000000000000000000000000000000000000000000000000 PUSH0 MSTORE PUSH1 0x11 PUSH1 0x4 MSTORE PUSH1 0x24 PUSH0 REVERT JUMPDEST PUSH0 PUSH2 0x1570 DUP3 PUSH2 0xDD5 JUMP JUMPDEST SWAP2 POP PUSH0 DUP3 SUB PUSH2 0x1582 JUMPI PUSH2 0x1581 PUSH2 0x1539 JUMP JUMPDEST JUMPDEST PUSH1 0x1 DUP3 SUB SWAP1 POP SWAP2 SWAP1 POP JUMP JUMPDEST PUSH0 PUSH1 0x40 DUP3 ADD SWAP1 POP PUSH2 0x15A0 PUSH0 DUP4 ADD DUP6 PUSH2 0xE46 JUMP JUMPDEST PUSH2 0x15AD PUSH1 0x20 DUP4 ADD DUP5 PUSH2 0xE46 JUMP JUMPDEST SWAP4 SWAP3 POP POP POP JUMP JUMPDEST PUSH32 0x594F5520415245204E4F5420544845204F574E45522100000000000000000000 PUSH0 DUP3 ADD MSTORE POP JUMP JUMPDEST PUSH0 PUSH2 0x15E8 PUSH1 0x16 DUP4 PUSH2 0xE6E JUMP JUMPDEST SWAP2 POP PUSH2 0x15F3 DUP3 PUSH2 0x15B4 JUMP JUMPDEST PUSH1 0x20 DUP3 ADD SWAP1 POP SWAP2 SWAP1 POP JUMP JUMPDEST PUSH0 PUSH1 0x20 DUP3 ADD SWAP1 POP DUP2 DUP2 SUB PUSH0 DUP4 ADD MSTORE PUSH2 0x1615 DUP2 PUSH2 0x15DC JUMP JUMPDEST SWAP1 POP SWAP2 SWAP1 POP JUMP JUMPDEST PUSH0 PUSH2 0x1626 DUP3 PUSH2 0xDD5 JUMP JUMPDEST SWAP2 POP PUSH32 0xFFFFFFFFFFFFFFFFFFFFFFFFFFFFFFFFFFFFFFFFFFFFFFFFFFFFFFFFFFFFFFFF DUP3 SUB PUSH2 0x1658 JUMPI PUSH2 0x1657 PUSH2 0x1539 JUMP JUMPDEST JUMPDEST PUSH1 0x1 DUP3 ADD SWAP1 POP SWAP2 SWAP1 POP JUMP JUMPDEST PUSH32 0x547765657420697320746F6F206C6F6E672062726F2100000000000000000000 PUSH0 DUP3 ADD MSTORE POP JUMP JUMPDEST PUSH0 PUSH2 0x1697 PUSH1 0x16 DUP4 PUSH2 0xE6E JUMP JUMPDEST SWAP2 POP PUSH2 0x16A2 DUP3 PUSH2 0x1663 JUMP JUMPDEST PUSH1 0x20 DUP3 ADD SWAP1 POP SWAP2 SWAP1 POP JUMP JUMPDEST PUSH0 PUSH1 0x20 DUP3 ADD SWAP1 POP DUP2 DUP2 SUB PUSH0 DUP4 ADD MSTORE PUSH2 0x16C4 DUP2 PUSH2 0x168B JUMP JUMPDEST SWAP1 POP SWAP2 SWAP1 POP JUMP JUMPDEST PUSH0 DUP2 SWAP1 POP DUP2 PUSH0 MSTORE PUSH1 0x20 PUSH0 KECCAK256 SWAP1 POP SWAP2 SWAP1 POP JUMP JUMPDEST PUSH0 PUSH1 0x20 PUSH1 0x1F DUP4 ADD DIV SWAP1 POP SWAP2 SWAP1 POP JUMP JUMPDEST PUSH0 DUP3 DUP3 SHL SWAP1 POP SWAP3 SWAP2 POP POP JUMP JUMPDEST PUSH0 PUSH1 0x8 DUP4 MUL PUSH2 0x1727 PUSH32 0xFFFFFFFFFFFFFFFFFFFFFFFFFFFFFFFFFFFFFFFFFFFFFFFFFFFFFFFFFFFFFFFF DUP3 PUSH2 0x16EC JUMP JUMPDEST PUSH2 0x1731 DUP7 DUP4 PUSH2 0x16EC JUMP JUMPDEST SWAP6 POP DUP1 NOT DUP5 AND SWAP4 POP DUP1 DUP7 AND DUP5 OR SWAP3 POP POP POP SWAP4 SWAP3 POP POP POP JUMP JUMPDEST PUSH0 DUP2 SWAP1 POP SWAP2 SWAP1 POP JUMP JUMPDEST PUSH0 PUSH2 0x176C PUSH2 0x1767 PUSH2 0x1762 DUP5 PUSH2 0xDD5 JUMP JUMPDEST PUSH2 0x1749 JUMP JUMPDEST PUSH2 0xDD5 JUMP JUMPDEST SWAP1 POP SWAP2 SWAP1 POP JUMP JUMPDEST PUSH0 DUP2 SWAP1 POP SWAP2 SWAP1 POP JUMP JUMPDEST PUSH2 0x1785 DUP4 PUSH2 0x1752 JUMP JUMPDEST PUSH2 0x1799 PUSH2 0x1791 DUP3 PUSH2 0x1773 JUMP JUMPDEST DUP5 DUP5 SLOAD PUSH2 0x16F8 JUMP JUMPDEST DUP3 SSTORE POP POP POP POP JUMP JUMPDEST PUSH0 SWAP1 JUMP JUMPDEST PUSH2 0x17AD PUSH2 0x17A1 JUMP JUMPDEST PUSH2 0x17B8 DUP2 DUP5 DUP5 PUSH2 0x177C JUMP JUMPDEST POP POP POP JUMP JUMPDEST JUMPDEST DUP2 DUP2 LT ISZERO PUSH2 0x17DB JUMPI PUSH2 0x17D0 PUSH0 DUP3 PUSH2 0x17A5 JUMP JUMPDEST PUSH1 0x1 DUP2 ADD SWAP1 POP PUSH2 0x17BE JUMP JUMPDEST POP POP JUMP JUMPDEST PUSH1 0x1F DUP3 GT ISZERO PUSH2 0x1820 JUMPI PUSH2 0x17F1 DUP2 PUSH2 0x16CB JUMP JUMPDEST PUSH2 0x17FA DUP5 PUSH2 0x16DD JUMP JUMPDEST DUP2 ADD PUSH1 0x20 DUP6 LT ISZERO PUSH2 0x1809 JUMPI DUP2 SWAP1 POP JUMPDEST PUSH2 0x181D PUSH2 0x1815 DUP6 PUSH2 0x16DD JUMP JUMPDEST DUP4 ADD DUP3 PUSH2 0x17BD JUMP JUMPDEST POP POP JUMPDEST POP POP POP JUMP JUMPDEST PUSH0 DUP3 DUP3 SHR SWAP1 POP SWAP3 SWAP2 POP POP JUMP JUMPDEST PUSH0 PUSH2 0x1840 PUSH0 NOT DUP5 PUSH1 0x8 MUL PUSH2 0x1825 JUMP JUMPDEST NOT DUP1 DUP4 AND SWAP2 POP POP SWAP3 SWAP2 POP POP JUMP JUMPDEST PUSH0 PUSH2 0x1858 DUP4 DUP4 PUSH2 0x1831 JUMP JUMPDEST SWAP2 POP DUP3 PUSH1 0x2 MUL DUP3 OR SWAP1 POP SWAP3 SWAP2 POP POP JUMP JUMPDEST PUSH2 0x1871 DUP3 PUSH2 0xE64 JUMP JUMPDEST PUSH8 0xFFFFFFFFFFFFFFFF DUP2 GT ISZERO PUSH2 0x188A JUMPI PUSH2 0x1889 PUSH2 0x119D JUMP JUMPDEST JUMPDEST PUSH2 0x1894 DUP3 SLOAD PUSH2 0x140C JUMP JUMPDEST PUSH2 0x189F DUP3 DUP3 DUP6 PUSH2 0x17DF JUMP JUMPDEST PUSH0 PUSH1 0x20 SWAP1 POP PUSH1 0x1F DUP4 GT PUSH1 0x1 DUP2 EQ PUSH2 0x18D0 JUMPI PUSH0 DUP5 ISZERO PUSH2 0x18BE JUMPI DUP3 DUP8 ADD MLOAD SWAP1 POP JUMPDEST PUSH2 0x18C8 DUP6 DUP3 PUSH2 0x184D JUMP JUMPDEST DUP7 SSTORE POP PUSH2 0x192F JUMP JUMPDEST PUSH1 0x1F NOT DUP5 AND PUSH2 0x18DE DUP7 PUSH2 0x16CB JUMP JUMPDEST PUSH0 JUMPDEST DUP3 DUP2 LT ISZERO PUSH2 0x1905 JUMPI DUP5 DUP10 ADD MLOAD DUP3 SSTORE PUSH1 0x1 DUP3 ADD SWAP2 POP PUSH1 0x20 DUP6 ADD SWAP5 POP PUSH1 0x20 DUP2 ADD SWAP1 POP PUSH2 0x18E0 JUMP JUMPDEST DUP7 DUP4 LT ISZERO PUSH2 0x1922 JUMPI DUP5 DUP10 ADD MLOAD PUSH2 0x191E PUSH1 0x1F DUP10 AND DUP3 PUSH2 0x1831 JUMP JUMPDEST DUP4 SSTORE POP JUMPDEST PUSH1 0x1 PUSH1 0x2 DUP9 MUL ADD DUP9 SSTORE POP POP POP JUMPDEST POP POP POP POP POP POP JUMP JUMPDEST PUSH0 PUSH1 0x60 DUP3 ADD SWAP1 POP PUSH2 0x194A PUSH0 DUP4 ADD DUP7 PUSH2 0xE46 JUMP JUMPDEST DUP2 DUP2 SUB PUSH1 0x20 DUP4 ADD MSTORE PUSH2 0x195C DUP2 DUP6 PUSH2 0xE9C JUMP JUMPDEST SWAP1 POP PUSH2 0x196B PUSH1 0x40 DUP4 ADD DUP5 PUSH2 0xE46 JUMP JUMPDEST SWAP5 SWAP4 POP POP POP POP JUMP INVALID LOG2 PUSH5 0x6970667358 0x22 SLT KECCAK256 0x2B LOG3 0xC0 0x1F CODESIZE LOG1 SUB PUSH9 0x34A6C0075D9036EE6E PUSH31 0x4CF3A74C2F5559FCD56C284482CD64736F6C634300081A0033000000000000 "
				},
				"gasEstimates": {
					"creation": {
						"codeDepositCost": "1313800",
						"executionCost": "49898",
						"totalCost": "1363698"
					},
					"external": {
						"MAX_TWEET_LENGTH()": "2485",
						"changeTweetLength(uint16)": "26909",
						"createTweet(string)": "infinite",
						"getAllTweets(address)": "infinite",
						"getTweet(uint256)": "infinite",
						"likeTweet(address,uint256)": "infinite",
						"owner()": "2574",
						"tweets(address,uint256)": "infinite",
						"unlikeTweet(address,uint256)": "infinite"
					}
				},
				"methodIdentifiers": {
					"MAX_TWEET_LENGTH()": "6eb10797",
					"changeTweetLength(uint16)": "58bfa4ab",
					"createTweet(string)": "7c9cd2bc",
					"getAllTweets(address)": "12e7ee1c",
					"getTweet(uint256)": "c3ad5ecb",
					"likeTweet(address,uint256)": "63378216",
					"owner()": "8da5cb5b",
					"tweets(address,uint256)": "05a1b4a9",
					"unlikeTweet(address,uint256)": "3d9b569f"
				}
			},
			"storageLayout": {
				"storage": [
					{
						"astId": 4,
						"contract": "contracts/Twitter-AddEvent.sol:Twitter",
						"label": "MAX_TWEET_LENGTH",
						"offset": 0,
						"slot": "0",
						"type": "t_uint16"
					},
					{
						"astId": 21,
						"contract": "contracts/Twitter-AddEvent.sol:Twitter",
						"label": "tweets",
						"offset": 0,
						"slot": "1",
						"type": "t_mapping(t_address,t_array(t_struct(Tweet)15_storage)dyn_storage)"
					},
					{
						"astId": 23,
						"contract": "contracts/Twitter-AddEvent.sol:Twitter",
						"label": "owner",
						"offset": 0,
						"slot": "2",
						"type": "t_address"
					}
				],
				"types": {
					"t_address": {
						"encoding": "inplace",
						"label": "address",
						"numberOfBytes": "20"
					},
					"t_array(t_struct(Tweet)15_storage)dyn_storage": {
						"base": "t_struct(Tweet)15_storage",
						"encoding": "dynamic_array",
						"label": "struct Twitter.Tweet[]",
						"numberOfBytes": "32"
					},
					"t_mapping(t_address,t_array(t_struct(Tweet)15_storage)dyn_storage)": {
						"encoding": "mapping",
						"key": "t_address",
						"label": "mapping(address => struct Twitter.Tweet[])",
						"numberOfBytes": "32",
						"value": "t_array(t_struct(Tweet)15_storage)dyn_storage"
					},
					"t_string_storage": {
						"encoding": "bytes",
						"label": "string",
						"numberOfBytes": "32"
					},
					"t_struct(Tweet)15_storage": {
						"encoding": "inplace",
						"label": "struct Twitter.Tweet",
						"members": [
							{
								"astId": 6,
								"contract": "contracts/Twitter-AddEvent.sol:Twitter",
								"label": "id",
								"offset": 0,
								"slot": "0",
								"type": "t_uint256"
							},
							{
								"astId": 8,
								"contract": "contracts/Twitter-AddEvent.sol:Twitter",
								"label": "author",
								"offset": 0,
								"slot": "1",
								"type": "t_address"
							},
							{
								"astId": 10,
								"contract": "contracts/Twitter-AddEvent.sol:Twitter",
								"label": "content",
								"offset": 0,
								"slot": "2",
								"type": "t_string_storage"
							},
							{
								"astId": 12,
								"contract": "contracts/Twitter-AddEvent.sol:Twitter",
								"label": "timestamp",
								"offset": 0,
								"slot": "3",
								"type": "t_uint256"
							},
							{
								"astId": 14,
								"contract": "contracts/Twitter-AddEvent.sol:Twitter",
								"label": "likes",
								"offset": 0,
								"slot": "4",
								"type": "t_uint256"
							}
						],
						"numberOfBytes": "160"
					},
					"t_uint16": {
						"encoding": "inplace",
						"label": "uint16",
						"numberOfBytes": "2"
					},
					"t_uint256": {
						"encoding": "inplace",
						"label": "uint256",
						"numberOfBytes": "32"
					}
				}
			},
			"userdoc": {
				"kind": "user",
				"methods": {},
				"version": 1
			}
		}
	}
}