{
	"contracts/Twitter-Mod.sol": {
		"Twitter": {
			"abi": [
				{
					"inputs": [],
					"stateMutability": "nonpayable",
					"type": "constructor"
				},
				{
					"inputs": [],
					"name": "MAX_TWEET_LENGTH",
					"outputs": [
						{
							"internalType": "uint16",
							"name": "",
							"type": "uint16"
						}
					],
					"stateMutability": "view",
					"type": "function"
				},
				{
					"inputs": [
						{
							"internalType": "uint16",
							"name": "newTweetLenght",
							"type": "uint16"
						}
					],
					"name": "changeTweetLenght",
					"outputs": [],
					"stateMutability": "nonpayable",
					"type": "function"
				},
				{
					"inputs": [
						{
							"internalType": "string",
							"name": "_tweet",
							"type": "string"
						}
					],
					"name": "createTweet",
					"outputs": [],
					"stateMutability": "nonpayable",
					"type": "function"
				},
				{
					"inputs": [
						{
							"internalType": "address",
							"name": "_owner",
							"type": "address"
						}
					],
					"name": "getAllTweets",
					"outputs": [
						{
							"components": [
								{
									"internalType": "address",
									"name": "author",
									"type": "address"
								},
								{
									"internalType": "string",
									"name": "content",
									"type": "string"
								},
								{
									"internalType": "uint256",
									"name": "timestamp",
									"type": "uint256"
								},
								{
									"internalType": "uint256",
									"name": "likes",
									"type": "uint256"
								}
							],
							"internalType": "struct Twitter.Tweet[]",
							"name": "",
							"type": "tuple[]"
						}
					],
					"stateMutability": "view",
					"type": "function"
				},
				{
					"inputs": [
						{
							"internalType": "uint256",
							"name": "_i",
							"type": "uint256"
						}
					],
					"name": "getTweet",
					"outputs": [
						{
							"components": [
								{
									"internalType": "address",
									"name": "author",
									"type": "address"
								},
								{
									"internalType": "string",
									"name": "content",
									"type": "string"
								},
								{
									"internalType": "uint256",
									"name": "timestamp",
									"type": "uint256"
								},
								{
									"internalType": "uint256",
									"name": "likes",
									"type": "uint256"
								}
							],
							"internalType": "struct Twitter.Tweet",
							"name": "",
							"type": "tuple"
						}
					],
					"stateMutability": "view",
					"type": "function"
				},
				{
					"inputs": [],
					"name": "owner",
					"outputs": [
						{
							"internalType": "address",
							"name": "",
							"type": "address"
						}
					],
					"stateMutability": "view",
					"type": "function"
				},
				{
					"inputs": [
						{
							"internalType": "address",
							"name": "",
							"type": "address"
						},
						{
							"internalType": "uint256",
							"name": "",
							"type": "uint256"
						}
					],
					"name": "tweets",
					"outputs": [
						{
							"internalType": "address",
							"name": "author",
							"type": "address"
						},
						{
							"internalType": "string",
							"name": "content",
							"type": "string"
						},
						{
							"internalType": "uint256",
							"name": "timestamp",
							"type": "uint256"
						},
						{
							"internalType": "uint256",
							"name": "likes",
							"type": "uint256"
						}
					],
					"stateMutability": "view",
					"type": "function"
				}
			],
			"devdoc": {
				"kind": "dev",
				"methods": {},
				"version": 1
			},
			"evm": {
				"assembly": "    /* \"contracts/Twitter-Mod.sol\":361:1515  contract Twitter {... */\n  mstore(0x40, 0x80)\n    /* \"contracts/Twitter-Mod.sol\":418:421  280 */\n  0x0118\n    /* \"contracts/Twitter-Mod.sol\":385:421  uint16 public MAX_TWEET_LENGTH = 280 */\n  0x00\n  dup1\n  0x0100\n  exp\n  dup2\n  sload\n  dup2\n  0xffff\n  mul\n  not\n  and\n  swap1\n  dup4\n  0xffff\n  and\n  mul\n  or\n  swap1\n  sstore\n  pop\n    /* \"contracts/Twitter-Mod.sol\":626:675  constructor() {... */\n  callvalue\n  dup1\n  iszero\n  tag_1\n  jumpi\n  0x00\n  dup1\n  revert\ntag_1:\n  pop\n    /* \"contracts/Twitter-Mod.sol\":658:668  msg.sender */\n  caller\n    /* \"contracts/Twitter-Mod.sol\":650:655  owner */\n  0x02\n  0x00\n    /* \"contracts/Twitter-Mod.sol\":650:668  owner = msg.sender */\n  0x0100\n  exp\n  dup2\n  sload\n  dup2\n  0xffffffffffffffffffffffffffffffffffffffff\n  mul\n  not\n  and\n  swap1\n  dup4\n  0xffffffffffffffffffffffffffffffffffffffff\n  and\n  mul\n  or\n  swap1\n  sstore\n  pop\n    /* \"contracts/Twitter-Mod.sol\":361:1515  contract Twitter {... */\n  dataSize(sub_0)\n  dup1\n  dataOffset(sub_0)\n  0x00\n  codecopy\n  0x00\n  return\nstop\n\nsub_0: assembly {\n        /* \"contracts/Twitter-Mod.sol\":361:1515  contract Twitter {... */\n      mstore(0x40, 0x80)\n      callvalue\n      dup1\n      iszero\n      tag_1\n      jumpi\n      0x00\n      dup1\n      revert\n    tag_1:\n      pop\n      jumpi(tag_2, lt(calldatasize, 0x04))\n      shr(0xe0, calldataload(0x00))\n      dup1\n      0x7c9cd2bc\n      gt\n      tag_10\n      jumpi\n      dup1\n      0x7c9cd2bc\n      eq\n      tag_6\n      jumpi\n      dup1\n      0x8cde680b\n      eq\n      tag_7\n      jumpi\n      dup1\n      0x8da5cb5b\n      eq\n      tag_8\n      jumpi\n      dup1\n      0xc3ad5ecb\n      eq\n      tag_9\n      jumpi\n      jump(tag_2)\n    tag_10:\n      dup1\n      0x05a1b4a9\n      eq\n      tag_3\n      jumpi\n      dup1\n      0x12e7ee1c\n      eq\n      tag_4\n      jumpi\n      dup1\n      0x6eb10797\n      eq\n      tag_5\n      jumpi\n    tag_2:\n      0x00\n      dup1\n      revert\n        /* \"contracts/Twitter-Mod.sol\":551:593  mapping(address => Tweet[] ) public tweets */\n    tag_3:\n      tag_11\n      0x04\n      dup1\n      calldatasize\n      sub\n      dup2\n      add\n      swap1\n      tag_12\n      swap2\n      swap1\n      tag_13\n      jump\t// in\n    tag_12:\n      tag_14\n      jump\t// in\n    tag_11:\n      mload(0x40)\n      tag_15\n      swap5\n      swap4\n      swap3\n      swap2\n      swap1\n      tag_16\n      jump\t// in\n    tag_15:\n      mload(0x40)\n      dup1\n      swap2\n      sub\n      swap1\n      return\n        /* \"contracts/Twitter-Mod.sol\":1399:1512  function getAllTweets(address _owner) public view returns (Tweet[] memory ){... */\n    tag_4:\n      tag_17\n      0x04\n      dup1\n      calldatasize\n      sub\n      dup2\n      add\n      swap1\n      tag_18\n      swap2\n      swap1\n      tag_19\n      jump\t// in\n    tag_18:\n      tag_20\n      jump\t// in\n    tag_17:\n      mload(0x40)\n      tag_21\n      swap2\n      swap1\n      tag_22\n      jump\t// in\n    tag_21:\n      mload(0x40)\n      dup1\n      swap2\n      sub\n      swap1\n      return\n        /* \"contracts/Twitter-Mod.sol\":385:421  uint16 public MAX_TWEET_LENGTH = 280 */\n    tag_5:\n      tag_23\n      tag_24\n      jump\t// in\n    tag_23:\n      mload(0x40)\n      tag_25\n      swap2\n      swap1\n      tag_26\n      jump\t// in\n    tag_25:\n      mload(0x40)\n      dup1\n      swap2\n      sub\n      swap1\n      return\n        /* \"contracts/Twitter-Mod.sol\":916:1278  function createTweet(string memory _tweet) public {... */\n    tag_6:\n      tag_27\n      0x04\n      dup1\n      calldatasize\n      sub\n      dup2\n      add\n      swap1\n      tag_28\n      swap2\n      swap1\n      tag_29\n      jump\t// in\n    tag_28:\n      tag_30\n      jump\t// in\n    tag_27:\n      stop\n        /* \"contracts/Twitter-Mod.sol\":793:910  function changeTweetLenght(uint16 newTweetLenght) public onlyOwner {... */\n    tag_7:\n      tag_31\n      0x04\n      dup1\n      calldatasize\n      sub\n      dup2\n      add\n      swap1\n      tag_32\n      swap2\n      swap1\n      tag_33\n      jump\t// in\n    tag_32:\n      tag_34\n      jump\t// in\n    tag_31:\n      stop\n        /* \"contracts/Twitter-Mod.sol\":599:619  address public owner */\n    tag_8:\n      tag_35\n      tag_36\n      jump\t// in\n    tag_35:\n      mload(0x40)\n      tag_37\n      swap2\n      swap1\n      tag_38\n      jump\t// in\n    tag_37:\n      mload(0x40)\n      dup1\n      swap2\n      sub\n      swap1\n      return\n        /* \"contracts/Twitter-Mod.sol\":1284:1393  function getTweet( uint _i) public view returns (Tweet memory) {... */\n    tag_9:\n      tag_39\n      0x04\n      dup1\n      calldatasize\n      sub\n      dup2\n      add\n      swap1\n      tag_40\n      swap2\n      swap1\n      tag_41\n      jump\t// in\n    tag_40:\n      tag_42\n      jump\t// in\n    tag_39:\n      mload(0x40)\n      tag_43\n      swap2\n      swap1\n      tag_44\n      jump\t// in\n    tag_43:\n      mload(0x40)\n      dup1\n      swap2\n      sub\n      swap1\n      return\n        /* \"contracts/Twitter-Mod.sol\":551:593  mapping(address => Tweet[] ) public tweets */\n    tag_14:\n      mstore(0x20, 0x01)\n      dup2\n      0x00\n      mstore\n      keccak256(0x00, 0x40)\n      dup2\n      dup2\n      sload\n      dup2\n      lt\n      tag_45\n      jumpi\n      0x00\n      dup1\n      revert\n    tag_45:\n      swap1\n      0x00\n      mstore\n      keccak256(0x00, 0x20)\n      swap1\n      0x04\n      mul\n      add\n      0x00\n      swap2\n      pop\n      swap2\n      pop\n      pop\n      dup1\n      0x00\n      add\n      0x00\n      swap1\n      sload\n      swap1\n      0x0100\n      exp\n      swap1\n      div\n      0xffffffffffffffffffffffffffffffffffffffff\n      and\n      swap1\n      dup1\n      0x01\n      add\n      dup1\n      sload\n      tag_47\n      swap1\n      tag_48\n      jump\t// in\n    tag_47:\n      dup1\n      0x1f\n      add\n      0x20\n      dup1\n      swap2\n      div\n      mul\n      0x20\n      add\n      mload(0x40)\n      swap1\n      dup2\n      add\n      0x40\n      mstore\n      dup1\n      swap3\n      swap2\n      swap1\n      dup2\n      dup2\n      mstore\n      0x20\n      add\n      dup3\n      dup1\n      sload\n      tag_49\n      swap1\n      tag_48\n      jump\t// in\n    tag_49:\n      dup1\n      iszero\n      tag_50\n      jumpi\n      dup1\n      0x1f\n      lt\n      tag_51\n      jumpi\n      0x0100\n      dup1\n      dup4\n      sload\n      div\n      mul\n      dup4\n      mstore\n      swap2\n      0x20\n      add\n      swap2\n      jump(tag_50)\n    tag_51:\n      dup3\n      add\n      swap2\n      swap1\n      0x00\n      mstore\n      keccak256(0x00, 0x20)\n      swap1\n    tag_52:\n      dup2\n      sload\n      dup2\n      mstore\n      swap1\n      0x01\n      add\n      swap1\n      0x20\n      add\n      dup1\n      dup4\n      gt\n      tag_52\n      jumpi\n      dup3\n      swap1\n      sub\n      0x1f\n      and\n      dup3\n      add\n      swap2\n    tag_50:\n      pop\n      pop\n      pop\n      pop\n      pop\n      swap1\n      dup1\n      0x02\n      add\n      sload\n      swap1\n      dup1\n      0x03\n      add\n      sload\n      swap1\n      pop\n      dup5\n      jump\t// out\n        /* \"contracts/Twitter-Mod.sol\":1399:1512  function getAllTweets(address _owner) public view returns (Tweet[] memory ){... */\n    tag_20:\n        /* \"contracts/Twitter-Mod.sol\":1458:1472  Tweet[] memory */\n      0x60\n        /* \"contracts/Twitter-Mod.sol\":1491:1497  tweets */\n      0x01\n        /* \"contracts/Twitter-Mod.sol\":1491:1505  tweets[_owner] */\n      0x00\n        /* \"contracts/Twitter-Mod.sol\":1498:1504  _owner */\n      dup4\n        /* \"contracts/Twitter-Mod.sol\":1491:1505  tweets[_owner] */\n      0xffffffffffffffffffffffffffffffffffffffff\n      and\n      0xffffffffffffffffffffffffffffffffffffffff\n      and\n      dup2\n      mstore\n      0x20\n      add\n      swap1\n      dup2\n      mstore\n      0x20\n      add\n      0x00\n      keccak256\n        /* \"contracts/Twitter-Mod.sol\":1484:1505  return tweets[_owner] */\n      dup1\n      sload\n      dup1\n      0x20\n      mul\n      0x20\n      add\n      mload(0x40)\n      swap1\n      dup2\n      add\n      0x40\n      mstore\n      dup1\n      swap3\n      swap2\n      swap1\n      dup2\n      dup2\n      mstore\n      0x20\n      add\n      0x00\n      swap1\n    tag_54:\n      dup3\n      dup3\n      lt\n      iszero\n      tag_55\n      jumpi\n      dup4\n      dup3\n      swap1\n      0x00\n      mstore\n      keccak256(0x00, 0x20)\n      swap1\n      0x04\n      mul\n      add\n      mload(0x40)\n      dup1\n      0x80\n      add\n      0x40\n      mstore\n      swap1\n      dup2\n      0x00\n      dup3\n      add\n      0x00\n      swap1\n      sload\n      swap1\n      0x0100\n      exp\n      swap1\n      div\n      0xffffffffffffffffffffffffffffffffffffffff\n      and\n      0xffffffffffffffffffffffffffffffffffffffff\n      and\n      0xffffffffffffffffffffffffffffffffffffffff\n      and\n      dup2\n      mstore\n      0x20\n      add\n      0x01\n      dup3\n      add\n      dup1\n      sload\n      tag_57\n      swap1\n      tag_48\n      jump\t// in\n    tag_57:\n      dup1\n      0x1f\n      add\n      0x20\n      dup1\n      swap2\n      div\n      mul\n      0x20\n      add\n      mload(0x40)\n      swap1\n      dup2\n      add\n      0x40\n      mstore\n      dup1\n      swap3\n      swap2\n      swap1\n      dup2\n      dup2\n      mstore\n      0x20\n      add\n      dup3\n      dup1\n      sload\n      tag_58\n      swap1\n      tag_48\n      jump\t// in\n    tag_58:\n      dup1\n      iszero\n      tag_59\n      jumpi\n      dup1\n      0x1f\n      lt\n      tag_60\n      jumpi\n      0x0100\n      dup1\n      dup4\n      sload\n      div\n      mul\n      dup4\n      mstore\n      swap2\n      0x20\n      add\n      swap2\n      jump(tag_59)\n    tag_60:\n      dup3\n      add\n      swap2\n      swap1\n      0x00\n      mstore\n      keccak256(0x00, 0x20)\n      swap1\n    tag_61:\n      dup2\n      sload\n      dup2\n      mstore\n      swap1\n      0x01\n      add\n      swap1\n      0x20\n      add\n      dup1\n      dup4\n      gt\n      tag_61\n      jumpi\n      dup3\n      swap1\n      sub\n      0x1f\n      and\n      dup3\n      add\n      swap2\n    tag_59:\n      pop\n      pop\n      pop\n      pop\n      pop\n      dup2\n      mstore\n      0x20\n      add\n      0x02\n      dup3\n      add\n      sload\n      dup2\n      mstore\n      0x20\n      add\n      0x03\n      dup3\n      add\n      sload\n      dup2\n      mstore\n      pop\n      pop\n      dup2\n      mstore\n      0x20\n      add\n      swap1\n      0x01\n      add\n      swap1\n      jump(tag_54)\n    tag_55:\n      pop\n      pop\n      pop\n      pop\n      swap1\n      pop\n        /* \"contracts/Twitter-Mod.sol\":1399:1512  function getAllTweets(address _owner) public view returns (Tweet[] memory ){... */\n      swap2\n      swap1\n      pop\n      jump\t// out\n        /* \"contracts/Twitter-Mod.sol\":385:421  uint16 public MAX_TWEET_LENGTH = 280 */\n    tag_24:\n      0x00\n      dup1\n      sload\n      swap1\n      0x0100\n      exp\n      swap1\n      div\n      0xffff\n      and\n      dup2\n      jump\t// out\n        /* \"contracts/Twitter-Mod.sol\":916:1278  function createTweet(string memory _tweet) public {... */\n    tag_30:\n        /* \"contracts/Twitter-Mod.sol\":1008:1024  MAX_TWEET_LENGTH */\n      0x00\n      dup1\n      sload\n      swap1\n      0x0100\n      exp\n      swap1\n      div\n      0xffff\n      and\n        /* \"contracts/Twitter-Mod.sol\":984:1024  bytes(_tweet).length <= MAX_TWEET_LENGTH */\n      0xffff\n      and\n        /* \"contracts/Twitter-Mod.sol\":990:996  _tweet */\n      dup2\n        /* \"contracts/Twitter-Mod.sol\":984:1004  bytes(_tweet).length */\n      mload\n        /* \"contracts/Twitter-Mod.sol\":984:1024  bytes(_tweet).length <= MAX_TWEET_LENGTH */\n      gt\n      iszero\n        /* \"contracts/Twitter-Mod.sol\":976:1052  require(bytes(_tweet).length <= MAX_TWEET_LENGTH, \"Tweet is too long bro!\" ) */\n      tag_63\n      jumpi\n      mload(0x40)\n      0x08c379a000000000000000000000000000000000000000000000000000000000\n      dup2\n      mstore\n      0x04\n      add\n      tag_64\n      swap1\n      tag_65\n      jump\t// in\n    tag_64:\n      mload(0x40)\n      dup1\n      swap2\n      sub\n      swap1\n      revert\n    tag_63:\n        /* \"contracts/Twitter-Mod.sol\":1063:1084  Tweet memory newTweet */\n      0x00\n        /* \"contracts/Twitter-Mod.sol\":1087:1227  Tweet({... */\n      mload(0x40)\n      dup1\n      0x80\n      add\n      0x40\n      mstore\n      dup1\n        /* \"contracts/Twitter-Mod.sol\":1115:1125  msg.sender */\n      caller\n        /* \"contracts/Twitter-Mod.sol\":1087:1227  Tweet({... */\n      0xffffffffffffffffffffffffffffffffffffffff\n      and\n      dup2\n      mstore\n      0x20\n      add\n        /* \"contracts/Twitter-Mod.sol\":1148:1154  _tweet */\n      dup4\n        /* \"contracts/Twitter-Mod.sol\":1087:1227  Tweet({... */\n      dup2\n      mstore\n      0x20\n      add\n        /* \"contracts/Twitter-Mod.sol\":1179:1194  block.timestamp */\n      timestamp\n        /* \"contracts/Twitter-Mod.sol\":1087:1227  Tweet({... */\n      dup2\n      mstore\n      0x20\n      add\n        /* \"contracts/Twitter-Mod.sol\":1215:1216  0 */\n      0x00\n        /* \"contracts/Twitter-Mod.sol\":1087:1227  Tweet({... */\n      dup2\n      mstore\n      pop\n        /* \"contracts/Twitter-Mod.sol\":1063:1227  Tweet memory newTweet = Tweet({... */\n      swap1\n      pop\n        /* \"contracts/Twitter-Mod.sol\":1238:1244  tweets */\n      0x01\n        /* \"contracts/Twitter-Mod.sol\":1238:1256  tweets[msg.sender] */\n      0x00\n        /* \"contracts/Twitter-Mod.sol\":1245:1255  msg.sender */\n      caller\n        /* \"contracts/Twitter-Mod.sol\":1238:1256  tweets[msg.sender] */\n      0xffffffffffffffffffffffffffffffffffffffff\n      and\n      0xffffffffffffffffffffffffffffffffffffffff\n      and\n      dup2\n      mstore\n      0x20\n      add\n      swap1\n      dup2\n      mstore\n      0x20\n      add\n      0x00\n      keccak256\n        /* \"contracts/Twitter-Mod.sol\":1262:1270  newTweet */\n      dup2\n        /* \"contracts/Twitter-Mod.sol\":1238:1271  tweets[msg.sender].push(newTweet) */\n      swap1\n      dup1\n      0x01\n      dup2\n      sload\n      add\n      dup1\n      dup3\n      sstore\n      dup1\n      swap2\n      pop\n      pop\n      0x01\n      swap1\n      sub\n      swap1\n      0x00\n      mstore\n      keccak256(0x00, 0x20)\n      swap1\n      0x04\n      mul\n      add\n      0x00\n      swap1\n      swap2\n      swap1\n      swap2\n      swap1\n      swap2\n      pop\n      0x00\n      dup3\n      add\n      mload\n      dup2\n      0x00\n      add\n      exp(0x0100, 0x00)\n      dup2\n      sload\n      dup2\n      0xffffffffffffffffffffffffffffffffffffffff\n      mul\n      not\n      and\n      swap1\n      dup4\n      0xffffffffffffffffffffffffffffffffffffffff\n      and\n      mul\n      or\n      swap1\n      sstore\n      pop\n      0x20\n      dup3\n      add\n      mload\n      dup2\n      0x01\n      add\n      swap1\n      dup2\n      tag_67\n      swap2\n      swap1\n      tag_68\n      jump\t// in\n    tag_67:\n      pop\n      0x40\n      dup3\n      add\n      mload\n      dup2\n      0x02\n      add\n      sstore\n      0x60\n      dup3\n      add\n      mload\n      dup2\n      0x03\n      add\n      sstore\n      pop\n      pop\n        /* \"contracts/Twitter-Mod.sol\":966:1278  {... */\n      pop\n        /* \"contracts/Twitter-Mod.sol\":916:1278  function createTweet(string memory _tweet) public {... */\n      pop\n      jump\t// out\n        /* \"contracts/Twitter-Mod.sol\":793:910  function changeTweetLenght(uint16 newTweetLenght) public onlyOwner {... */\n    tag_34:\n        /* \"contracts/Twitter-Mod.sol\":733:738  owner */\n      0x02\n      0x00\n      swap1\n      sload\n      swap1\n      0x0100\n      exp\n      swap1\n      div\n      0xffffffffffffffffffffffffffffffffffffffff\n      and\n        /* \"contracts/Twitter-Mod.sol\":719:738  msg.sender == owner */\n      0xffffffffffffffffffffffffffffffffffffffff\n      and\n        /* \"contracts/Twitter-Mod.sol\":719:729  msg.sender */\n      caller\n        /* \"contracts/Twitter-Mod.sol\":719:738  msg.sender == owner */\n      0xffffffffffffffffffffffffffffffffffffffff\n      and\n      eq\n        /* \"contracts/Twitter-Mod.sol\":711:769  require(msg.sender == owner, \"Can only be used by owner!\") */\n      tag_70\n      jumpi\n      mload(0x40)\n      0x08c379a000000000000000000000000000000000000000000000000000000000\n      dup2\n      mstore\n      0x04\n      add\n      tag_71\n      swap1\n      tag_72\n      jump\t// in\n    tag_71:\n      mload(0x40)\n      dup1\n      swap2\n      sub\n      swap1\n      revert\n    tag_70:\n        /* \"contracts/Twitter-Mod.sol\":889:903  newTweetLenght */\n      dup1\n        /* \"contracts/Twitter-Mod.sol\":870:886  MAX_TWEET_LENGTH */\n      0x00\n      dup1\n        /* \"contracts/Twitter-Mod.sol\":870:903  MAX_TWEET_LENGTH = newTweetLenght */\n      0x0100\n      exp\n      dup2\n      sload\n      dup2\n      0xffff\n      mul\n      not\n      and\n      swap1\n      dup4\n      0xffff\n      and\n      mul\n      or\n      swap1\n      sstore\n      pop\n        /* \"contracts/Twitter-Mod.sol\":793:910  function changeTweetLenght(uint16 newTweetLenght) public onlyOwner {... */\n      pop\n      jump\t// out\n        /* \"contracts/Twitter-Mod.sol\":599:619  address public owner */\n    tag_36:\n      0x02\n      0x00\n      swap1\n      sload\n      swap1\n      0x0100\n      exp\n      swap1\n      div\n      0xffffffffffffffffffffffffffffffffffffffff\n      and\n      dup2\n      jump\t// out\n        /* \"contracts/Twitter-Mod.sol\":1284:1393  function getTweet( uint _i) public view returns (Tweet memory) {... */\n    tag_42:\n        /* \"contracts/Twitter-Mod.sol\":1333:1345  Tweet memory */\n      tag_74\n      tag_75\n      jump\t// in\n    tag_74:\n        /* \"contracts/Twitter-Mod.sol\":1364:1370  tweets */\n      0x01\n        /* \"contracts/Twitter-Mod.sol\":1364:1382  tweets[msg.sender] */\n      0x00\n        /* \"contracts/Twitter-Mod.sol\":1371:1381  msg.sender */\n      caller\n        /* \"contracts/Twitter-Mod.sol\":1364:1382  tweets[msg.sender] */\n      0xffffffffffffffffffffffffffffffffffffffff\n      and\n      0xffffffffffffffffffffffffffffffffffffffff\n      and\n      dup2\n      mstore\n      0x20\n      add\n      swap1\n      dup2\n      mstore\n      0x20\n      add\n      0x00\n      keccak256\n        /* \"contracts/Twitter-Mod.sol\":1383:1385  _i */\n      dup3\n        /* \"contracts/Twitter-Mod.sol\":1364:1386  tweets[msg.sender][_i] */\n      dup2\n      sload\n      dup2\n      lt\n      tag_77\n      jumpi\n      tag_78\n      tag_79\n      jump\t// in\n    tag_78:\n    tag_77:\n      swap1\n      0x00\n      mstore\n      keccak256(0x00, 0x20)\n      swap1\n      0x04\n      mul\n      add\n        /* \"contracts/Twitter-Mod.sol\":1357:1386  return tweets[msg.sender][_i] */\n      mload(0x40)\n      dup1\n      0x80\n      add\n      0x40\n      mstore\n      swap1\n      dup2\n      0x00\n      dup3\n      add\n      0x00\n      swap1\n      sload\n      swap1\n      0x0100\n      exp\n      swap1\n      div\n      0xffffffffffffffffffffffffffffffffffffffff\n      and\n      0xffffffffffffffffffffffffffffffffffffffff\n      and\n      0xffffffffffffffffffffffffffffffffffffffff\n      and\n      dup2\n      mstore\n      0x20\n      add\n      0x01\n      dup3\n      add\n      dup1\n      sload\n      tag_81\n      swap1\n      tag_48\n      jump\t// in\n    tag_81:\n      dup1\n      0x1f\n      add\n      0x20\n      dup1\n      swap2\n      div\n      mul\n      0x20\n      add\n      mload(0x40)\n      swap1\n      dup2\n      add\n      0x40\n      mstore\n      dup1\n      swap3\n      swap2\n      swap1\n      dup2\n      dup2\n      mstore\n      0x20\n      add\n      dup3\n      dup1\n      sload\n      tag_82\n      swap1\n      tag_48\n      jump\t// in\n    tag_82:\n      dup1\n      iszero\n      tag_83\n      jumpi\n      dup1\n      0x1f\n      lt\n      tag_84\n      jumpi\n      0x0100\n      dup1\n      dup4\n      sload\n      div\n      mul\n      dup4\n      mstore\n      swap2\n      0x20\n      add\n      swap2\n      jump(tag_83)\n    tag_84:\n      dup3\n      add\n      swap2\n      swap1\n      0x00\n      mstore\n      keccak256(0x00, 0x20)\n      swap1\n    tag_85:\n      dup2\n      sload\n      dup2\n      mstore\n      swap1\n      0x01\n      add\n      swap1\n      0x20\n      add\n      dup1\n      dup4\n      gt\n      tag_85\n      jumpi\n      dup3\n      swap1\n      sub\n      0x1f\n      and\n      dup3\n      add\n      swap2\n    tag_83:\n      pop\n      pop\n      pop\n      pop\n      pop\n      dup2\n      mstore\n      0x20\n      add\n      0x02\n      dup3\n      add\n      sload\n      dup2\n      mstore\n      0x20\n      add\n      0x03\n      dup3\n      add\n      sload\n      dup2\n      mstore\n      pop\n      pop\n      swap1\n      pop\n        /* \"contracts/Twitter-Mod.sol\":1284:1393  function getTweet( uint _i) public view returns (Tweet memory) {... */\n      swap2\n      swap1\n      pop\n      jump\t// out\n    tag_75:\n      mload(0x40)\n      dup1\n      0x80\n      add\n      0x40\n      mstore\n      dup1\n      and(0xffffffffffffffffffffffffffffffffffffffff, 0x00)\n      dup2\n      mstore\n      0x20\n      add\n      0x60\n      dup2\n      mstore\n      0x20\n      add\n      0x00\n      dup2\n      mstore\n      0x20\n      add\n      0x00\n      dup2\n      mstore\n      pop\n      swap1\n      jump\t// out\n        /* \"#utility.yul\":7:82   */\n    tag_86:\n        /* \"#utility.yul\":40:46   */\n      0x00\n        /* \"#utility.yul\":73:75   */\n      0x40\n        /* \"#utility.yul\":67:76   */\n      mload\n        /* \"#utility.yul\":57:76   */\n      swap1\n      pop\n        /* \"#utility.yul\":7:82   */\n      swap1\n      jump\t// out\n        /* \"#utility.yul\":88:205   */\n    tag_87:\n        /* \"#utility.yul\":197:198   */\n      0x00\n        /* \"#utility.yul\":194:195   */\n      dup1\n        /* \"#utility.yul\":187:199   */\n      revert\n        /* \"#utility.yul\":211:328   */\n    tag_88:\n        /* \"#utility.yul\":320:321   */\n      0x00\n        /* \"#utility.yul\":317:318   */\n      dup1\n        /* \"#utility.yul\":310:322   */\n      revert\n        /* \"#utility.yul\":334:460   */\n    tag_89:\n        /* \"#utility.yul\":371:378   */\n      0x00\n        /* \"#utility.yul\":411:453   */\n      0xffffffffffffffffffffffffffffffffffffffff\n        /* \"#utility.yul\":404:409   */\n      dup3\n        /* \"#utility.yul\":400:454   */\n      and\n        /* \"#utility.yul\":389:454   */\n      swap1\n      pop\n        /* \"#utility.yul\":334:460   */\n      swap2\n      swap1\n      pop\n      jump\t// out\n        /* \"#utility.yul\":466:562   */\n    tag_90:\n        /* \"#utility.yul\":503:510   */\n      0x00\n        /* \"#utility.yul\":532:556   */\n      tag_154\n        /* \"#utility.yul\":550:555   */\n      dup3\n        /* \"#utility.yul\":532:556   */\n      tag_89\n      jump\t// in\n    tag_154:\n        /* \"#utility.yul\":521:556   */\n      swap1\n      pop\n        /* \"#utility.yul\":466:562   */\n      swap2\n      swap1\n      pop\n      jump\t// out\n        /* \"#utility.yul\":568:690   */\n    tag_91:\n        /* \"#utility.yul\":641:665   */\n      tag_156\n        /* \"#utility.yul\":659:664   */\n      dup2\n        /* \"#utility.yul\":641:665   */\n      tag_90\n      jump\t// in\n    tag_156:\n        /* \"#utility.yul\":634:639   */\n      dup2\n        /* \"#utility.yul\":631:666   */\n      eq\n        /* \"#utility.yul\":621:684   */\n      tag_157\n      jumpi\n        /* \"#utility.yul\":680:681   */\n      0x00\n        /* \"#utility.yul\":677:678   */\n      dup1\n        /* \"#utility.yul\":670:682   */\n      revert\n        /* \"#utility.yul\":621:684   */\n    tag_157:\n        /* \"#utility.yul\":568:690   */\n      pop\n      jump\t// out\n        /* \"#utility.yul\":696:835   */\n    tag_92:\n        /* \"#utility.yul\":742:747   */\n      0x00\n        /* \"#utility.yul\":780:786   */\n      dup2\n        /* \"#utility.yul\":767:787   */\n      calldataload\n        /* \"#utility.yul\":758:787   */\n      swap1\n      pop\n        /* \"#utility.yul\":796:829   */\n      tag_159\n        /* \"#utility.yul\":823:828   */\n      dup2\n        /* \"#utility.yul\":796:829   */\n      tag_91\n      jump\t// in\n    tag_159:\n        /* \"#utility.yul\":696:835   */\n      swap3\n      swap2\n      pop\n      pop\n      jump\t// out\n        /* \"#utility.yul\":841:918   */\n    tag_93:\n        /* \"#utility.yul\":878:885   */\n      0x00\n        /* \"#utility.yul\":907:912   */\n      dup2\n        /* \"#utility.yul\":896:912   */\n      swap1\n      pop\n        /* \"#utility.yul\":841:918   */\n      swap2\n      swap1\n      pop\n      jump\t// out\n        /* \"#utility.yul\":924:1046   */\n    tag_94:\n        /* \"#utility.yul\":997:1021   */\n      tag_162\n        /* \"#utility.yul\":1015:1020   */\n      dup2\n        /* \"#utility.yul\":997:1021   */\n      tag_93\n      jump\t// in\n    tag_162:\n        /* \"#utility.yul\":990:995   */\n      dup2\n        /* \"#utility.yul\":987:1022   */\n      eq\n        /* \"#utility.yul\":977:1040   */\n      tag_163\n      jumpi\n        /* \"#utility.yul\":1036:1037   */\n      0x00\n        /* \"#utility.yul\":1033:1034   */\n      dup1\n        /* \"#utility.yul\":1026:1038   */\n      revert\n        /* \"#utility.yul\":977:1040   */\n    tag_163:\n        /* \"#utility.yul\":924:1046   */\n      pop\n      jump\t// out\n        /* \"#utility.yul\":1052:1191   */\n    tag_95:\n        /* \"#utility.yul\":1098:1103   */\n      0x00\n        /* \"#utility.yul\":1136:1142   */\n      dup2\n        /* \"#utility.yul\":1123:1143   */\n      calldataload\n        /* \"#utility.yul\":1114:1143   */\n      swap1\n      pop\n        /* \"#utility.yul\":1152:1185   */\n      tag_165\n        /* \"#utility.yul\":1179:1184   */\n      dup2\n        /* \"#utility.yul\":1152:1185   */\n      tag_94\n      jump\t// in\n    tag_165:\n        /* \"#utility.yul\":1052:1191   */\n      swap3\n      swap2\n      pop\n      pop\n      jump\t// out\n        /* \"#utility.yul\":1197:1671   */\n    tag_13:\n        /* \"#utility.yul\":1265:1271   */\n      0x00\n        /* \"#utility.yul\":1273:1279   */\n      dup1\n        /* \"#utility.yul\":1322:1324   */\n      0x40\n        /* \"#utility.yul\":1310:1319   */\n      dup4\n        /* \"#utility.yul\":1301:1308   */\n      dup6\n        /* \"#utility.yul\":1297:1320   */\n      sub\n        /* \"#utility.yul\":1293:1325   */\n      slt\n        /* \"#utility.yul\":1290:1409   */\n      iszero\n      tag_167\n      jumpi\n        /* \"#utility.yul\":1328:1407   */\n      tag_168\n      tag_87\n      jump\t// in\n    tag_168:\n        /* \"#utility.yul\":1290:1409   */\n    tag_167:\n        /* \"#utility.yul\":1448:1449   */\n      0x00\n        /* \"#utility.yul\":1473:1526   */\n      tag_169\n        /* \"#utility.yul\":1518:1525   */\n      dup6\n        /* \"#utility.yul\":1509:1515   */\n      dup3\n        /* \"#utility.yul\":1498:1507   */\n      dup7\n        /* \"#utility.yul\":1494:1516   */\n      add\n        /* \"#utility.yul\":1473:1526   */\n      tag_92\n      jump\t// in\n    tag_169:\n        /* \"#utility.yul\":1463:1526   */\n      swap3\n      pop\n        /* \"#utility.yul\":1419:1536   */\n      pop\n        /* \"#utility.yul\":1575:1577   */\n      0x20\n        /* \"#utility.yul\":1601:1654   */\n      tag_170\n        /* \"#utility.yul\":1646:1653   */\n      dup6\n        /* \"#utility.yul\":1637:1643   */\n      dup3\n        /* \"#utility.yul\":1626:1635   */\n      dup7\n        /* \"#utility.yul\":1622:1644   */\n      add\n        /* \"#utility.yul\":1601:1654   */\n      tag_95\n      jump\t// in\n    tag_170:\n        /* \"#utility.yul\":1591:1654   */\n      swap2\n      pop\n        /* \"#utility.yul\":1546:1664   */\n      pop\n        /* \"#utility.yul\":1197:1671   */\n      swap3\n      pop\n      swap3\n      swap1\n      pop\n      jump\t// out\n        /* \"#utility.yul\":1677:1795   */\n    tag_96:\n        /* \"#utility.yul\":1764:1788   */\n      tag_172\n        /* \"#utility.yul\":1782:1787   */\n      dup2\n        /* \"#utility.yul\":1764:1788   */\n      tag_90\n      jump\t// in\n    tag_172:\n        /* \"#utility.yul\":1759:1762   */\n      dup3\n        /* \"#utility.yul\":1752:1789   */\n      mstore\n        /* \"#utility.yul\":1677:1795   */\n      pop\n      pop\n      jump\t// out\n        /* \"#utility.yul\":1801:1900   */\n    tag_97:\n        /* \"#utility.yul\":1853:1859   */\n      0x00\n        /* \"#utility.yul\":1887:1892   */\n      dup2\n        /* \"#utility.yul\":1881:1893   */\n      mload\n        /* \"#utility.yul\":1871:1893   */\n      swap1\n      pop\n        /* \"#utility.yul\":1801:1900   */\n      swap2\n      swap1\n      pop\n      jump\t// out\n        /* \"#utility.yul\":1906:2075   */\n    tag_98:\n        /* \"#utility.yul\":1990:2001   */\n      0x00\n        /* \"#utility.yul\":2024:2030   */\n      dup3\n        /* \"#utility.yul\":2019:2022   */\n      dup3\n        /* \"#utility.yul\":2012:2031   */\n      mstore\n        /* \"#utility.yul\":2064:2068   */\n      0x20\n        /* \"#utility.yul\":2059:2062   */\n      dup3\n        /* \"#utility.yul\":2055:2069   */\n      add\n        /* \"#utility.yul\":2040:2069   */\n      swap1\n      pop\n        /* \"#utility.yul\":1906:2075   */\n      swap3\n      swap2\n      pop\n      pop\n      jump\t// out\n        /* \"#utility.yul\":2081:2220   */\n    tag_99:\n        /* \"#utility.yul\":2170:2176   */\n      dup3\n        /* \"#utility.yul\":2165:2168   */\n      dup2\n        /* \"#utility.yul\":2160:2163   */\n      dup4\n        /* \"#utility.yul\":2154:2177   */\n      mcopy\n        /* \"#utility.yul\":2211:2212   */\n      0x00\n        /* \"#utility.yul\":2202:2208   */\n      dup4\n        /* \"#utility.yul\":2197:2200   */\n      dup4\n        /* \"#utility.yul\":2193:2209   */\n      add\n        /* \"#utility.yul\":2186:2213   */\n      mstore\n        /* \"#utility.yul\":2081:2220   */\n      pop\n      pop\n      pop\n      jump\t// out\n        /* \"#utility.yul\":2226:2328   */\n    tag_100:\n        /* \"#utility.yul\":2267:2273   */\n      0x00\n        /* \"#utility.yul\":2318:2320   */\n      0x1f\n        /* \"#utility.yul\":2314:2321   */\n      not\n        /* \"#utility.yul\":2309:2311   */\n      0x1f\n        /* \"#utility.yul\":2302:2307   */\n      dup4\n        /* \"#utility.yul\":2298:2312   */\n      add\n        /* \"#utility.yul\":2294:2322   */\n      and\n        /* \"#utility.yul\":2284:2322   */\n      swap1\n      pop\n        /* \"#utility.yul\":2226:2328   */\n      swap2\n      swap1\n      pop\n      jump\t// out\n        /* \"#utility.yul\":2334:2711   */\n    tag_101:\n        /* \"#utility.yul\":2422:2425   */\n      0x00\n        /* \"#utility.yul\":2450:2489   */\n      tag_178\n        /* \"#utility.yul\":2483:2488   */\n      dup3\n        /* \"#utility.yul\":2450:2489   */\n      tag_97\n      jump\t// in\n    tag_178:\n        /* \"#utility.yul\":2505:2576   */\n      tag_179\n        /* \"#utility.yul\":2569:2575   */\n      dup2\n        /* \"#utility.yul\":2564:2567   */\n      dup6\n        /* \"#utility.yul\":2505:2576   */\n      tag_98\n      jump\t// in\n    tag_179:\n        /* \"#utility.yul\":2498:2576   */\n      swap4\n      pop\n        /* \"#utility.yul\":2585:2650   */\n      tag_180\n        /* \"#utility.yul\":2643:2649   */\n      dup2\n        /* \"#utility.yul\":2638:2641   */\n      dup6\n        /* \"#utility.yul\":2631:2635   */\n      0x20\n        /* \"#utility.yul\":2624:2629   */\n      dup7\n        /* \"#utility.yul\":2620:2636   */\n      add\n        /* \"#utility.yul\":2585:2650   */\n      tag_99\n      jump\t// in\n    tag_180:\n        /* \"#utility.yul\":2675:2704   */\n      tag_181\n        /* \"#utility.yul\":2697:2703   */\n      dup2\n        /* \"#utility.yul\":2675:2704   */\n      tag_100\n      jump\t// in\n    tag_181:\n        /* \"#utility.yul\":2670:2673   */\n      dup5\n        /* \"#utility.yul\":2666:2705   */\n      add\n        /* \"#utility.yul\":2659:2705   */\n      swap2\n      pop\n        /* \"#utility.yul\":2426:2711   */\n      pop\n        /* \"#utility.yul\":2334:2711   */\n      swap3\n      swap2\n      pop\n      pop\n      jump\t// out\n        /* \"#utility.yul\":2717:2835   */\n    tag_102:\n        /* \"#utility.yul\":2804:2828   */\n      tag_183\n        /* \"#utility.yul\":2822:2827   */\n      dup2\n        /* \"#utility.yul\":2804:2828   */\n      tag_93\n      jump\t// in\n    tag_183:\n        /* \"#utility.yul\":2799:2802   */\n      dup3\n        /* \"#utility.yul\":2792:2829   */\n      mstore\n        /* \"#utility.yul\":2717:2835   */\n      pop\n      pop\n      jump\t// out\n        /* \"#utility.yul\":2841:3485   */\n    tag_16:\n        /* \"#utility.yul\":3038:3042   */\n      0x00\n        /* \"#utility.yul\":3076:3079   */\n      0x80\n        /* \"#utility.yul\":3065:3074   */\n      dup3\n        /* \"#utility.yul\":3061:3080   */\n      add\n        /* \"#utility.yul\":3053:3080   */\n      swap1\n      pop\n        /* \"#utility.yul\":3090:3161   */\n      tag_185\n        /* \"#utility.yul\":3158:3159   */\n      0x00\n        /* \"#utility.yul\":3147:3156   */\n      dup4\n        /* \"#utility.yul\":3143:3160   */\n      add\n        /* \"#utility.yul\":3134:3140   */\n      dup8\n        /* \"#utility.yul\":3090:3161   */\n      tag_96\n      jump\t// in\n    tag_185:\n        /* \"#utility.yul\":3208:3217   */\n      dup2\n        /* \"#utility.yul\":3202:3206   */\n      dup2\n        /* \"#utility.yul\":3198:3218   */\n      sub\n        /* \"#utility.yul\":3193:3195   */\n      0x20\n        /* \"#utility.yul\":3182:3191   */\n      dup4\n        /* \"#utility.yul\":3178:3196   */\n      add\n        /* \"#utility.yul\":3171:3219   */\n      mstore\n        /* \"#utility.yul\":3236:3314   */\n      tag_186\n        /* \"#utility.yul\":3309:3313   */\n      dup2\n        /* \"#utility.yul\":3300:3306   */\n      dup7\n        /* \"#utility.yul\":3236:3314   */\n      tag_101\n      jump\t// in\n    tag_186:\n        /* \"#utility.yul\":3228:3314   */\n      swap1\n      pop\n        /* \"#utility.yul\":3324:3396   */\n      tag_187\n        /* \"#utility.yul\":3392:3394   */\n      0x40\n        /* \"#utility.yul\":3381:3390   */\n      dup4\n        /* \"#utility.yul\":3377:3395   */\n      add\n        /* \"#utility.yul\":3368:3374   */\n      dup6\n        /* \"#utility.yul\":3324:3396   */\n      tag_102\n      jump\t// in\n    tag_187:\n        /* \"#utility.yul\":3406:3478   */\n      tag_188\n        /* \"#utility.yul\":3474:3476   */\n      0x60\n        /* \"#utility.yul\":3463:3472   */\n      dup4\n        /* \"#utility.yul\":3459:3477   */\n      add\n        /* \"#utility.yul\":3450:3456   */\n      dup5\n        /* \"#utility.yul\":3406:3478   */\n      tag_102\n      jump\t// in\n    tag_188:\n        /* \"#utility.yul\":2841:3485   */\n      swap6\n      swap5\n      pop\n      pop\n      pop\n      pop\n      pop\n      jump\t// out\n        /* \"#utility.yul\":3491:3820   */\n    tag_19:\n        /* \"#utility.yul\":3550:3556   */\n      0x00\n        /* \"#utility.yul\":3599:3601   */\n      0x20\n        /* \"#utility.yul\":3587:3596   */\n      dup3\n        /* \"#utility.yul\":3578:3585   */\n      dup5\n        /* \"#utility.yul\":3574:3597   */\n      sub\n        /* \"#utility.yul\":3570:3602   */\n      slt\n        /* \"#utility.yul\":3567:3686   */\n      iszero\n      tag_190\n      jumpi\n        /* \"#utility.yul\":3605:3684   */\n      tag_191\n      tag_87\n      jump\t// in\n    tag_191:\n        /* \"#utility.yul\":3567:3686   */\n    tag_190:\n        /* \"#utility.yul\":3725:3726   */\n      0x00\n        /* \"#utility.yul\":3750:3803   */\n      tag_192\n        /* \"#utility.yul\":3795:3802   */\n      dup5\n        /* \"#utility.yul\":3786:3792   */\n      dup3\n        /* \"#utility.yul\":3775:3784   */\n      dup6\n        /* \"#utility.yul\":3771:3793   */\n      add\n        /* \"#utility.yul\":3750:3803   */\n      tag_92\n      jump\t// in\n    tag_192:\n        /* \"#utility.yul\":3740:3803   */\n      swap2\n      pop\n        /* \"#utility.yul\":3696:3813   */\n      pop\n        /* \"#utility.yul\":3491:3820   */\n      swap3\n      swap2\n      pop\n      pop\n      jump\t// out\n        /* \"#utility.yul\":3826:3961   */\n    tag_103:\n        /* \"#utility.yul\":3914:3920   */\n      0x00\n        /* \"#utility.yul\":3948:3953   */\n      dup2\n        /* \"#utility.yul\":3942:3954   */\n      mload\n        /* \"#utility.yul\":3932:3954   */\n      swap1\n      pop\n        /* \"#utility.yul\":3826:3961   */\n      swap2\n      swap1\n      pop\n      jump\t// out\n        /* \"#utility.yul\":3967:4172   */\n    tag_104:\n        /* \"#utility.yul\":4087:4098   */\n      0x00\n        /* \"#utility.yul\":4121:4127   */\n      dup3\n        /* \"#utility.yul\":4116:4119   */\n      dup3\n        /* \"#utility.yul\":4109:4128   */\n      mstore\n        /* \"#utility.yul\":4161:4165   */\n      0x20\n        /* \"#utility.yul\":4156:4159   */\n      dup3\n        /* \"#utility.yul\":4152:4166   */\n      add\n        /* \"#utility.yul\":4137:4166   */\n      swap1\n      pop\n        /* \"#utility.yul\":3967:4172   */\n      swap3\n      swap2\n      pop\n      pop\n      jump\t// out\n        /* \"#utility.yul\":4178:4331   */\n    tag_105:\n        /* \"#utility.yul\":4266:4270   */\n      0x00\n        /* \"#utility.yul\":4289:4292   */\n      dup2\n        /* \"#utility.yul\":4281:4292   */\n      swap1\n      pop\n        /* \"#utility.yul\":4319:4323   */\n      0x20\n        /* \"#utility.yul\":4314:4317   */\n      dup3\n        /* \"#utility.yul\":4310:4324   */\n      add\n        /* \"#utility.yul\":4302:4324   */\n      swap1\n      pop\n        /* \"#utility.yul\":4178:4331   */\n      swap2\n      swap1\n      pop\n      jump\t// out\n        /* \"#utility.yul\":4337:4445   */\n    tag_106:\n        /* \"#utility.yul\":4414:4438   */\n      tag_197\n        /* \"#utility.yul\":4432:4437   */\n      dup2\n        /* \"#utility.yul\":4414:4438   */\n      tag_90\n      jump\t// in\n    tag_197:\n        /* \"#utility.yul\":4409:4412   */\n      dup3\n        /* \"#utility.yul\":4402:4439   */\n      mstore\n        /* \"#utility.yul\":4337:4445   */\n      pop\n      pop\n      jump\t// out\n        /* \"#utility.yul\":4451:4610   */\n    tag_107:\n        /* \"#utility.yul\":4525:4536   */\n      0x00\n        /* \"#utility.yul\":4559:4565   */\n      dup3\n        /* \"#utility.yul\":4554:4557   */\n      dup3\n        /* \"#utility.yul\":4547:4566   */\n      mstore\n        /* \"#utility.yul\":4599:4603   */\n      0x20\n        /* \"#utility.yul\":4594:4597   */\n      dup3\n        /* \"#utility.yul\":4590:4604   */\n      add\n        /* \"#utility.yul\":4575:4604   */\n      swap1\n      pop\n        /* \"#utility.yul\":4451:4610   */\n      swap3\n      swap2\n      pop\n      pop\n      jump\t// out\n        /* \"#utility.yul\":4616:4973   */\n    tag_108:\n        /* \"#utility.yul\":4694:4697   */\n      0x00\n        /* \"#utility.yul\":4722:4761   */\n      tag_200\n        /* \"#utility.yul\":4755:4760   */\n      dup3\n        /* \"#utility.yul\":4722:4761   */\n      tag_97\n      jump\t// in\n    tag_200:\n        /* \"#utility.yul\":4777:4838   */\n      tag_201\n        /* \"#utility.yul\":4831:4837   */\n      dup2\n        /* \"#utility.yul\":4826:4829   */\n      dup6\n        /* \"#utility.yul\":4777:4838   */\n      tag_107\n      jump\t// in\n    tag_201:\n        /* \"#utility.yul\":4770:4838   */\n      swap4\n      pop\n        /* \"#utility.yul\":4847:4912   */\n      tag_202\n        /* \"#utility.yul\":4905:4911   */\n      dup2\n        /* \"#utility.yul\":4900:4903   */\n      dup6\n        /* \"#utility.yul\":4893:4897   */\n      0x20\n        /* \"#utility.yul\":4886:4891   */\n      dup7\n        /* \"#utility.yul\":4882:4898   */\n      add\n        /* \"#utility.yul\":4847:4912   */\n      tag_99\n      jump\t// in\n    tag_202:\n        /* \"#utility.yul\":4937:4966   */\n      tag_203\n        /* \"#utility.yul\":4959:4965   */\n      dup2\n        /* \"#utility.yul\":4937:4966   */\n      tag_100\n      jump\t// in\n    tag_203:\n        /* \"#utility.yul\":4932:4935   */\n      dup5\n        /* \"#utility.yul\":4928:4967   */\n      add\n        /* \"#utility.yul\":4921:4967   */\n      swap2\n      pop\n        /* \"#utility.yul\":4698:4973   */\n      pop\n        /* \"#utility.yul\":4616:4973   */\n      swap3\n      swap2\n      pop\n      pop\n      jump\t// out\n        /* \"#utility.yul\":4979:5087   */\n    tag_109:\n        /* \"#utility.yul\":5056:5080   */\n      tag_205\n        /* \"#utility.yul\":5074:5079   */\n      dup2\n        /* \"#utility.yul\":5056:5080   */\n      tag_93\n      jump\t// in\n    tag_205:\n        /* \"#utility.yul\":5051:5054   */\n      dup3\n        /* \"#utility.yul\":5044:5081   */\n      mstore\n        /* \"#utility.yul\":4979:5087   */\n      pop\n      pop\n      jump\t// out\n        /* \"#utility.yul\":5145:6092   */\n    tag_110:\n        /* \"#utility.yul\":5246:5249   */\n      0x00\n        /* \"#utility.yul\":5282:5286   */\n      0x80\n        /* \"#utility.yul\":5277:5280   */\n      dup4\n        /* \"#utility.yul\":5273:5287   */\n      add\n        /* \"#utility.yul\":5371:5375   */\n      0x00\n        /* \"#utility.yul\":5364:5369   */\n      dup4\n        /* \"#utility.yul\":5360:5376   */\n      add\n        /* \"#utility.yul\":5354:5377   */\n      mload\n        /* \"#utility.yul\":5390:5453   */\n      tag_207\n        /* \"#utility.yul\":5447:5451   */\n      0x00\n        /* \"#utility.yul\":5442:5445   */\n      dup7\n        /* \"#utility.yul\":5438:5452   */\n      add\n        /* \"#utility.yul\":5424:5436   */\n      dup3\n        /* \"#utility.yul\":5390:5453   */\n      tag_106\n      jump\t// in\n    tag_207:\n        /* \"#utility.yul\":5297:5463   */\n      pop\n        /* \"#utility.yul\":5548:5552   */\n      0x20\n        /* \"#utility.yul\":5541:5546   */\n      dup4\n        /* \"#utility.yul\":5537:5553   */\n      add\n        /* \"#utility.yul\":5531:5554   */\n      mload\n        /* \"#utility.yul\":5601:5604   */\n      dup5\n        /* \"#utility.yul\":5595:5599   */\n      dup3\n        /* \"#utility.yul\":5591:5605   */\n      sub\n        /* \"#utility.yul\":5584:5588   */\n      0x20\n        /* \"#utility.yul\":5579:5582   */\n      dup7\n        /* \"#utility.yul\":5575:5589   */\n      add\n        /* \"#utility.yul\":5568:5606   */\n      mstore\n        /* \"#utility.yul\":5627:5700   */\n      tag_208\n        /* \"#utility.yul\":5695:5699   */\n      dup3\n        /* \"#utility.yul\":5681:5693   */\n      dup3\n        /* \"#utility.yul\":5627:5700   */\n      tag_108\n      jump\t// in\n    tag_208:\n        /* \"#utility.yul\":5619:5700   */\n      swap2\n      pop\n        /* \"#utility.yul\":5473:5711   */\n      pop\n        /* \"#utility.yul\":5798:5802   */\n      0x40\n        /* \"#utility.yul\":5791:5796   */\n      dup4\n        /* \"#utility.yul\":5787:5803   */\n      add\n        /* \"#utility.yul\":5781:5804   */\n      mload\n        /* \"#utility.yul\":5817:5880   */\n      tag_209\n        /* \"#utility.yul\":5874:5878   */\n      0x40\n        /* \"#utility.yul\":5869:5872   */\n      dup7\n        /* \"#utility.yul\":5865:5879   */\n      add\n        /* \"#utility.yul\":5851:5863   */\n      dup3\n        /* \"#utility.yul\":5817:5880   */\n      tag_109\n      jump\t// in\n    tag_209:\n        /* \"#utility.yul\":5721:5890   */\n      pop\n        /* \"#utility.yul\":5973:5977   */\n      0x60\n        /* \"#utility.yul\":5966:5971   */\n      dup4\n        /* \"#utility.yul\":5962:5978   */\n      add\n        /* \"#utility.yul\":5956:5979   */\n      mload\n        /* \"#utility.yul\":5992:6055   */\n      tag_210\n        /* \"#utility.yul\":6049:6053   */\n      0x60\n        /* \"#utility.yul\":6044:6047   */\n      dup7\n        /* \"#utility.yul\":6040:6054   */\n      add\n        /* \"#utility.yul\":6026:6038   */\n      dup3\n        /* \"#utility.yul\":5992:6055   */\n      tag_109\n      jump\t// in\n    tag_210:\n        /* \"#utility.yul\":5900:6065   */\n      pop\n        /* \"#utility.yul\":6082:6086   */\n      dup1\n        /* \"#utility.yul\":6075:6086   */\n      swap2\n      pop\n        /* \"#utility.yul\":5251:6092   */\n      pop\n        /* \"#utility.yul\":5145:6092   */\n      swap3\n      swap2\n      pop\n      pop\n      jump\t// out\n        /* \"#utility.yul\":6098:6338   */\n    tag_111:\n        /* \"#utility.yul\":6209:6219   */\n      0x00\n        /* \"#utility.yul\":6244:6332   */\n      tag_212\n        /* \"#utility.yul\":6328:6331   */\n      dup4\n        /* \"#utility.yul\":6320:6326   */\n      dup4\n        /* \"#utility.yul\":6244:6332   */\n      tag_110\n      jump\t// in\n    tag_212:\n        /* \"#utility.yul\":6230:6332   */\n      swap1\n      pop\n        /* \"#utility.yul\":6098:6338   */\n      swap3\n      swap2\n      pop\n      pop\n      jump\t// out\n        /* \"#utility.yul\":6344:6478   */\n    tag_112:\n        /* \"#utility.yul\":6435:6439   */\n      0x00\n        /* \"#utility.yul\":6467:6471   */\n      0x20\n        /* \"#utility.yul\":6462:6465   */\n      dup3\n        /* \"#utility.yul\":6458:6472   */\n      add\n        /* \"#utility.yul\":6450:6472   */\n      swap1\n      pop\n        /* \"#utility.yul\":6344:6478   */\n      swap2\n      swap1\n      pop\n      jump\t// out\n        /* \"#utility.yul\":6540:7619   */\n    tag_113:\n        /* \"#utility.yul\":6701:6704   */\n      0x00\n        /* \"#utility.yul\":6730:6805   */\n      tag_215\n        /* \"#utility.yul\":6799:6804   */\n      dup3\n        /* \"#utility.yul\":6730:6805   */\n      tag_103\n      jump\t// in\n    tag_215:\n        /* \"#utility.yul\":6821:6928   */\n      tag_216\n        /* \"#utility.yul\":6921:6927   */\n      dup2\n        /* \"#utility.yul\":6916:6919   */\n      dup6\n        /* \"#utility.yul\":6821:6928   */\n      tag_104\n      jump\t// in\n    tag_216:\n        /* \"#utility.yul\":6814:6928   */\n      swap4\n      pop\n        /* \"#utility.yul\":6954:6957   */\n      dup4\n        /* \"#utility.yul\":6999:7003   */\n      0x20\n        /* \"#utility.yul\":6991:6997   */\n      dup3\n        /* \"#utility.yul\":6987:7004   */\n      mul\n        /* \"#utility.yul\":6982:6985   */\n      dup6\n        /* \"#utility.yul\":6978:7005   */\n      add\n        /* \"#utility.yul\":7029:7106   */\n      tag_217\n        /* \"#utility.yul\":7100:7105   */\n      dup6\n        /* \"#utility.yul\":7029:7106   */\n      tag_105\n      jump\t// in\n    tag_217:\n        /* \"#utility.yul\":7129:7136   */\n      dup1\n        /* \"#utility.yul\":7160:7161   */\n      0x00\n        /* \"#utility.yul\":7145:7574   */\n    tag_218:\n        /* \"#utility.yul\":7170:7176   */\n      dup6\n        /* \"#utility.yul\":7167:7168   */\n      dup2\n        /* \"#utility.yul\":7164:7177   */\n      lt\n        /* \"#utility.yul\":7145:7574   */\n      iszero\n      tag_220\n      jumpi\n        /* \"#utility.yul\":7241:7250   */\n      dup5\n        /* \"#utility.yul\":7235:7239   */\n      dup5\n        /* \"#utility.yul\":7231:7251   */\n      sub\n        /* \"#utility.yul\":7226:7229   */\n      dup10\n        /* \"#utility.yul\":7219:7252   */\n      mstore\n        /* \"#utility.yul\":7292:7298   */\n      dup2\n        /* \"#utility.yul\":7286:7299   */\n      mload\n        /* \"#utility.yul\":7320:7426   */\n      tag_221\n        /* \"#utility.yul\":7421:7425   */\n      dup6\n        /* \"#utility.yul\":7406:7419   */\n      dup3\n        /* \"#utility.yul\":7320:7426   */\n      tag_111\n      jump\t// in\n    tag_221:\n        /* \"#utility.yul\":7312:7426   */\n      swap5\n      pop\n        /* \"#utility.yul\":7449:7530   */\n      tag_222\n        /* \"#utility.yul\":7523:7529   */\n      dup4\n        /* \"#utility.yul\":7449:7530   */\n      tag_112\n      jump\t// in\n    tag_222:\n        /* \"#utility.yul\":7439:7530   */\n      swap3\n      pop\n        /* \"#utility.yul\":7559:7563   */\n      0x20\n        /* \"#utility.yul\":7554:7557   */\n      dup11\n        /* \"#utility.yul\":7550:7564   */\n      add\n        /* \"#utility.yul\":7543:7564   */\n      swap10\n      pop\n        /* \"#utility.yul\":7205:7574   */\n      pop\n        /* \"#utility.yul\":7192:7193   */\n      0x01\n        /* \"#utility.yul\":7189:7190   */\n      dup2\n        /* \"#utility.yul\":7185:7194   */\n      add\n        /* \"#utility.yul\":7180:7194   */\n      swap1\n      pop\n        /* \"#utility.yul\":7145:7574   */\n      jump(tag_218)\n    tag_220:\n        /* \"#utility.yul\":7149:7163   */\n      pop\n        /* \"#utility.yul\":7590:7594   */\n      dup3\n        /* \"#utility.yul\":7583:7594   */\n      swap8\n      pop\n        /* \"#utility.yul\":7610:7613   */\n      dup8\n        /* \"#utility.yul\":7603:7613   */\n      swap6\n      pop\n        /* \"#utility.yul\":6706:7619   */\n      pop\n      pop\n      pop\n      pop\n      pop\n        /* \"#utility.yul\":6540:7619   */\n      swap3\n      swap2\n      pop\n      pop\n      jump\t// out\n        /* \"#utility.yul\":7625:8082   */\n    tag_22:\n        /* \"#utility.yul\":7810:7814   */\n      0x00\n        /* \"#utility.yul\":7848:7850   */\n      0x20\n        /* \"#utility.yul\":7837:7846   */\n      dup3\n        /* \"#utility.yul\":7833:7851   */\n      add\n        /* \"#utility.yul\":7825:7851   */\n      swap1\n      pop\n        /* \"#utility.yul\":7897:7906   */\n      dup2\n        /* \"#utility.yul\":7891:7895   */\n      dup2\n        /* \"#utility.yul\":7887:7907   */\n      sub\n        /* \"#utility.yul\":7883:7884   */\n      0x00\n        /* \"#utility.yul\":7872:7881   */\n      dup4\n        /* \"#utility.yul\":7868:7885   */\n      add\n        /* \"#utility.yul\":7861:7908   */\n      mstore\n        /* \"#utility.yul\":7925:8075   */\n      tag_224\n        /* \"#utility.yul\":8070:8074   */\n      dup2\n        /* \"#utility.yul\":8061:8067   */\n      dup5\n        /* \"#utility.yul\":7925:8075   */\n      tag_113\n      jump\t// in\n    tag_224:\n        /* \"#utility.yul\":7917:8075   */\n      swap1\n      pop\n        /* \"#utility.yul\":7625:8082   */\n      swap3\n      swap2\n      pop\n      pop\n      jump\t// out\n        /* \"#utility.yul\":8088:8177   */\n    tag_114:\n        /* \"#utility.yul\":8124:8131   */\n      0x00\n        /* \"#utility.yul\":8164:8170   */\n      0xffff\n        /* \"#utility.yul\":8157:8162   */\n      dup3\n        /* \"#utility.yul\":8153:8171   */\n      and\n        /* \"#utility.yul\":8142:8171   */\n      swap1\n      pop\n        /* \"#utility.yul\":8088:8177   */\n      swap2\n      swap1\n      pop\n      jump\t// out\n        /* \"#utility.yul\":8183:8298   */\n    tag_115:\n        /* \"#utility.yul\":8268:8291   */\n      tag_227\n        /* \"#utility.yul\":8285:8290   */\n      dup2\n        /* \"#utility.yul\":8268:8291   */\n      tag_114\n      jump\t// in\n    tag_227:\n        /* \"#utility.yul\":8263:8266   */\n      dup3\n        /* \"#utility.yul\":8256:8292   */\n      mstore\n        /* \"#utility.yul\":8183:8298   */\n      pop\n      pop\n      jump\t// out\n        /* \"#utility.yul\":8304:8522   */\n    tag_26:\n        /* \"#utility.yul\":8395:8399   */\n      0x00\n        /* \"#utility.yul\":8433:8435   */\n      0x20\n        /* \"#utility.yul\":8422:8431   */\n      dup3\n        /* \"#utility.yul\":8418:8436   */\n      add\n        /* \"#utility.yul\":8410:8436   */\n      swap1\n      pop\n        /* \"#utility.yul\":8446:8515   */\n      tag_229\n        /* \"#utility.yul\":8512:8513   */\n      0x00\n        /* \"#utility.yul\":8501:8510   */\n      dup4\n        /* \"#utility.yul\":8497:8514   */\n      add\n        /* \"#utility.yul\":8488:8494   */\n      dup5\n        /* \"#utility.yul\":8446:8515   */\n      tag_115\n      jump\t// in\n    tag_229:\n        /* \"#utility.yul\":8304:8522   */\n      swap3\n      swap2\n      pop\n      pop\n      jump\t// out\n        /* \"#utility.yul\":8528:8645   */\n    tag_116:\n        /* \"#utility.yul\":8637:8638   */\n      0x00\n        /* \"#utility.yul\":8634:8635   */\n      dup1\n        /* \"#utility.yul\":8627:8639   */\n      revert\n        /* \"#utility.yul\":8651:8768   */\n    tag_117:\n        /* \"#utility.yul\":8760:8761   */\n      0x00\n        /* \"#utility.yul\":8757:8758   */\n      dup1\n        /* \"#utility.yul\":8750:8762   */\n      revert\n        /* \"#utility.yul\":8774:8954   */\n    tag_118:\n        /* \"#utility.yul\":8822:8899   */\n      0x4e487b7100000000000000000000000000000000000000000000000000000000\n        /* \"#utility.yul\":8819:8820   */\n      0x00\n        /* \"#utility.yul\":8812:8900   */\n      mstore\n        /* \"#utility.yul\":8919:8923   */\n      0x41\n        /* \"#utility.yul\":8916:8917   */\n      0x04\n        /* \"#utility.yul\":8909:8924   */\n      mstore\n        /* \"#utility.yul\":8943:8947   */\n      0x24\n        /* \"#utility.yul\":8940:8941   */\n      0x00\n        /* \"#utility.yul\":8933:8948   */\n      revert\n        /* \"#utility.yul\":8960:9241   */\n    tag_119:\n        /* \"#utility.yul\":9043:9070   */\n      tag_234\n        /* \"#utility.yul\":9065:9069   */\n      dup3\n        /* \"#utility.yul\":9043:9070   */\n      tag_100\n      jump\t// in\n    tag_234:\n        /* \"#utility.yul\":9035:9041   */\n      dup2\n        /* \"#utility.yul\":9031:9071   */\n      add\n        /* \"#utility.yul\":9173:9179   */\n      dup2\n        /* \"#utility.yul\":9161:9171   */\n      dup2\n        /* \"#utility.yul\":9158:9180   */\n      lt\n        /* \"#utility.yul\":9137:9155   */\n      0xffffffffffffffff\n        /* \"#utility.yul\":9125:9135   */\n      dup3\n        /* \"#utility.yul\":9122:9156   */\n      gt\n        /* \"#utility.yul\":9119:9181   */\n      or\n        /* \"#utility.yul\":9116:9204   */\n      iszero\n      tag_235\n      jumpi\n        /* \"#utility.yul\":9184:9202   */\n      tag_236\n      tag_118\n      jump\t// in\n    tag_236:\n        /* \"#utility.yul\":9116:9204   */\n    tag_235:\n        /* \"#utility.yul\":9224:9234   */\n      dup1\n        /* \"#utility.yul\":9220:9222   */\n      0x40\n        /* \"#utility.yul\":9213:9235   */\n      mstore\n        /* \"#utility.yul\":9003:9241   */\n      pop\n        /* \"#utility.yul\":8960:9241   */\n      pop\n      pop\n      jump\t// out\n        /* \"#utility.yul\":9247:9376   */\n    tag_120:\n        /* \"#utility.yul\":9281:9287   */\n      0x00\n        /* \"#utility.yul\":9308:9328   */\n      tag_238\n      tag_86\n      jump\t// in\n    tag_238:\n        /* \"#utility.yul\":9298:9328   */\n      swap1\n      pop\n        /* \"#utility.yul\":9337:9370   */\n      tag_239\n        /* \"#utility.yul\":9365:9369   */\n      dup3\n        /* \"#utility.yul\":9357:9363   */\n      dup3\n        /* \"#utility.yul\":9337:9370   */\n      tag_119\n      jump\t// in\n    tag_239:\n        /* \"#utility.yul\":9247:9376   */\n      swap2\n      swap1\n      pop\n      jump\t// out\n        /* \"#utility.yul\":9382:9690   */\n    tag_121:\n        /* \"#utility.yul\":9444:9448   */\n      0x00\n        /* \"#utility.yul\":9534:9552   */\n      0xffffffffffffffff\n        /* \"#utility.yul\":9526:9532   */\n      dup3\n        /* \"#utility.yul\":9523:9553   */\n      gt\n        /* \"#utility.yul\":9520:9576   */\n      iszero\n      tag_241\n      jumpi\n        /* \"#utility.yul\":9556:9574   */\n      tag_242\n      tag_118\n      jump\t// in\n    tag_242:\n        /* \"#utility.yul\":9520:9576   */\n    tag_241:\n        /* \"#utility.yul\":9594:9623   */\n      tag_243\n        /* \"#utility.yul\":9616:9622   */\n      dup3\n        /* \"#utility.yul\":9594:9623   */\n      tag_100\n      jump\t// in\n    tag_243:\n        /* \"#utility.yul\":9586:9623   */\n      swap1\n      pop\n        /* \"#utility.yul\":9678:9682   */\n      0x20\n        /* \"#utility.yul\":9672:9676   */\n      dup2\n        /* \"#utility.yul\":9668:9683   */\n      add\n        /* \"#utility.yul\":9660:9683   */\n      swap1\n      pop\n        /* \"#utility.yul\":9382:9690   */\n      swap2\n      swap1\n      pop\n      jump\t// out\n        /* \"#utility.yul\":9696:9844   */\n    tag_122:\n        /* \"#utility.yul\":9794:9800   */\n      dup3\n        /* \"#utility.yul\":9789:9792   */\n      dup2\n        /* \"#utility.yul\":9784:9787   */\n      dup4\n        /* \"#utility.yul\":9771:9801   */\n      calldatacopy\n        /* \"#utility.yul\":9835:9836   */\n      0x00\n        /* \"#utility.yul\":9826:9832   */\n      dup4\n        /* \"#utility.yul\":9821:9824   */\n      dup4\n        /* \"#utility.yul\":9817:9833   */\n      add\n        /* \"#utility.yul\":9810:9837   */\n      mstore\n        /* \"#utility.yul\":9696:9844   */\n      pop\n      pop\n      pop\n      jump\t// out\n        /* \"#utility.yul\":9850:10275   */\n    tag_123:\n        /* \"#utility.yul\":9928:9933   */\n      0x00\n        /* \"#utility.yul\":9953:10019   */\n      tag_246\n        /* \"#utility.yul\":9969:10018   */\n      tag_247\n        /* \"#utility.yul\":10011:10017   */\n      dup5\n        /* \"#utility.yul\":9969:10018   */\n      tag_121\n      jump\t// in\n    tag_247:\n        /* \"#utility.yul\":9953:10019   */\n      tag_120\n      jump\t// in\n    tag_246:\n        /* \"#utility.yul\":9944:10019   */\n      swap1\n      pop\n        /* \"#utility.yul\":10042:10048   */\n      dup3\n        /* \"#utility.yul\":10035:10040   */\n      dup2\n        /* \"#utility.yul\":10028:10049   */\n      mstore\n        /* \"#utility.yul\":10080:10084   */\n      0x20\n        /* \"#utility.yul\":10073:10078   */\n      dup2\n        /* \"#utility.yul\":10069:10085   */\n      add\n        /* \"#utility.yul\":10118:10121   */\n      dup5\n        /* \"#utility.yul\":10109:10115   */\n      dup5\n        /* \"#utility.yul\":10104:10107   */\n      dup5\n        /* \"#utility.yul\":10100:10116   */\n      add\n        /* \"#utility.yul\":10097:10122   */\n      gt\n        /* \"#utility.yul\":10094:10206   */\n      iszero\n      tag_248\n      jumpi\n        /* \"#utility.yul\":10125:10204   */\n      tag_249\n      tag_117\n      jump\t// in\n    tag_249:\n        /* \"#utility.yul\":10094:10206   */\n    tag_248:\n        /* \"#utility.yul\":10215:10269   */\n      tag_250\n        /* \"#utility.yul\":10262:10268   */\n      dup5\n        /* \"#utility.yul\":10257:10260   */\n      dup3\n        /* \"#utility.yul\":10252:10255   */\n      dup6\n        /* \"#utility.yul\":10215:10269   */\n      tag_122\n      jump\t// in\n    tag_250:\n        /* \"#utility.yul\":9934:10275   */\n      pop\n        /* \"#utility.yul\":9850:10275   */\n      swap4\n      swap3\n      pop\n      pop\n      pop\n      jump\t// out\n        /* \"#utility.yul\":10295:10635   */\n    tag_124:\n        /* \"#utility.yul\":10351:10356   */\n      0x00\n        /* \"#utility.yul\":10400:10403   */\n      dup3\n        /* \"#utility.yul\":10393:10397   */\n      0x1f\n        /* \"#utility.yul\":10385:10391   */\n      dup4\n        /* \"#utility.yul\":10381:10398   */\n      add\n        /* \"#utility.yul\":10377:10404   */\n      slt\n        /* \"#utility.yul\":10367:10489   */\n      tag_252\n      jumpi\n        /* \"#utility.yul\":10408:10487   */\n      tag_253\n      tag_116\n      jump\t// in\n    tag_253:\n        /* \"#utility.yul\":10367:10489   */\n    tag_252:\n        /* \"#utility.yul\":10525:10531   */\n      dup2\n        /* \"#utility.yul\":10512:10532   */\n      calldataload\n        /* \"#utility.yul\":10550:10629   */\n      tag_254\n        /* \"#utility.yul\":10625:10628   */\n      dup5\n        /* \"#utility.yul\":10617:10623   */\n      dup3\n        /* \"#utility.yul\":10610:10614   */\n      0x20\n        /* \"#utility.yul\":10602:10608   */\n      dup7\n        /* \"#utility.yul\":10598:10615   */\n      add\n        /* \"#utility.yul\":10550:10629   */\n      tag_123\n      jump\t// in\n    tag_254:\n        /* \"#utility.yul\":10541:10629   */\n      swap2\n      pop\n        /* \"#utility.yul\":10357:10635   */\n      pop\n        /* \"#utility.yul\":10295:10635   */\n      swap3\n      swap2\n      pop\n      pop\n      jump\t// out\n        /* \"#utility.yul\":10641:11150   */\n    tag_29:\n        /* \"#utility.yul\":10710:10716   */\n      0x00\n        /* \"#utility.yul\":10759:10761   */\n      0x20\n        /* \"#utility.yul\":10747:10756   */\n      dup3\n        /* \"#utility.yul\":10738:10745   */\n      dup5\n        /* \"#utility.yul\":10734:10757   */\n      sub\n        /* \"#utility.yul\":10730:10762   */\n      slt\n        /* \"#utility.yul\":10727:10846   */\n      iszero\n      tag_256\n      jumpi\n        /* \"#utility.yul\":10765:10844   */\n      tag_257\n      tag_87\n      jump\t// in\n    tag_257:\n        /* \"#utility.yul\":10727:10846   */\n    tag_256:\n        /* \"#utility.yul\":10913:10914   */\n      0x00\n        /* \"#utility.yul\":10902:10911   */\n      dup3\n        /* \"#utility.yul\":10898:10915   */\n      add\n        /* \"#utility.yul\":10885:10916   */\n      calldataload\n        /* \"#utility.yul\":10943:10961   */\n      0xffffffffffffffff\n        /* \"#utility.yul\":10935:10941   */\n      dup2\n        /* \"#utility.yul\":10932:10962   */\n      gt\n        /* \"#utility.yul\":10929:11046   */\n      iszero\n      tag_258\n      jumpi\n        /* \"#utility.yul\":10965:11044   */\n      tag_259\n      tag_88\n      jump\t// in\n    tag_259:\n        /* \"#utility.yul\":10929:11046   */\n    tag_258:\n        /* \"#utility.yul\":11070:11133   */\n      tag_260\n        /* \"#utility.yul\":11125:11132   */\n      dup5\n        /* \"#utility.yul\":11116:11122   */\n      dup3\n        /* \"#utility.yul\":11105:11114   */\n      dup6\n        /* \"#utility.yul\":11101:11123   */\n      add\n        /* \"#utility.yul\":11070:11133   */\n      tag_124\n      jump\t// in\n    tag_260:\n        /* \"#utility.yul\":11060:11133   */\n      swap2\n      pop\n        /* \"#utility.yul\":10856:11143   */\n      pop\n        /* \"#utility.yul\":10641:11150   */\n      swap3\n      swap2\n      pop\n      pop\n      jump\t// out\n        /* \"#utility.yul\":11156:11276   */\n    tag_125:\n        /* \"#utility.yul\":11228:11251   */\n      tag_262\n        /* \"#utility.yul\":11245:11250   */\n      dup2\n        /* \"#utility.yul\":11228:11251   */\n      tag_114\n      jump\t// in\n    tag_262:\n        /* \"#utility.yul\":11221:11226   */\n      dup2\n        /* \"#utility.yul\":11218:11252   */\n      eq\n        /* \"#utility.yul\":11208:11270   */\n      tag_263\n      jumpi\n        /* \"#utility.yul\":11266:11267   */\n      0x00\n        /* \"#utility.yul\":11263:11264   */\n      dup1\n        /* \"#utility.yul\":11256:11268   */\n      revert\n        /* \"#utility.yul\":11208:11270   */\n    tag_263:\n        /* \"#utility.yul\":11156:11276   */\n      pop\n      jump\t// out\n        /* \"#utility.yul\":11282:11419   */\n    tag_126:\n        /* \"#utility.yul\":11327:11332   */\n      0x00\n        /* \"#utility.yul\":11365:11371   */\n      dup2\n        /* \"#utility.yul\":11352:11372   */\n      calldataload\n        /* \"#utility.yul\":11343:11372   */\n      swap1\n      pop\n        /* \"#utility.yul\":11381:11413   */\n      tag_265\n        /* \"#utility.yul\":11407:11412   */\n      dup2\n        /* \"#utility.yul\":11381:11413   */\n      tag_125\n      jump\t// in\n    tag_265:\n        /* \"#utility.yul\":11282:11419   */\n      swap3\n      swap2\n      pop\n      pop\n      jump\t// out\n        /* \"#utility.yul\":11425:11752   */\n    tag_33:\n        /* \"#utility.yul\":11483:11489   */\n      0x00\n        /* \"#utility.yul\":11532:11534   */\n      0x20\n        /* \"#utility.yul\":11520:11529   */\n      dup3\n        /* \"#utility.yul\":11511:11518   */\n      dup5\n        /* \"#utility.yul\":11507:11530   */\n      sub\n        /* \"#utility.yul\":11503:11535   */\n      slt\n        /* \"#utility.yul\":11500:11619   */\n      iszero\n      tag_267\n      jumpi\n        /* \"#utility.yul\":11538:11617   */\n      tag_268\n      tag_87\n      jump\t// in\n    tag_268:\n        /* \"#utility.yul\":11500:11619   */\n    tag_267:\n        /* \"#utility.yul\":11658:11659   */\n      0x00\n        /* \"#utility.yul\":11683:11735   */\n      tag_269\n        /* \"#utility.yul\":11727:11734   */\n      dup5\n        /* \"#utility.yul\":11718:11724   */\n      dup3\n        /* \"#utility.yul\":11707:11716   */\n      dup6\n        /* \"#utility.yul\":11703:11725   */\n      add\n        /* \"#utility.yul\":11683:11735   */\n      tag_126\n      jump\t// in\n    tag_269:\n        /* \"#utility.yul\":11673:11735   */\n      swap2\n      pop\n        /* \"#utility.yul\":11629:11745   */\n      pop\n        /* \"#utility.yul\":11425:11752   */\n      swap3\n      swap2\n      pop\n      pop\n      jump\t// out\n        /* \"#utility.yul\":11758:11980   */\n    tag_38:\n        /* \"#utility.yul\":11851:11855   */\n      0x00\n        /* \"#utility.yul\":11889:11891   */\n      0x20\n        /* \"#utility.yul\":11878:11887   */\n      dup3\n        /* \"#utility.yul\":11874:11892   */\n      add\n        /* \"#utility.yul\":11866:11892   */\n      swap1\n      pop\n        /* \"#utility.yul\":11902:11973   */\n      tag_271\n        /* \"#utility.yul\":11970:11971   */\n      0x00\n        /* \"#utility.yul\":11959:11968   */\n      dup4\n        /* \"#utility.yul\":11955:11972   */\n      add\n        /* \"#utility.yul\":11946:11952   */\n      dup5\n        /* \"#utility.yul\":11902:11973   */\n      tag_96\n      jump\t// in\n    tag_271:\n        /* \"#utility.yul\":11758:11980   */\n      swap3\n      swap2\n      pop\n      pop\n      jump\t// out\n        /* \"#utility.yul\":11986:12315   */\n    tag_41:\n        /* \"#utility.yul\":12045:12051   */\n      0x00\n        /* \"#utility.yul\":12094:12096   */\n      0x20\n        /* \"#utility.yul\":12082:12091   */\n      dup3\n        /* \"#utility.yul\":12073:12080   */\n      dup5\n        /* \"#utility.yul\":12069:12092   */\n      sub\n        /* \"#utility.yul\":12065:12097   */\n      slt\n        /* \"#utility.yul\":12062:12181   */\n      iszero\n      tag_273\n      jumpi\n        /* \"#utility.yul\":12100:12179   */\n      tag_274\n      tag_87\n      jump\t// in\n    tag_274:\n        /* \"#utility.yul\":12062:12181   */\n    tag_273:\n        /* \"#utility.yul\":12220:12221   */\n      0x00\n        /* \"#utility.yul\":12245:12298   */\n      tag_275\n        /* \"#utility.yul\":12290:12297   */\n      dup5\n        /* \"#utility.yul\":12281:12287   */\n      dup3\n        /* \"#utility.yul\":12270:12279   */\n      dup6\n        /* \"#utility.yul\":12266:12288   */\n      add\n        /* \"#utility.yul\":12245:12298   */\n      tag_95\n      jump\t// in\n    tag_275:\n        /* \"#utility.yul\":12235:12298   */\n      swap2\n      pop\n        /* \"#utility.yul\":12191:12308   */\n      pop\n        /* \"#utility.yul\":11986:12315   */\n      swap3\n      swap2\n      pop\n      pop\n      jump\t// out\n        /* \"#utility.yul\":12373:13330   */\n    tag_127:\n        /* \"#utility.yul\":12484:12487   */\n      0x00\n        /* \"#utility.yul\":12520:12524   */\n      0x80\n        /* \"#utility.yul\":12515:12518   */\n      dup4\n        /* \"#utility.yul\":12511:12525   */\n      add\n        /* \"#utility.yul\":12609:12613   */\n      0x00\n        /* \"#utility.yul\":12602:12607   */\n      dup4\n        /* \"#utility.yul\":12598:12614   */\n      add\n        /* \"#utility.yul\":12592:12615   */\n      mload\n        /* \"#utility.yul\":12628:12691   */\n      tag_277\n        /* \"#utility.yul\":12685:12689   */\n      0x00\n        /* \"#utility.yul\":12680:12683   */\n      dup7\n        /* \"#utility.yul\":12676:12690   */\n      add\n        /* \"#utility.yul\":12662:12674   */\n      dup3\n        /* \"#utility.yul\":12628:12691   */\n      tag_106\n      jump\t// in\n    tag_277:\n        /* \"#utility.yul\":12535:12701   */\n      pop\n        /* \"#utility.yul\":12786:12790   */\n      0x20\n        /* \"#utility.yul\":12779:12784   */\n      dup4\n        /* \"#utility.yul\":12775:12791   */\n      add\n        /* \"#utility.yul\":12769:12792   */\n      mload\n        /* \"#utility.yul\":12839:12842   */\n      dup5\n        /* \"#utility.yul\":12833:12837   */\n      dup3\n        /* \"#utility.yul\":12829:12843   */\n      sub\n        /* \"#utility.yul\":12822:12826   */\n      0x20\n        /* \"#utility.yul\":12817:12820   */\n      dup7\n        /* \"#utility.yul\":12813:12827   */\n      add\n        /* \"#utility.yul\":12806:12844   */\n      mstore\n        /* \"#utility.yul\":12865:12938   */\n      tag_278\n        /* \"#utility.yul\":12933:12937   */\n      dup3\n        /* \"#utility.yul\":12919:12931   */\n      dup3\n        /* \"#utility.yul\":12865:12938   */\n      tag_108\n      jump\t// in\n    tag_278:\n        /* \"#utility.yul\":12857:12938   */\n      swap2\n      pop\n        /* \"#utility.yul\":12711:12949   */\n      pop\n        /* \"#utility.yul\":13036:13040   */\n      0x40\n        /* \"#utility.yul\":13029:13034   */\n      dup4\n        /* \"#utility.yul\":13025:13041   */\n      add\n        /* \"#utility.yul\":13019:13042   */\n      mload\n        /* \"#utility.yul\":13055:13118   */\n      tag_279\n        /* \"#utility.yul\":13112:13116   */\n      0x40\n        /* \"#utility.yul\":13107:13110   */\n      dup7\n        /* \"#utility.yul\":13103:13117   */\n      add\n        /* \"#utility.yul\":13089:13101   */\n      dup3\n        /* \"#utility.yul\":13055:13118   */\n      tag_109\n      jump\t// in\n    tag_279:\n        /* \"#utility.yul\":12959:13128   */\n      pop\n        /* \"#utility.yul\":13211:13215   */\n      0x60\n        /* \"#utility.yul\":13204:13209   */\n      dup4\n        /* \"#utility.yul\":13200:13216   */\n      add\n        /* \"#utility.yul\":13194:13217   */\n      mload\n        /* \"#utility.yul\":13230:13293   */\n      tag_280\n        /* \"#utility.yul\":13287:13291   */\n      0x60\n        /* \"#utility.yul\":13282:13285   */\n      dup7\n        /* \"#utility.yul\":13278:13292   */\n      add\n        /* \"#utility.yul\":13264:13276   */\n      dup3\n        /* \"#utility.yul\":13230:13293   */\n      tag_109\n      jump\t// in\n    tag_280:\n        /* \"#utility.yul\":13138:13303   */\n      pop\n        /* \"#utility.yul\":13320:13324   */\n      dup1\n        /* \"#utility.yul\":13313:13324   */\n      swap2\n      pop\n        /* \"#utility.yul\":12489:13330   */\n      pop\n        /* \"#utility.yul\":12373:13330   */\n      swap3\n      swap2\n      pop\n      pop\n      jump\t// out\n        /* \"#utility.yul\":13336:13693   */\n    tag_44:\n        /* \"#utility.yul\":13471:13475   */\n      0x00\n        /* \"#utility.yul\":13509:13511   */\n      0x20\n        /* \"#utility.yul\":13498:13507   */\n      dup3\n        /* \"#utility.yul\":13494:13512   */\n      add\n        /* \"#utility.yul\":13486:13512   */\n      swap1\n      pop\n        /* \"#utility.yul\":13558:13567   */\n      dup2\n        /* \"#utility.yul\":13552:13556   */\n      dup2\n        /* \"#utility.yul\":13548:13568   */\n      sub\n        /* \"#utility.yul\":13544:13545   */\n      0x00\n        /* \"#utility.yul\":13533:13542   */\n      dup4\n        /* \"#utility.yul\":13529:13546   */\n      add\n        /* \"#utility.yul\":13522:13569   */\n      mstore\n        /* \"#utility.yul\":13586:13686   */\n      tag_282\n        /* \"#utility.yul\":13681:13685   */\n      dup2\n        /* \"#utility.yul\":13672:13678   */\n      dup5\n        /* \"#utility.yul\":13586:13686   */\n      tag_127\n      jump\t// in\n    tag_282:\n        /* \"#utility.yul\":13578:13686   */\n      swap1\n      pop\n        /* \"#utility.yul\":13336:13693   */\n      swap3\n      swap2\n      pop\n      pop\n      jump\t// out\n        /* \"#utility.yul\":13699:13879   */\n    tag_128:\n        /* \"#utility.yul\":13747:13824   */\n      0x4e487b7100000000000000000000000000000000000000000000000000000000\n        /* \"#utility.yul\":13744:13745   */\n      0x00\n        /* \"#utility.yul\":13737:13825   */\n      mstore\n        /* \"#utility.yul\":13844:13848   */\n      0x22\n        /* \"#utility.yul\":13841:13842   */\n      0x04\n        /* \"#utility.yul\":13834:13849   */\n      mstore\n        /* \"#utility.yul\":13868:13872   */\n      0x24\n        /* \"#utility.yul\":13865:13866   */\n      0x00\n        /* \"#utility.yul\":13858:13873   */\n      revert\n        /* \"#utility.yul\":13885:14205   */\n    tag_48:\n        /* \"#utility.yul\":13929:13935   */\n      0x00\n        /* \"#utility.yul\":13966:13967   */\n      0x02\n        /* \"#utility.yul\":13960:13964   */\n      dup3\n        /* \"#utility.yul\":13956:13968   */\n      div\n        /* \"#utility.yul\":13946:13968   */\n      swap1\n      pop\n        /* \"#utility.yul\":14013:14014   */\n      0x01\n        /* \"#utility.yul\":14007:14011   */\n      dup3\n        /* \"#utility.yul\":14003:14015   */\n      and\n        /* \"#utility.yul\":14034:14052   */\n      dup1\n        /* \"#utility.yul\":14024:14105   */\n      tag_285\n      jumpi\n        /* \"#utility.yul\":14090:14094   */\n      0x7f\n        /* \"#utility.yul\":14082:14088   */\n      dup3\n        /* \"#utility.yul\":14078:14095   */\n      and\n        /* \"#utility.yul\":14068:14095   */\n      swap2\n      pop\n        /* \"#utility.yul\":14024:14105   */\n    tag_285:\n        /* \"#utility.yul\":14152:14154   */\n      0x20\n        /* \"#utility.yul\":14144:14150   */\n      dup3\n        /* \"#utility.yul\":14141:14155   */\n      lt\n        /* \"#utility.yul\":14121:14139   */\n      dup2\n        /* \"#utility.yul\":14118:14156   */\n      sub\n        /* \"#utility.yul\":14115:14199   */\n      tag_286\n      jumpi\n        /* \"#utility.yul\":14171:14189   */\n      tag_287\n      tag_128\n      jump\t// in\n    tag_287:\n        /* \"#utility.yul\":14115:14199   */\n    tag_286:\n        /* \"#utility.yul\":13936:14205   */\n      pop\n        /* \"#utility.yul\":13885:14205   */\n      swap2\n      swap1\n      pop\n      jump\t// out\n        /* \"#utility.yul\":14211:14383   */\n    tag_129:\n        /* \"#utility.yul\":14351:14375   */\n      0x547765657420697320746f6f206c6f6e672062726f2100000000000000000000\n        /* \"#utility.yul\":14347:14348   */\n      0x00\n        /* \"#utility.yul\":14339:14345   */\n      dup3\n        /* \"#utility.yul\":14335:14349   */\n      add\n        /* \"#utility.yul\":14328:14376   */\n      mstore\n        /* \"#utility.yul\":14211:14383   */\n      pop\n      jump\t// out\n        /* \"#utility.yul\":14389:14755   */\n    tag_130:\n        /* \"#utility.yul\":14531:14534   */\n      0x00\n        /* \"#utility.yul\":14552:14619   */\n      tag_290\n        /* \"#utility.yul\":14616:14618   */\n      0x16\n        /* \"#utility.yul\":14611:14614   */\n      dup4\n        /* \"#utility.yul\":14552:14619   */\n      tag_98\n      jump\t// in\n    tag_290:\n        /* \"#utility.yul\":14545:14619   */\n      swap2\n      pop\n        /* \"#utility.yul\":14628:14721   */\n      tag_291\n        /* \"#utility.yul\":14717:14720   */\n      dup3\n        /* \"#utility.yul\":14628:14721   */\n      tag_129\n      jump\t// in\n    tag_291:\n        /* \"#utility.yul\":14746:14748   */\n      0x20\n        /* \"#utility.yul\":14741:14744   */\n      dup3\n        /* \"#utility.yul\":14737:14749   */\n      add\n        /* \"#utility.yul\":14730:14749   */\n      swap1\n      pop\n        /* \"#utility.yul\":14389:14755   */\n      swap2\n      swap1\n      pop\n      jump\t// out\n        /* \"#utility.yul\":14761:15180   */\n    tag_65:\n        /* \"#utility.yul\":14927:14931   */\n      0x00\n        /* \"#utility.yul\":14965:14967   */\n      0x20\n        /* \"#utility.yul\":14954:14963   */\n      dup3\n        /* \"#utility.yul\":14950:14968   */\n      add\n        /* \"#utility.yul\":14942:14968   */\n      swap1\n      pop\n        /* \"#utility.yul\":15014:15023   */\n      dup2\n        /* \"#utility.yul\":15008:15012   */\n      dup2\n        /* \"#utility.yul\":15004:15024   */\n      sub\n        /* \"#utility.yul\":15000:15001   */\n      0x00\n        /* \"#utility.yul\":14989:14998   */\n      dup4\n        /* \"#utility.yul\":14985:15002   */\n      add\n        /* \"#utility.yul\":14978:15025   */\n      mstore\n        /* \"#utility.yul\":15042:15173   */\n      tag_293\n        /* \"#utility.yul\":15168:15172   */\n      dup2\n        /* \"#utility.yul\":15042:15173   */\n      tag_130\n      jump\t// in\n    tag_293:\n        /* \"#utility.yul\":15034:15173   */\n      swap1\n      pop\n        /* \"#utility.yul\":14761:15180   */\n      swap2\n      swap1\n      pop\n      jump\t// out\n        /* \"#utility.yul\":15186:15327   */\n    tag_131:\n        /* \"#utility.yul\":15235:15239   */\n      0x00\n        /* \"#utility.yul\":15258:15261   */\n      dup2\n        /* \"#utility.yul\":15250:15261   */\n      swap1\n      pop\n        /* \"#utility.yul\":15281:15284   */\n      dup2\n        /* \"#utility.yul\":15278:15279   */\n      0x00\n        /* \"#utility.yul\":15271:15285   */\n      mstore\n        /* \"#utility.yul\":15315:15319   */\n      0x20\n        /* \"#utility.yul\":15312:15313   */\n      0x00\n        /* \"#utility.yul\":15302:15320   */\n      keccak256\n        /* \"#utility.yul\":15294:15320   */\n      swap1\n      pop\n        /* \"#utility.yul\":15186:15327   */\n      swap2\n      swap1\n      pop\n      jump\t// out\n        /* \"#utility.yul\":15333:15426   */\n    tag_132:\n        /* \"#utility.yul\":15370:15376   */\n      0x00\n        /* \"#utility.yul\":15417:15419   */\n      0x20\n        /* \"#utility.yul\":15412:15414   */\n      0x1f\n        /* \"#utility.yul\":15405:15410   */\n      dup4\n        /* \"#utility.yul\":15401:15415   */\n      add\n        /* \"#utility.yul\":15397:15420   */\n      div\n        /* \"#utility.yul\":15387:15420   */\n      swap1\n      pop\n        /* \"#utility.yul\":15333:15426   */\n      swap2\n      swap1\n      pop\n      jump\t// out\n        /* \"#utility.yul\":15432:15539   */\n    tag_133:\n        /* \"#utility.yul\":15476:15484   */\n      0x00\n        /* \"#utility.yul\":15526:15531   */\n      dup3\n        /* \"#utility.yul\":15520:15524   */\n      dup3\n        /* \"#utility.yul\":15516:15532   */\n      shl\n        /* \"#utility.yul\":15495:15532   */\n      swap1\n      pop\n        /* \"#utility.yul\":15432:15539   */\n      swap3\n      swap2\n      pop\n      pop\n      jump\t// out\n        /* \"#utility.yul\":15545:15938   */\n    tag_134:\n        /* \"#utility.yul\":15614:15620   */\n      0x00\n        /* \"#utility.yul\":15664:15665   */\n      0x08\n        /* \"#utility.yul\":15652:15662   */\n      dup4\n        /* \"#utility.yul\":15648:15666   */\n      mul\n        /* \"#utility.yul\":15687:15784   */\n      tag_298\n        /* \"#utility.yul\":15717:15783   */\n      0xffffffffffffffffffffffffffffffffffffffffffffffffffffffffffffffff\n        /* \"#utility.yul\":15706:15715   */\n      dup3\n        /* \"#utility.yul\":15687:15784   */\n      tag_133\n      jump\t// in\n    tag_298:\n        /* \"#utility.yul\":15805:15844   */\n      tag_299\n        /* \"#utility.yul\":15835:15843   */\n      dup7\n        /* \"#utility.yul\":15824:15833   */\n      dup4\n        /* \"#utility.yul\":15805:15844   */\n      tag_133\n      jump\t// in\n    tag_299:\n        /* \"#utility.yul\":15793:15844   */\n      swap6\n      pop\n        /* \"#utility.yul\":15877:15881   */\n      dup1\n        /* \"#utility.yul\":15873:15882   */\n      not\n        /* \"#utility.yul\":15866:15871   */\n      dup5\n        /* \"#utility.yul\":15862:15883   */\n      and\n        /* \"#utility.yul\":15853:15883   */\n      swap4\n      pop\n        /* \"#utility.yul\":15926:15930   */\n      dup1\n        /* \"#utility.yul\":15916:15924   */\n      dup7\n        /* \"#utility.yul\":15912:15931   */\n      and\n        /* \"#utility.yul\":15905:15910   */\n      dup5\n        /* \"#utility.yul\":15902:15932   */\n      or\n        /* \"#utility.yul\":15892:15932   */\n      swap3\n      pop\n        /* \"#utility.yul\":15621:15938   */\n      pop\n      pop\n        /* \"#utility.yul\":15545:15938   */\n      swap4\n      swap3\n      pop\n      pop\n      pop\n      jump\t// out\n        /* \"#utility.yul\":15944:16004   */\n    tag_135:\n        /* \"#utility.yul\":15972:15975   */\n      0x00\n        /* \"#utility.yul\":15993:15998   */\n      dup2\n        /* \"#utility.yul\":15986:15998   */\n      swap1\n      pop\n        /* \"#utility.yul\":15944:16004   */\n      swap2\n      swap1\n      pop\n      jump\t// out\n        /* \"#utility.yul\":16010:16152   */\n    tag_136:\n        /* \"#utility.yul\":16060:16069   */\n      0x00\n        /* \"#utility.yul\":16093:16146   */\n      tag_302\n        /* \"#utility.yul\":16111:16145   */\n      tag_303\n        /* \"#utility.yul\":16120:16144   */\n      tag_304\n        /* \"#utility.yul\":16138:16143   */\n      dup5\n        /* \"#utility.yul\":16120:16144   */\n      tag_93\n      jump\t// in\n    tag_304:\n        /* \"#utility.yul\":16111:16145   */\n      tag_135\n      jump\t// in\n    tag_303:\n        /* \"#utility.yul\":16093:16146   */\n      tag_93\n      jump\t// in\n    tag_302:\n        /* \"#utility.yul\":16080:16146   */\n      swap1\n      pop\n        /* \"#utility.yul\":16010:16152   */\n      swap2\n      swap1\n      pop\n      jump\t// out\n        /* \"#utility.yul\":16158:16233   */\n    tag_137:\n        /* \"#utility.yul\":16201:16204   */\n      0x00\n        /* \"#utility.yul\":16222:16227   */\n      dup2\n        /* \"#utility.yul\":16215:16227   */\n      swap1\n      pop\n        /* \"#utility.yul\":16158:16233   */\n      swap2\n      swap1\n      pop\n      jump\t// out\n        /* \"#utility.yul\":16239:16508   */\n    tag_138:\n        /* \"#utility.yul\":16349:16388   */\n      tag_307\n        /* \"#utility.yul\":16380:16387   */\n      dup4\n        /* \"#utility.yul\":16349:16388   */\n      tag_136\n      jump\t// in\n    tag_307:\n        /* \"#utility.yul\":16410:16501   */\n      tag_308\n        /* \"#utility.yul\":16459:16500   */\n      tag_309\n        /* \"#utility.yul\":16483:16499   */\n      dup3\n        /* \"#utility.yul\":16459:16500   */\n      tag_137\n      jump\t// in\n    tag_309:\n        /* \"#utility.yul\":16451:16457   */\n      dup5\n        /* \"#utility.yul\":16444:16448   */\n      dup5\n        /* \"#utility.yul\":16438:16449   */\n      sload\n        /* \"#utility.yul\":16410:16501   */\n      tag_134\n      jump\t// in\n    tag_308:\n        /* \"#utility.yul\":16404:16408   */\n      dup3\n        /* \"#utility.yul\":16397:16502   */\n      sstore\n        /* \"#utility.yul\":16315:16508   */\n      pop\n        /* \"#utility.yul\":16239:16508   */\n      pop\n      pop\n      pop\n      jump\t// out\n        /* \"#utility.yul\":16514:16587   */\n    tag_139:\n        /* \"#utility.yul\":16559:16562   */\n      0x00\n        /* \"#utility.yul\":16514:16587   */\n      swap1\n      jump\t// out\n        /* \"#utility.yul\":16593:16782   */\n    tag_140:\n        /* \"#utility.yul\":16670:16702   */\n      tag_312\n      tag_139\n      jump\t// in\n    tag_312:\n        /* \"#utility.yul\":16711:16776   */\n      tag_313\n        /* \"#utility.yul\":16769:16775   */\n      dup2\n        /* \"#utility.yul\":16761:16767   */\n      dup5\n        /* \"#utility.yul\":16755:16759   */\n      dup5\n        /* \"#utility.yul\":16711:16776   */\n      tag_138\n      jump\t// in\n    tag_313:\n        /* \"#utility.yul\":16646:16782   */\n      pop\n        /* \"#utility.yul\":16593:16782   */\n      pop\n      pop\n      jump\t// out\n        /* \"#utility.yul\":16788:16974   */\n    tag_141:\n        /* \"#utility.yul\":16848:16968   */\n    tag_315:\n        /* \"#utility.yul\":16865:16868   */\n      dup2\n        /* \"#utility.yul\":16858:16863   */\n      dup2\n        /* \"#utility.yul\":16855:16869   */\n      lt\n        /* \"#utility.yul\":16848:16968   */\n      iszero\n      tag_317\n      jumpi\n        /* \"#utility.yul\":16919:16958   */\n      tag_318\n        /* \"#utility.yul\":16956:16957   */\n      0x00\n        /* \"#utility.yul\":16949:16954   */\n      dup3\n        /* \"#utility.yul\":16919:16958   */\n      tag_140\n      jump\t// in\n    tag_318:\n        /* \"#utility.yul\":16892:16893   */\n      0x01\n        /* \"#utility.yul\":16885:16890   */\n      dup2\n        /* \"#utility.yul\":16881:16894   */\n      add\n        /* \"#utility.yul\":16872:16894   */\n      swap1\n      pop\n        /* \"#utility.yul\":16848:16968   */\n      jump(tag_315)\n    tag_317:\n        /* \"#utility.yul\":16788:16974   */\n      pop\n      pop\n      jump\t// out\n        /* \"#utility.yul\":16980:17523   */\n    tag_142:\n        /* \"#utility.yul\":17081:17083   */\n      0x1f\n        /* \"#utility.yul\":17076:17079   */\n      dup3\n        /* \"#utility.yul\":17073:17084   */\n      gt\n        /* \"#utility.yul\":17070:17516   */\n      iszero\n      tag_320\n      jumpi\n        /* \"#utility.yul\":17115:17153   */\n      tag_321\n        /* \"#utility.yul\":17147:17152   */\n      dup2\n        /* \"#utility.yul\":17115:17153   */\n      tag_131\n      jump\t// in\n    tag_321:\n        /* \"#utility.yul\":17199:17228   */\n      tag_322\n        /* \"#utility.yul\":17217:17227   */\n      dup5\n        /* \"#utility.yul\":17199:17228   */\n      tag_132\n      jump\t// in\n    tag_322:\n        /* \"#utility.yul\":17189:17197   */\n      dup2\n        /* \"#utility.yul\":17185:17229   */\n      add\n        /* \"#utility.yul\":17382:17384   */\n      0x20\n        /* \"#utility.yul\":17370:17380   */\n      dup6\n        /* \"#utility.yul\":17367:17385   */\n      lt\n        /* \"#utility.yul\":17364:17413   */\n      iszero\n      tag_323\n      jumpi\n        /* \"#utility.yul\":17403:17411   */\n      dup2\n        /* \"#utility.yul\":17388:17411   */\n      swap1\n      pop\n        /* \"#utility.yul\":17364:17413   */\n    tag_323:\n        /* \"#utility.yul\":17426:17506   */\n      tag_324\n        /* \"#utility.yul\":17482:17504   */\n      tag_325\n        /* \"#utility.yul\":17500:17503   */\n      dup6\n        /* \"#utility.yul\":17482:17504   */\n      tag_132\n      jump\t// in\n    tag_325:\n        /* \"#utility.yul\":17472:17480   */\n      dup4\n        /* \"#utility.yul\":17468:17505   */\n      add\n        /* \"#utility.yul\":17455:17466   */\n      dup3\n        /* \"#utility.yul\":17426:17506   */\n      tag_141\n      jump\t// in\n    tag_324:\n        /* \"#utility.yul\":17085:17516   */\n      pop\n      pop\n        /* \"#utility.yul\":17070:17516   */\n    tag_320:\n        /* \"#utility.yul\":16980:17523   */\n      pop\n      pop\n      pop\n      jump\t// out\n        /* \"#utility.yul\":17529:17646   */\n    tag_143:\n        /* \"#utility.yul\":17583:17591   */\n      0x00\n        /* \"#utility.yul\":17633:17638   */\n      dup3\n        /* \"#utility.yul\":17627:17631   */\n      dup3\n        /* \"#utility.yul\":17623:17639   */\n      shr\n        /* \"#utility.yul\":17602:17639   */\n      swap1\n      pop\n        /* \"#utility.yul\":17529:17646   */\n      swap3\n      swap2\n      pop\n      pop\n      jump\t// out\n        /* \"#utility.yul\":17652:17821   */\n    tag_144:\n        /* \"#utility.yul\":17696:17702   */\n      0x00\n        /* \"#utility.yul\":17729:17780   */\n      tag_328\n        /* \"#utility.yul\":17777:17778   */\n      0x00\n        /* \"#utility.yul\":17773:17779   */\n      not\n        /* \"#utility.yul\":17765:17770   */\n      dup5\n        /* \"#utility.yul\":17762:17763   */\n      0x08\n        /* \"#utility.yul\":17758:17771   */\n      mul\n        /* \"#utility.yul\":17729:17780   */\n      tag_143\n      jump\t// in\n    tag_328:\n        /* \"#utility.yul\":17725:17781   */\n      not\n        /* \"#utility.yul\":17810:17814   */\n      dup1\n        /* \"#utility.yul\":17804:17808   */\n      dup4\n        /* \"#utility.yul\":17800:17815   */\n      and\n        /* \"#utility.yul\":17790:17815   */\n      swap2\n      pop\n        /* \"#utility.yul\":17703:17821   */\n      pop\n        /* \"#utility.yul\":17652:17821   */\n      swap3\n      swap2\n      pop\n      pop\n      jump\t// out\n        /* \"#utility.yul\":17826:18121   */\n    tag_145:\n        /* \"#utility.yul\":17902:17906   */\n      0x00\n        /* \"#utility.yul\":18048:18077   */\n      tag_330\n        /* \"#utility.yul\":18073:18076   */\n      dup4\n        /* \"#utility.yul\":18067:18071   */\n      dup4\n        /* \"#utility.yul\":18048:18077   */\n      tag_144\n      jump\t// in\n    tag_330:\n        /* \"#utility.yul\":18040:18077   */\n      swap2\n      pop\n        /* \"#utility.yul\":18110:18113   */\n      dup3\n        /* \"#utility.yul\":18107:18108   */\n      0x02\n        /* \"#utility.yul\":18103:18114   */\n      mul\n        /* \"#utility.yul\":18097:18101   */\n      dup3\n        /* \"#utility.yul\":18094:18115   */\n      or\n        /* \"#utility.yul\":18086:18115   */\n      swap1\n      pop\n        /* \"#utility.yul\":17826:18121   */\n      swap3\n      swap2\n      pop\n      pop\n      jump\t// out\n        /* \"#utility.yul\":18126:19521   */\n    tag_68:\n        /* \"#utility.yul\":18243:18280   */\n      tag_332\n        /* \"#utility.yul\":18276:18279   */\n      dup3\n        /* \"#utility.yul\":18243:18280   */\n      tag_97\n      jump\t// in\n    tag_332:\n        /* \"#utility.yul\":18345:18363   */\n      0xffffffffffffffff\n        /* \"#utility.yul\":18337:18343   */\n      dup2\n        /* \"#utility.yul\":18334:18364   */\n      gt\n        /* \"#utility.yul\":18331:18387   */\n      iszero\n      tag_333\n      jumpi\n        /* \"#utility.yul\":18367:18385   */\n      tag_334\n      tag_118\n      jump\t// in\n    tag_334:\n        /* \"#utility.yul\":18331:18387   */\n    tag_333:\n        /* \"#utility.yul\":18411:18449   */\n      tag_335\n        /* \"#utility.yul\":18443:18447   */\n      dup3\n        /* \"#utility.yul\":18437:18448   */\n      sload\n        /* \"#utility.yul\":18411:18449   */\n      tag_48\n      jump\t// in\n    tag_335:\n        /* \"#utility.yul\":18496:18563   */\n      tag_336\n        /* \"#utility.yul\":18556:18562   */\n      dup3\n        /* \"#utility.yul\":18548:18554   */\n      dup3\n        /* \"#utility.yul\":18542:18546   */\n      dup6\n        /* \"#utility.yul\":18496:18563   */\n      tag_142\n      jump\t// in\n    tag_336:\n        /* \"#utility.yul\":18590:18591   */\n      0x00\n        /* \"#utility.yul\":18614:18618   */\n      0x20\n        /* \"#utility.yul\":18601:18618   */\n      swap1\n      pop\n        /* \"#utility.yul\":18646:18648   */\n      0x1f\n        /* \"#utility.yul\":18638:18644   */\n      dup4\n        /* \"#utility.yul\":18635:18649   */\n      gt\n        /* \"#utility.yul\":18663:18664   */\n      0x01\n        /* \"#utility.yul\":18658:19276   */\n      dup2\n      eq\n      tag_338\n      jumpi\n        /* \"#utility.yul\":19320:19321   */\n      0x00\n        /* \"#utility.yul\":19337:19343   */\n      dup5\n        /* \"#utility.yul\":19334:19411   */\n      iszero\n      tag_339\n      jumpi\n        /* \"#utility.yul\":19386:19395   */\n      dup3\n        /* \"#utility.yul\":19381:19384   */\n      dup8\n        /* \"#utility.yul\":19377:19396   */\n      add\n        /* \"#utility.yul\":19371:19397   */\n      mload\n        /* \"#utility.yul\":19362:19397   */\n      swap1\n      pop\n        /* \"#utility.yul\":19334:19411   */\n    tag_339:\n        /* \"#utility.yul\":19437:19504   */\n      tag_340\n        /* \"#utility.yul\":19497:19503   */\n      dup6\n        /* \"#utility.yul\":19490:19495   */\n      dup3\n        /* \"#utility.yul\":19437:19504   */\n      tag_145\n      jump\t// in\n    tag_340:\n        /* \"#utility.yul\":19431:19435   */\n      dup7\n        /* \"#utility.yul\":19424:19505   */\n      sstore\n        /* \"#utility.yul\":19293:19515   */\n      pop\n        /* \"#utility.yul\":18628:19515   */\n      jump(tag_337)\n        /* \"#utility.yul\":18658:19276   */\n    tag_338:\n        /* \"#utility.yul\":18710:18714   */\n      0x1f\n        /* \"#utility.yul\":18706:18715   */\n      not\n        /* \"#utility.yul\":18698:18704   */\n      dup5\n        /* \"#utility.yul\":18694:18716   */\n      and\n        /* \"#utility.yul\":18744:18781   */\n      tag_341\n        /* \"#utility.yul\":18776:18780   */\n      dup7\n        /* \"#utility.yul\":18744:18781   */\n      tag_131\n      jump\t// in\n    tag_341:\n        /* \"#utility.yul\":18803:18804   */\n      0x00\n        /* \"#utility.yul\":18817:19025   */\n    tag_342:\n        /* \"#utility.yul\":18831:18838   */\n      dup3\n        /* \"#utility.yul\":18828:18829   */\n      dup2\n        /* \"#utility.yul\":18825:18839   */\n      lt\n        /* \"#utility.yul\":18817:19025   */\n      iszero\n      tag_344\n      jumpi\n        /* \"#utility.yul\":18910:18919   */\n      dup5\n        /* \"#utility.yul\":18905:18908   */\n      dup10\n        /* \"#utility.yul\":18901:18920   */\n      add\n        /* \"#utility.yul\":18895:18921   */\n      mload\n        /* \"#utility.yul\":18887:18893   */\n      dup3\n        /* \"#utility.yul\":18880:18922   */\n      sstore\n        /* \"#utility.yul\":18961:18962   */\n      0x01\n        /* \"#utility.yul\":18953:18959   */\n      dup3\n        /* \"#utility.yul\":18949:18963   */\n      add\n        /* \"#utility.yul\":18939:18963   */\n      swap2\n      pop\n        /* \"#utility.yul\":19008:19010   */\n      0x20\n        /* \"#utility.yul\":18997:19006   */\n      dup6\n        /* \"#utility.yul\":18993:19011   */\n      add\n        /* \"#utility.yul\":18980:19011   */\n      swap5\n      pop\n        /* \"#utility.yul\":18854:18858   */\n      0x20\n        /* \"#utility.yul\":18851:18852   */\n      dup2\n        /* \"#utility.yul\":18847:18859   */\n      add\n        /* \"#utility.yul\":18842:18859   */\n      swap1\n      pop\n        /* \"#utility.yul\":18817:19025   */\n      jump(tag_342)\n    tag_344:\n        /* \"#utility.yul\":19053:19059   */\n      dup7\n        /* \"#utility.yul\":19044:19051   */\n      dup4\n        /* \"#utility.yul\":19041:19060   */\n      lt\n        /* \"#utility.yul\":19038:19217   */\n      iszero\n      tag_345\n      jumpi\n        /* \"#utility.yul\":19111:19120   */\n      dup5\n        /* \"#utility.yul\":19106:19109   */\n      dup10\n        /* \"#utility.yul\":19102:19121   */\n      add\n        /* \"#utility.yul\":19096:19122   */\n      mload\n        /* \"#utility.yul\":19154:19202   */\n      tag_346\n        /* \"#utility.yul\":19196:19200   */\n      0x1f\n        /* \"#utility.yul\":19188:19194   */\n      dup10\n        /* \"#utility.yul\":19184:19201   */\n      and\n        /* \"#utility.yul\":19173:19182   */\n      dup3\n        /* \"#utility.yul\":19154:19202   */\n      tag_144\n      jump\t// in\n    tag_346:\n        /* \"#utility.yul\":19146:19152   */\n      dup4\n        /* \"#utility.yul\":19139:19203   */\n      sstore\n        /* \"#utility.yul\":19061:19217   */\n      pop\n        /* \"#utility.yul\":19038:19217   */\n    tag_345:\n        /* \"#utility.yul\":19263:19264   */\n      0x01\n        /* \"#utility.yul\":19259:19260   */\n      0x02\n        /* \"#utility.yul\":19251:19257   */\n      dup9\n        /* \"#utility.yul\":19247:19261   */\n      mul\n        /* \"#utility.yul\":19243:19265   */\n      add\n        /* \"#utility.yul\":19237:19241   */\n      dup9\n        /* \"#utility.yul\":19230:19266   */\n      sstore\n        /* \"#utility.yul\":18665:19276   */\n      pop\n      pop\n      pop\n        /* \"#utility.yul\":18628:19515   */\n    tag_337:\n      pop\n        /* \"#utility.yul\":18218:19521   */\n      pop\n      pop\n      pop\n        /* \"#utility.yul\":18126:19521   */\n      pop\n      pop\n      jump\t// out\n        /* \"#utility.yul\":19527:19703   */\n    tag_146:\n        /* \"#utility.yul\":19667:19695   */\n      0x43616e206f6e6c792062652075736564206279206f776e657221000000000000\n        /* \"#utility.yul\":19663:19664   */\n      0x00\n        /* \"#utility.yul\":19655:19661   */\n      dup3\n        /* \"#utility.yul\":19651:19665   */\n      add\n        /* \"#utility.yul\":19644:19696   */\n      mstore\n        /* \"#utility.yul\":19527:19703   */\n      pop\n      jump\t// out\n        /* \"#utility.yul\":19709:20075   */\n    tag_147:\n        /* \"#utility.yul\":19851:19854   */\n      0x00\n        /* \"#utility.yul\":19872:19939   */\n      tag_349\n        /* \"#utility.yul\":19936:19938   */\n      0x1a\n        /* \"#utility.yul\":19931:19934   */\n      dup4\n        /* \"#utility.yul\":19872:19939   */\n      tag_98\n      jump\t// in\n    tag_349:\n        /* \"#utility.yul\":19865:19939   */\n      swap2\n      pop\n        /* \"#utility.yul\":19948:20041   */\n      tag_350\n        /* \"#utility.yul\":20037:20040   */\n      dup3\n        /* \"#utility.yul\":19948:20041   */\n      tag_146\n      jump\t// in\n    tag_350:\n        /* \"#utility.yul\":20066:20068   */\n      0x20\n        /* \"#utility.yul\":20061:20064   */\n      dup3\n        /* \"#utility.yul\":20057:20069   */\n      add\n        /* \"#utility.yul\":20050:20069   */\n      swap1\n      pop\n        /* \"#utility.yul\":19709:20075   */\n      swap2\n      swap1\n      pop\n      jump\t// out\n        /* \"#utility.yul\":20081:20500   */\n    tag_72:\n        /* \"#utility.yul\":20247:20251   */\n      0x00\n        /* \"#utility.yul\":20285:20287   */\n      0x20\n        /* \"#utility.yul\":20274:20283   */\n      dup3\n        /* \"#utility.yul\":20270:20288   */\n      add\n        /* \"#utility.yul\":20262:20288   */\n      swap1\n      pop\n        /* \"#utility.yul\":20334:20343   */\n      dup2\n        /* \"#utility.yul\":20328:20332   */\n      dup2\n        /* \"#utility.yul\":20324:20344   */\n      sub\n        /* \"#utility.yul\":20320:20321   */\n      0x00\n        /* \"#utility.yul\":20309:20318   */\n      dup4\n        /* \"#utility.yul\":20305:20322   */\n      add\n        /* \"#utility.yul\":20298:20345   */\n      mstore\n        /* \"#utility.yul\":20362:20493   */\n      tag_352\n        /* \"#utility.yul\":20488:20492   */\n      dup2\n        /* \"#utility.yul\":20362:20493   */\n      tag_147\n      jump\t// in\n    tag_352:\n        /* \"#utility.yul\":20354:20493   */\n      swap1\n      pop\n        /* \"#utility.yul\":20081:20500   */\n      swap2\n      swap1\n      pop\n      jump\t// out\n        /* \"#utility.yul\":20506:20686   */\n    tag_79:\n        /* \"#utility.yul\":20554:20631   */\n      0x4e487b7100000000000000000000000000000000000000000000000000000000\n        /* \"#utility.yul\":20551:20552   */\n      0x00\n        /* \"#utility.yul\":20544:20632   */\n      mstore\n        /* \"#utility.yul\":20651:20655   */\n      0x32\n        /* \"#utility.yul\":20648:20649   */\n      0x04\n        /* \"#utility.yul\":20641:20656   */\n      mstore\n        /* \"#utility.yul\":20675:20679   */\n      0x24\n        /* \"#utility.yul\":20672:20673   */\n      0x00\n        /* \"#utility.yul\":20665:20680   */\n      revert\n\n    auxdata: 0xa2646970667358221220987f6fd1fe42e7295493717c6c5be9c3ce0bfdcfb41eeefb9282b418fc2d277464736f6c634300081a0033\n}\n",
				"bytecode": {
					"linkReferences": {},
					"object": "60806040526101185f806101000a81548161ffff021916908361ffff160217905550348015602b575f80fd5b503360025f6101000a81548173ffffffffffffffffffffffffffffffffffffffff021916908373ffffffffffffffffffffffffffffffffffffffff160217905550611231806100795f395ff3fe608060405234801561000f575f80fd5b506004361061007b575f3560e01c80637c9cd2bc116100595780637c9cd2bc146101005780638cde680b1461011c5780638da5cb5b14610138578063c3ad5ecb146101565761007b565b806305a1b4a91461007f57806312e7ee1c146100b25780636eb10797146100e2575b5f80fd5b61009960048036038101906100949190610892565b610186565b6040516100a9949392919061095e565b60405180910390f35b6100cc60048036038101906100c791906109a8565b610271565b6040516100d99190610b54565b60405180910390f35b6100ea610402565b6040516100f79190610b90565b60405180910390f35b61011a60048036038101906101159190610cd5565b610413565b005b61013660048036038101906101319190610d46565b61057a565b005b610140610627565b60405161014d9190610d71565b60405180910390f35b610170600480360381019061016b9190610d8a565b61064c565b60405161017d9190610e15565b60405180910390f35b6001602052815f5260405f20818154811061019f575f80fd5b905f5260205f2090600402015f9150915050805f015f9054906101000a900473ffffffffffffffffffffffffffffffffffffffff16908060010180546101e490610e62565b80601f016020809104026020016040519081016040528092919081815260200182805461021090610e62565b801561025b5780601f106102325761010080835404028352916020019161025b565b820191905f5260205f20905b81548152906001019060200180831161023e57829003601f168201915b5050505050908060020154908060030154905084565b606060015f8373ffffffffffffffffffffffffffffffffffffffff1673ffffffffffffffffffffffffffffffffffffffff1681526020019081526020015f20805480602002602001604051908101604052809291908181526020015f905b828210156103f7578382905f5260205f2090600402016040518060800160405290815f82015f9054906101000a900473ffffffffffffffffffffffffffffffffffffffff1673ffffffffffffffffffffffffffffffffffffffff1673ffffffffffffffffffffffffffffffffffffffff16815260200160018201805461035490610e62565b80601f016020809104026020016040519081016040528092919081815260200182805461038090610e62565b80156103cb5780601f106103a2576101008083540402835291602001916103cb565b820191905f5260205f20905b8154815290600101906020018083116103ae57829003601f168201915b5050505050815260200160028201548152602001600382015481525050815260200190600101906102cf565b505050509050919050565b5f8054906101000a900461ffff1681565b5f8054906101000a900461ffff1661ffff1681511115610468576040517f08c379a000000000000000000000000000000000000000000000000000000000815260040161045f90610edc565b60405180910390fd5b5f60405180608001604052803373ffffffffffffffffffffffffffffffffffffffff1681526020018381526020014281526020015f815250905060015f3373ffffffffffffffffffffffffffffffffffffffff1673ffffffffffffffffffffffffffffffffffffffff1681526020019081526020015f2081908060018154018082558091505060019003905f5260205f2090600402015f909190919091505f820151815f015f6101000a81548173ffffffffffffffffffffffffffffffffffffffff021916908373ffffffffffffffffffffffffffffffffffffffff160217905550602082015181600101908161055f9190611097565b50604082015181600201556060820151816003015550505050565b60025f9054906101000a900473ffffffffffffffffffffffffffffffffffffffff1673ffffffffffffffffffffffffffffffffffffffff163373ffffffffffffffffffffffffffffffffffffffff1614610609576040517f08c379a0000000000000000000000000000000000000000000000000000000008152600401610600906111b0565b60405180910390fd5b805f806101000a81548161ffff021916908361ffff16021790555050565b60025f9054906101000a900473ffffffffffffffffffffffffffffffffffffffff1681565b6106546107b9565b60015f3373ffffffffffffffffffffffffffffffffffffffff1673ffffffffffffffffffffffffffffffffffffffff1681526020019081526020015f2082815481106106a3576106a26111ce565b5b905f5260205f2090600402016040518060800160405290815f82015f9054906101000a900473ffffffffffffffffffffffffffffffffffffffff1673ffffffffffffffffffffffffffffffffffffffff1673ffffffffffffffffffffffffffffffffffffffff16815260200160018201805461071e90610e62565b80601f016020809104026020016040519081016040528092919081815260200182805461074a90610e62565b80156107955780601f1061076c57610100808354040283529160200191610795565b820191905f5260205f20905b81548152906001019060200180831161077857829003601f168201915b50505050508152602001600282015481526020016003820154815250509050919050565b60405180608001604052805f73ffffffffffffffffffffffffffffffffffffffff168152602001606081526020015f81526020015f81525090565b5f604051905090565b5f80fd5b5f80fd5b5f73ffffffffffffffffffffffffffffffffffffffff82169050919050565b5f61082e82610805565b9050919050565b61083e81610824565b8114610848575f80fd5b50565b5f8135905061085981610835565b92915050565b5f819050919050565b6108718161085f565b811461087b575f80fd5b50565b5f8135905061088c81610868565b92915050565b5f80604083850312156108a8576108a76107fd565b5b5f6108b58582860161084b565b92505060206108c68582860161087e565b9150509250929050565b6108d981610824565b82525050565b5f81519050919050565b5f82825260208201905092915050565b8281835e5f83830152505050565b5f601f19601f8301169050919050565b5f610921826108df565b61092b81856108e9565b935061093b8185602086016108f9565b61094481610907565b840191505092915050565b6109588161085f565b82525050565b5f6080820190506109715f8301876108d0565b81810360208301526109838186610917565b9050610992604083018561094f565b61099f606083018461094f565b95945050505050565b5f602082840312156109bd576109bc6107fd565b5b5f6109ca8482850161084b565b91505092915050565b5f81519050919050565b5f82825260208201905092915050565b5f819050602082019050919050565b610a0581610824565b82525050565b5f82825260208201905092915050565b5f610a25826108df565b610a2f8185610a0b565b9350610a3f8185602086016108f9565b610a4881610907565b840191505092915050565b610a5c8161085f565b82525050565b5f608083015f830151610a775f8601826109fc565b5060208301518482036020860152610a8f8282610a1b565b9150506040830151610aa46040860182610a53565b506060830151610ab76060860182610a53565b508091505092915050565b5f610acd8383610a62565b905092915050565b5f602082019050919050565b5f610aeb826109d3565b610af581856109dd565b935083602082028501610b07856109ed565b805f5b85811015610b425784840389528151610b238582610ac2565b9450610b2e83610ad5565b925060208a01995050600181019050610b0a565b50829750879550505050505092915050565b5f6020820190508181035f830152610b6c8184610ae1565b905092915050565b5f61ffff82169050919050565b610b8a81610b74565b82525050565b5f602082019050610ba35f830184610b81565b92915050565b5f80fd5b5f80fd5b7f4e487b71000000000000000000000000000000000000000000000000000000005f52604160045260245ffd5b610be782610907565b810181811067ffffffffffffffff82111715610c0657610c05610bb1565b5b80604052505050565b5f610c186107f4565b9050610c248282610bde565b919050565b5f67ffffffffffffffff821115610c4357610c42610bb1565b5b610c4c82610907565b9050602081019050919050565b828183375f83830152505050565b5f610c79610c7484610c29565b610c0f565b905082815260208101848484011115610c9557610c94610bad565b5b610ca0848285610c59565b509392505050565b5f82601f830112610cbc57610cbb610ba9565b5b8135610ccc848260208601610c67565b91505092915050565b5f60208284031215610cea57610ce96107fd565b5b5f82013567ffffffffffffffff811115610d0757610d06610801565b5b610d1384828501610ca8565b91505092915050565b610d2581610b74565b8114610d2f575f80fd5b50565b5f81359050610d4081610d1c565b92915050565b5f60208284031215610d5b57610d5a6107fd565b5b5f610d6884828501610d32565b91505092915050565b5f602082019050610d845f8301846108d0565b92915050565b5f60208284031215610d9f57610d9e6107fd565b5b5f610dac8482850161087e565b91505092915050565b5f608083015f830151610dca5f8601826109fc565b5060208301518482036020860152610de28282610a1b565b9150506040830151610df76040860182610a53565b506060830151610e0a6060860182610a53565b508091505092915050565b5f6020820190508181035f830152610e2d8184610db5565b905092915050565b7f4e487b71000000000000000000000000000000000000000000000000000000005f52602260045260245ffd5b5f6002820490506001821680610e7957607f821691505b602082108103610e8c57610e8b610e35565b5b50919050565b7f547765657420697320746f6f206c6f6e672062726f21000000000000000000005f82015250565b5f610ec66016836108e9565b9150610ed182610e92565b602082019050919050565b5f6020820190508181035f830152610ef381610eba565b9050919050565b5f819050815f5260205f209050919050565b5f6020601f8301049050919050565b5f82821b905092915050565b5f60088302610f567fffffffffffffffffffffffffffffffffffffffffffffffffffffffffffffffff82610f1b565b610f608683610f1b565b95508019841693508086168417925050509392505050565b5f819050919050565b5f610f9b610f96610f918461085f565b610f78565b61085f565b9050919050565b5f819050919050565b610fb483610f81565b610fc8610fc082610fa2565b848454610f27565b825550505050565b5f90565b610fdc610fd0565b610fe7818484610fab565b505050565b5b8181101561100a57610fff5f82610fd4565b600181019050610fed565b5050565b601f82111561104f5761102081610efa565b61102984610f0c565b81016020851015611038578190505b61104c61104485610f0c565b830182610fec565b50505b505050565b5f82821c905092915050565b5f61106f5f1984600802611054565b1980831691505092915050565b5f6110878383611060565b9150826002028217905092915050565b6110a0826108df565b67ffffffffffffffff8111156110b9576110b8610bb1565b5b6110c38254610e62565b6110ce82828561100e565b5f60209050601f8311600181146110ff575f84156110ed578287015190505b6110f7858261107c565b86555061115e565b601f19841661110d86610efa565b5f5b828110156111345784890151825560018201915060208501945060208101905061110f565b86831015611151578489015161114d601f891682611060565b8355505b6001600288020188555050505b505050505050565b7f43616e206f6e6c792062652075736564206279206f776e6572210000000000005f82015250565b5f61119a601a836108e9565b91506111a582611166565b602082019050919050565b5f6020820190508181035f8301526111c78161118e565b9050919050565b7f4e487b71000000000000000000000000000000000000000000000000000000005f52603260045260245ffdfea2646970667358221220987f6fd1fe42e7295493717c6c5be9c3ce0bfdcfb41eeefb9282b418fc2d277464736f6c634300081a0033",
					"opcodes": "PUSH1 0x80 PUSH1 0x40 MSTORE PUSH2 0x118 PUSH0 DUP1 PUSH2 0x100 EXP DUP2 SLOAD DUP2 PUSH2 0xFFFF MUL NOT AND SWAP1 DUP4 PUSH2 0xFFFF AND MUL OR SWAP1 SSTORE POP CALLVALUE DUP1 ISZERO PUSH1 0x2B JUMPI PUSH0 DUP1 REVERT JUMPDEST POP CALLER PUSH1 0x2 PUSH0 PUSH2 0x100 EXP DUP2 SLOAD DUP2 PUSH20 0xFFFFFFFFFFFFFFFFFFFFFFFFFFFFFFFFFFFFFFFF MUL NOT AND SWAP1 DUP4 PUSH20 0xFFFFFFFFFFFFFFFFFFFFFFFFFFFFFFFFFFFFFFFF AND MUL OR SWAP1 SSTORE POP PUSH2 0x1231 DUP1 PUSH2 0x79 PUSH0 CODECOPY PUSH0 RETURN INVALID PUSH1 0x80 PUSH1 0x40 MSTORE CALLVALUE DUP1 ISZERO PUSH2 0xF JUMPI PUSH0 DUP1 REVERT JUMPDEST POP PUSH1 0x4 CALLDATASIZE LT PUSH2 0x7B JUMPI PUSH0 CALLDATALOAD PUSH1 0xE0 SHR DUP1 PUSH4 0x7C9CD2BC GT PUSH2 0x59 JUMPI DUP1 PUSH4 0x7C9CD2BC EQ PUSH2 0x100 JUMPI DUP1 PUSH4 0x8CDE680B EQ PUSH2 0x11C JUMPI DUP1 PUSH4 0x8DA5CB5B EQ PUSH2 0x138 JUMPI DUP1 PUSH4 0xC3AD5ECB EQ PUSH2 0x156 JUMPI PUSH2 0x7B JUMP JUMPDEST DUP1 PUSH4 0x5A1B4A9 EQ PUSH2 0x7F JUMPI DUP1 PUSH4 0x12E7EE1C EQ PUSH2 0xB2 JUMPI DUP1 PUSH4 0x6EB10797 EQ PUSH2 0xE2 JUMPI JUMPDEST PUSH0 DUP1 REVERT JUMPDEST PUSH2 0x99 PUSH1 0x4 DUP1 CALLDATASIZE SUB DUP2 ADD SWAP1 PUSH2 0x94 SWAP2 SWAP1 PUSH2 0x892 JUMP JUMPDEST PUSH2 0x186 JUMP JUMPDEST PUSH1 0x40 MLOAD PUSH2 0xA9 SWAP5 SWAP4 SWAP3 SWAP2 SWAP1 PUSH2 0x95E JUMP JUMPDEST PUSH1 0x40 MLOAD DUP1 SWAP2 SUB SWAP1 RETURN JUMPDEST PUSH2 0xCC PUSH1 0x4 DUP1 CALLDATASIZE SUB DUP2 ADD SWAP1 PUSH2 0xC7 SWAP2 SWAP1 PUSH2 0x9A8 JUMP JUMPDEST PUSH2 0x271 JUMP JUMPDEST PUSH1 0x40 MLOAD PUSH2 0xD9 SWAP2 SWAP1 PUSH2 0xB54 JUMP JUMPDEST PUSH1 0x40 MLOAD DUP1 SWAP2 SUB SWAP1 RETURN JUMPDEST PUSH2 0xEA PUSH2 0x402 JUMP JUMPDEST PUSH1 0x40 MLOAD PUSH2 0xF7 SWAP2 SWAP1 PUSH2 0xB90 JUMP JUMPDEST PUSH1 0x40 MLOAD DUP1 SWAP2 SUB SWAP1 RETURN JUMPDEST PUSH2 0x11A PUSH1 0x4 DUP1 CALLDATASIZE SUB DUP2 ADD SWAP1 PUSH2 0x115 SWAP2 SWAP1 PUSH2 0xCD5 JUMP JUMPDEST PUSH2 0x413 JUMP JUMPDEST STOP JUMPDEST PUSH2 0x136 PUSH1 0x4 DUP1 CALLDATASIZE SUB DUP2 ADD SWAP1 PUSH2 0x131 SWAP2 SWAP1 PUSH2 0xD46 JUMP JUMPDEST PUSH2 0x57A JUMP JUMPDEST STOP JUMPDEST PUSH2 0x140 PUSH2 0x627 JUMP JUMPDEST PUSH1 0x40 MLOAD PUSH2 0x14D SWAP2 SWAP1 PUSH2 0xD71 JUMP JUMPDEST PUSH1 0x40 MLOAD DUP1 SWAP2 SUB SWAP1 RETURN JUMPDEST PUSH2 0x170 PUSH1 0x4 DUP1 CALLDATASIZE SUB DUP2 ADD SWAP1 PUSH2 0x16B SWAP2 SWAP1 PUSH2 0xD8A JUMP JUMPDEST PUSH2 0x64C JUMP JUMPDEST PUSH1 0x40 MLOAD PUSH2 0x17D SWAP2 SWAP1 PUSH2 0xE15 JUMP JUMPDEST PUSH1 0x40 MLOAD DUP1 SWAP2 SUB SWAP1 RETURN JUMPDEST PUSH1 0x1 PUSH1 0x20 MSTORE DUP2 PUSH0 MSTORE PUSH1 0x40 PUSH0 KECCAK256 DUP2 DUP2 SLOAD DUP2 LT PUSH2 0x19F JUMPI PUSH0 DUP1 REVERT JUMPDEST SWAP1 PUSH0 MSTORE PUSH1 0x20 PUSH0 KECCAK256 SWAP1 PUSH1 0x4 MUL ADD PUSH0 SWAP2 POP SWAP2 POP POP DUP1 PUSH0 ADD PUSH0 SWAP1 SLOAD SWAP1 PUSH2 0x100 EXP SWAP1 DIV PUSH20 0xFFFFFFFFFFFFFFFFFFFFFFFFFFFFFFFFFFFFFFFF AND SWAP1 DUP1 PUSH1 0x1 ADD DUP1 SLOAD PUSH2 0x1E4 SWAP1 PUSH2 0xE62 JUMP JUMPDEST DUP1 PUSH1 0x1F ADD PUSH1 0x20 DUP1 SWAP2 DIV MUL PUSH1 0x20 ADD PUSH1 0x40 MLOAD SWAP1 DUP2 ADD PUSH1 0x40 MSTORE DUP1 SWAP3 SWAP2 SWAP1 DUP2 DUP2 MSTORE PUSH1 0x20 ADD DUP3 DUP1 SLOAD PUSH2 0x210 SWAP1 PUSH2 0xE62 JUMP JUMPDEST DUP1 ISZERO PUSH2 0x25B JUMPI DUP1 PUSH1 0x1F LT PUSH2 0x232 JUMPI PUSH2 0x100 DUP1 DUP4 SLOAD DIV MUL DUP4 MSTORE SWAP2 PUSH1 0x20 ADD SWAP2 PUSH2 0x25B JUMP JUMPDEST DUP3 ADD SWAP2 SWAP1 PUSH0 MSTORE PUSH1 0x20 PUSH0 KECCAK256 SWAP1 JUMPDEST DUP2 SLOAD DUP2 MSTORE SWAP1 PUSH1 0x1 ADD SWAP1 PUSH1 0x20 ADD DUP1 DUP4 GT PUSH2 0x23E JUMPI DUP3 SWAP1 SUB PUSH1 0x1F AND DUP3 ADD SWAP2 JUMPDEST POP POP POP POP POP SWAP1 DUP1 PUSH1 0x2 ADD SLOAD SWAP1 DUP1 PUSH1 0x3 ADD SLOAD SWAP1 POP DUP5 JUMP JUMPDEST PUSH1 0x60 PUSH1 0x1 PUSH0 DUP4 PUSH20 0xFFFFFFFFFFFFFFFFFFFFFFFFFFFFFFFFFFFFFFFF AND PUSH20 0xFFFFFFFFFFFFFFFFFFFFFFFFFFFFFFFFFFFFFFFF AND DUP2 MSTORE PUSH1 0x20 ADD SWAP1 DUP2 MSTORE PUSH1 0x20 ADD PUSH0 KECCAK256 DUP1 SLOAD DUP1 PUSH1 0x20 MUL PUSH1 0x20 ADD PUSH1 0x40 MLOAD SWAP1 DUP2 ADD PUSH1 0x40 MSTORE DUP1 SWAP3 SWAP2 SWAP1 DUP2 DUP2 MSTORE PUSH1 0x20 ADD PUSH0 SWAP1 JUMPDEST DUP3 DUP3 LT ISZERO PUSH2 0x3F7 JUMPI DUP4 DUP3 SWAP1 PUSH0 MSTORE PUSH1 0x20 PUSH0 KECCAK256 SWAP1 PUSH1 0x4 MUL ADD PUSH1 0x40 MLOAD DUP1 PUSH1 0x80 ADD PUSH1 0x40 MSTORE SWAP1 DUP2 PUSH0 DUP3 ADD PUSH0 SWAP1 SLOAD SWAP1 PUSH2 0x100 EXP SWAP1 DIV PUSH20 0xFFFFFFFFFFFFFFFFFFFFFFFFFFFFFFFFFFFFFFFF AND PUSH20 0xFFFFFFFFFFFFFFFFFFFFFFFFFFFFFFFFFFFFFFFF AND PUSH20 0xFFFFFFFFFFFFFFFFFFFFFFFFFFFFFFFFFFFFFFFF AND DUP2 MSTORE PUSH1 0x20 ADD PUSH1 0x1 DUP3 ADD DUP1 SLOAD PUSH2 0x354 SWAP1 PUSH2 0xE62 JUMP JUMPDEST DUP1 PUSH1 0x1F ADD PUSH1 0x20 DUP1 SWAP2 DIV MUL PUSH1 0x20 ADD PUSH1 0x40 MLOAD SWAP1 DUP2 ADD PUSH1 0x40 MSTORE DUP1 SWAP3 SWAP2 SWAP1 DUP2 DUP2 MSTORE PUSH1 0x20 ADD DUP3 DUP1 SLOAD PUSH2 0x380 SWAP1 PUSH2 0xE62 JUMP JUMPDEST DUP1 ISZERO PUSH2 0x3CB JUMPI DUP1 PUSH1 0x1F LT PUSH2 0x3A2 JUMPI PUSH2 0x100 DUP1 DUP4 SLOAD DIV MUL DUP4 MSTORE SWAP2 PUSH1 0x20 ADD SWAP2 PUSH2 0x3CB JUMP JUMPDEST DUP3 ADD SWAP2 SWAP1 PUSH0 MSTORE PUSH1 0x20 PUSH0 KECCAK256 SWAP1 JUMPDEST DUP2 SLOAD DUP2 MSTORE SWAP1 PUSH1 0x1 ADD SWAP1 PUSH1 0x20 ADD DUP1 DUP4 GT PUSH2 0x3AE JUMPI DUP3 SWAP1 SUB PUSH1 0x1F AND DUP3 ADD SWAP2 JUMPDEST POP POP POP POP POP DUP2 MSTORE PUSH1 0x20 ADD PUSH1 0x2 DUP3 ADD SLOAD DUP2 MSTORE PUSH1 0x20 ADD PUSH1 0x3 DUP3 ADD SLOAD DUP2 MSTORE POP POP DUP2 MSTORE PUSH1 0x20 ADD SWAP1 PUSH1 0x1 ADD SWAP1 PUSH2 0x2CF JUMP JUMPDEST POP POP POP POP SWAP1 POP SWAP2 SWAP1 POP JUMP JUMPDEST PUSH0 DUP1 SLOAD SWAP1 PUSH2 0x100 EXP SWAP1 DIV PUSH2 0xFFFF AND DUP2 JUMP JUMPDEST PUSH0 DUP1 SLOAD SWAP1 PUSH2 0x100 EXP SWAP1 DIV PUSH2 0xFFFF AND PUSH2 0xFFFF AND DUP2 MLOAD GT ISZERO PUSH2 0x468 JUMPI PUSH1 0x40 MLOAD PUSH32 0x8C379A000000000000000000000000000000000000000000000000000000000 DUP2 MSTORE PUSH1 0x4 ADD PUSH2 0x45F SWAP1 PUSH2 0xEDC JUMP JUMPDEST PUSH1 0x40 MLOAD DUP1 SWAP2 SUB SWAP1 REVERT JUMPDEST PUSH0 PUSH1 0x40 MLOAD DUP1 PUSH1 0x80 ADD PUSH1 0x40 MSTORE DUP1 CALLER PUSH20 0xFFFFFFFFFFFFFFFFFFFFFFFFFFFFFFFFFFFFFFFF AND DUP2 MSTORE PUSH1 0x20 ADD DUP4 DUP2 MSTORE PUSH1 0x20 ADD TIMESTAMP DUP2 MSTORE PUSH1 0x20 ADD PUSH0 DUP2 MSTORE POP SWAP1 POP PUSH1 0x1 PUSH0 CALLER PUSH20 0xFFFFFFFFFFFFFFFFFFFFFFFFFFFFFFFFFFFFFFFF AND PUSH20 0xFFFFFFFFFFFFFFFFFFFFFFFFFFFFFFFFFFFFFFFF AND DUP2 MSTORE PUSH1 0x20 ADD SWAP1 DUP2 MSTORE PUSH1 0x20 ADD PUSH0 KECCAK256 DUP2 SWAP1 DUP1 PUSH1 0x1 DUP2 SLOAD ADD DUP1 DUP3 SSTORE DUP1 SWAP2 POP POP PUSH1 0x1 SWAP1 SUB SWAP1 PUSH0 MSTORE PUSH1 0x20 PUSH0 KECCAK256 SWAP1 PUSH1 0x4 MUL ADD PUSH0 SWAP1 SWAP2 SWAP1 SWAP2 SWAP1 SWAP2 POP PUSH0 DUP3 ADD MLOAD DUP2 PUSH0 ADD PUSH0 PUSH2 0x100 EXP DUP2 SLOAD DUP2 PUSH20 0xFFFFFFFFFFFFFFFFFFFFFFFFFFFFFFFFFFFFFFFF MUL NOT AND SWAP1 DUP4 PUSH20 0xFFFFFFFFFFFFFFFFFFFFFFFFFFFFFFFFFFFFFFFF AND MUL OR SWAP1 SSTORE POP PUSH1 0x20 DUP3 ADD MLOAD DUP2 PUSH1 0x1 ADD SWAP1 DUP2 PUSH2 0x55F SWAP2 SWAP1 PUSH2 0x1097 JUMP JUMPDEST POP PUSH1 0x40 DUP3 ADD MLOAD DUP2 PUSH1 0x2 ADD SSTORE PUSH1 0x60 DUP3 ADD MLOAD DUP2 PUSH1 0x3 ADD SSTORE POP POP POP POP JUMP JUMPDEST PUSH1 0x2 PUSH0 SWAP1 SLOAD SWAP1 PUSH2 0x100 EXP SWAP1 DIV PUSH20 0xFFFFFFFFFFFFFFFFFFFFFFFFFFFFFFFFFFFFFFFF AND PUSH20 0xFFFFFFFFFFFFFFFFFFFFFFFFFFFFFFFFFFFFFFFF AND CALLER PUSH20 0xFFFFFFFFFFFFFFFFFFFFFFFFFFFFFFFFFFFFFFFF AND EQ PUSH2 0x609 JUMPI PUSH1 0x40 MLOAD PUSH32 0x8C379A000000000000000000000000000000000000000000000000000000000 DUP2 MSTORE PUSH1 0x4 ADD PUSH2 0x600 SWAP1 PUSH2 0x11B0 JUMP JUMPDEST PUSH1 0x40 MLOAD DUP1 SWAP2 SUB SWAP1 REVERT JUMPDEST DUP1 PUSH0 DUP1 PUSH2 0x100 EXP DUP2 SLOAD DUP2 PUSH2 0xFFFF MUL NOT AND SWAP1 DUP4 PUSH2 0xFFFF AND MUL OR SWAP1 SSTORE POP POP JUMP JUMPDEST PUSH1 0x2 PUSH0 SWAP1 SLOAD SWAP1 PUSH2 0x100 EXP SWAP1 DIV PUSH20 0xFFFFFFFFFFFFFFFFFFFFFFFFFFFFFFFFFFFFFFFF AND DUP2 JUMP JUMPDEST PUSH2 0x654 PUSH2 0x7B9 JUMP JUMPDEST PUSH1 0x1 PUSH0 CALLER PUSH20 0xFFFFFFFFFFFFFFFFFFFFFFFFFFFFFFFFFFFFFFFF AND PUSH20 0xFFFFFFFFFFFFFFFFFFFFFFFFFFFFFFFFFFFFFFFF AND DUP2 MSTORE PUSH1 0x20 ADD SWAP1 DUP2 MSTORE PUSH1 0x20 ADD PUSH0 KECCAK256 DUP3 DUP2 SLOAD DUP2 LT PUSH2 0x6A3 JUMPI PUSH2 0x6A2 PUSH2 0x11CE JUMP JUMPDEST JUMPDEST SWAP1 PUSH0 MSTORE PUSH1 0x20 PUSH0 KECCAK256 SWAP1 PUSH1 0x4 MUL ADD PUSH1 0x40 MLOAD DUP1 PUSH1 0x80 ADD PUSH1 0x40 MSTORE SWAP1 DUP2 PUSH0 DUP3 ADD PUSH0 SWAP1 SLOAD SWAP1 PUSH2 0x100 EXP SWAP1 DIV PUSH20 0xFFFFFFFFFFFFFFFFFFFFFFFFFFFFFFFFFFFFFFFF AND PUSH20 0xFFFFFFFFFFFFFFFFFFFFFFFFFFFFFFFFFFFFFFFF AND PUSH20 0xFFFFFFFFFFFFFFFFFFFFFFFFFFFFFFFFFFFFFFFF AND DUP2 MSTORE PUSH1 0x20 ADD PUSH1 0x1 DUP3 ADD DUP1 SLOAD PUSH2 0x71E SWAP1 PUSH2 0xE62 JUMP JUMPDEST DUP1 PUSH1 0x1F ADD PUSH1 0x20 DUP1 SWAP2 DIV MUL PUSH1 0x20 ADD PUSH1 0x40 MLOAD SWAP1 DUP2 ADD PUSH1 0x40 MSTORE DUP1 SWAP3 SWAP2 SWAP1 DUP2 DUP2 MSTORE PUSH1 0x20 ADD DUP3 DUP1 SLOAD PUSH2 0x74A SWAP1 PUSH2 0xE62 JUMP JUMPDEST DUP1 ISZERO PUSH2 0x795 JUMPI DUP1 PUSH1 0x1F LT PUSH2 0x76C JUMPI PUSH2 0x100 DUP1 DUP4 SLOAD DIV MUL DUP4 MSTORE SWAP2 PUSH1 0x20 ADD SWAP2 PUSH2 0x795 JUMP JUMPDEST DUP3 ADD SWAP2 SWAP1 PUSH0 MSTORE PUSH1 0x20 PUSH0 KECCAK256 SWAP1 JUMPDEST DUP2 SLOAD DUP2 MSTORE SWAP1 PUSH1 0x1 ADD SWAP1 PUSH1 0x20 ADD DUP1 DUP4 GT PUSH2 0x778 JUMPI DUP3 SWAP1 SUB PUSH1 0x1F AND DUP3 ADD SWAP2 JUMPDEST POP POP POP POP POP DUP2 MSTORE PUSH1 0x20 ADD PUSH1 0x2 DUP3 ADD SLOAD DUP2 MSTORE PUSH1 0x20 ADD PUSH1 0x3 DUP3 ADD SLOAD DUP2 MSTORE POP POP SWAP1 POP SWAP2 SWAP1 POP JUMP JUMPDEST PUSH1 0x40 MLOAD DUP1 PUSH1 0x80 ADD PUSH1 0x40 MSTORE DUP1 PUSH0 PUSH20 0xFFFFFFFFFFFFFFFFFFFFFFFFFFFFFFFFFFFFFFFF AND DUP2 MSTORE PUSH1 0x20 ADD PUSH1 0x60 DUP2 MSTORE PUSH1 0x20 ADD PUSH0 DUP2 MSTORE PUSH1 0x20 ADD PUSH0 DUP2 MSTORE POP SWAP1 JUMP JUMPDEST PUSH0 PUSH1 0x40 MLOAD SWAP1 POP SWAP1 JUMP JUMPDEST PUSH0 DUP1 REVERT JUMPDEST PUSH0 DUP1 REVERT JUMPDEST PUSH0 PUSH20 0xFFFFFFFFFFFFFFFFFFFFFFFFFFFFFFFFFFFFFFFF DUP3 AND SWAP1 POP SWAP2 SWAP1 POP JUMP JUMPDEST PUSH0 PUSH2 0x82E DUP3 PUSH2 0x805 JUMP JUMPDEST SWAP1 POP SWAP2 SWAP1 POP JUMP JUMPDEST PUSH2 0x83E DUP2 PUSH2 0x824 JUMP JUMPDEST DUP2 EQ PUSH2 0x848 JUMPI PUSH0 DUP1 REVERT JUMPDEST POP JUMP JUMPDEST PUSH0 DUP2 CALLDATALOAD SWAP1 POP PUSH2 0x859 DUP2 PUSH2 0x835 JUMP JUMPDEST SWAP3 SWAP2 POP POP JUMP JUMPDEST PUSH0 DUP2 SWAP1 POP SWAP2 SWAP1 POP JUMP JUMPDEST PUSH2 0x871 DUP2 PUSH2 0x85F JUMP JUMPDEST DUP2 EQ PUSH2 0x87B JUMPI PUSH0 DUP1 REVERT JUMPDEST POP JUMP JUMPDEST PUSH0 DUP2 CALLDATALOAD SWAP1 POP PUSH2 0x88C DUP2 PUSH2 0x868 JUMP JUMPDEST SWAP3 SWAP2 POP POP JUMP JUMPDEST PUSH0 DUP1 PUSH1 0x40 DUP4 DUP6 SUB SLT ISZERO PUSH2 0x8A8 JUMPI PUSH2 0x8A7 PUSH2 0x7FD JUMP JUMPDEST JUMPDEST PUSH0 PUSH2 0x8B5 DUP6 DUP3 DUP7 ADD PUSH2 0x84B JUMP JUMPDEST SWAP3 POP POP PUSH1 0x20 PUSH2 0x8C6 DUP6 DUP3 DUP7 ADD PUSH2 0x87E JUMP JUMPDEST SWAP2 POP POP SWAP3 POP SWAP3 SWAP1 POP JUMP JUMPDEST PUSH2 0x8D9 DUP2 PUSH2 0x824 JUMP JUMPDEST DUP3 MSTORE POP POP JUMP JUMPDEST PUSH0 DUP2 MLOAD SWAP1 POP SWAP2 SWAP1 POP JUMP JUMPDEST PUSH0 DUP3 DUP3 MSTORE PUSH1 0x20 DUP3 ADD SWAP1 POP SWAP3 SWAP2 POP POP JUMP JUMPDEST DUP3 DUP2 DUP4 MCOPY PUSH0 DUP4 DUP4 ADD MSTORE POP POP POP JUMP JUMPDEST PUSH0 PUSH1 0x1F NOT PUSH1 0x1F DUP4 ADD AND SWAP1 POP SWAP2 SWAP1 POP JUMP JUMPDEST PUSH0 PUSH2 0x921 DUP3 PUSH2 0x8DF JUMP JUMPDEST PUSH2 0x92B DUP2 DUP6 PUSH2 0x8E9 JUMP JUMPDEST SWAP4 POP PUSH2 0x93B DUP2 DUP6 PUSH1 0x20 DUP7 ADD PUSH2 0x8F9 JUMP JUMPDEST PUSH2 0x944 DUP2 PUSH2 0x907 JUMP JUMPDEST DUP5 ADD SWAP2 POP POP SWAP3 SWAP2 POP POP JUMP JUMPDEST PUSH2 0x958 DUP2 PUSH2 0x85F JUMP JUMPDEST DUP3 MSTORE POP POP JUMP JUMPDEST PUSH0 PUSH1 0x80 DUP3 ADD SWAP1 POP PUSH2 0x971 PUSH0 DUP4 ADD DUP8 PUSH2 0x8D0 JUMP JUMPDEST DUP2 DUP2 SUB PUSH1 0x20 DUP4 ADD MSTORE PUSH2 0x983 DUP2 DUP7 PUSH2 0x917 JUMP JUMPDEST SWAP1 POP PUSH2 0x992 PUSH1 0x40 DUP4 ADD DUP6 PUSH2 0x94F JUMP JUMPDEST PUSH2 0x99F PUSH1 0x60 DUP4 ADD DUP5 PUSH2 0x94F JUMP JUMPDEST SWAP6 SWAP5 POP POP POP POP POP JUMP JUMPDEST PUSH0 PUSH1 0x20 DUP3 DUP5 SUB SLT ISZERO PUSH2 0x9BD JUMPI PUSH2 0x9BC PUSH2 0x7FD JUMP JUMPDEST JUMPDEST PUSH0 PUSH2 0x9CA DUP5 DUP3 DUP6 ADD PUSH2 0x84B JUMP JUMPDEST SWAP2 POP POP SWAP3 SWAP2 POP POP JUMP JUMPDEST PUSH0 DUP2 MLOAD SWAP1 POP SWAP2 SWAP1 POP JUMP JUMPDEST PUSH0 DUP3 DUP3 MSTORE PUSH1 0x20 DUP3 ADD SWAP1 POP SWAP3 SWAP2 POP POP JUMP JUMPDEST PUSH0 DUP2 SWAP1 POP PUSH1 0x20 DUP3 ADD SWAP1 POP SWAP2 SWAP1 POP JUMP JUMPDEST PUSH2 0xA05 DUP2 PUSH2 0x824 JUMP JUMPDEST DUP3 MSTORE POP POP JUMP JUMPDEST PUSH0 DUP3 DUP3 MSTORE PUSH1 0x20 DUP3 ADD SWAP1 POP SWAP3 SWAP2 POP POP JUMP JUMPDEST PUSH0 PUSH2 0xA25 DUP3 PUSH2 0x8DF JUMP JUMPDEST PUSH2 0xA2F DUP2 DUP6 PUSH2 0xA0B JUMP JUMPDEST SWAP4 POP PUSH2 0xA3F DUP2 DUP6 PUSH1 0x20 DUP7 ADD PUSH2 0x8F9 JUMP JUMPDEST PUSH2 0xA48 DUP2 PUSH2 0x907 JUMP JUMPDEST DUP5 ADD SWAP2 POP POP SWAP3 SWAP2 POP POP JUMP JUMPDEST PUSH2 0xA5C DUP2 PUSH2 0x85F JUMP JUMPDEST DUP3 MSTORE POP POP JUMP JUMPDEST PUSH0 PUSH1 0x80 DUP4 ADD PUSH0 DUP4 ADD MLOAD PUSH2 0xA77 PUSH0 DUP7 ADD DUP3 PUSH2 0x9FC JUMP JUMPDEST POP PUSH1 0x20 DUP4 ADD MLOAD DUP5 DUP3 SUB PUSH1 0x20 DUP7 ADD MSTORE PUSH2 0xA8F DUP3 DUP3 PUSH2 0xA1B JUMP JUMPDEST SWAP2 POP POP PUSH1 0x40 DUP4 ADD MLOAD PUSH2 0xAA4 PUSH1 0x40 DUP7 ADD DUP3 PUSH2 0xA53 JUMP JUMPDEST POP PUSH1 0x60 DUP4 ADD MLOAD PUSH2 0xAB7 PUSH1 0x60 DUP7 ADD DUP3 PUSH2 0xA53 JUMP JUMPDEST POP DUP1 SWAP2 POP POP SWAP3 SWAP2 POP POP JUMP JUMPDEST PUSH0 PUSH2 0xACD DUP4 DUP4 PUSH2 0xA62 JUMP JUMPDEST SWAP1 POP SWAP3 SWAP2 POP POP JUMP JUMPDEST PUSH0 PUSH1 0x20 DUP3 ADD SWAP1 POP SWAP2 SWAP1 POP JUMP JUMPDEST PUSH0 PUSH2 0xAEB DUP3 PUSH2 0x9D3 JUMP JUMPDEST PUSH2 0xAF5 DUP2 DUP6 PUSH2 0x9DD JUMP JUMPDEST SWAP4 POP DUP4 PUSH1 0x20 DUP3 MUL DUP6 ADD PUSH2 0xB07 DUP6 PUSH2 0x9ED JUMP JUMPDEST DUP1 PUSH0 JUMPDEST DUP6 DUP2 LT ISZERO PUSH2 0xB42 JUMPI DUP5 DUP5 SUB DUP10 MSTORE DUP2 MLOAD PUSH2 0xB23 DUP6 DUP3 PUSH2 0xAC2 JUMP JUMPDEST SWAP5 POP PUSH2 0xB2E DUP4 PUSH2 0xAD5 JUMP JUMPDEST SWAP3 POP PUSH1 0x20 DUP11 ADD SWAP10 POP POP PUSH1 0x1 DUP2 ADD SWAP1 POP PUSH2 0xB0A JUMP JUMPDEST POP DUP3 SWAP8 POP DUP8 SWAP6 POP POP POP POP POP POP SWAP3 SWAP2 POP POP JUMP JUMPDEST PUSH0 PUSH1 0x20 DUP3 ADD SWAP1 POP DUP2 DUP2 SUB PUSH0 DUP4 ADD MSTORE PUSH2 0xB6C DUP2 DUP5 PUSH2 0xAE1 JUMP JUMPDEST SWAP1 POP SWAP3 SWAP2 POP POP JUMP JUMPDEST PUSH0 PUSH2 0xFFFF DUP3 AND SWAP1 POP SWAP2 SWAP1 POP JUMP JUMPDEST PUSH2 0xB8A DUP2 PUSH2 0xB74 JUMP JUMPDEST DUP3 MSTORE POP POP JUMP JUMPDEST PUSH0 PUSH1 0x20 DUP3 ADD SWAP1 POP PUSH2 0xBA3 PUSH0 DUP4 ADD DUP5 PUSH2 0xB81 JUMP JUMPDEST SWAP3 SWAP2 POP POP JUMP JUMPDEST PUSH0 DUP1 REVERT JUMPDEST PUSH0 DUP1 REVERT JUMPDEST PUSH32 0x4E487B7100000000000000000000000000000000000000000000000000000000 PUSH0 MSTORE PUSH1 0x41 PUSH1 0x4 MSTORE PUSH1 0x24 PUSH0 REVERT JUMPDEST PUSH2 0xBE7 DUP3 PUSH2 0x907 JUMP JUMPDEST DUP2 ADD DUP2 DUP2 LT PUSH8 0xFFFFFFFFFFFFFFFF DUP3 GT OR ISZERO PUSH2 0xC06 JUMPI PUSH2 0xC05 PUSH2 0xBB1 JUMP JUMPDEST JUMPDEST DUP1 PUSH1 0x40 MSTORE POP POP POP JUMP JUMPDEST PUSH0 PUSH2 0xC18 PUSH2 0x7F4 JUMP JUMPDEST SWAP1 POP PUSH2 0xC24 DUP3 DUP3 PUSH2 0xBDE JUMP JUMPDEST SWAP2 SWAP1 POP JUMP JUMPDEST PUSH0 PUSH8 0xFFFFFFFFFFFFFFFF DUP3 GT ISZERO PUSH2 0xC43 JUMPI PUSH2 0xC42 PUSH2 0xBB1 JUMP JUMPDEST JUMPDEST PUSH2 0xC4C DUP3 PUSH2 0x907 JUMP JUMPDEST SWAP1 POP PUSH1 0x20 DUP2 ADD SWAP1 POP SWAP2 SWAP1 POP JUMP JUMPDEST DUP3 DUP2 DUP4 CALLDATACOPY PUSH0 DUP4 DUP4 ADD MSTORE POP POP POP JUMP JUMPDEST PUSH0 PUSH2 0xC79 PUSH2 0xC74 DUP5 PUSH2 0xC29 JUMP JUMPDEST PUSH2 0xC0F JUMP JUMPDEST SWAP1 POP DUP3 DUP2 MSTORE PUSH1 0x20 DUP2 ADD DUP5 DUP5 DUP5 ADD GT ISZERO PUSH2 0xC95 JUMPI PUSH2 0xC94 PUSH2 0xBAD JUMP JUMPDEST JUMPDEST PUSH2 0xCA0 DUP5 DUP3 DUP6 PUSH2 0xC59 JUMP JUMPDEST POP SWAP4 SWAP3 POP POP POP JUMP JUMPDEST PUSH0 DUP3 PUSH1 0x1F DUP4 ADD SLT PUSH2 0xCBC JUMPI PUSH2 0xCBB PUSH2 0xBA9 JUMP JUMPDEST JUMPDEST DUP2 CALLDATALOAD PUSH2 0xCCC DUP5 DUP3 PUSH1 0x20 DUP7 ADD PUSH2 0xC67 JUMP JUMPDEST SWAP2 POP POP SWAP3 SWAP2 POP POP JUMP JUMPDEST PUSH0 PUSH1 0x20 DUP3 DUP5 SUB SLT ISZERO PUSH2 0xCEA JUMPI PUSH2 0xCE9 PUSH2 0x7FD JUMP JUMPDEST JUMPDEST PUSH0 DUP3 ADD CALLDATALOAD PUSH8 0xFFFFFFFFFFFFFFFF DUP2 GT ISZERO PUSH2 0xD07 JUMPI PUSH2 0xD06 PUSH2 0x801 JUMP JUMPDEST JUMPDEST PUSH2 0xD13 DUP5 DUP3 DUP6 ADD PUSH2 0xCA8 JUMP JUMPDEST SWAP2 POP POP SWAP3 SWAP2 POP POP JUMP JUMPDEST PUSH2 0xD25 DUP2 PUSH2 0xB74 JUMP JUMPDEST DUP2 EQ PUSH2 0xD2F JUMPI PUSH0 DUP1 REVERT JUMPDEST POP JUMP JUMPDEST PUSH0 DUP2 CALLDATALOAD SWAP1 POP PUSH2 0xD40 DUP2 PUSH2 0xD1C JUMP JUMPDEST SWAP3 SWAP2 POP POP JUMP JUMPDEST PUSH0 PUSH1 0x20 DUP3 DUP5 SUB SLT ISZERO PUSH2 0xD5B JUMPI PUSH2 0xD5A PUSH2 0x7FD JUMP JUMPDEST JUMPDEST PUSH0 PUSH2 0xD68 DUP5 DUP3 DUP6 ADD PUSH2 0xD32 JUMP JUMPDEST SWAP2 POP POP SWAP3 SWAP2 POP POP JUMP JUMPDEST PUSH0 PUSH1 0x20 DUP3 ADD SWAP1 POP PUSH2 0xD84 PUSH0 DUP4 ADD DUP5 PUSH2 0x8D0 JUMP JUMPDEST SWAP3 SWAP2 POP POP JUMP JUMPDEST PUSH0 PUSH1 0x20 DUP3 DUP5 SUB SLT ISZERO PUSH2 0xD9F JUMPI PUSH2 0xD9E PUSH2 0x7FD JUMP JUMPDEST JUMPDEST PUSH0 PUSH2 0xDAC DUP5 DUP3 DUP6 ADD PUSH2 0x87E JUMP JUMPDEST SWAP2 POP POP SWAP3 SWAP2 POP POP JUMP JUMPDEST PUSH0 PUSH1 0x80 DUP4 ADD PUSH0 DUP4 ADD MLOAD PUSH2 0xDCA PUSH0 DUP7 ADD DUP3 PUSH2 0x9FC JUMP JUMPDEST POP PUSH1 0x20 DUP4 ADD MLOAD DUP5 DUP3 SUB PUSH1 0x20 DUP7 ADD MSTORE PUSH2 0xDE2 DUP3 DUP3 PUSH2 0xA1B JUMP JUMPDEST SWAP2 POP POP PUSH1 0x40 DUP4 ADD MLOAD PUSH2 0xDF7 PUSH1 0x40 DUP7 ADD DUP3 PUSH2 0xA53 JUMP JUMPDEST POP PUSH1 0x60 DUP4 ADD MLOAD PUSH2 0xE0A PUSH1 0x60 DUP7 ADD DUP3 PUSH2 0xA53 JUMP JUMPDEST POP DUP1 SWAP2 POP POP SWAP3 SWAP2 POP POP JUMP JUMPDEST PUSH0 PUSH1 0x20 DUP3 ADD SWAP1 POP DUP2 DUP2 SUB PUSH0 DUP4 ADD MSTORE PUSH2 0xE2D DUP2 DUP5 PUSH2 0xDB5 JUMP JUMPDEST SWAP1 POP SWAP3 SWAP2 POP POP JUMP JUMPDEST PUSH32 0x4E487B7100000000000000000000000000000000000000000000000000000000 PUSH0 MSTORE PUSH1 0x22 PUSH1 0x4 MSTORE PUSH1 0x24 PUSH0 REVERT JUMPDEST PUSH0 PUSH1 0x2 DUP3 DIV SWAP1 POP PUSH1 0x1 DUP3 AND DUP1 PUSH2 0xE79 JUMPI PUSH1 0x7F DUP3 AND SWAP2 POP JUMPDEST PUSH1 0x20 DUP3 LT DUP2 SUB PUSH2 0xE8C JUMPI PUSH2 0xE8B PUSH2 0xE35 JUMP JUMPDEST JUMPDEST POP SWAP2 SWAP1 POP JUMP JUMPDEST PUSH32 0x547765657420697320746F6F206C6F6E672062726F2100000000000000000000 PUSH0 DUP3 ADD MSTORE POP JUMP JUMPDEST PUSH0 PUSH2 0xEC6 PUSH1 0x16 DUP4 PUSH2 0x8E9 JUMP JUMPDEST SWAP2 POP PUSH2 0xED1 DUP3 PUSH2 0xE92 JUMP JUMPDEST PUSH1 0x20 DUP3 ADD SWAP1 POP SWAP2 SWAP1 POP JUMP JUMPDEST PUSH0 PUSH1 0x20 DUP3 ADD SWAP1 POP DUP2 DUP2 SUB PUSH0 DUP4 ADD MSTORE PUSH2 0xEF3 DUP2 PUSH2 0xEBA JUMP JUMPDEST SWAP1 POP SWAP2 SWAP1 POP JUMP JUMPDEST PUSH0 DUP2 SWAP1 POP DUP2 PUSH0 MSTORE PUSH1 0x20 PUSH0 KECCAK256 SWAP1 POP SWAP2 SWAP1 POP JUMP JUMPDEST PUSH0 PUSH1 0x20 PUSH1 0x1F DUP4 ADD DIV SWAP1 POP SWAP2 SWAP1 POP JUMP JUMPDEST PUSH0 DUP3 DUP3 SHL SWAP1 POP SWAP3 SWAP2 POP POP JUMP JUMPDEST PUSH0 PUSH1 0x8 DUP4 MUL PUSH2 0xF56 PUSH32 0xFFFFFFFFFFFFFFFFFFFFFFFFFFFFFFFFFFFFFFFFFFFFFFFFFFFFFFFFFFFFFFFF DUP3 PUSH2 0xF1B JUMP JUMPDEST PUSH2 0xF60 DUP7 DUP4 PUSH2 0xF1B JUMP JUMPDEST SWAP6 POP DUP1 NOT DUP5 AND SWAP4 POP DUP1 DUP7 AND DUP5 OR SWAP3 POP POP POP SWAP4 SWAP3 POP POP POP JUMP JUMPDEST PUSH0 DUP2 SWAP1 POP SWAP2 SWAP1 POP JUMP JUMPDEST PUSH0 PUSH2 0xF9B PUSH2 0xF96 PUSH2 0xF91 DUP5 PUSH2 0x85F JUMP JUMPDEST PUSH2 0xF78 JUMP JUMPDEST PUSH2 0x85F JUMP JUMPDEST SWAP1 POP SWAP2 SWAP1 POP JUMP JUMPDEST PUSH0 DUP2 SWAP1 POP SWAP2 SWAP1 POP JUMP JUMPDEST PUSH2 0xFB4 DUP4 PUSH2 0xF81 JUMP JUMPDEST PUSH2 0xFC8 PUSH2 0xFC0 DUP3 PUSH2 0xFA2 JUMP JUMPDEST DUP5 DUP5 SLOAD PUSH2 0xF27 JUMP JUMPDEST DUP3 SSTORE POP POP POP POP JUMP JUMPDEST PUSH0 SWAP1 JUMP JUMPDEST PUSH2 0xFDC PUSH2 0xFD0 JUMP JUMPDEST PUSH2 0xFE7 DUP2 DUP5 DUP5 PUSH2 0xFAB JUMP JUMPDEST POP POP POP JUMP JUMPDEST JUMPDEST DUP2 DUP2 LT ISZERO PUSH2 0x100A JUMPI PUSH2 0xFFF PUSH0 DUP3 PUSH2 0xFD4 JUMP JUMPDEST PUSH1 0x1 DUP2 ADD SWAP1 POP PUSH2 0xFED JUMP JUMPDEST POP POP JUMP JUMPDEST PUSH1 0x1F DUP3 GT ISZERO PUSH2 0x104F JUMPI PUSH2 0x1020 DUP2 PUSH2 0xEFA JUMP JUMPDEST PUSH2 0x1029 DUP5 PUSH2 0xF0C JUMP JUMPDEST DUP2 ADD PUSH1 0x20 DUP6 LT ISZERO PUSH2 0x1038 JUMPI DUP2 SWAP1 POP JUMPDEST PUSH2 0x104C PUSH2 0x1044 DUP6 PUSH2 0xF0C JUMP JUMPDEST DUP4 ADD DUP3 PUSH2 0xFEC JUMP JUMPDEST POP POP JUMPDEST POP POP POP JUMP JUMPDEST PUSH0 DUP3 DUP3 SHR SWAP1 POP SWAP3 SWAP2 POP POP JUMP JUMPDEST PUSH0 PUSH2 0x106F PUSH0 NOT DUP5 PUSH1 0x8 MUL PUSH2 0x1054 JUMP JUMPDEST NOT DUP1 DUP4 AND SWAP2 POP POP SWAP3 SWAP2 POP POP JUMP JUMPDEST PUSH0 PUSH2 0x1087 DUP4 DUP4 PUSH2 0x1060 JUMP JUMPDEST SWAP2 POP DUP3 PUSH1 0x2 MUL DUP3 OR SWAP1 POP SWAP3 SWAP2 POP POP JUMP JUMPDEST PUSH2 0x10A0 DUP3 PUSH2 0x8DF JUMP JUMPDEST PUSH8 0xFFFFFFFFFFFFFFFF DUP2 GT ISZERO PUSH2 0x10B9 JUMPI PUSH2 0x10B8 PUSH2 0xBB1 JUMP JUMPDEST JUMPDEST PUSH2 0x10C3 DUP3 SLOAD PUSH2 0xE62 JUMP JUMPDEST PUSH2 0x10CE DUP3 DUP3 DUP6 PUSH2 0x100E JUMP JUMPDEST PUSH0 PUSH1 0x20 SWAP1 POP PUSH1 0x1F DUP4 GT PUSH1 0x1 DUP2 EQ PUSH2 0x10FF JUMPI PUSH0 DUP5 ISZERO PUSH2 0x10ED JUMPI DUP3 DUP8 ADD MLOAD SWAP1 POP JUMPDEST PUSH2 0x10F7 DUP6 DUP3 PUSH2 0x107C JUMP JUMPDEST DUP7 SSTORE POP PUSH2 0x115E JUMP JUMPDEST PUSH1 0x1F NOT DUP5 AND PUSH2 0x110D DUP7 PUSH2 0xEFA JUMP JUMPDEST PUSH0 JUMPDEST DUP3 DUP2 LT ISZERO PUSH2 0x1134 JUMPI DUP5 DUP10 ADD MLOAD DUP3 SSTORE PUSH1 0x1 DUP3 ADD SWAP2 POP PUSH1 0x20 DUP6 ADD SWAP5 POP PUSH1 0x20 DUP2 ADD SWAP1 POP PUSH2 0x110F JUMP JUMPDEST DUP7 DUP4 LT ISZERO PUSH2 0x1151 JUMPI DUP5 DUP10 ADD MLOAD PUSH2 0x114D PUSH1 0x1F DUP10 AND DUP3 PUSH2 0x1060 JUMP JUMPDEST DUP4 SSTORE POP JUMPDEST PUSH1 0x1 PUSH1 0x2 DUP9 MUL ADD DUP9 SSTORE POP POP POP JUMPDEST POP POP POP POP POP POP JUMP JUMPDEST PUSH32 0x43616E206F6E6C792062652075736564206279206F776E657221000000000000 PUSH0 DUP3 ADD MSTORE POP JUMP JUMPDEST PUSH0 PUSH2 0x119A PUSH1 0x1A DUP4 PUSH2 0x8E9 JUMP JUMPDEST SWAP2 POP PUSH2 0x11A5 DUP3 PUSH2 0x1166 JUMP JUMPDEST PUSH1 0x20 DUP3 ADD SWAP1 POP SWAP2 SWAP1 POP JUMP JUMPDEST PUSH0 PUSH1 0x20 DUP3 ADD SWAP1 POP DUP2 DUP2 SUB PUSH0 DUP4 ADD MSTORE PUSH2 0x11C7 DUP2 PUSH2 0x118E JUMP JUMPDEST SWAP1 POP SWAP2 SWAP1 POP JUMP JUMPDEST PUSH32 0x4E487B7100000000000000000000000000000000000000000000000000000000 PUSH0 MSTORE PUSH1 0x32 PUSH1 0x4 MSTORE PUSH1 0x24 PUSH0 REVERT INVALID LOG2 PUSH5 0x6970667358 0x22 SLT KECCAK256 SWAP9 PUSH32 0x6FD1FE42E7295493717C6C5BE9C3CE0BFDCFB41EEEFB9282B418FC2D27746473 PUSH16 0x6C634300081A00330000000000000000 "
				},
				"gasEstimates": {
					"creation": {
						"codeDepositCost": "931400",
						"executionCost": "49497",
						"totalCost": "980897"
					},
					"external": {
						"MAX_TWEET_LENGTH()": "2508",
						"changeTweetLenght(uint16)": "26864",
						"createTweet(string)": "infinite",
						"getAllTweets(address)": "infinite",
						"getTweet(uint256)": "infinite",
						"owner()": "2552",
						"tweets(address,uint256)": "infinite"
					}
				},
				"methodIdentifiers": {
					"MAX_TWEET_LENGTH()": "6eb10797",
					"changeTweetLenght(uint16)": "8cde680b",
					"createTweet(string)": "7c9cd2bc",
					"getAllTweets(address)": "12e7ee1c",
					"getTweet(uint256)": "c3ad5ecb",
					"owner()": "8da5cb5b",
					"tweets(address,uint256)": "05a1b4a9"
				}
			},
			"storageLayout": {
				"storage": [
					{
						"astId": 4,
						"contract": "contracts/Twitter-Mod.sol:Twitter",
						"label": "MAX_TWEET_LENGTH",
						"offset": 0,
						"slot": "0",
						"type": "t_uint16"
					},
					{
						"astId": 19,
						"contract": "contracts/Twitter-Mod.sol:Twitter",
						"label": "tweets",
						"offset": 0,
						"slot": "1",
						"type": "t_mapping(t_address,t_array(t_struct(Tweet)13_storage)dyn_storage)"
					},
					{
						"astId": 21,
						"contract": "contracts/Twitter-Mod.sol:Twitter",
						"label": "owner",
						"offset": 0,
						"slot": "2",
						"type": "t_address"
					}
				],
				"types": {
					"t_address": {
						"encoding": "inplace",
						"label": "address",
						"numberOfBytes": "20"
					},
					"t_array(t_struct(Tweet)13_storage)dyn_storage": {
						"base": "t_struct(Tweet)13_storage",
						"encoding": "dynamic_array",
						"label": "struct Twitter.Tweet[]",
						"numberOfBytes": "32"
					},
					"t_mapping(t_address,t_array(t_struct(Tweet)13_storage)dyn_storage)": {
						"encoding": "mapping",
						"key": "t_address",
						"label": "mapping(address => struct Twitter.Tweet[])",
						"numberOfBytes": "32",
						"value": "t_array(t_struct(Tweet)13_storage)dyn_storage"
					},
					"t_string_storage": {
						"encoding": "bytes",
						"label": "string",
						"numberOfBytes": "32"
					},
					"t_struct(Tweet)13_storage": {
						"encoding": "inplace",
						"label": "struct Twitter.Tweet",
						"members": [
							{
								"astId": 6,
								"contract": "contracts/Twitter-Mod.sol:Twitter",
								"label": "author",
								"offset": 0,
								"slot": "0",
								"type": "t_address"
							},
							{
								"astId": 8,
								"contract": "contracts/Twitter-Mod.sol:Twitter",
								"label": "content",
								"offset": 0,
								"slot": "1",
								"type": "t_string_storage"
							},
							{
								"astId": 10,
								"contract": "contracts/Twitter-Mod.sol:Twitter",
								"label": "timestamp",
								"offset": 0,
								"slot": "2",
								"type": "t_uint256"
							},
							{
								"astId": 12,
								"contract": "contracts/Twitter-Mod.sol:Twitter",
								"label": "likes",
								"offset": 0,
								"slot": "3",
								"type": "t_uint256"
							}
						],
						"numberOfBytes": "128"
					},
					"t_uint16": {
						"encoding": "inplace",
						"label": "uint16",
						"numberOfBytes": "2"
					},
					"t_uint256": {
						"encoding": "inplace",
						"label": "uint256",
						"numberOfBytes": "32"
					}
				}
			},
			"userdoc": {
				"kind": "user",
				"methods": {},
				"version": 1
			}
		}
	}
}